{
  "_format": "hh-sol-artifact-1",
  "contractName": "SelfProtocolMock",
  "sourceName": "contracts/mocks/SelfProtocolMock.sol",
  "abi": [
    {
      "inputs": [],
      "stateMutability": "nonpayable",
      "type": "constructor"
    },
    {
      "inputs": [
        {
          "internalType": "address",
          "name": "owner",
          "type": "address"
        }
      ],
      "name": "OwnableInvalidOwner",
      "type": "error"
    },
    {
      "inputs": [
        {
          "internalType": "address",
          "name": "account",
          "type": "address"
        }
      ],
      "name": "OwnableUnauthorizedAccount",
      "type": "error"
    },
    {
      "anonymous": false,
      "inputs": [
        {
          "indexed": true,
          "internalType": "address",
          "name": "previousOwner",
          "type": "address"
        },
        {
          "indexed": true,
          "internalType": "address",
          "name": "newOwner",
          "type": "address"
        }
      ],
      "name": "OwnershipTransferred",
      "type": "event"
    },
    {
      "inputs": [
        {
          "internalType": "address",
          "name": "user",
          "type": "address"
        }
      ],
      "name": "getVerificationTimestamp",
      "outputs": [
        {
          "internalType": "uint256",
          "name": "",
          "type": "uint256"
        }
      ],
      "stateMutability": "view",
      "type": "function"
    },
    {
      "inputs": [
        {
          "internalType": "address",
          "name": "user",
          "type": "address"
        }
      ],
      "name": "hasVerifiedIdentity",
      "outputs": [
        {
          "internalType": "bool",
          "name": "",
          "type": "bool"
        }
      ],
      "stateMutability": "view",
      "type": "function"
    },
    {
      "inputs": [],
      "name": "owner",
      "outputs": [
        {
          "internalType": "address",
          "name": "",
          "type": "address"
        }
      ],
      "stateMutability": "view",
      "type": "function"
    },
    {
      "inputs": [],
      "name": "renounceOwnership",
      "outputs": [],
      "stateMutability": "nonpayable",
      "type": "function"
    },
    {
      "inputs": [
        {
          "internalType": "address",
          "name": "user",
          "type": "address"
        }
      ],
      "name": "revokeVerification",
      "outputs": [],
      "stateMutability": "nonpayable",
      "type": "function"
    },
    {
      "inputs": [
        {
          "internalType": "address",
          "name": "newOwner",
          "type": "address"
        }
      ],
      "name": "transferOwnership",
      "outputs": [],
      "stateMutability": "nonpayable",
      "type": "function"
    },
    {
      "inputs": [
        {
          "internalType": "address",
          "name": "",
          "type": "address"
        }
      ],
      "name": "verificationTimestamp",
      "outputs": [
        {
          "internalType": "uint256",
          "name": "",
          "type": "uint256"
        }
      ],
      "stateMutability": "view",
      "type": "function"
    },
    {
      "inputs": [
        {
          "internalType": "address",
          "name": "",
          "type": "address"
        }
      ],
      "name": "verifiedUsers",
      "outputs": [
        {
          "internalType": "bool",
          "name": "",
          "type": "bool"
        }
      ],
      "stateMutability": "view",
      "type": "function"
    },
    {
      "inputs": [
        {
          "internalType": "address",
          "name": "user",
          "type": "address"
        },
        {
          "internalType": "bytes",
          "name": "",
          "type": "bytes"
        }
      ],
      "name": "verifyCredentials",
      "outputs": [
        {
          "internalType": "bool",
          "name": "",
          "type": "bool"
        }
      ],
      "stateMutability": "view",
      "type": "function"
    },
    {
      "inputs": [
        {
          "internalType": "address",
          "name": "user",
          "type": "address"
        }
      ],
      "name": "verifyUser",
      "outputs": [],
      "stateMutability": "nonpayable",
      "type": "function"
    }
  ],
  "bytecode": "0x6080604052348015600f57600080fd5b503380603557604051631e4fbdf760e01b81526000600482015260240160405180910390fd5b603c816041565b506091565b600080546001600160a01b038381166001600160a01b0319831681178455604051919092169283917f8be0079c531659141344cd1fd0a4f28419497f9722a3daafe3b4186f6b6457e09190a35050565b610424806100a06000396000f3fe608060405234801561001057600080fd5b506004361061009e5760003560e01c80637f47b810116100665780637f47b8101461015d5780638da5cb5b14610186578063e35fe366146101a1578063e998d2fa146101c4578063f2fde38b146101d757600080fd5b80632c31e00a146100a35780634d813120146100e45780635edd020d146100f95780636d11c6b014610127578063715018a614610155575b600080fd5b6100cf6100b1366004610347565b6001600160a01b031660009081526001602052604090205460ff1690565b60405190151581526020015b60405180910390f35b6100f76100f2366004610347565b6101ea565b005b6100cf610107366004610369565b50506001600160a01b031660009081526001602052604090205460ff1690565b610147610135366004610347565b60026020526000908152604090205481565b6040519081526020016100db565b6100f7610223565b61014761016b366004610347565b6001600160a01b031660009081526002602052604090205490565b6000546040516001600160a01b0390911681526020016100db565b6100cf6101af366004610347565b60016020526000908152604090205460ff1681565b6100f76101d2366004610347565b610237565b6100f76101e5366004610347565b61026b565b6101f26102ae565b6001600160a01b03166000908152600160208181526040808420805460ff1916909317909255600290529020429055565b61022b6102ae565b61023560006102db565b565b61023f6102ae565b6001600160a01b03166000908152600160209081526040808320805460ff191690556002909152812055565b6102736102ae565b6001600160a01b0381166102a257604051631e4fbdf760e01b8152600060048201526024015b60405180910390fd5b6102ab816102db565b50565b6000546001600160a01b031633146102355760405163118cdaa760e01b8152336004820152602401610299565b600080546001600160a01b038381166001600160a01b0319831681178455604051919092169283917f8be0079c531659141344cd1fd0a4f28419497f9722a3daafe3b4186f6b6457e09190a35050565b80356001600160a01b038116811461034257600080fd5b919050565b60006020828403121561035957600080fd5b6103628261032b565b9392505050565b60008060006040848603121561037e57600080fd5b6103878461032b565b9250602084013567ffffffffffffffff8111156103a357600080fd5b8401601f810186136103b457600080fd5b803567ffffffffffffffff8111156103cb57600080fd5b8660208284010111156103dd57600080fd5b93966020919091019550929350505056fea26469706673582212200907145e0ecc16362ed4e18398d862c5ad96b13f71fa79ebb85afdb37c6afc7764736f6c634300081c0033",
  "linkReferences": {},
  "deployedLinkReferences": {}
}