{
  "_format": "hh-sol-artifact-1",
  "contractName": "FlashDAOToken",
  "sourceName": "contracts/FlashDAOToken.sol",
  "abi": [
    {
      "inputs": [],
      "stateMutability": "nonpayable",
      "type": "constructor"
    },
    {
      "inputs": [],
      "name": "AccessControlBadConfirmation",
      "type": "error"
    },
    {
      "inputs": [
        {
          "internalType": "address",
          "name": "account",
          "type": "address"
        },
        {
          "internalType": "bytes32",
          "name": "neededRole",
          "type": "bytes32"
        }
      ],
      "name": "AccessControlUnauthorizedAccount",
      "type": "error"
    },
    {
      "inputs": [
        {
          "internalType": "address",
          "name": "spender",
          "type": "address"
        },
        {
          "internalType": "uint256",
          "name": "allowance",
          "type": "uint256"
        },
        {
          "internalType": "uint256",
          "name": "needed",
          "type": "uint256"
        }
      ],
      "name": "ERC20InsufficientAllowance",
      "type": "error"
    },
    {
      "inputs": [
        {
          "internalType": "address",
          "name": "sender",
          "type": "address"
        },
        {
          "internalType": "uint256",
          "name": "balance",
          "type": "uint256"
        },
        {
          "internalType": "uint256",
          "name": "needed",
          "type": "uint256"
        }
      ],
      "name": "ERC20InsufficientBalance",
      "type": "error"
    },
    {
      "inputs": [
        {
          "internalType": "address",
          "name": "approver",
          "type": "address"
        }
      ],
      "name": "ERC20InvalidApprover",
      "type": "error"
    },
    {
      "inputs": [
        {
          "internalType": "address",
          "name": "receiver",
          "type": "address"
        }
      ],
      "name": "ERC20InvalidReceiver",
      "type": "error"
    },
    {
      "inputs": [
        {
          "internalType": "address",
          "name": "sender",
          "type": "address"
        }
      ],
      "name": "ERC20InvalidSender",
      "type": "error"
    },
    {
      "inputs": [
        {
          "internalType": "address",
          "name": "spender",
          "type": "address"
        }
      ],
      "name": "ERC20InvalidSpender",
      "type": "error"
    },
    {
      "anonymous": false,
      "inputs": [
        {
          "indexed": true,
          "internalType": "address",
          "name": "owner",
          "type": "address"
        },
        {
          "indexed": true,
          "internalType": "address",
          "name": "spender",
          "type": "address"
        },
        {
          "indexed": false,
          "internalType": "uint256",
          "name": "value",
          "type": "uint256"
        }
      ],
      "name": "Approval",
      "type": "event"
    },
    {
      "anonymous": false,
      "inputs": [
        {
          "indexed": true,
          "internalType": "bytes32",
          "name": "role",
          "type": "bytes32"
        },
        {
          "indexed": true,
          "internalType": "bytes32",
          "name": "previousAdminRole",
          "type": "bytes32"
        },
        {
          "indexed": true,
          "internalType": "bytes32",
          "name": "newAdminRole",
          "type": "bytes32"
        }
      ],
      "name": "RoleAdminChanged",
      "type": "event"
    },
    {
      "anonymous": false,
      "inputs": [
        {
          "indexed": true,
          "internalType": "bytes32",
          "name": "role",
          "type": "bytes32"
        },
        {
          "indexed": true,
          "internalType": "address",
          "name": "account",
          "type": "address"
        },
        {
          "indexed": true,
          "internalType": "address",
          "name": "sender",
          "type": "address"
        }
      ],
      "name": "RoleGranted",
      "type": "event"
    },
    {
      "anonymous": false,
      "inputs": [
        {
          "indexed": true,
          "internalType": "bytes32",
          "name": "role",
          "type": "bytes32"
        },
        {
          "indexed": true,
          "internalType": "address",
          "name": "account",
          "type": "address"
        },
        {
          "indexed": true,
          "internalType": "address",
          "name": "sender",
          "type": "address"
        }
      ],
      "name": "RoleRevoked",
      "type": "event"
    },
    {
      "anonymous": false,
      "inputs": [
        {
          "indexed": true,
          "internalType": "address",
          "name": "receiver",
          "type": "address"
        },
        {
          "indexed": false,
          "internalType": "uint256",
          "name": "donationAmount",
          "type": "uint256"
        },
        {
          "indexed": false,
          "internalType": "uint256",
          "name": "tokenAmount",
          "type": "uint256"
        }
      ],
      "name": "TokensMinted",
      "type": "event"
    },
    {
      "anonymous": false,
      "inputs": [
        {
          "indexed": true,
          "internalType": "address",
          "name": "from",
          "type": "address"
        },
        {
          "indexed": true,
          "internalType": "address",
          "name": "to",
          "type": "address"
        },
        {
          "indexed": false,
          "internalType": "uint256",
          "name": "value",
          "type": "uint256"
        }
      ],
      "name": "Transfer",
      "type": "event"
    },
    {
      "inputs": [],
      "name": "BASE_AMOUNT",
      "outputs": [
        {
          "internalType": "uint256",
          "name": "",
          "type": "uint256"
        }
      ],
      "stateMutability": "view",
      "type": "function"
    },
    {
      "inputs": [],
      "name": "DEFAULT_ADMIN_ROLE",
      "outputs": [
        {
          "internalType": "bytes32",
          "name": "",
          "type": "bytes32"
        }
      ],
      "stateMutability": "view",
      "type": "function"
    },
    {
      "inputs": [],
      "name": "MINTER_ROLE",
      "outputs": [
        {
          "internalType": "bytes32",
          "name": "",
          "type": "bytes32"
        }
      ],
      "stateMutability": "view",
      "type": "function"
    },
    {
      "inputs": [],
      "name": "SCALE_FACTOR",
      "outputs": [
        {
          "internalType": "uint256",
          "name": "",
          "type": "uint256"
        }
      ],
      "stateMutability": "view",
      "type": "function"
    },
    {
      "inputs": [
        {
          "internalType": "address",
          "name": "owner",
          "type": "address"
        },
        {
          "internalType": "address",
          "name": "spender",
          "type": "address"
        }
      ],
      "name": "allowance",
      "outputs": [
        {
          "internalType": "uint256",
          "name": "",
          "type": "uint256"
        }
      ],
      "stateMutability": "view",
      "type": "function"
    },
    {
      "inputs": [
        {
          "internalType": "address",
          "name": "spender",
          "type": "address"
        },
        {
          "internalType": "uint256",
          "name": "value",
          "type": "uint256"
        }
      ],
      "name": "approve",
      "outputs": [
        {
          "internalType": "bool",
          "name": "",
          "type": "bool"
        }
      ],
      "stateMutability": "nonpayable",
      "type": "function"
    },
    {
      "inputs": [
        {
          "internalType": "address",
          "name": "account",
          "type": "address"
        }
      ],
      "name": "balanceOf",
      "outputs": [
        {
          "internalType": "uint256",
          "name": "",
          "type": "uint256"
        }
      ],
      "stateMutability": "view",
      "type": "function"
    },
    {
      "inputs": [
        {
          "internalType": "uint256",
          "name": "donationAmount",
          "type": "uint256"
        }
      ],
      "name": "calculateTokenAmount",
      "outputs": [
        {
          "internalType": "uint256",
          "name": "",
          "type": "uint256"
        }
      ],
      "stateMutability": "pure",
      "type": "function"
    },
    {
      "inputs": [],
      "name": "decimals",
      "outputs": [
        {
          "internalType": "uint8",
          "name": "",
          "type": "uint8"
        }
      ],
      "stateMutability": "view",
      "type": "function"
    },
    {
      "inputs": [
        {
          "internalType": "bytes32",
          "name": "role",
          "type": "bytes32"
        }
      ],
      "name": "getRoleAdmin",
      "outputs": [
        {
          "internalType": "bytes32",
          "name": "",
          "type": "bytes32"
        }
      ],
      "stateMutability": "view",
      "type": "function"
    },
    {
      "inputs": [
        {
          "internalType": "bytes32",
          "name": "role",
          "type": "bytes32"
        },
        {
          "internalType": "address",
          "name": "account",
          "type": "address"
        }
      ],
      "name": "grantRole",
      "outputs": [],
      "stateMutability": "nonpayable",
      "type": "function"
    },
    {
      "inputs": [
        {
          "internalType": "bytes32",
          "name": "role",
          "type": "bytes32"
        },
        {
          "internalType": "address",
          "name": "account",
          "type": "address"
        }
      ],
      "name": "hasRole",
      "outputs": [
        {
          "internalType": "bool",
          "name": "",
          "type": "bool"
        }
      ],
      "stateMutability": "view",
      "type": "function"
    },
    {
      "inputs": [
        {
          "internalType": "address",
          "name": "to",
          "type": "address"
        },
        {
          "internalType": "uint256",
          "name": "donationAmount",
          "type": "uint256"
        }
      ],
      "name": "mintFromDonation",
      "outputs": [
        {
          "internalType": "uint256",
          "name": "",
          "type": "uint256"
        }
      ],
      "stateMutability": "nonpayable",
      "type": "function"
    },
    {
      "inputs": [],
      "name": "name",
      "outputs": [
        {
          "internalType": "string",
          "name": "",
          "type": "string"
        }
      ],
      "stateMutability": "view",
      "type": "function"
    },
    {
      "inputs": [
        {
          "internalType": "bytes32",
          "name": "role",
          "type": "bytes32"
        },
        {
          "internalType": "address",
          "name": "callerConfirmation",
          "type": "address"
        }
      ],
      "name": "renounceRole",
      "outputs": [],
      "stateMutability": "nonpayable",
      "type": "function"
    },
    {
      "inputs": [
        {
          "internalType": "bytes32",
          "name": "role",
          "type": "bytes32"
        },
        {
          "internalType": "address",
          "name": "account",
          "type": "address"
        }
      ],
      "name": "revokeRole",
      "outputs": [],
      "stateMutability": "nonpayable",
      "type": "function"
    },
    {
      "inputs": [
        {
          "internalType": "bytes4",
          "name": "interfaceId",
          "type": "bytes4"
        }
      ],
      "name": "supportsInterface",
      "outputs": [
        {
          "internalType": "bool",
          "name": "",
          "type": "bool"
        }
      ],
      "stateMutability": "view",
      "type": "function"
    },
    {
      "inputs": [],
      "name": "symbol",
      "outputs": [
        {
          "internalType": "string",
          "name": "",
          "type": "string"
        }
      ],
      "stateMutability": "view",
      "type": "function"
    },
    {
      "inputs": [],
      "name": "totalSupply",
      "outputs": [
        {
          "internalType": "uint256",
          "name": "",
          "type": "uint256"
        }
      ],
      "stateMutability": "view",
      "type": "function"
    },
    {
      "inputs": [
        {
          "internalType": "address",
          "name": "to",
          "type": "address"
        },
        {
          "internalType": "uint256",
          "name": "value",
          "type": "uint256"
        }
      ],
      "name": "transfer",
      "outputs": [
        {
          "internalType": "bool",
          "name": "",
          "type": "bool"
        }
      ],
      "stateMutability": "nonpayable",
      "type": "function"
    },
    {
      "inputs": [
        {
          "internalType": "address",
          "name": "from",
          "type": "address"
        },
        {
          "internalType": "address",
          "name": "to",
          "type": "address"
        },
        {
          "internalType": "uint256",
          "name": "value",
          "type": "uint256"
        }
      ],
      "name": "transferFrom",
      "outputs": [
        {
          "internalType": "bool",
          "name": "",
          "type": "bool"
        }
      ],
      "stateMutability": "nonpayable",
      "type": "function"
    }
  ],
  "bytecode": "0x608060405234801561001057600080fd5b506040518060400160405280601981526020017f466c61736844414f20476f7665726e616e636520546f6b656e0000000000000081525060405180604001604052806004815260200163119111d560e21b81525081600390816100739190610210565b5060046100808282610210565b50610090915060009050336100c1565b506100bb7f9f2df0fed2c77648de5860a4cc508cd0818c85b8b8a1ab4ceeef8d981c8956a6336100c1565b506102ce565b60008281526005602090815260408083206001600160a01b038516845290915281205460ff166101675760008381526005602090815260408083206001600160a01b03861684529091529020805460ff1916600117905561011f3390565b6001600160a01b0316826001600160a01b0316847f2f8788117e7eff1d82e926ec794901d17c78024a50270940304540a733656f0d60405160405180910390a450600161016b565b5060005b92915050565b634e487b7160e01b600052604160045260246000fd5b600181811c9082168061019b57607f821691505b6020821081036101bb57634e487b7160e01b600052602260045260246000fd5b50919050565b601f82111561020b57806000526020600020601f840160051c810160208510156101e85750805b601f840160051c820191505b8181101561020857600081556001016101f4565b50505b505050565b81516001600160401b0381111561022957610229610171565b61023d816102378454610187565b846101c1565b6020601f82116001811461027157600083156102595750848201515b600019600385901b1c1916600184901b178455610208565b600084815260208120601f198516915b828110156102a15787850151825560209485019460019092019101610281565b50848210156102bf5786840151600019600387901b60f8161c191681555b50505050600190811b01905550565b610e00806102dd6000396000f3fe608060405234801561001057600080fd5b50600436106101375760003560e01c80636a0cb0b8116100b8578063a24bcf461161007c578063a24bcf461461027a578063a9059cbb1461028d578063ce4b5bbe146102a0578063d5391393146102ab578063d547741f146102d2578063dd62ed3e146102e557600080fd5b80636a0cb0b81461021b57806370a082311461022e57806391d148541461025757806395d89b411461026a578063a217fddf1461027257600080fd5b8063248a9ca3116100ff578063248a9ca3146101b157806325de1092146101d45780632f2ff15d146101e4578063313ce567146101f957806336568abe1461020857600080fd5b806301ffc9a71461013c57806306fdde0314610164578063095ea7b31461017957806318160ddd1461018c57806323b872dd1461019e575b600080fd5b61014f61014a366004610ba2565b61031e565b60405190151581526020015b60405180910390f35b61016c61032f565b60405161015b9190610bd3565b61014f610187366004610c3d565b6103c1565b6002545b60405190815260200161015b565b61014f6101ac366004610c67565b6103d9565b6101906101bf366004610ca4565b60009081526005602052604090206001015490565b610190683635c9adc5dea0000081565b6101f76101f2366004610cbd565b6103fd565b005b6040516012815260200161015b565b6101f7610216366004610cbd565b610428565b610190610229366004610c3d565b610460565b61019061023c366004610ce9565b6001600160a01b031660009081526020819052604090205490565b61014f610265366004610cbd565b610553565b61016c61057e565b610190600081565b610190610288366004610ca4565b61058d565b61014f61029b366004610c3d565b6106d5565b6101906305f5e10081565b6101907f9f2df0fed2c77648de5860a4cc508cd0818c85b8b8a1ab4ceeef8d981c8956a681565b6101f76102e0366004610cbd565b6106e3565b6101906102f3366004610d04565b6001600160a01b03918216600090815260016020908152604080832093909416825291909152205490565b600061032982610708565b92915050565b60606003805461033e90610d2e565b80601f016020809104026020016040519081016040528092919081815260200182805461036a90610d2e565b80156103b75780601f1061038c576101008083540402835291602001916103b7565b820191906000526020600020905b81548152906001019060200180831161039a57829003601f168201915b5050505050905090565b6000336103cf81858561073d565b5060019392505050565b6000336103e785828561074a565b6103f28585856107c3565b506001949350505050565b60008281526005602052604090206001015461041881610822565b610422838361082f565b50505050565b6001600160a01b03811633146104515760405163334bd91960e11b815260040160405180910390fd5b61045b82826108c3565b505050565b60007f9f2df0fed2c77648de5860a4cc508cd0818c85b8b8a1ab4ceeef8d981c8956a661048c81610822565b600083116104f05760405162461bcd60e51b815260206004820152602660248201527f446f6e6174696f6e20616d6f756e74206d75737420626520677265617465722060448201526507468616e20360d41b60648201526084015b60405180910390fd5b60006104fb8461058d565b90506105078582610930565b60408051858152602081018390526001600160a01b038716917f2e8ac5177a616f2aec08c3048f5021e4e9743ece034e8d83ba5caf76688bb475910160405180910390a2949350505050565b60009182526005602090815260408084206001600160a01b0393909316845291905290205460ff1690565b60606004805461033e90610d2e565b60008061059f8364e8d4a51000610d7e565b9050828110156105ba5750683635c9adc5dea0000092915050565b60006305f5e1006105d3670de0b6b3a764000084610d7e565b6105dd9190610d95565b90506105f26064670de0b6b3a7640000610d95565b81101561062757670de0b6b3a764000061061582683635c9adc5dea00000610d7e565b61061f9190610d95565b949350505050565b600081670de0b6b3a7640000811161069157670de0b6b3a764000083800204600281048083111561068a578083039350670de0b6b3a7640000821161068a576729a2241af62c000085830204670de0b6b3a764000081101561068857938401935b505b50506106a5565b50683635c9adc5dea0000095945050505050565b50670de0b6b3a76400006106c282683635c9adc5dea00000610d7e565b6106cc9190610d95565b95945050505050565b6000336103cf8185856107c3565b6000828152600560205260409020600101546106fe81610822565b61042283836108c3565b60006001600160e01b03198216637965db0b60e01b148061032957506301ffc9a760e01b6001600160e01b0319831614610329565b61045b838383600161096a565b6001600160a01b0383811660009081526001602090815260408083209386168352929052205460001981101561042257818110156107b457604051637dc7a0d960e11b81526001600160a01b038416600482015260248101829052604481018390526064016104e7565b6104228484848403600061096a565b6001600160a01b0383166107ed57604051634b637e8f60e11b8152600060048201526024016104e7565b6001600160a01b0382166108175760405163ec442f0560e01b8152600060048201526024016104e7565b61045b838383610a3f565b61082c8133610b69565b50565b600061083b8383610553565b6108bb5760008381526005602090815260408083206001600160a01b03861684529091529020805460ff191660011790556108733390565b6001600160a01b0316826001600160a01b0316847f2f8788117e7eff1d82e926ec794901d17c78024a50270940304540a733656f0d60405160405180910390a4506001610329565b506000610329565b60006108cf8383610553565b156108bb5760008381526005602090815260408083206001600160a01b0386168085529252808320805460ff1916905551339286917ff6391f5c32d9c69d2a47ea670b442974b53935d1edc7fd64eb21e047a839171b9190a4506001610329565b6001600160a01b03821661095a5760405163ec442f0560e01b8152600060048201526024016104e7565b61096660008383610a3f565b5050565b6001600160a01b0384166109945760405163e602df0560e01b8152600060048201526024016104e7565b6001600160a01b0383166109be57604051634a1406b160e11b8152600060048201526024016104e7565b6001600160a01b038085166000908152600160209081526040808320938716835292905220829055801561042257826001600160a01b0316846001600160a01b03167f8c5be1e5ebec7d5bd14f71427d1e84f3dd0314c0f7b2291e5b200ac8c7c3b92584604051610a3191815260200190565b60405180910390a350505050565b6001600160a01b038316610a6a578060026000828254610a5f9190610db7565b90915550610adc9050565b6001600160a01b03831660009081526020819052604090205481811015610abd5760405163391434e360e21b81526001600160a01b038516600482015260248101829052604481018390526064016104e7565b6001600160a01b03841660009081526020819052604090209082900390555b6001600160a01b038216610af857600280548290039055610b17565b6001600160a01b03821660009081526020819052604090208054820190555b816001600160a01b0316836001600160a01b03167fddf252ad1be2c89b69c2b068fc378daa952ba7f163c4a11628f55a4df523b3ef83604051610b5c91815260200190565b60405180910390a3505050565b610b738282610553565b6109665760405163e2517d3f60e01b81526001600160a01b0382166004820152602481018390526044016104e7565b600060208284031215610bb457600080fd5b81356001600160e01b031981168114610bcc57600080fd5b9392505050565b602081526000825180602084015260005b81811015610c015760208186018101516040868401015201610be4565b506000604082850101526040601f19601f83011684010191505092915050565b80356001600160a01b0381168114610c3857600080fd5b919050565b60008060408385031215610c5057600080fd5b610c5983610c21565b946020939093013593505050565b600080600060608486031215610c7c57600080fd5b610c8584610c21565b9250610c9360208501610c21565b929592945050506040919091013590565b600060208284031215610cb657600080fd5b5035919050565b60008060408385031215610cd057600080fd5b82359150610ce060208401610c21565b90509250929050565b600060208284031215610cfb57600080fd5b610bcc82610c21565b60008060408385031215610d1757600080fd5b610d2083610c21565b9150610ce060208401610c21565b600181811c90821680610d4257607f821691505b602082108103610d6257634e487b7160e01b600052602260045260246000fd5b50919050565b634e487b7160e01b600052601160045260246000fd5b808202811582820484141761032957610329610d68565b600082610db257634e487b7160e01b600052601260045260246000fd5b500490565b8082018082111561032957610329610d6856fea26469706673582212206f89737b9a49042c748b31c9890fbbf65b7aaec756055740f0b7e0709c7e364764736f6c634300081c0033",
  "linkReferences": {},
  "deployedLinkReferences": {}
}