{
  "_format": "hh-sol-artifact-1",
  "contractName": "FlashDAOGovernance",
  "sourceName": "contracts/FlashDAOGovernance.sol",
  "abi": [
    {
      "inputs": [
        {
          "internalType": "address",
          "name": "_governanceToken",
          "type": "address"
        },
        {
          "internalType": "address",
          "name": "_usdcToken",
          "type": "address"
        },
        {
          "internalType": "address",
          "name": "_volunteerRegistry",
          "type": "address"
        },
        {
          "internalType": "address",
          "name": "_selfProtocol",
          "type": "address"
        },
        {
          "internalType": "address",
          "name": "_admin",
          "type": "address"
        }
      ],
      "stateMutability": "nonpayable",
      "type": "constructor"
    },
    {
      "inputs": [],
      "name": "AccessControlBadConfirmation",
      "type": "error"
    },
    {
      "inputs": [
        {
          "internalType": "address",
          "name": "account",
          "type": "address"
        },
        {
          "internalType": "bytes32",
          "name": "neededRole",
          "type": "bytes32"
        }
      ],
      "name": "AccessControlUnauthorizedAccount",
      "type": "error"
    },
    {
      "inputs": [],
      "name": "ReentrancyGuardReentrantCall",
      "type": "error"
    },
    {
      "anonymous": false,
      "inputs": [
        {
          "indexed": true,
          "internalType": "address",
          "name": "winner",
          "type": "address"
        },
        {
          "indexed": false,
          "internalType": "uint256",
          "name": "votes",
          "type": "uint256"
        }
      ],
      "name": "ElectionConcluded",
      "type": "event"
    },
    {
      "anonymous": false,
      "inputs": [
        {
          "indexed": false,
          "internalType": "uint256",
          "name": "startTime",
          "type": "uint256"
        },
        {
          "indexed": false,
          "internalType": "uint256",
          "name": "endTime",
          "type": "uint256"
        }
      ],
      "name": "ElectionStarted",
      "type": "event"
    },
    {
      "anonymous": false,
      "inputs": [
        {
          "indexed": true,
          "internalType": "address",
          "name": "recipient",
          "type": "address"
        },
        {
          "indexed": false,
          "internalType": "uint256",
          "name": "amount",
          "type": "uint256"
        }
      ],
      "name": "FundsDistributed",
      "type": "event"
    },
    {
      "anonymous": false,
      "inputs": [],
      "name": "NoWinnerDeclared",
      "type": "event"
    },
    {
      "anonymous": false,
      "inputs": [
        {
          "indexed": true,
          "internalType": "bytes32",
          "name": "role",
          "type": "bytes32"
        },
        {
          "indexed": true,
          "internalType": "bytes32",
          "name": "previousAdminRole",
          "type": "bytes32"
        },
        {
          "indexed": true,
          "internalType": "bytes32",
          "name": "newAdminRole",
          "type": "bytes32"
        }
      ],
      "name": "RoleAdminChanged",
      "type": "event"
    },
    {
      "anonymous": false,
      "inputs": [
        {
          "indexed": true,
          "internalType": "bytes32",
          "name": "role",
          "type": "bytes32"
        },
        {
          "indexed": true,
          "internalType": "address",
          "name": "account",
          "type": "address"
        },
        {
          "indexed": true,
          "internalType": "address",
          "name": "sender",
          "type": "address"
        }
      ],
      "name": "RoleGranted",
      "type": "event"
    },
    {
      "anonymous": false,
      "inputs": [
        {
          "indexed": true,
          "internalType": "bytes32",
          "name": "role",
          "type": "bytes32"
        },
        {
          "indexed": true,
          "internalType": "address",
          "name": "account",
          "type": "address"
        },
        {
          "indexed": true,
          "internalType": "address",
          "name": "sender",
          "type": "address"
        }
      ],
      "name": "RoleRevoked",
      "type": "event"
    },
    {
      "anonymous": false,
      "inputs": [
        {
          "indexed": true,
          "internalType": "address",
          "name": "voter",
          "type": "address"
        },
        {
          "indexed": true,
          "internalType": "address",
          "name": "volunteer",
          "type": "address"
        },
        {
          "indexed": false,
          "internalType": "uint256",
          "name": "votes",
          "type": "uint256"
        }
      ],
      "name": "VoteCast",
      "type": "event"
    },
    {
      "inputs": [],
      "name": "ADMIN_ROLE",
      "outputs": [
        {
          "internalType": "bytes32",
          "name": "",
          "type": "bytes32"
        }
      ],
      "stateMutability": "view",
      "type": "function"
    },
    {
      "inputs": [],
      "name": "DEFAULT_ADMIN_ROLE",
      "outputs": [
        {
          "internalType": "bytes32",
          "name": "",
          "type": "bytes32"
        }
      ],
      "stateMutability": "view",
      "type": "function"
    },
    {
      "inputs": [],
      "name": "concludeElection",
      "outputs": [],
      "stateMutability": "nonpayable",
      "type": "function"
    },
    {
      "inputs": [],
      "name": "distributeFunds",
      "outputs": [],
      "stateMutability": "nonpayable",
      "type": "function"
    },
    {
      "inputs": [],
      "name": "electionActive",
      "outputs": [
        {
          "internalType": "bool",
          "name": "",
          "type": "bool"
        }
      ],
      "stateMutability": "view",
      "type": "function"
    },
    {
      "inputs": [],
      "name": "electionConcluded",
      "outputs": [
        {
          "internalType": "bool",
          "name": "",
          "type": "bool"
        }
      ],
      "stateMutability": "view",
      "type": "function"
    },
    {
      "inputs": [],
      "name": "electionDuration",
      "outputs": [
        {
          "internalType": "uint256",
          "name": "",
          "type": "uint256"
        }
      ],
      "stateMutability": "view",
      "type": "function"
    },
    {
      "inputs": [],
      "name": "electionEndTime",
      "outputs": [
        {
          "internalType": "uint256",
          "name": "",
          "type": "uint256"
        }
      ],
      "stateMutability": "view",
      "type": "function"
    },
    {
      "inputs": [],
      "name": "electionStartTime",
      "outputs": [
        {
          "internalType": "uint256",
          "name": "",
          "type": "uint256"
        }
      ],
      "stateMutability": "view",
      "type": "function"
    },
    {
      "inputs": [],
      "name": "electionWinner",
      "outputs": [
        {
          "internalType": "address",
          "name": "",
          "type": "address"
        }
      ],
      "stateMutability": "view",
      "type": "function"
    },
    {
      "inputs": [],
      "name": "fundsDistributed",
      "outputs": [
        {
          "internalType": "bool",
          "name": "",
          "type": "bool"
        }
      ],
      "stateMutability": "view",
      "type": "function"
    },
    {
      "inputs": [
        {
          "internalType": "bytes32",
          "name": "role",
          "type": "bytes32"
        }
      ],
      "name": "getRoleAdmin",
      "outputs": [
        {
          "internalType": "bytes32",
          "name": "",
          "type": "bytes32"
        }
      ],
      "stateMutability": "view",
      "type": "function"
    },
    {
      "inputs": [],
      "name": "getTimeRemaining",
      "outputs": [
        {
          "internalType": "uint256",
          "name": "",
          "type": "uint256"
        }
      ],
      "stateMutability": "view",
      "type": "function"
    },
    {
      "inputs": [
        {
          "internalType": "address",
          "name": "_voter",
          "type": "address"
        }
      ],
      "name": "getVoterChoice",
      "outputs": [
        {
          "internalType": "address",
          "name": "",
          "type": "address"
        }
      ],
      "stateMutability": "view",
      "type": "function"
    },
    {
      "inputs": [
        {
          "internalType": "address",
          "name": "_volunteer",
          "type": "address"
        }
      ],
      "name": "getVotesFor",
      "outputs": [
        {
          "internalType": "uint256",
          "name": "",
          "type": "uint256"
        }
      ],
      "stateMutability": "view",
      "type": "function"
    },
    {
      "inputs": [],
      "name": "governanceToken",
      "outputs": [
        {
          "internalType": "contract IERC20",
          "name": "",
          "type": "address"
        }
      ],
      "stateMutability": "view",
      "type": "function"
    },
    {
      "inputs": [
        {
          "internalType": "bytes32",
          "name": "role",
          "type": "bytes32"
        },
        {
          "internalType": "address",
          "name": "account",
          "type": "address"
        }
      ],
      "name": "grantRole",
      "outputs": [],
      "stateMutability": "nonpayable",
      "type": "function"
    },
    {
      "inputs": [],
      "name": "hasReachedQuorum",
      "outputs": [
        {
          "internalType": "bool",
          "name": "",
          "type": "bool"
        }
      ],
      "stateMutability": "view",
      "type": "function"
    },
    {
      "inputs": [
        {
          "internalType": "bytes32",
          "name": "role",
          "type": "bytes32"
        },
        {
          "internalType": "address",
          "name": "account",
          "type": "address"
        }
      ],
      "name": "hasRole",
      "outputs": [
        {
          "internalType": "bool",
          "name": "",
          "type": "bool"
        }
      ],
      "stateMutability": "view",
      "type": "function"
    },
    {
      "inputs": [
        {
          "internalType": "address",
          "name": "",
          "type": "address"
        }
      ],
      "name": "hasVoted",
      "outputs": [
        {
          "internalType": "bool",
          "name": "",
          "type": "bool"
        }
      ],
      "stateMutability": "view",
      "type": "function"
    },
    {
      "inputs": [],
      "name": "isElectionEnded",
      "outputs": [
        {
          "internalType": "bool",
          "name": "",
          "type": "bool"
        }
      ],
      "stateMutability": "view",
      "type": "function"
    },
    {
      "inputs": [],
      "name": "minimumQuorum",
      "outputs": [
        {
          "internalType": "uint256",
          "name": "",
          "type": "uint256"
        }
      ],
      "stateMutability": "view",
      "type": "function"
    },
    {
      "inputs": [
        {
          "internalType": "bytes32",
          "name": "role",
          "type": "bytes32"
        },
        {
          "internalType": "address",
          "name": "callerConfirmation",
          "type": "address"
        }
      ],
      "name": "renounceRole",
      "outputs": [],
      "stateMutability": "nonpayable",
      "type": "function"
    },
    {
      "inputs": [
        {
          "internalType": "bytes32",
          "name": "role",
          "type": "bytes32"
        },
        {
          "internalType": "address",
          "name": "account",
          "type": "address"
        }
      ],
      "name": "revokeRole",
      "outputs": [],
      "stateMutability": "nonpayable",
      "type": "function"
    },
    {
      "inputs": [],
      "name": "selfProtocol",
      "outputs": [
        {
          "internalType": "contract ISelfProtocol",
          "name": "",
          "type": "address"
        }
      ],
      "stateMutability": "view",
      "type": "function"
    },
    {
      "inputs": [
        {
          "internalType": "uint256",
          "name": "_duration",
          "type": "uint256"
        }
      ],
      "name": "startElection",
      "outputs": [],
      "stateMutability": "nonpayable",
      "type": "function"
    },
    {
      "inputs": [
        {
          "internalType": "bytes4",
          "name": "interfaceId",
          "type": "bytes4"
        }
      ],
      "name": "supportsInterface",
      "outputs": [
        {
          "internalType": "bool",
          "name": "",
          "type": "bool"
        }
      ],
      "stateMutability": "view",
      "type": "function"
    },
    {
      "inputs": [],
      "name": "totalFundsRaised",
      "outputs": [
        {
          "internalType": "uint256",
          "name": "",
          "type": "uint256"
        }
      ],
      "stateMutability": "view",
      "type": "function"
    },
    {
      "inputs": [],
      "name": "totalVotesCast",
      "outputs": [
        {
          "internalType": "uint256",
          "name": "",
          "type": "uint256"
        }
      ],
      "stateMutability": "view",
      "type": "function"
    },
    {
      "inputs": [
        {
          "internalType": "uint256",
          "name": "_minimumQuorum",
          "type": "uint256"
        },
        {
          "internalType": "uint256",
          "name": "_electionDuration",
          "type": "uint256"
        }
      ],
      "name": "updateElectionParameters",
      "outputs": [],
      "stateMutability": "nonpayable",
      "type": "function"
    },
    {
      "inputs": [],
      "name": "usdcToken",
      "outputs": [
        {
          "internalType": "contract IERC20",
          "name": "",
          "type": "address"
        }
      ],
      "stateMutability": "view",
      "type": "function"
    },
    {
      "inputs": [],
      "name": "volunteerRegistry",
      "outputs": [
        {
          "internalType": "contract VolunteerRegistry",
          "name": "",
          "type": "address"
        }
      ],
      "stateMutability": "view",
      "type": "function"
    },
    {
      "inputs": [
        {
          "internalType": "address",
          "name": "_volunteer",
          "type": "address"
        }
      ],
      "name": "vote",
      "outputs": [],
      "stateMutability": "nonpayable",
      "type": "function"
    },
    {
      "inputs": [
        {
          "internalType": "address",
          "name": "",
          "type": "address"
        }
      ],
      "name": "voterChoices",
      "outputs": [
        {
          "internalType": "address",
          "name": "",
          "type": "address"
        }
      ],
      "stateMutability": "view",
      "type": "function"
    },
    {
      "inputs": [
        {
          "internalType": "address",
          "name": "",
          "type": "address"
        }
      ],
      "name": "votesReceived",
      "outputs": [
        {
          "internalType": "uint256",
          "name": "",
          "type": "uint256"
        }
      ],
      "stateMutability": "view",
      "type": "function"
    }
  ],
  "bytecode": "0x608060405234801561001057600080fd5b50604051611b69380380611b6983398101604081905261002f9161028e565b600180556001600160a01b03851661008e5760405162461bcd60e51b815260206004820152601860248201527f496e76616c696420676f7665726e616e636520746f6b656e000000000000000060448201526064015b60405180910390fd5b6001600160a01b0384166100d95760405162461bcd60e51b815260206004820152601260248201527124b73b30b634b2102aa9a221903a37b5b2b760711b6044820152606401610085565b6001600160a01b03831661012f5760405162461bcd60e51b815260206004820152601a60248201527f496e76616c696420766f6c756e746565722072656769737472790000000000006044820152606401610085565b600280546001600160a01b038088166001600160a01b0319928316179092556003805487841690831617905560048054868416908316179055600580549285169290911691909117905562093a80600655600a6007556101906000826101c6565b506101bb7fa49807205ce4d355092ef5a8a18f56e8913cf4a201fbe287825b095693c21775826101c6565b5050505050506102f3565b6000828152602081815260408083206001600160a01b038516845290915281205460ff16610268576000838152602081815260408083206001600160a01b03861684529091529020805460ff191660011790556102203390565b6001600160a01b0316826001600160a01b0316847f2f8788117e7eff1d82e926ec794901d17c78024a50270940304540a733656f0d60405160405180910390a450600161026c565b5060005b92915050565b80516001600160a01b038116811461028957600080fd5b919050565b600080600080600060a086880312156102a657600080fd5b6102af86610272565b94506102bd60208701610272565b93506102cb60408701610272565b92506102d960608701610272565b91506102e760808701610272565b90509295509295909350565b611867806103026000396000f3fe608060405234801561001057600080fd5b50600436106102115760003560e01c806375b238fc11610125578063a217fddf116100ad578063cde419a41161007c578063cde419a4146104a9578063d547741f146104b1578063dac6270d146104c4578063f96dae0a146104cc578063fe7ce691146104df57600080fd5b8063a217fddf1461047e578063b014020614610486578063c1e163591461048e578063c5980c94146104a057600080fd5b80638847103b116100f45780638847103b146103fa57806391d14854146104265780639e136e6414610439578063a0122a5714610442578063a13894ea1461045557600080fd5b806375b238fc146103b45780637de418d5146103db5780637ed628bb146103e45780638160f0b5146103f157600080fd5b806330c880c3116101a857806366f6288d1161017757806366f6288d146103455780636d32dc4b1461036e5780636dd7d8ea146103815780636f95b3f314610394578063705ed273146103a157600080fd5b806330c880c31461030157806336568abe146103215780633a6a4d2e14610334578063427c0c7f1461033c57600080fd5b80631bf806cb116101e45780631bf806cb1461029f578063248a9ca3146102b65780632b3fb337146102d95780632f2ff15d146102ee57600080fd5b806301ffc9a71461021657806309eef43e1461023e5780630e58a2491461026157806311eac8551461028c575b600080fd5b6102296102243660046114a7565b6104ea565b60405190151581526020015b60405180910390f35b61022961024c3660046114ed565b600d6020526000908152604090205460ff1681565b600f54610274906001600160a01b031681565b6040516001600160a01b039091168152602001610235565b600354610274906001600160a01b031681565b6102a860065481565b604051908152602001610235565b6102a86102c436600461150a565b60009081526020819052604090206001015490565b6102ec6102e7366004611523565b610521565b005b6102ec6102fc366004611545565b61065c565b6102a861030f3660046114ed565b600b6020526000908152604090205481565b6102ec61032f366004611545565b610687565b6102ec6106bf565b6102a860105481565b6102746103533660046114ed565b600c602052600090815260409020546001600160a01b031681565b6102ec61037c36600461150a565b610992565b6102ec61038f3660046114ed565b610adc565b6011546102299060ff1681565b600554610274906001600160a01b031681565b6102a87fa49807205ce4d355092ef5a8a18f56e8913cf4a201fbe287825b095693c2177581565b6102a8600e5481565b600a546102299060ff1681565b6102a860075481565b6102746104083660046114ed565b6001600160a01b039081166000908152600c60205260409020541690565b610229610434366004611545565b610e77565b6102a860095481565b600454610274906001600160a01b031681565b6102a86104633660046114ed565b6001600160a01b03166000908152600b602052604090205490565b6102a8600081565b610229610ea0565b600a5461022990610100900460ff1681565b6102a860085481565b6102ec610f3c565b6102ec6104bf366004611545565b6112e3565b6102a8611308565b600254610274906001600160a01b031681565b600954421015610229565b60006001600160e01b03198216637965db0b60e01b148061051b57506301ffc9a760e01b6001600160e01b03198316145b92915050565b7fa49807205ce4d355092ef5a8a18f56e8913cf4a201fbe287825b095693c2177561054b8161133d565b600a5460ff16156105af5760405162461bcd60e51b8152602060048201526024808201527f43616e6e6f74206368616e676520647572696e672061637469766520656c65636044820152633a34b7b760e11b60648201526084015b60405180910390fd5b60648311156106005760405162461bcd60e51b815260206004820152601960248201527f51756f72756d2063616e6e6f742065786365656420313030250000000000000060448201526064016105a6565b600082116106505760405162461bcd60e51b815260206004820152601f60248201527f4475726174696f6e206d7573742062652067726561746572207468616e20300060448201526064016105a6565b50600791909155600655565b6000828152602081905260409020600101546106778161133d565b6106818383611347565b50505050565b6001600160a01b03811633146106b05760405163334bd91960e11b815260040160405180910390fd5b6106ba82826113d9565b505050565b6106c7611444565b600a54610100900460ff166107175760405162461bcd60e51b8152602060048201526016602482015275115b1958dd1a5bdb881b9bdd0818dbdb98db1d59195960521b60448201526064016105a6565b60115460ff161561076a5760405162461bcd60e51b815260206004820152601960248201527f46756e647320616c72656164792064697374726962757465640000000000000060448201526064016105a6565b600f546001600160a01b03166107c25760405162461bcd60e51b815260206004820152601a60248201527f4e6f2077696e6e657220746f206469737472696275746520746f00000000000060448201526064016105a6565b6003546040516370a0823160e01b81523060048201526000916001600160a01b0316906370a0823190602401602060405180830381865afa15801561080b573d6000803e3d6000fd5b505050506040513d601f19601f8201168201806040525081019061082f9190611575565b90506000811161087a5760405162461bcd60e51b81526020600482015260166024820152754e6f2066756e647320746f206469737472696275746560501b60448201526064016105a6565b6011805460ff19166001179055600354600f5460405163a9059cbb60e01b81526001600160a01b0391821660048201526024810184905291169063a9059cbb906044016020604051808303816000875af11580156108dc573d6000803e3d6000fd5b505050506040513d601f19601f8201168201806040525081019061090091906115a3565b6109445760405162461bcd60e51b8152602060048201526015602482015274151bdad95b881d1c985b9cd9995c8819985a5b1959605a1b60448201526064016105a6565b600f546040518281526001600160a01b03909116907f26536799ace2c3dbe12e638ec3ade6b4173dcf1289be0a58d51a5003015649bd9060200160405180910390a25061099060018055565b565b7fa49807205ce4d355092ef5a8a18f56e8913cf4a201fbe287825b095693c217756109bc8161133d565b600a5460ff1615610a0f5760405162461bcd60e51b815260206004820152601760248201527f456c656374696f6e20616c72656164792061637469766500000000000000000060448201526064016105a6565b60008211610a5f5760405162461bcd60e51b815260206004820152601f60248201527f4475726174696f6e206d7573742062652067726561746572207468616e20300060448201526064016105a6565b6006829055426008819055610a759083906115d4565b6009819055600a805461ffff191660011790556000600e556011805460ff191690556008546040517fff6a30dd22f5e8b783044c7d895a6e8592b55c56f139978d44dc39daf596731f92610ad0928252602082015260400190565b60405180910390a15050565b610ae4611444565b600a5460ff16610b2b5760405162461bcd60e51b815260206004820152601260248201527127379030b1ba34bb329032b632b1ba34b7b760711b60448201526064016105a6565b6009544210610b715760405162461bcd60e51b8152602060048201526012602482015271115b1958dd1a5bdb881a185cc8195b99195960721b60448201526064016105a6565b336000908152600d602052604090205460ff1615610bc15760405162461bcd60e51b815260206004820152600d60248201526c105b1c9958591e481d9bdd1959609a1b60448201526064016105a6565b6004805460405163122b794160e01b81526001600160a01b03848116938201939093526000929091169063122b794190602401600060405180830381865afa158015610c11573d6000803e3d6000fd5b505050506040513d6000823e601f3d908101601f19168201604052610c3991908101906116e8565b90508060a001518015610c4d57508060c001515b610c995760405162461bcd60e51b815260206004820152601f60248201527f496e76616c6964206f7220756e617070726f76656420766f6c756e746565720060448201526064016105a6565b6002546040516370a0823160e01b81523360048201526000916001600160a01b0316906370a0823190602401602060405180830381865afa158015610ce2573d6000803e3d6000fd5b505050506040513d601f19601f82011682018060405250810190610d069190611575565b905060008111610d4a5760405162461bcd60e51b815260206004820152600f60248201526e2737903b37ba34b733903837bbb2b960891b60448201526064016105a6565b6001600160a01b0383166000908152600b602052604081208054839290610d729084906115d4565b9091555050336000908152600c6020908152604080832080546001600160a01b0319166001600160a01b038816179055600d9091528120805460ff19166001179055600e8054839290610dc69084906115d4565b909155505060048054604051630291640d60e41b815233928101929092526001600160a01b03169063291640d090602401600060405180830381600087803b158015610e1157600080fd5b505af1158015610e25573d6000803e3d6000fd5b50506040518381526001600160a01b03861692503391507f484413c33463e7d976e3ded2a85b0c31610d0906977df2cd9cbd6d12a6872a849060200160405180910390a35050610e7460018055565b50565b6000918252602082815260408084206001600160a01b0393909316845291905290205460ff1690565b60006064600754600260009054906101000a90046001600160a01b03166001600160a01b03166318160ddd6040518163ffffffff1660e01b8152600401602060405180830381865afa158015610efa573d6000803e3d6000fd5b505050506040513d601f19601f82011682018060405250810190610f1e9190611575565b610f2891906117cc565b610f3291906117e3565b600e541015905090565b600a5460ff16610f835760405162461bcd60e51b815260206004820152601260248201527127379030b1ba34bb329032b632b1ba34b7b760711b60448201526064016105a6565b6009544210158061101b5750600754600254604080516318160ddd60e01b81529051606493926001600160a01b0316916318160ddd9160048083019260209291908290030181865afa158015610fdd573d6000803e3d6000fd5b505050506040513d601f19601f820116820180604052508101906110019190611575565b61100b91906117cc565b61101591906117e3565b600e5410155b6110785760405162461bcd60e51b815260206004820152602860248201527f456c656374696f6e206e6f742079657420656c696769626c6520666f7220636f6044820152673731b63ab9b4b7b760c11b60648201526084016105a6565b600a54610100900460ff16156110d05760405162461bcd60e51b815260206004820152601a60248201527f456c656374696f6e20616c726561647920636f6e636c7564656400000000000060448201526064016105a6565b600a805461ffff191661010017905560008060015b60048054604080516334768bdf60e21b815290516001600160a01b039092169263d1da2f7c9282820192602092908290030181865afa15801561112c573d6000803e3d6000fd5b505050506040513d601f19601f820116820180604052508101906111509190611575565b8111611242576004805460405163f9aad71160e01b81529182018390526000916001600160a01b039091169063f9aad71190602401600060405180830381865afa1580156111a2573d6000803e3d6000fd5b505050506040513d6000823e601f3d908101601f191682016040526111ca91908101906116e8565b602081015160a08201519192509080156111e557508160c001515b801561120857506001600160a01b0381166000908152600b602052604090205484105b1561122d576001600160a01b0381166000908152600b60205260409020549094509250835b5050808061123a90611805565b9150506110e5565b506001600160a01b0382161580159061125b5750600081115b156112b557600f80546001600160a01b0319166001600160a01b0384169081179091556040518281527f298ccc4f881993c5dc06e974ada8b381abd44fee8be550266a5c819c25087ecf9060200160405180910390a25050565b6040517f5ef47ab9fad320f1f417670c164b8e4913c6e6d9ffb559fb31de53758973b6a890600090a15b5050565b6000828152602081905260409020600101546112fe8161133d565b61068183836113d9565b600a5460009060ff16158061131f57506009544210155b1561132a5750600090565b42600954611338919061181e565b905090565b610e74813361146e565b60006113538383610e77565b6113d1576000838152602081815260408083206001600160a01b03861684529091529020805460ff191660011790556113893390565b6001600160a01b0316826001600160a01b0316847f2f8788117e7eff1d82e926ec794901d17c78024a50270940304540a733656f0d60405160405180910390a450600161051b565b50600061051b565b60006113e58383610e77565b156113d1576000838152602081815260408083206001600160a01b0386168085529252808320805460ff1916905551339286917ff6391f5c32d9c69d2a47ea670b442974b53935d1edc7fd64eb21e047a839171b9190a450600161051b565b60026001540361146757604051633ee5aeb560e01b815260040160405180910390fd5b6002600155565b6114788282610e77565b6112df5760405163e2517d3f60e01b81526001600160a01b0382166004820152602481018390526044016105a6565b6000602082840312156114b957600080fd5b81356001600160e01b0319811681146114d157600080fd5b9392505050565b6001600160a01b0381168114610e7457600080fd5b6000602082840312156114ff57600080fd5b81356114d1816114d8565b60006020828403121561151c57600080fd5b5035919050565b6000806040838503121561153657600080fd5b50508035926020909101359150565b6000806040838503121561155857600080fd5b82359150602083013561156a816114d8565b809150509250929050565b60006020828403121561158757600080fd5b5051919050565b8051801515811461159e57600080fd5b919050565b6000602082840312156115b557600080fd5b6114d18261158e565b634e487b7160e01b600052601160045260246000fd5b8082018082111561051b5761051b6115be565b634e487b7160e01b600052604160045260246000fd5b60405160e0810167ffffffffffffffff81118282101715611620576116206115e7565b60405290565b604051601f8201601f1916810167ffffffffffffffff8111828210171561164f5761164f6115e7565b604052919050565b805161159e816114d8565b600082601f83011261167357600080fd5b815167ffffffffffffffff81111561168d5761168d6115e7565b6116a0601f8201601f1916602001611626565b8181528460208386010111156116b557600080fd5b60005b828110156116d4576020818601810151838301820152016116b8565b506000918101602001919091529392505050565b6000602082840312156116fa57600080fd5b815167ffffffffffffffff81111561171157600080fd5b820160e0818503121561172357600080fd5b61172b6115fd565b8151815261173b60208301611657565b6020820152604082015167ffffffffffffffff81111561175a57600080fd5b61176686828501611662565b604083015250606082015167ffffffffffffffff81111561178657600080fd5b61179286828501611662565b606083015250608082810151908201526117ae60a0830161158e565b60a08201526117bf60c0830161158e565b60c0820152949350505050565b808202811582820484141761051b5761051b6115be565b60008261180057634e487b7160e01b600052601260045260246000fd5b500490565b600060018201611817576118176115be565b5060010190565b8181038181111561051b5761051b6115be56fea2646970667358221220037899340af510beec5e1fa0663d85461e580452b658c1b7c3a68c831126dbf964736f6c634300081c0033",
  "linkReferences": {},
  "deployedLinkReferences": {}
}