{
  "_format": "hh-sol-artifact-1",
  "contractName": "FlashDAOGovernance",
  "sourceName": "contracts/FlashDAOGovernance.sol",
  "abi": [
    {
      "inputs": [
        {
          "internalType": "address",
          "name": "_governanceTokenAddress",
          "type": "address"
        },
        {
          "internalType": "address",
          "name": "_usdcAddress",
          "type": "address"
        },
        {
          "internalType": "address",
          "name": "_volunteerRegistryAddress",
          "type": "address"
        },
        {
          "internalType": "address",
          "name": "_selfProtocolAddress",
          "type": "address"
        },
        {
          "internalType": "address",
          "name": "_admin",
          "type": "address"
        }
      ],
      "stateMutability": "nonpayable",
      "type": "constructor"
    },
    {
      "inputs": [],
      "name": "AccessControlBadConfirmation",
      "type": "error"
    },
    {
      "inputs": [
        {
          "internalType": "address",
          "name": "account",
          "type": "address"
        },
        {
          "internalType": "bytes32",
          "name": "neededRole",
          "type": "bytes32"
        }
      ],
      "name": "AccessControlUnauthorizedAccount",
      "type": "error"
    },
    {
      "inputs": [],
      "name": "ReentrancyGuardReentrantCall",
      "type": "error"
    },
    {
      "anonymous": false,
      "inputs": [
        {
          "indexed": false,
          "internalType": "uint256",
          "name": "winningVolunteerIndex",
          "type": "uint256"
        },
        {
          "indexed": false,
          "internalType": "address",
          "name": "winner",
          "type": "address"
        },
        {
          "indexed": false,
          "internalType": "uint256",
          "name": "voteCount",
          "type": "uint256"
        }
      ],
      "name": "ElectionConcluded",
      "type": "event"
    },
    {
      "anonymous": false,
      "inputs": [
        {
          "indexed": true,
          "internalType": "bytes32",
          "name": "role",
          "type": "bytes32"
        },
        {
          "indexed": true,
          "internalType": "bytes32",
          "name": "previousAdminRole",
          "type": "bytes32"
        },
        {
          "indexed": true,
          "internalType": "bytes32",
          "name": "newAdminRole",
          "type": "bytes32"
        }
      ],
      "name": "RoleAdminChanged",
      "type": "event"
    },
    {
      "anonymous": false,
      "inputs": [
        {
          "indexed": true,
          "internalType": "bytes32",
          "name": "role",
          "type": "bytes32"
        },
        {
          "indexed": true,
          "internalType": "address",
          "name": "account",
          "type": "address"
        },
        {
          "indexed": true,
          "internalType": "address",
          "name": "sender",
          "type": "address"
        }
      ],
      "name": "RoleGranted",
      "type": "event"
    },
    {
      "anonymous": false,
      "inputs": [
        {
          "indexed": true,
          "internalType": "bytes32",
          "name": "role",
          "type": "bytes32"
        },
        {
          "indexed": true,
          "internalType": "address",
          "name": "account",
          "type": "address"
        },
        {
          "indexed": true,
          "internalType": "address",
          "name": "sender",
          "type": "address"
        }
      ],
      "name": "RoleRevoked",
      "type": "event"
    },
    {
      "anonymous": false,
      "inputs": [
        {
          "indexed": true,
          "internalType": "address",
          "name": "voter",
          "type": "address"
        },
        {
          "indexed": true,
          "internalType": "uint256",
          "name": "volunteerIndex",
          "type": "uint256"
        },
        {
          "indexed": false,
          "internalType": "uint256",
          "name": "votes",
          "type": "uint256"
        }
      ],
      "name": "VoteCast",
      "type": "event"
    },
    {
      "inputs": [],
      "name": "ADMIN_ROLE",
      "outputs": [
        {
          "internalType": "bytes32",
          "name": "",
          "type": "bytes32"
        }
      ],
      "stateMutability": "view",
      "type": "function"
    },
    {
      "inputs": [],
      "name": "DEFAULT_ADMIN_ROLE",
      "outputs": [
        {
          "internalType": "bytes32",
          "name": "",
          "type": "bytes32"
        }
      ],
      "stateMutability": "view",
      "type": "function"
    },
    {
      "inputs": [],
      "name": "concludeElection",
      "outputs": [],
      "stateMutability": "nonpayable",
      "type": "function"
    },
    {
      "inputs": [],
      "name": "electionConcluded",
      "outputs": [
        {
          "internalType": "bool",
          "name": "",
          "type": "bool"
        }
      ],
      "stateMutability": "view",
      "type": "function"
    },
    {
      "inputs": [
        {
          "internalType": "bytes32",
          "name": "role",
          "type": "bytes32"
        }
      ],
      "name": "getRoleAdmin",
      "outputs": [
        {
          "internalType": "bytes32",
          "name": "",
          "type": "bytes32"
        }
      ],
      "stateMutability": "view",
      "type": "function"
    },
    {
      "inputs": [
        {
          "internalType": "uint256",
          "name": "_volunteerIndex",
          "type": "uint256"
        }
      ],
      "name": "getVoteCount",
      "outputs": [
        {
          "internalType": "uint256",
          "name": "",
          "type": "uint256"
        }
      ],
      "stateMutability": "view",
      "type": "function"
    },
    {
      "inputs": [],
      "name": "governanceToken",
      "outputs": [
        {
          "internalType": "contract FlashDAOToken",
          "name": "",
          "type": "address"
        }
      ],
      "stateMutability": "view",
      "type": "function"
    },
    {
      "inputs": [
        {
          "internalType": "bytes32",
          "name": "role",
          "type": "bytes32"
        },
        {
          "internalType": "address",
          "name": "account",
          "type": "address"
        }
      ],
      "name": "grantRole",
      "outputs": [],
      "stateMutability": "nonpayable",
      "type": "function"
    },
    {
      "inputs": [
        {
          "internalType": "bytes32",
          "name": "role",
          "type": "bytes32"
        },
        {
          "internalType": "address",
          "name": "account",
          "type": "address"
        }
      ],
      "name": "hasRole",
      "outputs": [
        {
          "internalType": "bool",
          "name": "",
          "type": "bool"
        }
      ],
      "stateMutability": "view",
      "type": "function"
    },
    {
      "inputs": [
        {
          "internalType": "address",
          "name": "_voter",
          "type": "address"
        }
      ],
      "name": "hasUserVoted",
      "outputs": [
        {
          "internalType": "bool",
          "name": "",
          "type": "bool"
        }
      ],
      "stateMutability": "view",
      "type": "function"
    },
    {
      "inputs": [
        {
          "internalType": "address",
          "name": "",
          "type": "address"
        }
      ],
      "name": "hasVoted",
      "outputs": [
        {
          "internalType": "bool",
          "name": "",
          "type": "bool"
        }
      ],
      "stateMutability": "view",
      "type": "function"
    },
    {
      "inputs": [],
      "name": "noWinner",
      "outputs": [
        {
          "internalType": "bool",
          "name": "",
          "type": "bool"
        }
      ],
      "stateMutability": "view",
      "type": "function"
    },
    {
      "inputs": [
        {
          "internalType": "bytes32",
          "name": "role",
          "type": "bytes32"
        },
        {
          "internalType": "address",
          "name": "callerConfirmation",
          "type": "address"
        }
      ],
      "name": "renounceRole",
      "outputs": [],
      "stateMutability": "nonpayable",
      "type": "function"
    },
    {
      "inputs": [
        {
          "internalType": "bytes32",
          "name": "role",
          "type": "bytes32"
        },
        {
          "internalType": "address",
          "name": "account",
          "type": "address"
        }
      ],
      "name": "revokeRole",
      "outputs": [],
      "stateMutability": "nonpayable",
      "type": "function"
    },
    {
      "inputs": [],
      "name": "selfProtocol",
      "outputs": [
        {
          "internalType": "contract ISelfProtocol",
          "name": "",
          "type": "address"
        }
      ],
      "stateMutability": "view",
      "type": "function"
    },
    {
      "inputs": [
        {
          "internalType": "bytes4",
          "name": "interfaceId",
          "type": "bytes4"
        }
      ],
      "name": "supportsInterface",
      "outputs": [
        {
          "internalType": "bool",
          "name": "",
          "type": "bool"
        }
      ],
      "stateMutability": "view",
      "type": "function"
    },
    {
      "inputs": [],
      "name": "usdcToken",
      "outputs": [
        {
          "internalType": "contract IERC20",
          "name": "",
          "type": "address"
        }
      ],
      "stateMutability": "view",
      "type": "function"
    },
    {
      "inputs": [],
      "name": "volunteerRegistry",
      "outputs": [
        {
          "internalType": "contract VolunteerRegistry",
          "name": "",
          "type": "address"
        }
      ],
      "stateMutability": "view",
      "type": "function"
    },
    {
      "inputs": [
        {
          "internalType": "uint256",
          "name": "",
          "type": "uint256"
        }
      ],
      "name": "volunteerVotes",
      "outputs": [
        {
          "internalType": "uint256",
          "name": "",
          "type": "uint256"
        }
      ],
      "stateMutability": "view",
      "type": "function"
    },
    {
      "inputs": [
        {
          "internalType": "uint256",
          "name": "_volunteerIndex",
          "type": "uint256"
        }
      ],
      "name": "vote",
      "outputs": [],
      "stateMutability": "nonpayable",
      "type": "function"
    },
    {
      "inputs": [
        {
          "internalType": "address",
          "name": "",
          "type": "address"
        }
      ],
      "name": "votingPower",
      "outputs": [
        {
          "internalType": "uint256",
          "name": "",
          "type": "uint256"
        }
      ],
      "stateMutability": "view",
      "type": "function"
    },
    {
      "inputs": [],
      "name": "winningVolunteerIndex",
      "outputs": [
        {
          "internalType": "uint256",
          "name": "",
          "type": "uint256"
        }
      ],
      "stateMutability": "view",
      "type": "function"
    }
  ],
  "bytecode": "0x608060405234801561001057600080fd5b50604051610f63380380610f6383398101604081905261002f91610339565b600180556001600160a01b03851661008e5760405162461bcd60e51b815260206004820152601560248201527f496e76616c696420746f6b656e2061646472657373000000000000000000000060448201526064015b60405180910390fd5b6001600160a01b0384166100e45760405162461bcd60e51b815260206004820152601460248201527f496e76616c6964205553444320616464726573730000000000000000000000006044820152606401610085565b6001600160a01b03831661013a5760405162461bcd60e51b815260206004820152601860248201527f496e76616c6964207265676973747279206164647265737300000000000000006044820152606401610085565b6001600160a01b0382166101905760405162461bcd60e51b815260206004820152601d60248201527f496e76616c69642053656c662050726f746f636f6c20616464726573730000006044820152606401610085565b6001600160a01b0381166101e65760405162461bcd60e51b815260206004820152601560248201527f496e76616c69642061646d696e206164647265737300000000000000000000006044820152606401610085565b600280546001600160a01b038088166001600160a01b0319928316179092556003805487841690831617905560048054868416908316179055600580549285169290911691909117905561023b600082610271565b506102667fa49807205ce4d355092ef5a8a18f56e8913cf4a201fbe287825b095693c2177582610271565b50505050505061039e565b6000828152602081815260408083206001600160a01b038516845290915281205460ff16610313576000838152602081815260408083206001600160a01b03861684529091529020805460ff191660011790556102cb3390565b6001600160a01b0316826001600160a01b0316847f2f8788117e7eff1d82e926ec794901d17c78024a50270940304540a733656f0d60405160405180910390a4506001610317565b5060005b92915050565b80516001600160a01b038116811461033457600080fd5b919050565b600080600080600060a0868803121561035157600080fd5b61035a8661031d565b94506103686020870161031d565b93506103766040870161031d565b92506103846060870161031d565b91506103926080870161031d565b90509295509295909350565b610bb6806103ad6000396000f3fe608060405234801561001057600080fd5b50600436106101425760003560e01c80637fabe80a116100b8578063bc7316f21161007c578063bc7316f214610306578063c07473f614610318578063c1e1635914610338578063cde419a414610345578063d547741f1461034d578063f96dae0a1461036057600080fd5b80637fabe80a1461028c57806391d14854146102b8578063a0122a57146102cb578063a217fddf146102de578063b2c2f2e8146102e657600080fd5b80632f2ff15d1161010a5780632f2ff15d1461020357806336568abe146102165780634878676a146102295780636809587714610249578063705ed2731461025257806375b238fc1461026557600080fd5b80630121b93f1461014757806301ffc9a71461015c57806309eef43e1461018457806311eac855146101a7578063248a9ca3146101d2575b600080fd5b61015a610155366004610a77565b610373565b005b61016f61016a366004610a90565b61061f565b60405190151581526020015b60405180910390f35b61016f610192366004610add565b60076020526000908152604090205460ff1681565b6003546101ba906001600160a01b031681565b6040516001600160a01b03909116815260200161017b565b6101f56101e0366004610a77565b60009081526020819052604090206001015490565b60405190815260200161017b565b61015a610211366004610af8565b610656565b61015a610224366004610af8565b610681565b6101f5610237366004610a77565b60086020526000908152604090205481565b6101f560095481565b6005546101ba906001600160a01b031681565b6101f57fa49807205ce4d355092ef5a8a18f56e8913cf4a201fbe287825b095693c2177581565b61016f61029a366004610add565b6001600160a01b031660009081526007602052604090205460ff1690565b61016f6102c6366004610af8565b6106b9565b6004546101ba906001600160a01b031681565b6101f5600081565b6101f56102f4366004610a77565b60009081526008602052604090205490565b600a5461016f90610100900460ff1681565b6101f5610326366004610add565b60066020526000908152604090205481565b600a5461016f9060ff1681565b61015a6106e2565b61015a61035b366004610af8565b6108e4565b6002546101ba906001600160a01b031681565b61037b610909565b600a5460ff16156103d35760405162461bcd60e51b815260206004820152601a60248201527f456c656374696f6e20616c726561647920636f6e636c7564656400000000000060448201526064015b60405180910390fd5b60048054604051632105dac760e11b81526000928101929092526001600160a01b03169063420bb58e90602401602060405180830381865afa15801561041d573d6000803e3d6000fd5b505050506040513d601f19601f820116820180604052508101906104419190610b24565b6104865760405162461bcd60e51b8152602060048201526016602482015275159bdb1d5b9d19595c881b9bdd08185c1c1c9bdd995960521b60448201526064016103ca565b3360009081526007602052604090205460ff16156104d65760405162461bcd60e51b815260206004820152600d60248201526c105b1c9958591e481d9bdd1959609a1b60448201526064016103ca565b6002546040516370a0823160e01b81523360048201526000916001600160a01b0316906370a0823190602401602060405180830381865afa15801561051f573d6000803e3d6000fd5b505050506040513d601f19601f820116820180604052508101906105439190610b46565b9050600081116105875760405162461bcd60e51b815260206004820152600f60248201526e2737903b37ba34b733903837bbb2b960891b60448201526064016103ca565b3360009081526006602090815260408083208490558483526008909152812080548392906105b6908490610b5f565b90915550503360008181526007602052604090819020805460ff19166001179055518391907fb4cfecf70861b7b150d8337780d34fb4cbc2114b5fb1fe51a5c5fca1849f72749061060a9085815260200190565b60405180910390a35061061c60018055565b50565b60006001600160e01b03198216637965db0b60e01b148061065057506301ffc9a760e01b6001600160e01b03198316145b92915050565b60008281526020819052604090206001015461067181610933565b61067b838361093d565b50505050565b6001600160a01b03811633146106aa5760405163334bd91960e11b815260040160405180910390fd5b6106b482826109cf565b505050565b6000918252602082815260408084206001600160a01b0393909316845291905290205460ff1690565b7fa49807205ce4d355092ef5a8a18f56e8913cf4a201fbe287825b095693c2177561070c81610933565b600a5460ff161561075f5760405162461bcd60e51b815260206004820152601a60248201527f456c656374696f6e20616c726561647920636f6e636c7564656400000000000060448201526064016103ca565b6000806000600460009054906101000a90046001600160a01b03166001600160a01b031663d1da2f7c6040518163ffffffff1660e01b8152600401602060405180830381865afa1580156107b7573d6000803e3d6000fd5b505050506040513d601f19601f820116820180604052508101906107db9190610b46565b905060005b81811015610821576000818152600860205260409020548410156108195760008181526008602052604090205460098290559350600192505b6001016107e0565b50600a805460ff1916600117905581801561083c5750600083115b1561088e5760095460408051918252600060208301819052908201859052907fbd6e6cda619bf8543e995b997970fedcc65aee3e52791dd5c821df665df1192a9060600160405180910390a15061067b565b600a805461ff001916610100179055604080516000808252602082018190528183015290517fbd6e6cda619bf8543e995b997970fedcc65aee3e52791dd5c821df665df1192a916060908290030190a150505050565b6000828152602081905260409020600101546108ff81610933565b61067b83836109cf565b60026001540361092c57604051633ee5aeb560e01b815260040160405180910390fd5b6002600155565b61061c8133610a3a565b600061094983836106b9565b6109c7576000838152602081815260408083206001600160a01b03861684529091529020805460ff1916600117905561097f3390565b6001600160a01b0316826001600160a01b0316847f2f8788117e7eff1d82e926ec794901d17c78024a50270940304540a733656f0d60405160405180910390a4506001610650565b506000610650565b60006109db83836106b9565b156109c7576000838152602081815260408083206001600160a01b0386168085529252808320805460ff1916905551339286917ff6391f5c32d9c69d2a47ea670b442974b53935d1edc7fd64eb21e047a839171b9190a4506001610650565b610a4482826106b9565b610a735760405163e2517d3f60e01b81526001600160a01b0382166004820152602481018390526044016103ca565b5050565b600060208284031215610a8957600080fd5b5035919050565b600060208284031215610aa257600080fd5b81356001600160e01b031981168114610aba57600080fd5b9392505050565b80356001600160a01b0381168114610ad857600080fd5b919050565b600060208284031215610aef57600080fd5b610aba82610ac1565b60008060408385031215610b0b57600080fd5b82359150610b1b60208401610ac1565b90509250929050565b600060208284031215610b3657600080fd5b81518015158114610aba57600080fd5b600060208284031215610b5857600080fd5b5051919050565b8082018082111561065057634e487b7160e01b600052601160045260246000fdfea26469706673582212207a1715ad51f5e99b0c66e3a0c70bb70bf9670e2fb191e5844ed1f951bd14992664736f6c634300081c0033",
  "linkReferences": {},
  "deployedLinkReferences": {}
}