{
  "_format": "hh-sol-artifact-1",
  "contractName": "MultiChainDAOFactory",
  "sourceName": "contracts/MultiChainDAOFactory.sol",
  "abi": [
    {
      "inputs": [],
      "stateMutability": "nonpayable",
      "type": "constructor"
    },
    {
      "inputs": [],
      "name": "AccessControlBadConfirmation",
      "type": "error"
    },
    {
      "inputs": [
        {
          "internalType": "address",
          "name": "account",
          "type": "address"
        },
        {
          "internalType": "bytes32",
          "name": "neededRole",
          "type": "bytes32"
        }
      ],
      "name": "AccessControlUnauthorizedAccount",
      "type": "error"
    },
    {
      "anonymous": false,
      "inputs": [
        {
          "indexed": true,
          "internalType": "bytes32",
          "name": "daoId",
          "type": "bytes32"
        },
        {
          "indexed": false,
          "internalType": "string",
          "name": "name",
          "type": "string"
        },
        {
          "indexed": false,
          "internalType": "address",
          "name": "tokenAddress",
          "type": "address"
        },
        {
          "indexed": false,
          "internalType": "address",
          "name": "treasuryAddress",
          "type": "address"
        },
        {
          "indexed": false,
          "internalType": "address",
          "name": "governanceAddress",
          "type": "address"
        },
        {
          "indexed": false,
          "internalType": "address",
          "name": "volunteerRegistryAddress",
          "type": "address"
        },
        {
          "indexed": false,
          "internalType": "uint256",
          "name": "chainId",
          "type": "uint256"
        }
      ],
      "name": "DAOCreated",
      "type": "event"
    },
    {
      "anonymous": false,
      "inputs": [
        {
          "indexed": true,
          "internalType": "bytes32",
          "name": "daoId",
          "type": "bytes32"
        }
      ],
      "name": "DAODeactivated",
      "type": "event"
    },
    {
      "anonymous": false,
      "inputs": [
        {
          "indexed": true,
          "internalType": "bytes32",
          "name": "role",
          "type": "bytes32"
        },
        {
          "indexed": true,
          "internalType": "bytes32",
          "name": "previousAdminRole",
          "type": "bytes32"
        },
        {
          "indexed": true,
          "internalType": "bytes32",
          "name": "newAdminRole",
          "type": "bytes32"
        }
      ],
      "name": "RoleAdminChanged",
      "type": "event"
    },
    {
      "anonymous": false,
      "inputs": [
        {
          "indexed": true,
          "internalType": "bytes32",
          "name": "role",
          "type": "bytes32"
        },
        {
          "indexed": true,
          "internalType": "address",
          "name": "account",
          "type": "address"
        },
        {
          "indexed": true,
          "internalType": "address",
          "name": "sender",
          "type": "address"
        }
      ],
      "name": "RoleGranted",
      "type": "event"
    },
    {
      "anonymous": false,
      "inputs": [
        {
          "indexed": true,
          "internalType": "bytes32",
          "name": "role",
          "type": "bytes32"
        },
        {
          "indexed": true,
          "internalType": "address",
          "name": "account",
          "type": "address"
        },
        {
          "indexed": true,
          "internalType": "address",
          "name": "sender",
          "type": "address"
        }
      ],
      "name": "RoleRevoked",
      "type": "event"
    },
    {
      "inputs": [],
      "name": "ADMIN_ROLE",
      "outputs": [
        {
          "internalType": "bytes32",
          "name": "",
          "type": "bytes32"
        }
      ],
      "stateMutability": "view",
      "type": "function"
    },
    {
      "inputs": [],
      "name": "DEFAULT_ADMIN_ROLE",
      "outputs": [
        {
          "internalType": "bytes32",
          "name": "",
          "type": "bytes32"
        }
      ],
      "stateMutability": "view",
      "type": "function"
    },
    {
      "inputs": [
        {
          "internalType": "string",
          "name": "_name",
          "type": "string"
        },
        {
          "internalType": "address",
          "name": "_usdcAddress",
          "type": "address"
        },
        {
          "internalType": "address",
          "name": "_selfProtocolAddress",
          "type": "address"
        }
      ],
      "name": "createNewDAO",
      "outputs": [
        {
          "internalType": "bytes32",
          "name": "daoId",
          "type": "bytes32"
        }
      ],
      "stateMutability": "nonpayable",
      "type": "function"
    },
    {
      "inputs": [
        {
          "internalType": "uint256",
          "name": "",
          "type": "uint256"
        }
      ],
      "name": "daoIds",
      "outputs": [
        {
          "internalType": "bytes32",
          "name": "",
          "type": "bytes32"
        }
      ],
      "stateMutability": "view",
      "type": "function"
    },
    {
      "inputs": [
        {
          "internalType": "bytes32",
          "name": "",
          "type": "bytes32"
        }
      ],
      "name": "daos",
      "outputs": [
        {
          "internalType": "string",
          "name": "name",
          "type": "string"
        },
        {
          "internalType": "address",
          "name": "tokenAddress",
          "type": "address"
        },
        {
          "internalType": "address",
          "name": "treasuryAddress",
          "type": "address"
        },
        {
          "internalType": "address",
          "name": "governanceAddress",
          "type": "address"
        },
        {
          "internalType": "address",
          "name": "volunteerRegistryAddress",
          "type": "address"
        },
        {
          "internalType": "uint256",
          "name": "creationTime",
          "type": "uint256"
        },
        {
          "internalType": "uint256",
          "name": "chainId",
          "type": "uint256"
        },
        {
          "internalType": "bool",
          "name": "active",
          "type": "bool"
        }
      ],
      "stateMutability": "view",
      "type": "function"
    },
    {
      "inputs": [
        {
          "internalType": "bytes32",
          "name": "daoId",
          "type": "bytes32"
        }
      ],
      "name": "deactivateDAO",
      "outputs": [],
      "stateMutability": "nonpayable",
      "type": "function"
    },
    {
      "inputs": [],
      "name": "getActiveDAOs",
      "outputs": [
        {
          "internalType": "bytes32[]",
          "name": "",
          "type": "bytes32[]"
        }
      ],
      "stateMutability": "view",
      "type": "function"
    },
    {
      "inputs": [],
      "name": "getDAOCount",
      "outputs": [
        {
          "internalType": "uint256",
          "name": "",
          "type": "uint256"
        }
      ],
      "stateMutability": "view",
      "type": "function"
    },
    {
      "inputs": [
        {
          "internalType": "uint256",
          "name": "index",
          "type": "uint256"
        }
      ],
      "name": "getDAOIdByIndex",
      "outputs": [
        {
          "internalType": "bytes32",
          "name": "",
          "type": "bytes32"
        }
      ],
      "stateMutability": "view",
      "type": "function"
    },
    {
      "inputs": [
        {
          "internalType": "bytes32",
          "name": "daoId",
          "type": "bytes32"
        }
      ],
      "name": "getDAOInfo",
      "outputs": [
        {
          "components": [
            {
              "internalType": "string",
              "name": "name",
              "type": "string"
            },
            {
              "internalType": "address",
              "name": "tokenAddress",
              "type": "address"
            },
            {
              "internalType": "address",
              "name": "treasuryAddress",
              "type": "address"
            },
            {
              "internalType": "address",
              "name": "governanceAddress",
              "type": "address"
            },
            {
              "internalType": "address",
              "name": "volunteerRegistryAddress",
              "type": "address"
            },
            {
              "internalType": "uint256",
              "name": "creationTime",
              "type": "uint256"
            },
            {
              "internalType": "uint256",
              "name": "chainId",
              "type": "uint256"
            },
            {
              "internalType": "bool",
              "name": "active",
              "type": "bool"
            }
          ],
          "internalType": "struct MultiChainDAOFactory.DAOInfo",
          "name": "",
          "type": "tuple"
        }
      ],
      "stateMutability": "view",
      "type": "function"
    },
    {
      "inputs": [
        {
          "internalType": "bytes32",
          "name": "role",
          "type": "bytes32"
        }
      ],
      "name": "getRoleAdmin",
      "outputs": [
        {
          "internalType": "bytes32",
          "name": "",
          "type": "bytes32"
        }
      ],
      "stateMutability": "view",
      "type": "function"
    },
    {
      "inputs": [
        {
          "internalType": "bytes32",
          "name": "role",
          "type": "bytes32"
        },
        {
          "internalType": "address",
          "name": "account",
          "type": "address"
        }
      ],
      "name": "grantRole",
      "outputs": [],
      "stateMutability": "nonpayable",
      "type": "function"
    },
    {
      "inputs": [
        {
          "internalType": "bytes32",
          "name": "role",
          "type": "bytes32"
        },
        {
          "internalType": "address",
          "name": "account",
          "type": "address"
        }
      ],
      "name": "hasRole",
      "outputs": [
        {
          "internalType": "bool",
          "name": "",
          "type": "bool"
        }
      ],
      "stateMutability": "view",
      "type": "function"
    },
    {
      "inputs": [
        {
          "internalType": "bytes32",
          "name": "role",
          "type": "bytes32"
        },
        {
          "internalType": "address",
          "name": "callerConfirmation",
          "type": "address"
        }
      ],
      "name": "renounceRole",
      "outputs": [],
      "stateMutability": "nonpayable",
      "type": "function"
    },
    {
      "inputs": [
        {
          "internalType": "bytes32",
          "name": "role",
          "type": "bytes32"
        },
        {
          "internalType": "address",
          "name": "account",
          "type": "address"
        }
      ],
      "name": "revokeRole",
      "outputs": [],
      "stateMutability": "nonpayable",
      "type": "function"
    },
    {
      "inputs": [
        {
          "internalType": "bytes4",
          "name": "interfaceId",
          "type": "bytes4"
        }
      ],
      "name": "supportsInterface",
      "outputs": [
        {
          "internalType": "bool",
          "name": "",
          "type": "bool"
        }
      ],
      "stateMutability": "view",
      "type": "function"
    }
  ],
  "bytecode": "0x608060405234801561001057600080fd5b5061001c60003361004d565b506100477fa49807205ce4d355092ef5a8a18f56e8913cf4a201fbe287825b095693c217753361004d565b506100f9565b6000828152602081815260408083206001600160a01b038516845290915281205460ff166100ef576000838152602081815260408083206001600160a01b03861684529091529020805460ff191660011790556100a73390565b6001600160a01b0316826001600160a01b0316847f2f8788117e7eff1d82e926ec794901d17c78024a50270940304540a733656f0d60405160405180910390a45060016100f3565b5060005b92915050565b617232806101086000396000f3fe608060405234801561001057600080fd5b50600436106101005760003560e01c806375b238fc11610097578063a217fddf11610066578063a217fddf1461024a578063c1d520b314610252578063d547741f14610265578063f5c8d2321461027857600080fd5b806375b238fc146101db57806391d148541461020257806396ae38c8146102155780639989b9141461023557600080fd5b80632f2ff15d116100d35780632f2ff15d146101865780632fa2cc4e1461019957806336568abe146101c05780633a479fb8146101d357600080fd5b806301ffc9a714610105578063248a9ca31461012d5780632a3391d01461015e5780632b6214fd14610173575b600080fd5b610118610113366004610d4f565b61028b565b60405190151581526020015b60405180910390f35b61015061013b366004610d80565b60009081526020819052604090206001015490565b604051908152602001610124565b61017161016c366004610d80565b6102c2565b005b610150610181366004610d80565b6103a4565b610171610194366004610db5565b610413565b6101ac6101a7366004610d80565b61043e565b604051610124989796959493929190610e31565b6101716101ce366004610db5565b61051b565b600254610150565b6101507fa49807205ce4d355092ef5a8a18f56e8913cf4a201fbe287825b095693c2177581565b610118610210366004610db5565b610553565b610228610223366004610d80565b61057c565b6040516101249190610e8e565b61023d6106ca565b6040516101249190610f32565b610150600081565b610150610260366004610f8b565b61081c565b610171610273366004610db5565b610b8e565b610150610286366004610d80565b610bb3565b60006001600160e01b03198216637965db0b60e01b14806102bc57506301ffc9a760e01b6001600160e01b03198316145b92915050565b7fa49807205ce4d355092ef5a8a18f56e8913cf4a201fbe287825b095693c217756102ec81610bd4565b60008281526001602052604090206007015460ff166103605760405162461bcd60e51b815260206004820152602560248201527f44414f20616c726561647920696e616374697665206f7220646f65736e277420604482015264195e1a5cdd60da1b60648201526084015b60405180910390fd5b600082815260016020526040808220600701805460ff191690555183917f75846ff46d62a22c0bc5085ca61148f54dca428561fd344be68000fdbdd0eee691a25050565b60025460009082106103ee5760405162461bcd60e51b8152602060048201526013602482015272496e646578206f7574206f6620626f756e647360681b6044820152606401610357565b6002828154811061040157610401611065565b90600052602060002001549050919050565b60008281526020819052604090206001015461042e81610bd4565b6104388383610be1565b50505050565b6001602052600090815260409020805481906104599061107b565b80601f01602080910402602001604051908101604052809291908181526020018280546104859061107b565b80156104d25780601f106104a7576101008083540402835291602001916104d2565b820191906000526020600020905b8154815290600101906020018083116104b557829003601f168201915b50505060018401546002850154600386015460048701546005880154600689015460079099015497986001600160a01b0395861698948616975092851695509316929160ff1688565b6001600160a01b03811633146105445760405163334bd91960e11b815260040160405180910390fd5b61054e8282610c73565b505050565b6000918252602082815260408084206001600160a01b0393909316845291905290205460ff1690565b6040805161010081018252606080825260006020830181905292820183905281018290526080810182905260a0810182905260c0810182905260e081019190915260008281526001602052604090819020815161010081019092528054829082906105e69061107b565b80601f01602080910402602001604051908101604052809291908181526020018280546106129061107b565b801561065f5780601f106106345761010080835404028352916020019161065f565b820191906000526020600020905b81548152906001019060200180831161064257829003601f168201915b505050918352505060018201546001600160a01b0390811660208301526002830154811660408301526003830154811660608301526004830154166080820152600582015460a0820152600682015460c082015260079091015460ff16151560e09091015292915050565b60606000805b60025481101561072e5760016000600283815481106106f1576106f1611065565b6000918252602080832090910154835282019290925260400190206007015460ff16156107265781610722816110b5565b9250505b6001016106d0565b5060008167ffffffffffffffff81111561074a5761074a610f75565b604051908082528060200260200182016040528015610773578160200160208202803683370190505b5090506000805b60025481101561081357600160006002838154811061079b5761079b611065565b6000918252602080832090910154835282019290925260400190206007015460ff161561080b57600281815481106107d5576107d5611065565b90600052602060002001548383815181106107f2576107f2611065565b602090810291909101015281610807816110b5565b9250505b60010161077a565b50909392505050565b60007fa49807205ce4d355092ef5a8a18f56e8913cf4a201fbe287825b095693c2177561084881610bd4565b600060405161085690610d1b565b604051809103906000f080158015610872573d6000803e3d6000fd5b50905060008460405161088490610d28565b6001600160a01b039091168152602001604051809103906000f0801580156108b0573d6000803e3d6000fd5b50905060008683836040516108c490610d35565b6001600160a01b03938416815291831660208301529091166040820152606001604051809103906000f080158015610900573d6000803e3d6000fd5b5090506000838884893360405161091690610d42565b6001600160a01b0395861681529385166020850152918416604084015283166060830152909116608082015260a001604051809103906000f080158015610961573d6000803e3d6000fd5b50604051632f2ff15d60e01b81527f9f2df0fed2c77648de5860a4cc508cd0818c85b8b8a1ab4ceeef8d981c8956a660048201526001600160a01b03848116602483015291925090851690632f2ff15d90604401600060405180830381600087803b1580156109cf57600080fd5b505af11580156109e3573d6000803e3d6000fd5b505050508842466040516020016109fc939291906110dc565b60408051601f198184030181528282528051602091820120610100840183528c84526001600160a01b0380891685840152868116858501528581166060860152871660808501524260a08501524660c0850152600160e08501819052600082815292529190208251919850908190610a749082611151565b506020820151600182810180546001600160a01b03199081166001600160a01b03948516179091556040808601516002808701805485169287169290921790915560608701516003870180548516918716919091179055608087015160048701805490941695169490941790915560a0850151600585015560c0850151600685015560e0909401516007909301805460ff191693151593909317909255805491820181556000527f405787fa12a823e0f2b7631cc41b3ba8828b3321ca811111fa75cd3aa3bb5ace018790555186907f918fc1e7c2b8eb3ecde7c997633f4b96ba054cf384ec2d4982ca6d7948b9c4f390610b7a908c908890879087908a904690611210565b60405180910390a250505050509392505050565b600082815260208190526040902060010154610ba981610bd4565b6104388383610c73565b60028181548110610bc357600080fd5b600091825260209091200154905081565b610bde8133610cde565b50565b6000610bed8383610553565b610c6b576000838152602081815260408083206001600160a01b03861684529091529020805460ff19166001179055610c233390565b6001600160a01b0316826001600160a01b0316847f2f8788117e7eff1d82e926ec794901d17c78024a50270940304540a733656f0d60405160405180910390a45060016102bc565b5060006102bc565b6000610c7f8383610553565b15610c6b576000838152602081815260408083206001600160a01b0386168085529252808320805460ff1916905551339286917ff6391f5c32d9c69d2a47ea670b442974b53935d1edc7fd64eb21e047a839171b9190a45060016102bc565b610ce88282610553565b610d175760405163e2517d3f60e01b81526001600160a01b038216600482015260248101839052604401610357565b5050565b6110dd8061125883390190565b611fdf8061233583390190565b6113808061431483390190565b611b698061569483390190565b600060208284031215610d6157600080fd5b81356001600160e01b031981168114610d7957600080fd5b9392505050565b600060208284031215610d9257600080fd5b5035919050565b80356001600160a01b0381168114610db057600080fd5b919050565b60008060408385031215610dc857600080fd5b82359150610dd860208401610d99565b90509250929050565b60005b83811015610dfc578181015183820152602001610de4565b50506000910152565b60008151808452610e1d816020860160208601610de1565b601f01601f19169290920160200192915050565b61010081526000610e4661010083018b610e05565b6001600160a01b03998a166020840152978916604083015250948716606086015292909516608084015260a083015260c082019390935291151560e090920191909152919050565b60208152600082516101006020840152610eac610120840182610e05565b905060018060a01b03602085015116604084015260018060a01b0360408501511660608401526060840151610eec60808501826001600160a01b03169052565b5060808401516001600160a01b03811660a08501525060a084015160c084015260c084015160e084015260e0840151610f2a61010085018215159052565b509392505050565b602080825282518282018190526000918401906040840190835b81811015610f6a578351835260209384019390920191600101610f4c565b509095945050505050565b634e487b7160e01b600052604160045260246000fd5b600080600060608486031215610fa057600080fd5b833567ffffffffffffffff811115610fb757600080fd5b8401601f81018613610fc857600080fd5b803567ffffffffffffffff811115610fe257610fe2610f75565b604051601f8201601f19908116603f0116810167ffffffffffffffff8111828210171561101157611011610f75565b60405281815282820160200188101561102957600080fd5b8160208401602083013760006020838301015280955050505061104e60208501610d99565b915061105c60408501610d99565b90509250925092565b634e487b7160e01b600052603260045260246000fd5b600181811c9082168061108f57607f821691505b6020821081036110af57634e487b7160e01b600052602260045260246000fd5b50919050565b6000600182016110d557634e487b7160e01b600052601160045260246000fd5b5060010190565b600084516110ee818460208901610de1565b91909101928352506020820152604001919050565b601f82111561054e57806000526020600020601f840160051c8101602085101561112a5750805b601f840160051c820191505b8181101561114a5760008155600101611136565b5050505050565b815167ffffffffffffffff81111561116b5761116b610f75565b61117f81611179845461107b565b84611103565b6020601f8211600181146111b3576000831561119b5750848201515b600019600385901b1c1916600184901b17845561114a565b600084815260208120601f198516915b828110156111e357878501518255602094850194600190920191016111c3565b50848210156112015786840151600019600387901b60f8161c191681555b50505050600190811b01905550565b60c08152600061122360c0830189610e05565b6001600160a01b03978816602084015295871660408301525092851660608401529316608082015260a0019190915291905056fe608060405234801561001057600080fd5b506040518060400160405280601981526020017f466c61736844414f20476f7665726e616e636520546f6b656e0000000000000081525060405180604001604052806004815260200163119111d560e21b81525081600390816100739190610210565b5060046100808282610210565b50610090915060009050336100c1565b506100bb7f9f2df0fed2c77648de5860a4cc508cd0818c85b8b8a1ab4ceeef8d981c8956a6336100c1565b506102ce565b60008281526005602090815260408083206001600160a01b038516845290915281205460ff166101675760008381526005602090815260408083206001600160a01b03861684529091529020805460ff1916600117905561011f3390565b6001600160a01b0316826001600160a01b0316847f2f8788117e7eff1d82e926ec794901d17c78024a50270940304540a733656f0d60405160405180910390a450600161016b565b5060005b92915050565b634e487b7160e01b600052604160045260246000fd5b600181811c9082168061019b57607f821691505b6020821081036101bb57634e487b7160e01b600052602260045260246000fd5b50919050565b601f82111561020b57806000526020600020601f840160051c810160208510156101e85750805b601f840160051c820191505b8181101561020857600081556001016101f4565b50505b505050565b81516001600160401b0381111561022957610229610171565b61023d816102378454610187565b846101c1565b6020601f82116001811461027157600083156102595750848201515b600019600385901b1c1916600184901b178455610208565b600084815260208120601f198516915b828110156102a15787850151825560209485019460019092019101610281565b50848210156102bf5786840151600019600387901b60f8161c191681555b50505050600190811b01905550565b610e00806102dd6000396000f3fe608060405234801561001057600080fd5b50600436106101375760003560e01c80636a0cb0b8116100b8578063a24bcf461161007c578063a24bcf461461027a578063a9059cbb1461028d578063ce4b5bbe146102a0578063d5391393146102ab578063d547741f146102d2578063dd62ed3e146102e557600080fd5b80636a0cb0b81461021b57806370a082311461022e57806391d148541461025757806395d89b411461026a578063a217fddf1461027257600080fd5b8063248a9ca3116100ff578063248a9ca3146101b157806325de1092146101d45780632f2ff15d146101e4578063313ce567146101f957806336568abe1461020857600080fd5b806301ffc9a71461013c57806306fdde0314610164578063095ea7b31461017957806318160ddd1461018c57806323b872dd1461019e575b600080fd5b61014f61014a366004610ba2565b61031e565b60405190151581526020015b60405180910390f35b61016c61032f565b60405161015b9190610bd3565b61014f610187366004610c3d565b6103c1565b6002545b60405190815260200161015b565b61014f6101ac366004610c67565b6103d9565b6101906101bf366004610ca4565b60009081526005602052604090206001015490565b610190683635c9adc5dea0000081565b6101f76101f2366004610cbd565b6103fd565b005b6040516012815260200161015b565b6101f7610216366004610cbd565b610428565b610190610229366004610c3d565b610460565b61019061023c366004610ce9565b6001600160a01b031660009081526020819052604090205490565b61014f610265366004610cbd565b610553565b61016c61057e565b610190600081565b610190610288366004610ca4565b61058d565b61014f61029b366004610c3d565b6106d5565b6101906305f5e10081565b6101907f9f2df0fed2c77648de5860a4cc508cd0818c85b8b8a1ab4ceeef8d981c8956a681565b6101f76102e0366004610cbd565b6106e3565b6101906102f3366004610d04565b6001600160a01b03918216600090815260016020908152604080832093909416825291909152205490565b600061032982610708565b92915050565b60606003805461033e90610d2e565b80601f016020809104026020016040519081016040528092919081815260200182805461036a90610d2e565b80156103b75780601f1061038c576101008083540402835291602001916103b7565b820191906000526020600020905b81548152906001019060200180831161039a57829003601f168201915b5050505050905090565b6000336103cf81858561073d565b5060019392505050565b6000336103e785828561074a565b6103f28585856107c3565b506001949350505050565b60008281526005602052604090206001015461041881610822565b610422838361082f565b50505050565b6001600160a01b03811633146104515760405163334bd91960e11b815260040160405180910390fd5b61045b82826108c3565b505050565b60007f9f2df0fed2c77648de5860a4cc508cd0818c85b8b8a1ab4ceeef8d981c8956a661048c81610822565b600083116104f05760405162461bcd60e51b815260206004820152602660248201527f446f6e6174696f6e20616d6f756e74206d75737420626520677265617465722060448201526507468616e20360d41b60648201526084015b60405180910390fd5b60006104fb8461058d565b90506105078582610930565b60408051858152602081018390526001600160a01b038716917f2e8ac5177a616f2aec08c3048f5021e4e9743ece034e8d83ba5caf76688bb475910160405180910390a2949350505050565b60009182526005602090815260408084206001600160a01b0393909316845291905290205460ff1690565b60606004805461033e90610d2e565b60008061059f8364e8d4a51000610d7e565b9050828110156105ba5750683635c9adc5dea0000092915050565b60006305f5e1006105d3670de0b6b3a764000084610d7e565b6105dd9190610d95565b90506105f26064670de0b6b3a7640000610d95565b81101561062757670de0b6b3a764000061061582683635c9adc5dea00000610d7e565b61061f9190610d95565b949350505050565b600081670de0b6b3a7640000811161069157670de0b6b3a764000083800204600281048083111561068a578083039350670de0b6b3a7640000821161068a576729a2241af62c000085830204670de0b6b3a764000081101561068857938401935b505b50506106a5565b50683635c9adc5dea0000095945050505050565b50670de0b6b3a76400006106c282683635c9adc5dea00000610d7e565b6106cc9190610d95565b95945050505050565b6000336103cf8185856107c3565b6000828152600560205260409020600101546106fe81610822565b61042283836108c3565b60006001600160e01b03198216637965db0b60e01b148061032957506301ffc9a760e01b6001600160e01b0319831614610329565b61045b838383600161096a565b6001600160a01b0383811660009081526001602090815260408083209386168352929052205460001981101561042257818110156107b457604051637dc7a0d960e11b81526001600160a01b038416600482015260248101829052604481018390526064016104e7565b6104228484848403600061096a565b6001600160a01b0383166107ed57604051634b637e8f60e11b8152600060048201526024016104e7565b6001600160a01b0382166108175760405163ec442f0560e01b8152600060048201526024016104e7565b61045b838383610a3f565b61082c8133610b69565b50565b600061083b8383610553565b6108bb5760008381526005602090815260408083206001600160a01b03861684529091529020805460ff191660011790556108733390565b6001600160a01b0316826001600160a01b0316847f2f8788117e7eff1d82e926ec794901d17c78024a50270940304540a733656f0d60405160405180910390a4506001610329565b506000610329565b60006108cf8383610553565b156108bb5760008381526005602090815260408083206001600160a01b0386168085529252808320805460ff1916905551339286917ff6391f5c32d9c69d2a47ea670b442974b53935d1edc7fd64eb21e047a839171b9190a4506001610329565b6001600160a01b03821661095a5760405163ec442f0560e01b8152600060048201526024016104e7565b61096660008383610a3f565b5050565b6001600160a01b0384166109945760405163e602df0560e01b8152600060048201526024016104e7565b6001600160a01b0383166109be57604051634a1406b160e11b8152600060048201526024016104e7565b6001600160a01b038085166000908152600160209081526040808320938716835292905220829055801561042257826001600160a01b0316846001600160a01b03167f8c5be1e5ebec7d5bd14f71427d1e84f3dd0314c0f7b2291e5b200ac8c7c3b92584604051610a3191815260200190565b60405180910390a350505050565b6001600160a01b038316610a6a578060026000828254610a5f9190610db7565b90915550610adc9050565b6001600160a01b03831660009081526020819052604090205481811015610abd5760405163391434e360e21b81526001600160a01b038516600482015260248101829052604481018390526064016104e7565b6001600160a01b03841660009081526020819052604090209082900390555b6001600160a01b038216610af857600280548290039055610b17565b6001600160a01b03821660009081526020819052604090208054820190555b816001600160a01b0316836001600160a01b03167fddf252ad1be2c89b69c2b068fc378daa952ba7f163c4a11628f55a4df523b3ef83604051610b5c91815260200190565b60405180910390a3505050565b610b738282610553565b6109665760405163e2517d3f60e01b81526001600160a01b0382166004820152602481018390526044016104e7565b600060208284031215610bb457600080fd5b81356001600160e01b031981168114610bcc57600080fd5b9392505050565b602081526000825180602084015260005b81811015610c015760208186018101516040868401015201610be4565b506000604082850101526040601f19601f83011684010191505092915050565b80356001600160a01b0381168114610c3857600080fd5b919050565b60008060408385031215610c5057600080fd5b610c5983610c21565b946020939093013593505050565b600080600060608486031215610c7c57600080fd5b610c8584610c21565b9250610c9360208501610c21565b929592945050506040919091013590565b600060208284031215610cb657600080fd5b5035919050565b60008060408385031215610cd057600080fd5b82359150610ce060208401610c21565b90509250929050565b600060208284031215610cfb57600080fd5b610bcc82610c21565b60008060408385031215610d1757600080fd5b610d2083610c21565b9150610ce060208401610c21565b600181811c90821680610d4257607f821691505b602082108103610d6257634e487b7160e01b600052602260045260246000fd5b50919050565b634e487b7160e01b600052601160045260246000fd5b808202811582820484141761032957610329610d68565b600082610db257634e487b7160e01b600052601260045260246000fd5b500490565b8082018082111561032957610329610d6856fea26469706673582212206f89737b9a49042c748b31c9890fbbf65b7aaec756055740f0b7e0709c7e364764736f6c634300081c0033608060405234801561001057600080fd5b50604051611fdf380380611fdf83398101604081905261002f916101b8565b6001600160a01b0381166100895760405162461bcd60e51b815260206004820152601d60248201527f496e76616c69642053656c662050726f746f636f6c2061646472657373000000604482015260640160405180910390fd5b600180546001600160a01b0319166001600160a01b0383161790556100af60003361010c565b506100da7fa49807205ce4d355092ef5a8a18f56e8913cf4a201fbe287825b095693c217753361010c565b506101057fa961ef34a96635180dfffd0ae574060d6c6af619ce89175a103711bf5ce827083361010c565b50506101e8565b6000828152602081815260408083206001600160a01b038516845290915281205460ff166101ae576000838152602081815260408083206001600160a01b03861684529091529020805460ff191660011790556101663390565b6001600160a01b0316826001600160a01b0316847f2f8788117e7eff1d82e926ec794901d17c78024a50270940304540a733656f0d60405160405180910390a45060016101b2565b5060005b92915050565b6000602082840312156101ca57600080fd5b81516001600160a01b03811681146101e157600080fd5b9392505050565b611de8806101f76000396000f3fe608060405234801561001057600080fd5b50600436106101735760003560e01c8063705ed273116100de5780639d7a295b11610097578063d1da2f7c11610071578063d1da2f7c146103a5578063d3b64316146103ad578063d547741f146103d0578063f9aad711146103e357600080fd5b80639d7a295b14610364578063a217fddf14610377578063c6b732311461037f57600080fd5b8063705ed273146102f057806375b238fc146103035780637910867b1461031857806390755c3b1461032b57806391d148541461033e5780639b072d0c1461035157600080fd5b80632f2ff15d116101305780632f2ff15d1461023c57806336568abe1461024f5780633949e7f1146102625780633c03d33a1461027557806359486873146102885780636389e07f146102af57600080fd5b806301ffc9a71461017857806309eef43e146101a05780630c87add6146101c3578063122b7941146101d8578063248a9ca3146101f8578063291640d014610229575b600080fd5b61018b6101863660046117cc565b6103f6565b60405190151581526020015b60405180910390f35b61018b6101ae366004611819565b60066020526000908152604090205460ff1681565b6101d66101d1366004611819565b61042d565b005b6101eb6101e6366004611819565b6104eb565b604051610197919061187a565b61021b6102063660046118ff565b60009081526020819052604090206001015490565b604051908152602001610197565b6101d6610237366004611819565b6106ca565b6101d661024a366004611918565b610719565b6101d661025d366004611918565b610744565b6101d66102703660046118ff565b61077c565b6101d661028336600461198d565b610884565b61021b7fa961ef34a96635180dfffd0ae574060d6c6af619ce89175a103711bf5ce8270881565b6102d86102bd3660046118ff565b6004602052600090815260409020546001600160a01b031681565b6040516001600160a01b039091168152602001610197565b6001546102d8906001600160a01b031681565b61021b600080516020611d9383398151915281565b61018b6103263660046118ff565b610c05565b61018b610339366004611819565b610c67565b61018b61034c366004611918565b610c8b565b6101d661035f3660046118ff565b610cb4565b6101d6610372366004611a33565b610e2d565b61021b600081565b61039261038d366004611819565b6112e7565b6040516101979796959493929190611aea565b60025461021b565b61018b6103bb3660046118ff565b60056020526000908152604090205460ff1681565b6101d66103de366004611918565b611443565b6101eb6103f13660046118ff565b611468565b60006001600160e01b03198216637965db0b60e01b148061042757506301ffc9a760e01b6001600160e01b03198316145b92915050565b600080516020611d938339815191526104458161163b565b6001600160a01b0382166104a05760405162461bcd60e51b815260206004820152601d60248201527f496e76616c69642053656c662050726f746f636f6c206164647265737300000060448201526064015b60405180910390fd5b600180546001600160a01b0319166001600160a01b0384169081179091556040517fd3fb1480aac6d3b0f61d2b8e99f7a0520b617d5a9bc5c0fa4f1ea6ebf81a389990600090a25050565b6104f3611782565b6104fc82610c67565b61053a5760405162461bcd60e51b815260206004820152600f60248201526e2737ba1030903b37b63ab73a32b2b960891b6044820152606401610497565b6001600160a01b03808316600090815260036020908152604091829020825160e08101845281548152600182015490941691840191909152600281018054919284019161058690611b48565b80601f01602080910402602001604051908101604052809291908181526020018280546105b290611b48565b80156105ff5780601f106105d4576101008083540402835291602001916105ff565b820191906000526020600020905b8154815290600101906020018083116105e257829003601f168201915b5050505050815260200160038201805461061890611b48565b80601f016020809104026020016040519081016040528092919081815260200182805461064490611b48565b80156106915780601f1061066657610100808354040283529160200191610691565b820191906000526020600020905b81548152906001019060200180831161067457829003601f168201915b50505091835250506004820154602082015260059091015460ff8082161515604084015261010090910416151560609091015292915050565b7fa961ef34a96635180dfffd0ae574060d6c6af619ce89175a103711bf5ce827086106f48161163b565b506001600160a01b03166000908152600660205260409020805460ff19166001179055565b6000828152602081905260409020600101546107348161163b565b61073e8383611648565b50505050565b6001600160a01b038116331461076d5760405163334bd91960e11b815260040160405180910390fd5b61077782826116da565b505050565b600080516020611d938339815191526107948161163b565b60008281526005602052604090205460ff166107c25760405162461bcd60e51b815260040161049790611b82565b6000828152600460209081526040808320546001600160a01b03168084526003909252909120600581015460ff1661083c5760405162461bcd60e51b815260206004820152601a60248201527f566f6c756e7465657220616c726561647920696e6163746976650000000000006044820152606401610497565b60058101805460ff191690556040516001600160a01b0383169085907f8903e88cf7edb43cc8ce5dd6c01b300b5dff5c7ed9ede46d16dd47f6f8c0bce590600090a350505050565b61088d33610c67565b156108da5760405162461bcd60e51b815260206004820152601f60248201527f416c7265616479207265676973746572656420617320766f6c756e74656572006044820152606401610497565b3360009081526006602052604090205460ff161561093a5760405162461bcd60e51b815260206004820152601b60248201527f566f746572732063616e6e6f7420626520766f6c756e746565727300000000006044820152606401610497565b8461097e5760405162461bcd60e51b81526020600482015260146024820152734e616d652063616e6e6f7420626520656d70747960601b6044820152606401610497565b600154604051635edd020d60e01b81526001600160a01b0390911690635edd020d906109b290339086908690600401611be2565b602060405180830381865afa1580156109cf573d6000803e3d6000fd5b505050506040513d601f19601f820116820180604052508101906109f39190611c10565b610a355760405162461bcd60e51b8152602060048201526013602482015272496e76616c69642063726564656e7469616c7360681b6044820152606401610497565b600254610a43816001611c32565b6002556040805160e081018252828152336020808301919091528251601f8a0182900482028101820184528981526000938301918b908b9081908401838280828437600092019190915250505090825250604080516020601f8a018190048102820181019092528881529181019190899089908190840183828082843760009201829052509385525050426020808501919091526001604080860182905260609095018490523384526003825292849020855181559085015192810180546001600160a01b0319166001600160a01b0390941693909317909255509082015191925082916002820190610b369082611cb7565b5060608201516003820190610b4b9082611cb7565b50608082015160048083019190915560a08301516005928301805460c09095015115156101000261ff00199215159290921661ffff19909516949094171790925560008481526020928352604080822080546001600160a01b0319163390811790915592909352829020805460ff19166001179055905183907f7357f5e14a2e2494dda903dfeb31233b708c32519affb9e407bd7a146d541a8390610bf3908c908c90611d76565b60405180910390a35050505050505050565b60008181526005602052604081205460ff16610c335760405162461bcd60e51b815260040161049790611b82565b506000908152600460209081526040808320546001600160a01b031683526003909152902060050154610100900460ff1690565b6001600160a01b039081166000818152600360205260409020600101549091161490565b6000918252602082815260408084206001600160a01b0393909316845291905290205460ff1690565b7fa961ef34a96635180dfffd0ae574060d6c6af619ce89175a103711bf5ce82708610cde8161163b565b60008281526005602052604090205460ff16610d0c5760405162461bcd60e51b815260040161049790611b82565b6000828152600460209081526040808320546001600160a01b031680845260039092529091206005810154610100900460ff1615610d8c5760405162461bcd60e51b815260206004820152601a60248201527f566f6c756e7465657220616c726561647920617070726f7665640000000000006044820152606401610497565b600581015460ff16610de05760405162461bcd60e51b815260206004820152601760248201527f566f6c756e74656572206973206e6f74206163746976650000000000000000006044820152606401610497565b60058101805461ff0019166101001790556040516001600160a01b0383169085907f4d44615d41afb44074d3528c693522ea195ce0ae446de735dd8a17f65914096090600090a350505050565b600080516020611d93833981519152610e458161163b565b6001600160a01b038816610e9b5760405162461bcd60e51b815260206004820152601960248201527f496e76616c696420766f6c756e746565722061646472657373000000000000006044820152606401610497565b610ea488610c67565b15610ef15760405162461bcd60e51b815260206004820152601f60248201527f416c7265616479207265676973746572656420617320766f6c756e74656572006044820152606401610497565b6001600160a01b03881660009081526006602052604090205460ff1615610f5a5760405162461bcd60e51b815260206004820152601b60248201527f566f746572732063616e6e6f7420626520766f6c756e746565727300000000006044820152606401610497565b85610f9e5760405162461bcd60e51b81526020600482015260146024820152734e616d652063616e6e6f7420626520656d70747960601b6044820152606401610497565b600154604051635edd020d60e01b81526001600160a01b0390911690635edd020d90610fd2908b9087908790600401611be2565b602060405180830381865afa158015610fef573d6000803e3d6000fd5b505050506040513d601f19601f820116820180604052508101906110139190611c10565b6110555760405162461bcd60e51b8152602060048201526013602482015272496e76616c69642063726564656e7469616c7360681b6044820152606401610497565b600254611063816001611c32565b60028190555060006040518060e001604052808381526020018b6001600160a01b031681526020018a8a8080601f016020809104026020016040519081016040528093929190818152602001838380828437600092019190915250505090825250604080516020601f8b0181900481028201810190925289815291810191908a908a9081908401838280828437600081840152601f19601f82011690508083019250505050505050815260200142815260200160011515815260200160011515815250905080600360008c6001600160a01b03166001600160a01b031681526020019081526020016000206000820151816000015560208201518160010160006101000a8154816001600160a01b0302191690836001600160a01b03160217905550604082015181600201908161119a9190611cb7565b50606082015160038201906111af9082611cb7565b506080820151816004015560a08201518160050160006101000a81548160ff02191690831515021790555060c08201518160050160016101000a81548160ff021916908315150217905550905050896004600084815260200190815260200160002060006101000a8154816001600160a01b0302191690836001600160a01b0316021790555060016005600084815260200190815260200160002060006101000a81548160ff021916908315150217905550896001600160a01b0316827f7357f5e14a2e2494dda903dfeb31233b708c32519affb9e407bd7a146d541a838b8b60405161129d929190611d76565b60405180910390a36040516001600160a01b038b169083907f4d44615d41afb44074d3528c693522ea195ce0ae446de735dd8a17f65914096090600090a350505050505050505050565b60036020526000908152604090208054600182015460028301805492936001600160a01b039092169261131990611b48565b80601f016020809104026020016040519081016040528092919081815260200182805461134590611b48565b80156113925780601f1061136757610100808354040283529160200191611392565b820191906000526020600020905b81548152906001019060200180831161137557829003601f168201915b5050505050908060030180546113a790611b48565b80601f01602080910402602001604051908101604052809291908181526020018280546113d390611b48565b80156114205780601f106113f557610100808354040283529160200191611420565b820191906000526020600020905b81548152906001019060200180831161140357829003601f168201915b50505050600483015460059093015491929160ff80821692506101009091041687565b60008281526020819052604090206001015461145e8161163b565b61073e83836116da565b611470611782565b60008281526005602052604090205460ff1661149e5760405162461bcd60e51b815260040161049790611b82565b6000828152600460209081526040808320546001600160a01b039081168085526003845293829020825160e081018452815481526001820154909216938201939093526002830180549193928401916114f690611b48565b80601f016020809104026020016040519081016040528092919081815260200182805461152290611b48565b801561156f5780601f106115445761010080835404028352916020019161156f565b820191906000526020600020905b81548152906001019060200180831161155257829003601f168201915b5050505050815260200160038201805461158890611b48565b80601f01602080910402602001604051908101604052809291908181526020018280546115b490611b48565b80156116015780601f106115d657610100808354040283529160200191611601565b820191906000526020600020905b8154815290600101906020018083116115e457829003601f168201915b50505091835250506004820154602082015260059091015460ff808216151560408401526101009091041615156060909101529392505050565b6116458133611745565b50565b60006116548383610c8b565b6116d2576000838152602081815260408083206001600160a01b03861684529091529020805460ff1916600117905561168a3390565b6001600160a01b0316826001600160a01b0316847f2f8788117e7eff1d82e926ec794901d17c78024a50270940304540a733656f0d60405160405180910390a4506001610427565b506000610427565b60006116e68383610c8b565b156116d2576000838152602081815260408083206001600160a01b0386168085529252808320805460ff1916905551339286917ff6391f5c32d9c69d2a47ea670b442974b53935d1edc7fd64eb21e047a839171b9190a4506001610427565b61174f8282610c8b565b61177e5760405163e2517d3f60e01b81526001600160a01b038216600482015260248101839052604401610497565b5050565b6040518060e001604052806000815260200160006001600160a01b031681526020016060815260200160608152602001600081526020016000151581526020016000151581525090565b6000602082840312156117de57600080fd5b81356001600160e01b0319811681146117f657600080fd5b9392505050565b80356001600160a01b038116811461181457600080fd5b919050565b60006020828403121561182b57600080fd5b6117f6826117fd565b6000815180845260005b8181101561185a5760208185018101518683018201520161183e565b506000602082860101526020601f19601f83011685010191505092915050565b602081528151602082015260018060a01b0360208301511660408201526000604083015160e060608401526118b3610100840182611834565b90506060840151601f198483030160808501526118d08282611834565b915050608084015160a084015260a0840151151560c084015260c0840151151560e08401528091505092915050565b60006020828403121561191157600080fd5b5035919050565b6000806040838503121561192b57600080fd5b8235915061193b602084016117fd565b90509250929050565b60008083601f84011261195657600080fd5b50813567ffffffffffffffff81111561196e57600080fd5b60208301915083602082850101111561198657600080fd5b9250929050565b600080600080600080606087890312156119a657600080fd5b863567ffffffffffffffff8111156119bd57600080fd5b6119c989828a01611944565b909750955050602087013567ffffffffffffffff8111156119e957600080fd5b6119f589828a01611944565b909550935050604087013567ffffffffffffffff811115611a1557600080fd5b611a2189828a01611944565b979a9699509497509295939492505050565b60008060008060008060006080888a031215611a4e57600080fd5b611a57886117fd565b9650602088013567ffffffffffffffff811115611a7357600080fd5b611a7f8a828b01611944565b909750955050604088013567ffffffffffffffff811115611a9f57600080fd5b611aab8a828b01611944565b909550935050606088013567ffffffffffffffff811115611acb57600080fd5b611ad78a828b01611944565b989b979a50959850939692959293505050565b8781526001600160a01b038716602082015260e060408201819052600090611b1490830188611834565b8281036060840152611b268188611834565b6080840196909652505091151560a0830152151560c090910152949350505050565b600181811c90821680611b5c57607f821691505b602082108103611b7c57634e487b7160e01b600052602260045260246000fd5b50919050565b60208082526018908201527f566f6c756e7465657220646f6573206e6f742065786973740000000000000000604082015260600190565b81835281816020850137506000828201602090810191909152601f909101601f19169091010190565b6001600160a01b0384168152604060208201819052600090611c079083018486611bb9565b95945050505050565b600060208284031215611c2257600080fd5b815180151581146117f657600080fd5b8082018082111561042757634e487b7160e01b600052601160045260246000fd5b634e487b7160e01b600052604160045260246000fd5b601f82111561077757806000526020600020601f840160051c81016020851015611c905750805b601f840160051c820191505b81811015611cb05760008155600101611c9c565b5050505050565b815167ffffffffffffffff811115611cd157611cd1611c53565b611ce581611cdf8454611b48565b84611c69565b6020601f821160018114611d195760008315611d015750848201515b600019600385901b1c1916600184901b178455611cb0565b600084815260208120601f198516915b82811015611d495787850151825560209485019460019092019101611d29565b5084821015611d675786840151600019600387901b60f8161c191681555b50505050600190811b01905550565b602081526000611d8a602083018486611bb9565b94935050505056fea49807205ce4d355092ef5a8a18f56e8913cf4a201fbe287825b095693c21775a26469706673582212209b3ffe0f99aca3212979eee425ac0f607d68c7ca3689a403ccbde64c2f44994b64736f6c634300081c0033608060405234801561001057600080fd5b5060405161138038038061138083398101604081905261002f91610289565b600180556001600160a01b03831661008e5760405162461bcd60e51b815260206004820152601460248201527f496e76616c69642055534443206164647265737300000000000000000000000060448201526064015b60405180910390fd5b6001600160a01b0382166100e45760405162461bcd60e51b815260206004820181905260248201527f496e76616c696420676f7665726e616e636520746f6b656e20616464726573736044820152606401610085565b6001600160a01b0381166101455760405162461bcd60e51b815260206004820152602260248201527f496e76616c696420766f6c756e74656572207265676973747279206164647265604482015261737360f01b6064820152608401610085565b600280546001600160a01b038086166001600160a01b03199283161790925560038054858416908316179055600480549284169290911691909117905561018d6000336101c1565b506101b87fa49807205ce4d355092ef5a8a18f56e8913cf4a201fbe287825b095693c21775336101c1565b505050506102cc565b6000828152602081815260408083206001600160a01b038516845290915281205460ff16610263576000838152602081815260408083206001600160a01b03861684529091529020805460ff1916600117905561021b3390565b6001600160a01b0316826001600160a01b0316847f2f8788117e7eff1d82e926ec794901d17c78024a50270940304540a733656f0d60405160405180910390a4506001610267565b5060005b92915050565b80516001600160a01b038116811461028457600080fd5b919050565b60008060006060848603121561029e57600080fd5b6102a78461026d565b92506102b56020850161026d565b91506102c36040850161026d565b90509250925092565b6110a5806102db6000396000f3fe608060405234801561001057600080fd5b50600436106101375760003560e01c806375b238fc116100b8578063d547741f1161007c578063d547741f14610340578063f14faf6f14610353578063f259fe1e14610366578063f36c8f5c14610379578063f96dae0a146103a0578063fd6b73ad146103b357600080fd5b806375b238fc146102a557806391d14854146102cc57806395086ed1146102df578063a0122a5714610325578063a217fddf1461033857600080fd5b80632f2ff15d116100ff5780632f2ff15d146101d257806336568abe146101e757806338e48f70146101fa5780634322123a14610272578063709cacc21461029257600080fd5b806301ffc9a71461013c5780631153b5f31461016457806311eac8551461017c57806312065fe0146101a7578063248a9ca3146101af575b600080fd5b61014f61014a366004610f1b565b6103c6565b60405190151581526020015b60405180910390f35b61016e62093a8081565b60405190815260200161015b565b60025461018f906001600160a01b031681565b6040516001600160a01b03909116815260200161015b565b61016e6103fd565b61016e6101bd366004610f4c565b60009081526020819052604090206001015490565b6101e56101e0366004610f81565b61046f565b005b6101e56101f5366004610f81565b61049a565b61024a610208366004610fad565b6001600160a01b039190911660009081526005602090815260408083209383529290522080546001820154600290920154909260ff8083169261010090041690565b604080519485526020850193909352901515918301919091521515606082015260800161015b565b61016e610280366004610fd7565b60066020526000908152604090205481565b6101e56102a0366004610f4c565b6104d2565b61016e7fa49807205ce4d355092ef5a8a18f56e8913cf4a201fbe287825b095693c2177581565b61014f6102da366004610f81565b61070b565b61024a6102ed366004610fad565b600560209081526000928352604080842090915290825290208054600182015460029092015490919060ff8082169161010090041684565b60045461018f906001600160a01b031681565b61016e600081565b6101e561034e366004610f81565b610734565b6101e5610361366004610f4c565b610759565b6101e5610374366004610fad565b610940565b61016e7f71840dc4906352362b0cdaf79870196c8e42acafade72d5d5a6d59291253ceb181565b60035461018f906001600160a01b031681565b6101e56103c1366004610fad565b610b2e565b60006001600160e01b03198216637965db0b60e01b14806103f757506301ffc9a760e01b6001600160e01b03198316145b92915050565b6002546040516370a0823160e01b81523060048201526000916001600160a01b0316906370a0823190602401602060405180830381865afa158015610446573d6000803e3d6000fd5b505050506040513d601f19601f8201168201806040525081019061046a9190610ff2565b905090565b60008281526020819052604090206001015461048a81610dad565b6104948383610db7565b50505050565b6001600160a01b03811633146104c35760405163334bd91960e11b815260040160405180910390fd5b6104cd8282610e49565b505050565b6104da610eb4565b3360009081526005602090815260408083208484529091529020600281015460ff161561054e5760405162461bcd60e51b815260206004820152601a60248201527f446f6e6174696f6e20616c726561647920636f6e6669726d656400000000000060448201526064015b60405180910390fd5b6002810154610100900460ff161561059b5760405162461bcd60e51b815260206004820152601060248201526f105b1c9958591e481c99599d5b99195960821b6044820152606401610545565b62093a8081600101546105ae9190611021565b42116105fc5760405162461bcd60e51b815260206004820152601860248201527f526566756e642077696e646f77206e6f742070617373656400000000000000006044820152606401610545565b80546002808301805461ff0019166101001790555460405163a9059cbb60e01b8152336004820152602481018390526001600160a01b039091169063a9059cbb906044016020604051808303816000875af115801561065f573d6000803e3d6000fd5b505050506040513d601f19601f820116820180604052508101906106839190611034565b6106c65760405162461bcd60e51b81526020600482015260146024820152731554d110c81d1c985b9cd9995c8819985a5b195960621b6044820152606401610545565b604051818152839033907f2e07785c40da7ce01f323511f755973c658df48e626cd993bdf8e4627b9dc0e49060200160405180910390a3505061070860018055565b50565b6000918252602082815260408084206001600160a01b0393909316845291905290205460ff1690565b60008281526020819052604090206001015461074f81610dad565b6104948383610e49565b610761610eb4565b600081116107b15760405162461bcd60e51b815260206004820152601d60248201527f416d6f756e74206d7573742062652067726561746572207468616e20300000006044820152606401610545565b6002546040516323b872dd60e01b8152336004820152306024820152604481018390526001600160a01b03909116906323b872dd906064016020604051808303816000875af1158015610808573d6000803e3d6000fd5b505050506040513d601f19601f8201168201806040525081019061082c9190611034565b61086f5760405162461bcd60e51b81526020600482015260146024820152731554d110c81d1c985b9cd9995c8819985a5b195960621b6044820152606401610545565b3360009081526006602052604081208054908261088b83611056565b9091555060408051608081018252848152426020808301918252600083850181815260608501828152338084526005855287842089855285529287902095518655935160018601555160029094018054935161ffff1990941694151561ff001916949094176101009315159390930292909217909255915185815292935083927f4b0304ab2f313234b1cea012339c8f8c3bf2c8bb357d81a579cfdb35d2e3d030910160405180910390a35061070860018055565b7fa49807205ce4d355092ef5a8a18f56e8913cf4a201fbe287825b095693c2177561096a81610dad565b610972610eb4565b6001600160a01b03831660009081526005602090815260408083208584529091529020600281015460ff16156109ea5760405162461bcd60e51b815260206004820152601a60248201527f446f6e6174696f6e20616c726561647920636f6e6669726d65640000000000006044820152606401610545565b6002810154610100900460ff1615610a445760405162461bcd60e51b815260206004820152601960248201527f446f6e6174696f6e20616c726561647920726566756e646564000000000000006044820152606401610545565b60028101805460ff191660011790556003548154604051630d41961760e31b81526000926001600160a01b031691636a0cb0b891610a9a9189916004016001600160a01b03929092168252602082015260400190565b6020604051808303816000875af1158015610ab9573d6000803e3d6000fd5b505050506040513d601f19601f82011682018060405250810190610add9190610ff2565b905083856001600160a01b03167f0a3cb10fe06998150859531858b5344bdf61c92356593cda4610a3ea1f93ae4b83604051610b1b91815260200190565b60405180910390a350506104cd60018055565b7f71840dc4906352362b0cdaf79870196c8e42acafade72d5d5a6d59291253ceb1610b5881610dad565b610b60610eb4565b6001600160a01b038316610baa5760405162461bcd60e51b8152602060048201526011602482015270125b9d985b1a59081c9958da5c1a595b9d607a1b6044820152606401610545565b60008211610bfa5760405162461bcd60e51b815260206004820152601d60248201527f416d6f756e74206d7573742062652067726561746572207468616e20300000006044820152606401610545565b6002546040516370a0823160e01b81523060048201526001600160a01b03909116906370a0823190602401602060405180830381865afa158015610c42573d6000803e3d6000fd5b505050506040513d601f19601f82011682018060405250810190610c669190610ff2565b821115610cac5760405162461bcd60e51b8152602060048201526014602482015273496e73756666696369656e742062616c616e636560601b6044820152606401610545565b60025460405163a9059cbb60e01b81526001600160a01b038581166004830152602482018590529091169063a9059cbb906044016020604051808303816000875af1158015610cff573d6000803e3d6000fd5b505050506040513d601f19601f82011682018060405250810190610d239190611034565b610d615760405162461bcd60e51b815260206004820152600f60248201526e151c985b9cd9995c8819985a5b1959608a1b6044820152606401610545565b826001600160a01b03167f8c9a4f13b67cb64d7c6aa1ae0c9bf07694af521a28b93e7060020810ab4bc59f83604051610d9c91815260200190565b60405180910390a26104cd60018055565b6107088133610ede565b6000610dc3838361070b565b610e41576000838152602081815260408083206001600160a01b03861684529091529020805460ff19166001179055610df93390565b6001600160a01b0316826001600160a01b0316847f2f8788117e7eff1d82e926ec794901d17c78024a50270940304540a733656f0d60405160405180910390a45060016103f7565b5060006103f7565b6000610e55838361070b565b15610e41576000838152602081815260408083206001600160a01b0386168085529252808320805460ff1916905551339286917ff6391f5c32d9c69d2a47ea670b442974b53935d1edc7fd64eb21e047a839171b9190a45060016103f7565b600260015403610ed757604051633ee5aeb560e01b815260040160405180910390fd5b6002600155565b610ee8828261070b565b610f175760405163e2517d3f60e01b81526001600160a01b038216600482015260248101839052604401610545565b5050565b600060208284031215610f2d57600080fd5b81356001600160e01b031981168114610f4557600080fd5b9392505050565b600060208284031215610f5e57600080fd5b5035919050565b80356001600160a01b0381168114610f7c57600080fd5b919050565b60008060408385031215610f9457600080fd5b82359150610fa460208401610f65565b90509250929050565b60008060408385031215610fc057600080fd5b610fc983610f65565b946020939093013593505050565b600060208284031215610fe957600080fd5b610f4582610f65565b60006020828403121561100457600080fd5b5051919050565b634e487b7160e01b600052601160045260246000fd5b808201808211156103f7576103f761100b565b60006020828403121561104657600080fd5b81518015158114610f4557600080fd5b6000600182016110685761106861100b565b506001019056fea2646970667358221220ce1e7f7ddce3e94f7e81f1422f5f4b9a0277fea2d7f07fd74b6bc3919a2f82b464736f6c634300081c0033608060405234801561001057600080fd5b50604051611b69380380611b6983398101604081905261002f9161028e565b600180556001600160a01b03851661008e5760405162461bcd60e51b815260206004820152601860248201527f496e76616c696420676f7665726e616e636520746f6b656e000000000000000060448201526064015b60405180910390fd5b6001600160a01b0384166100d95760405162461bcd60e51b815260206004820152601260248201527124b73b30b634b2102aa9a221903a37b5b2b760711b6044820152606401610085565b6001600160a01b03831661012f5760405162461bcd60e51b815260206004820152601a60248201527f496e76616c696420766f6c756e746565722072656769737472790000000000006044820152606401610085565b600280546001600160a01b038088166001600160a01b0319928316179092556003805487841690831617905560048054868416908316179055600580549285169290911691909117905562093a80600655600a6007556101906000826101c6565b506101bb7fa49807205ce4d355092ef5a8a18f56e8913cf4a201fbe287825b095693c21775826101c6565b5050505050506102f3565b6000828152602081815260408083206001600160a01b038516845290915281205460ff16610268576000838152602081815260408083206001600160a01b03861684529091529020805460ff191660011790556102203390565b6001600160a01b0316826001600160a01b0316847f2f8788117e7eff1d82e926ec794901d17c78024a50270940304540a733656f0d60405160405180910390a450600161026c565b5060005b92915050565b80516001600160a01b038116811461028957600080fd5b919050565b600080600080600060a086880312156102a657600080fd5b6102af86610272565b94506102bd60208701610272565b93506102cb60408701610272565b92506102d960608701610272565b91506102e760808701610272565b90509295509295909350565b611867806103026000396000f3fe608060405234801561001057600080fd5b50600436106102115760003560e01c806375b238fc11610125578063a217fddf116100ad578063cde419a41161007c578063cde419a4146104a9578063d547741f146104b1578063dac6270d146104c4578063f96dae0a146104cc578063fe7ce691146104df57600080fd5b8063a217fddf1461047e578063b014020614610486578063c1e163591461048e578063c5980c94146104a057600080fd5b80638847103b116100f45780638847103b146103fa57806391d14854146104265780639e136e6414610439578063a0122a5714610442578063a13894ea1461045557600080fd5b806375b238fc146103b45780637de418d5146103db5780637ed628bb146103e45780638160f0b5146103f157600080fd5b806330c880c3116101a857806366f6288d1161017757806366f6288d146103455780636d32dc4b1461036e5780636dd7d8ea146103815780636f95b3f314610394578063705ed273146103a157600080fd5b806330c880c31461030157806336568abe146103215780633a6a4d2e14610334578063427c0c7f1461033c57600080fd5b80631bf806cb116101e45780631bf806cb1461029f578063248a9ca3146102b65780632b3fb337146102d95780632f2ff15d146102ee57600080fd5b806301ffc9a71461021657806309eef43e1461023e5780630e58a2491461026157806311eac8551461028c575b600080fd5b6102296102243660046114a7565b6104ea565b60405190151581526020015b60405180910390f35b61022961024c3660046114ed565b600d6020526000908152604090205460ff1681565b600f54610274906001600160a01b031681565b6040516001600160a01b039091168152602001610235565b600354610274906001600160a01b031681565b6102a860065481565b604051908152602001610235565b6102a86102c436600461150a565b60009081526020819052604090206001015490565b6102ec6102e7366004611523565b610521565b005b6102ec6102fc366004611545565b61065c565b6102a861030f3660046114ed565b600b6020526000908152604090205481565b6102ec61032f366004611545565b610687565b6102ec6106bf565b6102a860105481565b6102746103533660046114ed565b600c602052600090815260409020546001600160a01b031681565b6102ec61037c36600461150a565b610992565b6102ec61038f3660046114ed565b610adc565b6011546102299060ff1681565b600554610274906001600160a01b031681565b6102a87fa49807205ce4d355092ef5a8a18f56e8913cf4a201fbe287825b095693c2177581565b6102a8600e5481565b600a546102299060ff1681565b6102a860075481565b6102746104083660046114ed565b6001600160a01b039081166000908152600c60205260409020541690565b610229610434366004611545565b610e77565b6102a860095481565b600454610274906001600160a01b031681565b6102a86104633660046114ed565b6001600160a01b03166000908152600b602052604090205490565b6102a8600081565b610229610ea0565b600a5461022990610100900460ff1681565b6102a860085481565b6102ec610f3c565b6102ec6104bf366004611545565b6112e3565b6102a8611308565b600254610274906001600160a01b031681565b600954421015610229565b60006001600160e01b03198216637965db0b60e01b148061051b57506301ffc9a760e01b6001600160e01b03198316145b92915050565b7fa49807205ce4d355092ef5a8a18f56e8913cf4a201fbe287825b095693c2177561054b8161133d565b600a5460ff16156105af5760405162461bcd60e51b8152602060048201526024808201527f43616e6e6f74206368616e676520647572696e672061637469766520656c65636044820152633a34b7b760e11b60648201526084015b60405180910390fd5b60648311156106005760405162461bcd60e51b815260206004820152601960248201527f51756f72756d2063616e6e6f742065786365656420313030250000000000000060448201526064016105a6565b600082116106505760405162461bcd60e51b815260206004820152601f60248201527f4475726174696f6e206d7573742062652067726561746572207468616e20300060448201526064016105a6565b50600791909155600655565b6000828152602081905260409020600101546106778161133d565b6106818383611347565b50505050565b6001600160a01b03811633146106b05760405163334bd91960e11b815260040160405180910390fd5b6106ba82826113d9565b505050565b6106c7611444565b600a54610100900460ff166107175760405162461bcd60e51b8152602060048201526016602482015275115b1958dd1a5bdb881b9bdd0818dbdb98db1d59195960521b60448201526064016105a6565b60115460ff161561076a5760405162461bcd60e51b815260206004820152601960248201527f46756e647320616c72656164792064697374726962757465640000000000000060448201526064016105a6565b600f546001600160a01b03166107c25760405162461bcd60e51b815260206004820152601a60248201527f4e6f2077696e6e657220746f206469737472696275746520746f00000000000060448201526064016105a6565b6003546040516370a0823160e01b81523060048201526000916001600160a01b0316906370a0823190602401602060405180830381865afa15801561080b573d6000803e3d6000fd5b505050506040513d601f19601f8201168201806040525081019061082f9190611575565b90506000811161087a5760405162461bcd60e51b81526020600482015260166024820152754e6f2066756e647320746f206469737472696275746560501b60448201526064016105a6565b6011805460ff19166001179055600354600f5460405163a9059cbb60e01b81526001600160a01b0391821660048201526024810184905291169063a9059cbb906044016020604051808303816000875af11580156108dc573d6000803e3d6000fd5b505050506040513d601f19601f8201168201806040525081019061090091906115a3565b6109445760405162461bcd60e51b8152602060048201526015602482015274151bdad95b881d1c985b9cd9995c8819985a5b1959605a1b60448201526064016105a6565b600f546040518281526001600160a01b03909116907f26536799ace2c3dbe12e638ec3ade6b4173dcf1289be0a58d51a5003015649bd9060200160405180910390a25061099060018055565b565b7fa49807205ce4d355092ef5a8a18f56e8913cf4a201fbe287825b095693c217756109bc8161133d565b600a5460ff1615610a0f5760405162461bcd60e51b815260206004820152601760248201527f456c656374696f6e20616c72656164792061637469766500000000000000000060448201526064016105a6565b60008211610a5f5760405162461bcd60e51b815260206004820152601f60248201527f4475726174696f6e206d7573742062652067726561746572207468616e20300060448201526064016105a6565b6006829055426008819055610a759083906115d4565b6009819055600a805461ffff191660011790556000600e556011805460ff191690556008546040517fff6a30dd22f5e8b783044c7d895a6e8592b55c56f139978d44dc39daf596731f92610ad0928252602082015260400190565b60405180910390a15050565b610ae4611444565b600a5460ff16610b2b5760405162461bcd60e51b815260206004820152601260248201527127379030b1ba34bb329032b632b1ba34b7b760711b60448201526064016105a6565b6009544210610b715760405162461bcd60e51b8152602060048201526012602482015271115b1958dd1a5bdb881a185cc8195b99195960721b60448201526064016105a6565b336000908152600d602052604090205460ff1615610bc15760405162461bcd60e51b815260206004820152600d60248201526c105b1c9958591e481d9bdd1959609a1b60448201526064016105a6565b6004805460405163122b794160e01b81526001600160a01b03848116938201939093526000929091169063122b794190602401600060405180830381865afa158015610c11573d6000803e3d6000fd5b505050506040513d6000823e601f3d908101601f19168201604052610c3991908101906116e8565b90508060a001518015610c4d57508060c001515b610c995760405162461bcd60e51b815260206004820152601f60248201527f496e76616c6964206f7220756e617070726f76656420766f6c756e746565720060448201526064016105a6565b6002546040516370a0823160e01b81523360048201526000916001600160a01b0316906370a0823190602401602060405180830381865afa158015610ce2573d6000803e3d6000fd5b505050506040513d601f19601f82011682018060405250810190610d069190611575565b905060008111610d4a5760405162461bcd60e51b815260206004820152600f60248201526e2737903b37ba34b733903837bbb2b960891b60448201526064016105a6565b6001600160a01b0383166000908152600b602052604081208054839290610d729084906115d4565b9091555050336000908152600c6020908152604080832080546001600160a01b0319166001600160a01b038816179055600d9091528120805460ff19166001179055600e8054839290610dc69084906115d4565b909155505060048054604051630291640d60e41b815233928101929092526001600160a01b03169063291640d090602401600060405180830381600087803b158015610e1157600080fd5b505af1158015610e25573d6000803e3d6000fd5b50506040518381526001600160a01b03861692503391507f484413c33463e7d976e3ded2a85b0c31610d0906977df2cd9cbd6d12a6872a849060200160405180910390a35050610e7460018055565b50565b6000918252602082815260408084206001600160a01b0393909316845291905290205460ff1690565b60006064600754600260009054906101000a90046001600160a01b03166001600160a01b03166318160ddd6040518163ffffffff1660e01b8152600401602060405180830381865afa158015610efa573d6000803e3d6000fd5b505050506040513d601f19601f82011682018060405250810190610f1e9190611575565b610f2891906117cc565b610f3291906117e3565b600e541015905090565b600a5460ff16610f835760405162461bcd60e51b815260206004820152601260248201527127379030b1ba34bb329032b632b1ba34b7b760711b60448201526064016105a6565b6009544210158061101b5750600754600254604080516318160ddd60e01b81529051606493926001600160a01b0316916318160ddd9160048083019260209291908290030181865afa158015610fdd573d6000803e3d6000fd5b505050506040513d601f19601f820116820180604052508101906110019190611575565b61100b91906117cc565b61101591906117e3565b600e5410155b6110785760405162461bcd60e51b815260206004820152602860248201527f456c656374696f6e206e6f742079657420656c696769626c6520666f7220636f6044820152673731b63ab9b4b7b760c11b60648201526084016105a6565b600a54610100900460ff16156110d05760405162461bcd60e51b815260206004820152601a60248201527f456c656374696f6e20616c726561647920636f6e636c7564656400000000000060448201526064016105a6565b600a805461ffff191661010017905560008060015b60048054604080516334768bdf60e21b815290516001600160a01b039092169263d1da2f7c9282820192602092908290030181865afa15801561112c573d6000803e3d6000fd5b505050506040513d601f19601f820116820180604052508101906111509190611575565b8111611242576004805460405163f9aad71160e01b81529182018390526000916001600160a01b039091169063f9aad71190602401600060405180830381865afa1580156111a2573d6000803e3d6000fd5b505050506040513d6000823e601f3d908101601f191682016040526111ca91908101906116e8565b602081015160a08201519192509080156111e557508160c001515b801561120857506001600160a01b0381166000908152600b602052604090205484105b1561122d576001600160a01b0381166000908152600b60205260409020549094509250835b5050808061123a90611805565b9150506110e5565b506001600160a01b0382161580159061125b5750600081115b156112b557600f80546001600160a01b0319166001600160a01b0384169081179091556040518281527f298ccc4f881993c5dc06e974ada8b381abd44fee8be550266a5c819c25087ecf9060200160405180910390a25050565b6040517f5ef47ab9fad320f1f417670c164b8e4913c6e6d9ffb559fb31de53758973b6a890600090a15b5050565b6000828152602081905260409020600101546112fe8161133d565b61068183836113d9565b600a5460009060ff16158061131f57506009544210155b1561132a5750600090565b42600954611338919061181e565b905090565b610e74813361146e565b60006113538383610e77565b6113d1576000838152602081815260408083206001600160a01b03861684529091529020805460ff191660011790556113893390565b6001600160a01b0316826001600160a01b0316847f2f8788117e7eff1d82e926ec794901d17c78024a50270940304540a733656f0d60405160405180910390a450600161051b565b50600061051b565b60006113e58383610e77565b156113d1576000838152602081815260408083206001600160a01b0386168085529252808320805460ff1916905551339286917ff6391f5c32d9c69d2a47ea670b442974b53935d1edc7fd64eb21e047a839171b9190a450600161051b565b60026001540361146757604051633ee5aeb560e01b815260040160405180910390fd5b6002600155565b6114788282610e77565b6112df5760405163e2517d3f60e01b81526001600160a01b0382166004820152602481018390526044016105a6565b6000602082840312156114b957600080fd5b81356001600160e01b0319811681146114d157600080fd5b9392505050565b6001600160a01b0381168114610e7457600080fd5b6000602082840312156114ff57600080fd5b81356114d1816114d8565b60006020828403121561151c57600080fd5b5035919050565b6000806040838503121561153657600080fd5b50508035926020909101359150565b6000806040838503121561155857600080fd5b82359150602083013561156a816114d8565b809150509250929050565b60006020828403121561158757600080fd5b5051919050565b8051801515811461159e57600080fd5b919050565b6000602082840312156115b557600080fd5b6114d18261158e565b634e487b7160e01b600052601160045260246000fd5b8082018082111561051b5761051b6115be565b634e487b7160e01b600052604160045260246000fd5b60405160e0810167ffffffffffffffff81118282101715611620576116206115e7565b60405290565b604051601f8201601f1916810167ffffffffffffffff8111828210171561164f5761164f6115e7565b604052919050565b805161159e816114d8565b600082601f83011261167357600080fd5b815167ffffffffffffffff81111561168d5761168d6115e7565b6116a0601f8201601f1916602001611626565b8181528460208386010111156116b557600080fd5b60005b828110156116d4576020818601810151838301820152016116b8565b506000918101602001919091529392505050565b6000602082840312156116fa57600080fd5b815167ffffffffffffffff81111561171157600080fd5b820160e0818503121561172357600080fd5b61172b6115fd565b8151815261173b60208301611657565b6020820152604082015167ffffffffffffffff81111561175a57600080fd5b61176686828501611662565b604083015250606082015167ffffffffffffffff81111561178657600080fd5b61179286828501611662565b606083015250608082810151908201526117ae60a0830161158e565b60a08201526117bf60c0830161158e565b60c0820152949350505050565b808202811582820484141761051b5761051b6115be565b60008261180057634e487b7160e01b600052601260045260246000fd5b500490565b600060018201611817576118176115be565b5060010190565b8181038181111561051b5761051b6115be56fea2646970667358221220037899340af510beec5e1fa0663d85461e580452b658c1b7c3a68c831126dbf964736f6c634300081c0033a264697066735822122012e646035bc80b35c913f84d3b1076ebaae18ddad1b1a87fed081e70ce25080864736f6c634300081c0033",
  "linkReferences": {},
  "deployedLinkReferences": {}
}