{
  "_format": "hh-sol-artifact-1",
  "contractName": "MultiChainDAOFactory",
  "sourceName": "contracts/MultiChainDAOFactory.sol",
  "abi": [
    {
      "inputs": [],
      "stateMutability": "nonpayable",
      "type": "constructor"
    },
    {
      "inputs": [],
      "name": "AccessControlBadConfirmation",
      "type": "error"
    },
    {
      "inputs": [
        {
          "internalType": "address",
          "name": "account",
          "type": "address"
        },
        {
          "internalType": "bytes32",
          "name": "neededRole",
          "type": "bytes32"
        }
      ],
      "name": "AccessControlUnauthorizedAccount",
      "type": "error"
    },
    {
      "anonymous": false,
      "inputs": [
        {
          "indexed": true,
          "internalType": "bytes32",
          "name": "originalDaoId",
          "type": "bytes32"
        },
        {
          "indexed": true,
          "internalType": "bytes32",
          "name": "newDaoId",
          "type": "bytes32"
        },
        {
          "indexed": false,
          "internalType": "uint256",
          "name": "sourceChainId",
          "type": "uint256"
        },
        {
          "indexed": false,
          "internalType": "uint256",
          "name": "targetChainId",
          "type": "uint256"
        }
      ],
      "name": "CrossChainDAODeployed",
      "type": "event"
    },
    {
      "anonymous": false,
      "inputs": [
        {
          "indexed": true,
          "internalType": "bytes32",
          "name": "originalDaoId",
          "type": "bytes32"
        },
        {
          "indexed": false,
          "internalType": "string",
          "name": "name",
          "type": "string"
        },
        {
          "indexed": false,
          "internalType": "uint256",
          "name": "targetChainId",
          "type": "uint256"
        }
      ],
      "name": "CrossChainDAODeploymentRequested",
      "type": "event"
    },
    {
      "anonymous": false,
      "inputs": [
        {
          "indexed": true,
          "internalType": "bytes32",
          "name": "daoId",
          "type": "bytes32"
        },
        {
          "indexed": false,
          "internalType": "string",
          "name": "name",
          "type": "string"
        },
        {
          "indexed": false,
          "internalType": "address",
          "name": "tokenAddress",
          "type": "address"
        },
        {
          "indexed": false,
          "internalType": "address",
          "name": "treasuryAddress",
          "type": "address"
        },
        {
          "indexed": false,
          "internalType": "address",
          "name": "governanceAddress",
          "type": "address"
        },
        {
          "indexed": false,
          "internalType": "address",
          "name": "volunteerRegistryAddress",
          "type": "address"
        },
        {
          "indexed": false,
          "internalType": "uint256",
          "name": "chainId",
          "type": "uint256"
        }
      ],
      "name": "DAOCreated",
      "type": "event"
    },
    {
      "anonymous": false,
      "inputs": [
        {
          "indexed": true,
          "internalType": "bytes32",
          "name": "daoId",
          "type": "bytes32"
        }
      ],
      "name": "DAODeactivated",
      "type": "event"
    },
    {
      "anonymous": false,
      "inputs": [
        {
          "indexed": true,
          "internalType": "bytes32",
          "name": "role",
          "type": "bytes32"
        },
        {
          "indexed": true,
          "internalType": "bytes32",
          "name": "previousAdminRole",
          "type": "bytes32"
        },
        {
          "indexed": true,
          "internalType": "bytes32",
          "name": "newAdminRole",
          "type": "bytes32"
        }
      ],
      "name": "RoleAdminChanged",
      "type": "event"
    },
    {
      "anonymous": false,
      "inputs": [
        {
          "indexed": true,
          "internalType": "bytes32",
          "name": "role",
          "type": "bytes32"
        },
        {
          "indexed": true,
          "internalType": "address",
          "name": "account",
          "type": "address"
        },
        {
          "indexed": true,
          "internalType": "address",
          "name": "sender",
          "type": "address"
        }
      ],
      "name": "RoleGranted",
      "type": "event"
    },
    {
      "anonymous": false,
      "inputs": [
        {
          "indexed": true,
          "internalType": "bytes32",
          "name": "role",
          "type": "bytes32"
        },
        {
          "indexed": true,
          "internalType": "address",
          "name": "account",
          "type": "address"
        },
        {
          "indexed": true,
          "internalType": "address",
          "name": "sender",
          "type": "address"
        }
      ],
      "name": "RoleRevoked",
      "type": "event"
    },
    {
      "inputs": [],
      "name": "ADMIN_ROLE",
      "outputs": [
        {
          "internalType": "bytes32",
          "name": "",
          "type": "bytes32"
        }
      ],
      "stateMutability": "view",
      "type": "function"
    },
    {
      "inputs": [],
      "name": "BRIDGE_ROLE",
      "outputs": [
        {
          "internalType": "bytes32",
          "name": "",
          "type": "bytes32"
        }
      ],
      "stateMutability": "view",
      "type": "function"
    },
    {
      "inputs": [],
      "name": "DEFAULT_ADMIN_ROLE",
      "outputs": [
        {
          "internalType": "bytes32",
          "name": "",
          "type": "bytes32"
        }
      ],
      "stateMutability": "view",
      "type": "function"
    },
    {
      "inputs": [
        {
          "internalType": "string",
          "name": "_name",
          "type": "string"
        },
        {
          "internalType": "address",
          "name": "_usdcAddress",
          "type": "address"
        },
        {
          "internalType": "address",
          "name": "_selfProtocolAddress",
          "type": "address"
        }
      ],
      "name": "createNewDAO",
      "outputs": [
        {
          "internalType": "bytes32",
          "name": "daoId",
          "type": "bytes32"
        }
      ],
      "stateMutability": "nonpayable",
      "type": "function"
    },
    {
      "inputs": [
        {
          "internalType": "bytes32",
          "name": "",
          "type": "bytes32"
        },
        {
          "internalType": "uint256",
          "name": "",
          "type": "uint256"
        }
      ],
      "name": "crossChainDAOIds",
      "outputs": [
        {
          "internalType": "bytes32",
          "name": "",
          "type": "bytes32"
        }
      ],
      "stateMutability": "view",
      "type": "function"
    },
    {
      "inputs": [
        {
          "internalType": "bytes32",
          "name": "",
          "type": "bytes32"
        },
        {
          "internalType": "uint256",
          "name": "",
          "type": "uint256"
        }
      ],
      "name": "daoExistsOnChain",
      "outputs": [
        {
          "internalType": "bool",
          "name": "",
          "type": "bool"
        }
      ],
      "stateMutability": "view",
      "type": "function"
    },
    {
      "inputs": [
        {
          "internalType": "uint256",
          "name": "",
          "type": "uint256"
        }
      ],
      "name": "daoIds",
      "outputs": [
        {
          "internalType": "bytes32",
          "name": "",
          "type": "bytes32"
        }
      ],
      "stateMutability": "view",
      "type": "function"
    },
    {
      "inputs": [
        {
          "internalType": "bytes32",
          "name": "",
          "type": "bytes32"
        }
      ],
      "name": "daos",
      "outputs": [
        {
          "internalType": "string",
          "name": "name",
          "type": "string"
        },
        {
          "internalType": "address",
          "name": "tokenAddress",
          "type": "address"
        },
        {
          "internalType": "address",
          "name": "treasuryAddress",
          "type": "address"
        },
        {
          "internalType": "address",
          "name": "governanceAddress",
          "type": "address"
        },
        {
          "internalType": "address",
          "name": "volunteerRegistryAddress",
          "type": "address"
        },
        {
          "internalType": "uint256",
          "name": "creationTime",
          "type": "uint256"
        },
        {
          "internalType": "uint256",
          "name": "chainId",
          "type": "uint256"
        },
        {
          "internalType": "bool",
          "name": "active",
          "type": "bool"
        }
      ],
      "stateMutability": "view",
      "type": "function"
    },
    {
      "inputs": [
        {
          "internalType": "bytes32",
          "name": "daoId",
          "type": "bytes32"
        }
      ],
      "name": "deactivateDAO",
      "outputs": [],
      "stateMutability": "nonpayable",
      "type": "function"
    },
    {
      "inputs": [
        {
          "internalType": "bytes32",
          "name": "originalDaoId",
          "type": "bytes32"
        },
        {
          "internalType": "uint256",
          "name": "originalChainId",
          "type": "uint256"
        },
        {
          "internalType": "string",
          "name": "_name",
          "type": "string"
        },
        {
          "internalType": "address",
          "name": "_usdcAddress",
          "type": "address"
        },
        {
          "internalType": "address",
          "name": "_selfProtocolAddress",
          "type": "address"
        }
      ],
      "name": "deployFromOtherChain",
      "outputs": [
        {
          "internalType": "bytes32",
          "name": "newDaoId",
          "type": "bytes32"
        }
      ],
      "stateMutability": "nonpayable",
      "type": "function"
    },
    {
      "inputs": [
        {
          "internalType": "bytes32",
          "name": "daoId",
          "type": "bytes32"
        },
        {
          "internalType": "uint256",
          "name": "chainId",
          "type": "uint256"
        }
      ],
      "name": "doesDAOExistOnChain",
      "outputs": [
        {
          "internalType": "bool",
          "name": "",
          "type": "bool"
        }
      ],
      "stateMutability": "view",
      "type": "function"
    },
    {
      "inputs": [],
      "name": "getActiveDAOs",
      "outputs": [
        {
          "internalType": "bytes32[]",
          "name": "",
          "type": "bytes32[]"
        }
      ],
      "stateMutability": "view",
      "type": "function"
    },
    {
      "inputs": [
        {
          "internalType": "bytes32",
          "name": "originalDaoId",
          "type": "bytes32"
        }
      ],
      "name": "getCrossChainDAOIds",
      "outputs": [
        {
          "internalType": "bytes32[]",
          "name": "",
          "type": "bytes32[]"
        }
      ],
      "stateMutability": "view",
      "type": "function"
    },
    {
      "inputs": [],
      "name": "getDAOCount",
      "outputs": [
        {
          "internalType": "uint256",
          "name": "",
          "type": "uint256"
        }
      ],
      "stateMutability": "view",
      "type": "function"
    },
    {
      "inputs": [
        {
          "internalType": "uint256",
          "name": "index",
          "type": "uint256"
        }
      ],
      "name": "getDAOIdByIndex",
      "outputs": [
        {
          "internalType": "bytes32",
          "name": "",
          "type": "bytes32"
        }
      ],
      "stateMutability": "view",
      "type": "function"
    },
    {
      "inputs": [
        {
          "internalType": "bytes32",
          "name": "daoId",
          "type": "bytes32"
        }
      ],
      "name": "getDAOInfo",
      "outputs": [
        {
          "components": [
            {
              "internalType": "string",
              "name": "name",
              "type": "string"
            },
            {
              "internalType": "address",
              "name": "tokenAddress",
              "type": "address"
            },
            {
              "internalType": "address",
              "name": "treasuryAddress",
              "type": "address"
            },
            {
              "internalType": "address",
              "name": "governanceAddress",
              "type": "address"
            },
            {
              "internalType": "address",
              "name": "volunteerRegistryAddress",
              "type": "address"
            },
            {
              "internalType": "uint256",
              "name": "creationTime",
              "type": "uint256"
            },
            {
              "internalType": "uint256",
              "name": "chainId",
              "type": "uint256"
            },
            {
              "internalType": "bool",
              "name": "active",
              "type": "bool"
            }
          ],
          "internalType": "struct MultiChainDAOFactory.DAOInfo",
          "name": "",
          "type": "tuple"
        }
      ],
      "stateMutability": "view",
      "type": "function"
    },
    {
      "inputs": [
        {
          "internalType": "bytes32",
          "name": "role",
          "type": "bytes32"
        }
      ],
      "name": "getRoleAdmin",
      "outputs": [
        {
          "internalType": "bytes32",
          "name": "",
          "type": "bytes32"
        }
      ],
      "stateMutability": "view",
      "type": "function"
    },
    {
      "inputs": [
        {
          "internalType": "bytes32",
          "name": "role",
          "type": "bytes32"
        },
        {
          "internalType": "address",
          "name": "account",
          "type": "address"
        }
      ],
      "name": "grantRole",
      "outputs": [],
      "stateMutability": "nonpayable",
      "type": "function"
    },
    {
      "inputs": [
        {
          "internalType": "bytes32",
          "name": "role",
          "type": "bytes32"
        },
        {
          "internalType": "address",
          "name": "account",
          "type": "address"
        }
      ],
      "name": "hasRole",
      "outputs": [
        {
          "internalType": "bool",
          "name": "",
          "type": "bool"
        }
      ],
      "stateMutability": "view",
      "type": "function"
    },
    {
      "inputs": [
        {
          "internalType": "bytes32",
          "name": "role",
          "type": "bytes32"
        },
        {
          "internalType": "address",
          "name": "callerConfirmation",
          "type": "address"
        }
      ],
      "name": "renounceRole",
      "outputs": [],
      "stateMutability": "nonpayable",
      "type": "function"
    },
    {
      "inputs": [
        {
          "internalType": "bytes32",
          "name": "daoId",
          "type": "bytes32"
        },
        {
          "internalType": "uint256",
          "name": "targetChainId",
          "type": "uint256"
        }
      ],
      "name": "requestCrossChainDeployment",
      "outputs": [],
      "stateMutability": "nonpayable",
      "type": "function"
    },
    {
      "inputs": [
        {
          "internalType": "bytes32",
          "name": "role",
          "type": "bytes32"
        },
        {
          "internalType": "address",
          "name": "account",
          "type": "address"
        }
      ],
      "name": "revokeRole",
      "outputs": [],
      "stateMutability": "nonpayable",
      "type": "function"
    },
    {
      "inputs": [
        {
          "internalType": "bytes4",
          "name": "interfaceId",
          "type": "bytes4"
        }
      ],
      "name": "supportsInterface",
      "outputs": [
        {
          "internalType": "bool",
          "name": "",
          "type": "bool"
        }
      ],
      "stateMutability": "view",
      "type": "function"
    }
  ],
  "bytecode": "0x608060405234801561001057600080fd5b5061001c600033610078565b506100477fa49807205ce4d355092ef5a8a18f56e8913cf4a201fbe287825b095693c2177533610078565b506100727f52ba824bfabc2bcfcdf7f0edbb486ebb05e1836c90e78047efeb949990f72e5f33610078565b50610124565b6000828152602081815260408083206001600160a01b038516845290915281205460ff1661011a576000838152602081815260408083206001600160a01b03861684529091529020805460ff191660011790556100d23390565b6001600160a01b0316826001600160a01b0316847f2f8788117e7eff1d82e926ec794901d17c78024a50270940304540a733656f0d60405160405180910390a450600161011e565b5060005b92915050565b615f2f806101336000396000f3fe608060405234801561001057600080fd5b506004361061014d5760003560e01c8063797bcc39116100c3578063b8b3c3d01161007c578063b8b3c3d0146102ed578063bdff2b121461031b578063c1d520b314610349578063d547741f1461035c578063f5c8d2321461036f578063f97a779e1461038257600080fd5b8063797bcc391461027057806391d148541461028357806396ae38c8146102965780639989b914146102b6578063a217fddf146102be578063b5bfddea146102c657600080fd5b80632f2ff15d116101155780632f2ff15d146101f35780632fa2cc4e1461020657806336568abe1461022d5780633a479fb8146102405780633cb14c511461024857806375b238fc1461025b57600080fd5b806301ffc9a7146101525780631aaef5491461017a578063248a9ca31461019a5780632a3391d0146101cb5780632b6214fd146101e0575b600080fd5b610165610160366004611575565b610395565b60405190151581526020015b60405180910390f35b61018d6101883660046115a6565b6103cc565b60405161017191906115bf565b6101bd6101a83660046115a6565b60009081526020819052604090206001015490565b604051908152602001610171565b6101de6101d93660046115a6565b61042e565b005b6101bd6101ee3660046115a6565b6104fe565b6101de61020136600461161e565b61056d565b6102196102143660046115a6565b610598565b60405161017198979695949392919061169a565b6101de61023b36600461161e565b610675565b6002546101bd565b6101bd6102563660046116f7565b6106ad565b6101bd600080516020615eda83398151915281565b6101de61027e3660046116f7565b6106de565b61016561029136600461161e565b610884565b6102a96102a43660046115a6565b6108ad565b6040516101719190611719565b61018d6109fb565b6101bd600081565b6101bd7f52ba824bfabc2bcfcdf7f0edbb486ebb05e1836c90e78047efeb949990f72e5f81565b6101656102fb3660046116f7565b600360209081526000928352604080842090915290825290205460ff1681565b6101656103293660046116f7565b600091825260036020908152604080842092845291905290205460ff1690565b6101bd610357366004611862565b610b4d565b6101de61036a36600461161e565b610ecf565b6101bd61037d3660046115a6565b610ef4565b6101bd6103903660046118c0565b610f15565b60006001600160e01b03198216637965db0b60e01b14806103c657506301ffc9a760e01b6001600160e01b03198316145b92915050565b60008181526004602090815260409182902080548351818402810184019094528084526060939283018282801561042257602002820191906000526020600020905b81548152602001906001019080831161040e575b50505050509050919050565b600080516020615eda833981519152610446816113fa565b60008281526001602052604090206007015460ff166104ba5760405162461bcd60e51b815260206004820152602560248201527f44414f20616c726561647920696e616374697665206f7220646f65736e277420604482015264195e1a5cdd60da1b60648201526084015b60405180910390fd5b600082815260016020526040808220600701805460ff191690555183917f75846ff46d62a22c0bc5085ca61148f54dca428561fd344be68000fdbdd0eee691a25050565b60025460009082106105485760405162461bcd60e51b8152602060048201526013602482015272496e646578206f7574206f6620626f756e647360681b60448201526064016104b1565b6002828154811061055b5761055b611932565b90600052602060002001549050919050565b600082815260208190526040902060010154610588816113fa565b6105928383611407565b50505050565b6001602052600090815260409020805481906105b390611948565b80601f01602080910402602001604051908101604052809291908181526020018280546105df90611948565b801561062c5780601f106106015761010080835404028352916020019161062c565b820191906000526020600020905b81548152906001019060200180831161060f57829003601f168201915b50505060018401546002850154600386015460048701546005880154600689015460079099015497986001600160a01b0395861698948616975092851695509316929160ff1688565b6001600160a01b038116331461069e5760405163334bd91960e11b815260040160405180910390fd5b6106a88282611499565b505050565b600460205281600052604060002081815481106106c957600080fd5b90600052602060002001600091509150505481565b600080516020615eda8339815191526106f6816113fa565b60008381526001602052604090206007015460ff166107575760405162461bcd60e51b815260206004820152601d60248201527f44414f20696e616374697665206f7220646f65736e277420657869737400000060448201526064016104b1565b600083815260036020908152604080832085845290915290205460ff16156107cc5760405162461bcd60e51b815260206004820152602260248201527f44414f20616c726561647920657869737473206f6e207461726765742063686160448201526134b760f11b60648201526084016104b1565b4682036108355760405162461bcd60e51b815260206004820152603160248201527f54617267657420636861696e206d75737420626520646966666572656e7420666044820152703937b69031bab93932b73a1031b430b4b760791b60648201526084016104b1565b60008381526001602052604090819020905184917f705ebe7cbcbeeee1c9ed82a6b544f34f866143721430d819b59fc951315e852b9161087791908690611982565b60405180910390a2505050565b6000918252602082815260408084206001600160a01b0393909316845291905290205460ff1690565b6040805161010081018252606080825260006020830181905292820183905281018290526080810182905260a0810182905260c0810182905260e0810191909152600082815260016020526040908190208151610100810190925280548290829061091790611948565b80601f016020809104026020016040519081016040528092919081815260200182805461094390611948565b80156109905780601f1061096557610100808354040283529160200191610990565b820191906000526020600020905b81548152906001019060200180831161097357829003601f168201915b505050918352505060018201546001600160a01b0390811660208301526002830154811660408301526003830154811660608301526004830154166080820152600582015460a0820152600682015460c082015260079091015460ff16151560e09091015292915050565b60606000805b600254811015610a5f576001600060028381548110610a2257610a22611932565b6000918252602080832090910154835282019290925260400190206007015460ff1615610a575781610a5381611a16565b9250505b600101610a01565b5060008167ffffffffffffffff811115610a7b57610a7b6117bd565b604051908082528060200260200182016040528015610aa4578160200160208202803683370190505b5090506000805b600254811015610b44576001600060028381548110610acc57610acc611932565b6000918252602080832090910154835282019290925260400190206007015460ff1615610b3c5760028181548110610b0657610b06611932565b9060005260206000200154838381518110610b2357610b23611932565b602090810291909101015281610b3881611a16565b9250505b600101610aab565b50909392505050565b6000600080516020615eda833981519152610b67816113fa565b6000604051610b7590611541565b604051809103906000f080158015610b91573d6000803e3d6000fd5b509050600084604051610ba39061154e565b6001600160a01b039091168152602001604051809103906000f080158015610bcf573d6000803e3d6000fd5b5090506000868383604051610be39061155b565b6001600160a01b03938416815291831660208301529091166040820152606001604051809103906000f080158015610c1f573d6000803e3d6000fd5b50905060008388848933604051610c3590611568565b6001600160a01b0395861681529385166020850152918416604084015283166060830152909116608082015260a001604051809103906000f080158015610c80573d6000803e3d6000fd5b50604051632f2ff15d60e01b81527f9f2df0fed2c77648de5860a4cc508cd0818c85b8b8a1ab4ceeef8d981c8956a660048201526001600160a01b03848116602483015291925090851690632f2ff15d90604401600060405180830381600087803b158015610cee57600080fd5b505af1158015610d02573d6000803e3d6000fd5b50505050884246604051602001610d1b93929190611a3d565b60408051601f198184030181528282528051602091820120610100840183528c84526001600160a01b0380891685840152868116858501528581166060860152871660808501524260a08501524660c0850152600160e08501819052600082815292529190208251919850908190610d939082611ab2565b50602082810151600180840180546001600160a01b039384166001600160a01b03199182161790915560408087015160028088018054928716928516929092179091556060880151600380890180549288169286169290921790915560808901516004890180549190971694169390931790945560a0870151600587015560c0870151600687015560e0909601516007909501805495151560ff1996871617905560008c8152908452858120468083529452858120805490951682179094558154908101825592527f405787fa12a823e0f2b7631cc41b3ba8828b3321ca811111fa75cd3aa3bb5ace909101889055905187917f918fc1e7c2b8eb3ecde7c997633f4b96ba054cf384ec2d4982ca6d7948b9c4f391610ebb918d918991889188918b91611b71565b60405180910390a250505050509392505050565b600082815260208190526040902060010154610eea816113fa565b6105928383611499565b60028181548110610f0457600080fd5b600091825260209091200154905081565b60007f52ba824bfabc2bcfcdf7f0edbb486ebb05e1836c90e78047efeb949990f72e5f610f41816113fa565b468603610faa5760405162461bcd60e51b815260206004820152603160248201527f536f7572636520636861696e206d75737420626520646966666572656e7420666044820152703937b69031bab93932b73a1031b430b4b760791b60648201526084016104b1565b6000604051610fb890611541565b604051809103906000f080158015610fd4573d6000803e3d6000fd5b509050600084604051610fe69061154e565b6001600160a01b039091168152602001604051809103906000f080158015611012573d6000803e3d6000fd5b50905060008683836040516110269061155b565b6001600160a01b03938416815291831660208301529091166040820152606001604051809103906000f080158015611062573d6000803e3d6000fd5b5090506000838884893360405161107890611568565b6001600160a01b0395861681529385166020850152918416604084015283166060830152909116608082015260a001604051809103906000f0801580156110c3573d6000803e3d6000fd5b50604051632f2ff15d60e01b81527f9f2df0fed2c77648de5860a4cc508cd0818c85b8b8a1ab4ceeef8d981c8956a660048201526001600160a01b03848116602483015291925090851690632f2ff15d90604401600060405180830381600087803b15801561113157600080fd5b505af1158015611145573d6000803e3d6000fd5b505060408051602081018f90529081018d9052466060820152608001915061116a9050565b60408051601f198184030181528282528051602091820120610100840183528c84526001600160a01b0380891685840152868116858501528581166060860152871660808501524260a08501524660c0850152600160e085018190526000828152925291902082519198509081906111e29082611ab2565b5060208201518160010160006101000a8154816001600160a01b0302191690836001600160a01b0316021790555060408201518160020160006101000a8154816001600160a01b0302191690836001600160a01b0316021790555060608201518160030160006101000a8154816001600160a01b0302191690836001600160a01b0316021790555060808201518160040160006101000a8154816001600160a01b0302191690836001600160a01b0316021790555060a0820151816005015560c0820151816006015560e08201518160070160006101000a81548160ff0219169083151502179055509050506001600360008d8152602001908152602001600020600046815260200190815260200160002060006101000a81548160ff021916908315150217905550600460008c81526020019081526020016000208690806001815401808255809150506001900390600052602060002001600090919091909150556002869080600181540180825580915050600190039060005260206000200160009091909190915055857f918fc1e7c2b8eb3ecde7c997633f4b96ba054cf384ec2d4982ca6d7948b9c4f38a86858588466040516113a896959493929190611b71565b60405180910390a2604080518b815246602082015287918d917f8e63f68a237287438933589b6e18bdda276a31dade6455bd190b45b71a89542f910160405180910390a3505050505095945050505050565b6114048133611504565b50565b60006114138383610884565b611491576000838152602081815260408083206001600160a01b03861684529091529020805460ff191660011790556114493390565b6001600160a01b0316826001600160a01b0316847f2f8788117e7eff1d82e926ec794901d17c78024a50270940304540a733656f0d60405160405180910390a45060016103c6565b5060006103c6565b60006114a58383610884565b15611491576000838152602081815260408083206001600160a01b0386168085529252808320805460ff1916905551339286917ff6391f5c32d9c69d2a47ea670b442974b53935d1edc7fd64eb21e047a839171b9190a45060016103c6565b61150e8282610884565b61153d5760405163e2517d3f60e01b81526001600160a01b0382166004820152602481018390526044016104b1565b5050565b610e3c80611bb983390190565b6111fb806129f583390190565b61138780613bf083390190565b610f6380614f7783390190565b60006020828403121561158757600080fd5b81356001600160e01b03198116811461159f57600080fd5b9392505050565b6000602082840312156115b857600080fd5b5035919050565b602080825282518282018190526000918401906040840190835b818110156115f75783518352602093840193909201916001016115d9565b509095945050505050565b80356001600160a01b038116811461161957600080fd5b919050565b6000806040838503121561163157600080fd5b8235915061164160208401611602565b90509250929050565b60005b8381101561166557818101518382015260200161164d565b50506000910152565b6000815180845261168681602086016020860161164a565b601f01601f19169290920160200192915050565b610100815260006116af61010083018b61166e565b6001600160a01b03998a166020840152978916604083015250948716606086015292909516608084015260a083015260c082019390935291151560e090920191909152919050565b6000806040838503121561170a57600080fd5b50508035926020909101359150565b6020815260008251610100602084015261173761012084018261166e565b905060018060a01b03602085015116604084015260018060a01b036040850151166060840152606084015161177760808501826001600160a01b03169052565b5060808401516001600160a01b03811660a08501525060a084015160c084015260c084015160e084015260e08401516117b561010085018215159052565b509392505050565b634e487b7160e01b600052604160045260246000fd5b600082601f8301126117e457600080fd5b813567ffffffffffffffff8111156117fe576117fe6117bd565b604051601f8201601f19908116603f0116810167ffffffffffffffff8111828210171561182d5761182d6117bd565b60405281815283820160200185101561184557600080fd5b816020850160208301376000918101602001919091529392505050565b60008060006060848603121561187757600080fd5b833567ffffffffffffffff81111561188e57600080fd5b61189a868287016117d3565b9350506118a960208501611602565b91506118b760408501611602565b90509250925092565b600080600080600060a086880312156118d857600080fd5b8535945060208601359350604086013567ffffffffffffffff8111156118fd57600080fd5b611909888289016117d3565b93505061191860608701611602565b915061192660808701611602565b90509295509295909350565b634e487b7160e01b600052603260045260246000fd5b600181811c9082168061195c57607f821691505b60208210810361197c57634e487b7160e01b600052602260045260246000fd5b50919050565b60408152600080845461199481611948565b80604086015260018216600081146119b357600181146119cf57611a03565b60ff1983166060870152606082151560051b8701019350611a03565b87600052602060002060005b838110156119fa578154888201606001526001909101906020016119db565b87016060019450505b5050506020929092019290925292915050565b600060018201611a3657634e487b7160e01b600052601160045260246000fd5b5060010190565b60008451611a4f81846020890161164a565b91909101928352506020820152604001919050565b601f8211156106a857806000526020600020601f840160051c81016020851015611a8b5750805b601f840160051c820191505b81811015611aab5760008155600101611a97565b5050505050565b815167ffffffffffffffff811115611acc57611acc6117bd565b611ae081611ada8454611948565b84611a64565b6020601f821160018114611b145760008315611afc5750848201515b600019600385901b1c1916600184901b178455611aab565b600084815260208120601f198516915b82811015611b445787850151825560209485019460019092019101611b24565b5084821015611b625786840151600019600387901b60f8161c191681555b50505050600190811b01905550565b60c081526000611b8460c083018961166e565b6001600160a01b03978816602084015295871660408301525092851660608401529316608082015260a0019190915291905056fe608060405234801561001057600080fd5b506040518060400160405280601981526020017f466c61736844414f20476f7665726e616e636520546f6b656e00000000000000815250604051806040016040528060048152602001634644414f60e01b81525081600390816100739190610210565b5060046100808282610210565b50610090915060009050336100c1565b506100bb7f9f2df0fed2c77648de5860a4cc508cd0818c85b8b8a1ab4ceeef8d981c8956a6336100c1565b506102ce565b60008281526005602090815260408083206001600160a01b038516845290915281205460ff166101675760008381526005602090815260408083206001600160a01b03861684529091529020805460ff1916600117905561011f3390565b6001600160a01b0316826001600160a01b0316847f2f8788117e7eff1d82e926ec794901d17c78024a50270940304540a733656f0d60405160405180910390a450600161016b565b5060005b92915050565b634e487b7160e01b600052604160045260246000fd5b600181811c9082168061019b57607f821691505b6020821081036101bb57634e487b7160e01b600052602260045260246000fd5b50919050565b601f82111561020b57806000526020600020601f840160051c810160208510156101e85750805b601f840160051c820191505b8181101561020857600081556001016101f4565b50505b505050565b81516001600160401b0381111561022957610229610171565b61023d816102378454610187565b846101c1565b6020601f82116001811461027157600083156102595750848201515b600019600385901b1c1916600184901b178455610208565b600084815260208120601f198516915b828110156102a15787850151825560209485019460019092019101610281565b50848210156102bf5786840151600019600387901b60f8161c191681555b50505050600190811b01905550565b610b5f806102dd6000396000f3fe608060405234801561001057600080fd5b50600436106101165760003560e01c806340c10f19116100a2578063a217fddf11610071578063a217fddf14610241578063a9059cbb14610249578063d53913931461025c578063d547741f14610283578063dd62ed3e1461029657600080fd5b806340c10f19146101ea57806370a08231146101fd57806391d148541461022657806395d89b411461023957600080fd5b806323b872dd116100e957806323b872dd1461017d578063248a9ca3146101905780632f2ff15d146101b3578063313ce567146101c857806336568abe146101d757600080fd5b806301ffc9a71461011b57806306fdde0314610143578063095ea7b31461015857806318160ddd1461016b575b600080fd5b61012e610129366004610942565b6102cf565b60405190151581526020015b60405180910390f35b61014b610306565b60405161013a9190610973565b61012e6101663660046109dd565b610398565b6002545b60405190815260200161013a565b61012e61018b366004610a07565b6103b0565b61016f61019e366004610a44565b60009081526005602052604090206001015490565b6101c66101c1366004610a5d565b6103d4565b005b6040516012815260200161013a565b6101c66101e5366004610a5d565b6103ff565b6101c66101f83660046109dd565b610437565b61016f61020b366004610a89565b6001600160a01b031660009081526020819052604090205490565b61012e610234366004610a5d565b61046b565b61014b610496565b61016f600081565b61012e6102573660046109dd565b6104a5565b61016f7f9f2df0fed2c77648de5860a4cc508cd0818c85b8b8a1ab4ceeef8d981c8956a681565b6101c6610291366004610a5d565b6104b3565b61016f6102a4366004610aa4565b6001600160a01b03918216600090815260016020908152604080832093909416825291909152205490565b60006001600160e01b03198216637965db0b60e01b148061030057506301ffc9a760e01b6001600160e01b03198316145b92915050565b60606003805461031590610ace565b80601f016020809104026020016040519081016040528092919081815260200182805461034190610ace565b801561038e5780601f106103635761010080835404028352916020019161038e565b820191906000526020600020905b81548152906001019060200180831161037157829003601f168201915b5050505050905090565b6000336103a68185856104d8565b5060019392505050565b6000336103be8582856104e5565b6103c9858585610563565b506001949350505050565b6000828152600560205260409020600101546103ef816105c2565b6103f983836105cf565b50505050565b6001600160a01b03811633146104285760405163334bd91960e11b815260040160405180910390fd5b6104328282610663565b505050565b7f9f2df0fed2c77648de5860a4cc508cd0818c85b8b8a1ab4ceeef8d981c8956a6610461816105c2565b61043283836106d0565b60009182526005602090815260408084206001600160a01b0393909316845291905290205460ff1690565b60606004805461031590610ace565b6000336103a6818585610563565b6000828152600560205260409020600101546104ce816105c2565b6103f98383610663565b610432838383600161070a565b6001600160a01b038381166000908152600160209081526040808320938616835292905220546000198110156103f9578181101561055457604051637dc7a0d960e11b81526001600160a01b038416600482015260248101829052604481018390526064015b60405180910390fd5b6103f98484848403600061070a565b6001600160a01b03831661058d57604051634b637e8f60e11b81526000600482015260240161054b565b6001600160a01b0382166105b75760405163ec442f0560e01b81526000600482015260240161054b565b6104328383836107df565b6105cc8133610909565b50565b60006105db838361046b565b61065b5760008381526005602090815260408083206001600160a01b03861684529091529020805460ff191660011790556106133390565b6001600160a01b0316826001600160a01b0316847f2f8788117e7eff1d82e926ec794901d17c78024a50270940304540a733656f0d60405160405180910390a4506001610300565b506000610300565b600061066f838361046b565b1561065b5760008381526005602090815260408083206001600160a01b0386168085529252808320805460ff1916905551339286917ff6391f5c32d9c69d2a47ea670b442974b53935d1edc7fd64eb21e047a839171b9190a4506001610300565b6001600160a01b0382166106fa5760405163ec442f0560e01b81526000600482015260240161054b565b610706600083836107df565b5050565b6001600160a01b0384166107345760405163e602df0560e01b81526000600482015260240161054b565b6001600160a01b03831661075e57604051634a1406b160e11b81526000600482015260240161054b565b6001600160a01b03808516600090815260016020908152604080832093871683529290522082905580156103f957826001600160a01b0316846001600160a01b03167f8c5be1e5ebec7d5bd14f71427d1e84f3dd0314c0f7b2291e5b200ac8c7c3b925846040516107d191815260200190565b60405180910390a350505050565b6001600160a01b03831661080a5780600260008282546107ff9190610b08565b9091555061087c9050565b6001600160a01b0383166000908152602081905260409020548181101561085d5760405163391434e360e21b81526001600160a01b0385166004820152602481018290526044810183905260640161054b565b6001600160a01b03841660009081526020819052604090209082900390555b6001600160a01b038216610898576002805482900390556108b7565b6001600160a01b03821660009081526020819052604090208054820190555b816001600160a01b0316836001600160a01b03167fddf252ad1be2c89b69c2b068fc378daa952ba7f163c4a11628f55a4df523b3ef836040516108fc91815260200190565b60405180910390a3505050565b610913828261046b565b6107065760405163e2517d3f60e01b81526001600160a01b03821660048201526024810183905260440161054b565b60006020828403121561095457600080fd5b81356001600160e01b03198116811461096c57600080fd5b9392505050565b602081526000825180602084015260005b818110156109a15760208186018101516040868401015201610984565b506000604082850101526040601f19601f83011684010191505092915050565b80356001600160a01b03811681146109d857600080fd5b919050565b600080604083850312156109f057600080fd5b6109f9836109c1565b946020939093013593505050565b600080600060608486031215610a1c57600080fd5b610a25846109c1565b9250610a33602085016109c1565b929592945050506040919091013590565b600060208284031215610a5657600080fd5b5035919050565b60008060408385031215610a7057600080fd5b82359150610a80602084016109c1565b90509250929050565b600060208284031215610a9b57600080fd5b61096c826109c1565b60008060408385031215610ab757600080fd5b610ac0836109c1565b9150610a80602084016109c1565b600181811c90821680610ae257607f821691505b602082108103610b0257634e487b7160e01b600052602260045260246000fd5b50919050565b8082018082111561030057634e487b7160e01b600052601160045260246000fdfea264697066735822122015a4ddb80b4a381c8aaf10ff2f6fa0e8cb890d320d849886b35e554ad286cf9064736f6c634300081c0033608060405234801561001057600080fd5b506040516111fb3803806111fb83398101604081905261002f916101b8565b6001600160a01b0381166100895760405162461bcd60e51b815260206004820152601d60248201527f496e76616c69642053656c662050726f746f636f6c2061646472657373000000604482015260640160405180910390fd5b600480546001600160a01b0319166001600160a01b0383161790556100af60003361010c565b506100da7fa49807205ce4d355092ef5a8a18f56e8913cf4a201fbe287825b095693c217753361010c565b506101057f0ce23c3e399818cfee81a7ab0880f714e53d7672b08df0fa62f2843416e1ea093361010c565b50506101e8565b6000828152602081815260408083206001600160a01b038516845290915281205460ff166101ae576000838152602081815260408083206001600160a01b03861684529091529020805460ff191660011790556101663390565b6001600160a01b0316826001600160a01b0316847f2f8788117e7eff1d82e926ec794901d17c78024a50270940304540a733656f0d60405160405180910390a45060016101b2565b5060005b92915050565b6000602082840312156101ca57600080fd5b81516001600160a01b03811681146101e157600080fd5b9392505050565b611004806101f76000396000f3fe608060405234801561001057600080fd5b506004361061010b5760003560e01c806375b238fc116100a2578063a217fddf11610071578063a217fddf14610276578063d1da2f7c1461027e578063d547741f14610286578063e7705db614610299578063fbfe6ca2146102c057600080fd5b806375b238fc1461020657806390755c3b1461022d57806391d14854146102505780639b072d0c1461026357600080fd5b80633c03d33a116100de5780633c03d33a146101915780633dbf8cc5146101a4578063420bb58e146101c8578063705ed273146101db57600080fd5b806301ffc9a714610110578063248a9ca3146101385780632f2ff15d1461016957806336568abe1461017e575b600080fd5b61012361011e366004610b78565b6102e0565b60405190151581526020015b60405180910390f35b61015b610146366004610ba9565b60009081526020819052604090206001015490565b60405190815260200161012f565b61017c610177366004610bde565b610317565b005b61017c61018c366004610bde565b610342565b61017c61019f366004610c53565b61037a565b6101b76101b2366004610ba9565b61067c565b60405161012f959493929190610d3f565b6101236101d6366004610d8a565b6107dc565b6004546101ee906001600160a01b031681565b6040516001600160a01b03909116815260200161012f565b61015b7fa49807205ce4d355092ef5a8a18f56e8913cf4a201fbe287825b095693c2177581565b61012361023b366004610d8a565b60026020526000908152604090205460ff1681565b61012361025e366004610bde565b61084f565b61017c610271366004610ba9565b610878565b61015b600081565b60015461015b565b61017c610294366004610bde565b610a0c565b61015b7f0ce23c3e399818cfee81a7ab0880f714e53d7672b08df0fa62f2843416e1ea0981565b61015b6102ce366004610d8a565b60036020526000908152604090205481565b60006001600160e01b03198216637965db0b60e01b148061031157506301ffc9a760e01b6001600160e01b03198316145b92915050565b60008281526020819052604090206001015461033281610a31565b61033c8383610a3e565b50505050565b6001600160a01b038116331461036b5760405163334bd91960e11b815260040160405180910390fd5b6103758282610ad0565b505050565b3360009081526002602052604090205460ff16156103df5760405162461bcd60e51b815260206004820152601f60248201527f416c7265616479207265676973746572656420617320766f6c756e746565720060448201526064015b60405180910390fd5b846104235760405162461bcd60e51b81526020600482015260146024820152734e616d652063616e6e6f7420626520656d70747960601b60448201526064016103d6565b60048054604051635edd020d60e01b81526001600160a01b0390911691635edd020d916104569133918791879101610dce565b602060405180830381865afa158015610473573d6000803e3d6000fd5b505050506040513d601f19601f820116820180604052508101906104979190610dfc565b6104d95760405162461bcd60e51b8152602060048201526013602482015272496e76616c69642063726564656e7469616c7360681b60448201526064016103d6565b60016040518060a00160405280336001600160a01b0316815260200188888080601f016020809104026020016040519081016040528093929190818152602001838380828437600092019190915250505090825250604080516020601f890181900481028201810190925287815291810191908890889081908401838280828437600092018290525093855250505060208083018290524260409093019290925283546001808201865594825290829020835160059092020180546001600160a01b0319166001600160a01b039092169190911781559082015191929091908201906105c59082610ebc565b50604082015160028201906105da9082610ebc565b50606082015160038201805491151560ff199283161790556080909201516004909101553360009081526002602052604090208054909116600190811790915580546106269190610f7b565b33600081815260036020526040908190209290925590517f65e14a3b08845268772acc470a74a6d8b79b9169ac5285d592ffcb6f541278749061066c9089908990610f9c565b60405180910390a2505050505050565b6001818154811061068c57600080fd5b6000918252602090912060059091020180546001820180546001600160a01b039092169350906106bb90610e34565b80601f01602080910402602001604051908101604052809291908181526020018280546106e790610e34565b80156107345780601f1061070957610100808354040283529160200191610734565b820191906000526020600020905b81548152906001019060200180831161071757829003601f168201915b50505050509080600201805461074990610e34565b80601f016020809104026020016040519081016040528092919081815260200182805461077590610e34565b80156107c25780601f10610797576101008083540402835291602001916107c2565b820191906000526020600020905b8154815290600101906020018083116107a557829003601f168201915b505050506003830154600490930154919260ff1691905085565b6001600160a01b03811660009081526002602052604081205460ff1661080457506000919050565b6001600160a01b03821660009081526003602052604090205460018054909190811061083257610832610fb8565b600091825260209091206003600590920201015460ff1692915050565b6000918252602082815260408084206001600160a01b0393909316845291905290205460ff1690565b7f0ce23c3e399818cfee81a7ab0880f714e53d7672b08df0fa62f2843416e1ea096108a281610a31565b60015482106108f35760405162461bcd60e51b815260206004820152601760248201527f496e76616c696420766f6c756e7465657220696e64657800000000000000000060448201526064016103d6565b6001828154811061090657610906610fb8565b600091825260209091206003600590920201015460ff161561096a5760405162461bcd60e51b815260206004820152601a60248201527f566f6c756e7465657220616c726561647920617070726f76656400000000000060448201526064016103d6565b600180838154811061097e5761097e610fb8565b906000526020600020906005020160030160006101000a81548160ff021916908315150217905550600182815481106109b9576109b9610fb8565b6000918252602091829020600590910201546040518481526001600160a01b03909116917f1b1215c7eff6e1e28a57d96a899e1c7b50ef09a7cef29b9f0c5eb25570df3a65910160405180910390a25050565b600082815260208190526040902060010154610a2781610a31565b61033c8383610ad0565b610a3b8133610b3b565b50565b6000610a4a838361084f565b610ac8576000838152602081815260408083206001600160a01b03861684529091529020805460ff19166001179055610a803390565b6001600160a01b0316826001600160a01b0316847f2f8788117e7eff1d82e926ec794901d17c78024a50270940304540a733656f0d60405160405180910390a4506001610311565b506000610311565b6000610adc838361084f565b15610ac8576000838152602081815260408083206001600160a01b0386168085529252808320805460ff1916905551339286917ff6391f5c32d9c69d2a47ea670b442974b53935d1edc7fd64eb21e047a839171b9190a4506001610311565b610b45828261084f565b610b745760405163e2517d3f60e01b81526001600160a01b0382166004820152602481018390526044016103d6565b5050565b600060208284031215610b8a57600080fd5b81356001600160e01b031981168114610ba257600080fd5b9392505050565b600060208284031215610bbb57600080fd5b5035919050565b80356001600160a01b0381168114610bd957600080fd5b919050565b60008060408385031215610bf157600080fd5b82359150610c0160208401610bc2565b90509250929050565b60008083601f840112610c1c57600080fd5b50813567ffffffffffffffff811115610c3457600080fd5b602083019150836020828501011115610c4c57600080fd5b9250929050565b60008060008060008060608789031215610c6c57600080fd5b863567ffffffffffffffff811115610c8357600080fd5b610c8f89828a01610c0a565b909750955050602087013567ffffffffffffffff811115610caf57600080fd5b610cbb89828a01610c0a565b909550935050604087013567ffffffffffffffff811115610cdb57600080fd5b610ce789828a01610c0a565b979a9699509497509295939492505050565b6000815180845260005b81811015610d1f57602081850181015186830182015201610d03565b506000602082860101526020601f19601f83011685010191505092915050565b6001600160a01b038616815260a060208201819052600090610d6390830187610cf9565b8281036040840152610d758187610cf9565b94151560608401525050608001529392505050565b600060208284031215610d9c57600080fd5b610ba282610bc2565b81835281816020850137506000828201602090810191909152601f909101601f19169091010190565b6001600160a01b0384168152604060208201819052600090610df39083018486610da5565b95945050505050565b600060208284031215610e0e57600080fd5b81518015158114610ba257600080fd5b634e487b7160e01b600052604160045260246000fd5b600181811c90821680610e4857607f821691505b602082108103610e6857634e487b7160e01b600052602260045260246000fd5b50919050565b601f82111561037557806000526020600020601f840160051c81016020851015610e955750805b601f840160051c820191505b81811015610eb55760008155600101610ea1565b5050505050565b815167ffffffffffffffff811115610ed657610ed6610e1e565b610eea81610ee48454610e34565b84610e6e565b6020601f821160018114610f1e5760008315610f065750848201515b600019600385901b1c1916600184901b178455610eb5565b600084815260208120601f198516915b82811015610f4e5787850151825560209485019460019092019101610f2e565b5084821015610f6c5786840151600019600387901b60f8161c191681555b50505050600190811b01905550565b8181038181111561031157634e487b7160e01b600052601160045260246000fd5b602081526000610fb0602083018486610da5565b949350505050565b634e487b7160e01b600052603260045260246000fdfea2646970667358221220669b316ba9ca2c0a6509c792d4dca734c5f662184e69b47f0e52e7cdf4afbc1464736f6c634300081c0033608060405234801561001057600080fd5b5060405161138738038061138783398101604081905261002f9161027e565b600180556001600160a01b03831661008e5760405162461bcd60e51b815260206004820152601460248201527f496e76616c69642055534443206164647265737300000000000000000000000060448201526064015b60405180910390fd5b6001600160a01b0382166100e45760405162461bcd60e51b815260206004820152601560248201527f496e76616c696420746f6b656e206164647265737300000000000000000000006044820152606401610085565b6001600160a01b03811661013a5760405162461bcd60e51b815260206004820152601860248201527f496e76616c6964207265676973747279206164647265737300000000000000006044820152606401610085565b600280546001600160a01b038086166001600160a01b0319928316179092556003805485841690831617905560048054928416929091169190911790556101826000336101b6565b506101ad7fa49807205ce4d355092ef5a8a18f56e8913cf4a201fbe287825b095693c21775336101b6565b505050506102c1565b6000828152602081815260408083206001600160a01b038516845290915281205460ff16610258576000838152602081815260408083206001600160a01b03861684529091529020805460ff191660011790556102103390565b6001600160a01b0316826001600160a01b0316847f2f8788117e7eff1d82e926ec794901d17c78024a50270940304540a733656f0d60405160405180910390a450600161025c565b5060005b92915050565b80516001600160a01b038116811461027957600080fd5b919050565b60008060006060848603121561029357600080fd5b61029c84610262565b92506102aa60208501610262565b91506102b860408501610262565b90509250925092565b6110b7806102d06000396000f3fe608060405234801561001057600080fd5b50600436106101585760003560e01c8063a0122a57116100c3578063ce4b5bbe1161007c578063ce4b5bbe146102fe578063d547741f14610309578063de2ed8931461031c578063f14faf6f14610325578063f36c8f5c14610338578063f96dae0a1461035f57600080fd5b8063a0122a5714610295578063a217fddf146102a8578063a24bcf46146102b0578063ab033ea9146102c3578063b5545a3c146102d6578063cc6cb19a146102de57600080fd5b806343a2a0d51161011557806343a2a0d514610219578063570752571461022c57806369bc2f1e1461023f5780636f95b3f31461024757806375b238fc1461025b57806391d148541461028257600080fd5b806301ffc9a71461015d57806311eac85514610185578063248a9ca3146101b057806325de1092146101e15780632f2ff15d146101f157806336568abe14610206575b600080fd5b61017061016b366004610ecb565b610372565b60405190151581526020015b60405180910390f35b600254610198906001600160a01b031681565b6040516001600160a01b03909116815260200161017c565b6101d36101be366004610efc565b60009081526020819052604090206001015490565b60405190815260200161017c565b6101d3683635c9adc5dea0000081565b6102046101ff366004610f31565b6103a9565b005b610204610214366004610f31565b6103d4565b610204610227366004610f5d565b61040c565b61019861023a366004610efc565b610784565b6007546101d3565b60045461017090600160a01b900460ff1681565b6101d37fa49807205ce4d355092ef5a8a18f56e8913cf4a201fbe287825b095693c2177581565b610170610290366004610f31565b6107fc565b600454610198906001600160a01b031681565b6101d3600081565b6101d36102be366004610efc565b610825565b6102046102d1366004610f5d565b610841565b6102046108eb565b6101d36102ec366004610f5d565b60066020526000908152604090205481565b6101d36305f5e10081565b610204610317366004610f31565b610aba565b6101d360055481565b610204610333366004610efc565b610adf565b6101d37f71840dc4906352362b0cdaf79870196c8e42acafade72d5d5a6d59291253ceb181565b600354610198906001600160a01b031681565b60006001600160e01b03198216637965db0b60e01b14806103a357506301ffc9a760e01b6001600160e01b03198316145b92915050565b6000828152602081905260409020600101546103c481610d61565b6103ce8383610d6b565b50505050565b6001600160a01b03811633146103fd5760405163334bd91960e11b815260040160405180910390fd5b6104078282610dfd565b505050565b7f71840dc4906352362b0cdaf79870196c8e42acafade72d5d5a6d59291253ceb161043681610d61565b61043e610e68565b600454600160a01b900460ff16156104715760405162461bcd60e51b815260040161046890610f78565b60405180910390fd5b6000600554116104bc5760405162461bcd60e51b81526020600482015260166024820152754e6f2066756e647320746f206469737472696275746560501b6044820152606401610468565b6001600160a01b0382166105125760405162461bcd60e51b815260206004820152601960248201527f496e76616c696420726563697069656e742061646472657373000000000000006044820152606401610468565b60048054604051632105dac760e11b81526001600160a01b038581169382019390935291169063420bb58e90602401602060405180830381865afa15801561055e573d6000803e3d6000fd5b505050506040513d601f19601f820116820180604052508101906105829190610faf565b6105da5760405162461bcd60e51b8152602060048201526024808201527f526563697069656e74206d75737420626520617070726f76656420766f6c756e6044820152633a32b2b960e11b6064820152608401610468565b6002546040516370a0823160e01b81523060048201526000916001600160a01b0316906370a0823190602401602060405180830381865afa158015610623573d6000803e3d6000fd5b505050506040513d601f19601f820116820180604052508101906106479190610fd1565b90506000811161068d5760405162461bcd60e51b8152602060048201526011602482015270547265617375727920697320656d70747960781b6044820152606401610468565b6004805460ff60a01b1916600160a01b17815560025460405163a9059cbb60e01b81526001600160a01b03868116938201939093526024810184905291169063a9059cbb906044016020604051808303816000875af11580156106f4573d6000803e3d6000fd5b505050506040513d601f19601f820116820180604052508101906107189190610faf565b6107345760405162461bcd60e51b815260040161046890610fea565b604080516001600160a01b0385168152602081018390527f26536799ace2c3dbe12e638ec3ade6b4173dcf1289be0a58d51a5003015649bd910160405180910390a15061078060018055565b5050565b60075460009082106107ce5760405162461bcd60e51b8152602060048201526013602482015272496e646578206f7574206f6620626f756e647360681b6044820152606401610468565b600782815481106107e1576107e1611018565b6000918252602090912001546001600160a01b031692915050565b6000918252602082815260408084206001600160a01b0393909316845291905290205460ff1690565b600061083282600a611044565b6103a39064e8d4a51000611044565b7fa49807205ce4d355092ef5a8a18f56e8913cf4a201fbe287825b095693c2177561086b81610d61565b6001600160a01b0382166108c15760405162461bcd60e51b815260206004820152601a60248201527f496e76616c696420676f7665726e616e636520616464726573730000000000006044820152606401610468565b6104077f71840dc4906352362b0cdaf79870196c8e42acafade72d5d5a6d59291253ceb183610d6b565b6108f3610e68565b600454600160a01b900460ff161561091d5760405162461bcd60e51b815260040161046890610f78565b3360009081526008602052604090205460ff1661096a5760405162461bcd60e51b815260206004820152600b60248201526a2737ba1030903237b737b960a91b6044820152606401610468565b33600090815260066020526040902054806109bf5760405162461bcd60e51b8152602060048201526015602482015274139bc8191bdb985d1a5bdb881d1bc81c99599d5b99605a1b6044820152606401610468565b336000908152600660205260408120819055600580548392906109e390849061105b565b909155505060025460405163a9059cbb60e01b8152336004820152602481018390526001600160a01b039091169063a9059cbb906044016020604051808303816000875af1158015610a39573d6000803e3d6000fd5b505050506040513d601f19601f82011682018060405250810190610a5d9190610faf565b610a795760405162461bcd60e51b815260040161046890610fea565b60405181815233907f358fe4192934d3bf28ae181feda1f4bd08ca67f5e2fad55582cce5eb67304ae99060200160405180910390a250610ab860018055565b565b600082815260208190526040902060010154610ad581610d61565b6103ce8383610dfd565b610ae7610e68565b60008111610b375760405162461bcd60e51b815260206004820152601d60248201527f416d6f756e74206d7573742062652067726561746572207468616e20300000006044820152606401610468565b600454600160a01b900460ff1615610b615760405162461bcd60e51b815260040161046890610f78565b6002546040516323b872dd60e01b8152336004820152306024820152604481018390526001600160a01b03909116906323b872dd906064016020604051808303816000875af1158015610bb8573d6000803e3d6000fd5b505050506040513d601f19601f82011682018060405250810190610bdc9190610faf565b610bf85760405162461bcd60e51b815260040161046890610fea565b6000610c0382610825565b3360009081526008602052604090205490915060ff16610c78576007805460018181019092557fa66cc928b5edb82af9bd49922954155ab7b0942694bea4ce44661d9a8736c6880180546001600160a01b031916339081179091556000908152600860205260409020805460ff191690911790555b3360009081526006602052604081208054849290610c9790849061106e565b925050819055508160056000828254610cb0919061106e565b90915550506003546040516340c10f1960e01b8152336004820152602481018390526001600160a01b03909116906340c10f1990604401600060405180830381600087803b158015610d0157600080fd5b505af1158015610d15573d6000803e3d6000fd5b505060408051858152602081018590523393507f4b0304ab2f313234b1cea012339c8f8c3bf2c8bb357d81a579cfdb35d2e3d03092500160405180910390a250610d5e60018055565b50565b610d5e8133610e92565b6000610d7783836107fc565b610df5576000838152602081815260408083206001600160a01b03861684529091529020805460ff19166001179055610dad3390565b6001600160a01b0316826001600160a01b0316847f2f8788117e7eff1d82e926ec794901d17c78024a50270940304540a733656f0d60405160405180910390a45060016103a3565b5060006103a3565b6000610e0983836107fc565b15610df5576000838152602081815260408083206001600160a01b0386168085529252808320805460ff1916905551339286917ff6391f5c32d9c69d2a47ea670b442974b53935d1edc7fd64eb21e047a839171b9190a45060016103a3565b600260015403610e8b57604051633ee5aeb560e01b815260040160405180910390fd5b6002600155565b610e9c82826107fc565b6107805760405163e2517d3f60e01b81526001600160a01b038216600482015260248101839052604401610468565b600060208284031215610edd57600080fd5b81356001600160e01b031981168114610ef557600080fd5b9392505050565b600060208284031215610f0e57600080fd5b5035919050565b80356001600160a01b0381168114610f2c57600080fd5b919050565b60008060408385031215610f4457600080fd5b82359150610f5460208401610f15565b90509250929050565b600060208284031215610f6f57600080fd5b610ef582610f15565b60208082526019908201527f46756e647320616c726561647920646973747269627574656400000000000000604082015260600190565b600060208284031215610fc157600080fd5b81518015158114610ef557600080fd5b600060208284031215610fe357600080fd5b5051919050565b6020808252601490820152731554d110c81d1c985b9cd9995c8819985a5b195960621b604082015260600190565b634e487b7160e01b600052603260045260246000fd5b634e487b7160e01b600052601160045260246000fd5b80820281158282048414176103a3576103a361102e565b818103818111156103a3576103a361102e565b808201808211156103a3576103a361102e56fea264697066735822122079828d36ec4f66373df28afc616e91d0db17df975f1d3a1abcccebc44f7908ca64736f6c634300081c0033608060405234801561001057600080fd5b50604051610f63380380610f6383398101604081905261002f91610339565b600180556001600160a01b03851661008e5760405162461bcd60e51b815260206004820152601560248201527f496e76616c696420746f6b656e2061646472657373000000000000000000000060448201526064015b60405180910390fd5b6001600160a01b0384166100e45760405162461bcd60e51b815260206004820152601460248201527f496e76616c6964205553444320616464726573730000000000000000000000006044820152606401610085565b6001600160a01b03831661013a5760405162461bcd60e51b815260206004820152601860248201527f496e76616c6964207265676973747279206164647265737300000000000000006044820152606401610085565b6001600160a01b0382166101905760405162461bcd60e51b815260206004820152601d60248201527f496e76616c69642053656c662050726f746f636f6c20616464726573730000006044820152606401610085565b6001600160a01b0381166101e65760405162461bcd60e51b815260206004820152601560248201527f496e76616c69642061646d696e206164647265737300000000000000000000006044820152606401610085565b600280546001600160a01b038088166001600160a01b0319928316179092556003805487841690831617905560048054868416908316179055600580549285169290911691909117905561023b600082610271565b506102667fa49807205ce4d355092ef5a8a18f56e8913cf4a201fbe287825b095693c2177582610271565b50505050505061039e565b6000828152602081815260408083206001600160a01b038516845290915281205460ff16610313576000838152602081815260408083206001600160a01b03861684529091529020805460ff191660011790556102cb3390565b6001600160a01b0316826001600160a01b0316847f2f8788117e7eff1d82e926ec794901d17c78024a50270940304540a733656f0d60405160405180910390a4506001610317565b5060005b92915050565b80516001600160a01b038116811461033457600080fd5b919050565b600080600080600060a0868803121561035157600080fd5b61035a8661031d565b94506103686020870161031d565b93506103766040870161031d565b92506103846060870161031d565b91506103926080870161031d565b90509295509295909350565b610bb6806103ad6000396000f3fe608060405234801561001057600080fd5b50600436106101425760003560e01c80637fabe80a116100b8578063bc7316f21161007c578063bc7316f214610306578063c07473f614610318578063c1e1635914610338578063cde419a414610345578063d547741f1461034d578063f96dae0a1461036057600080fd5b80637fabe80a1461028c57806391d14854146102b8578063a0122a57146102cb578063a217fddf146102de578063b2c2f2e8146102e657600080fd5b80632f2ff15d1161010a5780632f2ff15d1461020357806336568abe146102165780634878676a146102295780636809587714610249578063705ed2731461025257806375b238fc1461026557600080fd5b80630121b93f1461014757806301ffc9a71461015c57806309eef43e1461018457806311eac855146101a7578063248a9ca3146101d2575b600080fd5b61015a610155366004610a77565b610373565b005b61016f61016a366004610a90565b61061f565b60405190151581526020015b60405180910390f35b61016f610192366004610add565b60076020526000908152604090205460ff1681565b6003546101ba906001600160a01b031681565b6040516001600160a01b03909116815260200161017b565b6101f56101e0366004610a77565b60009081526020819052604090206001015490565b60405190815260200161017b565b61015a610211366004610af8565b610656565b61015a610224366004610af8565b610681565b6101f5610237366004610a77565b60086020526000908152604090205481565b6101f560095481565b6005546101ba906001600160a01b031681565b6101f57fa49807205ce4d355092ef5a8a18f56e8913cf4a201fbe287825b095693c2177581565b61016f61029a366004610add565b6001600160a01b031660009081526007602052604090205460ff1690565b61016f6102c6366004610af8565b6106b9565b6004546101ba906001600160a01b031681565b6101f5600081565b6101f56102f4366004610a77565b60009081526008602052604090205490565b600a5461016f90610100900460ff1681565b6101f5610326366004610add565b60066020526000908152604090205481565b600a5461016f9060ff1681565b61015a6106e2565b61015a61035b366004610af8565b6108e4565b6002546101ba906001600160a01b031681565b61037b610909565b600a5460ff16156103d35760405162461bcd60e51b815260206004820152601a60248201527f456c656374696f6e20616c726561647920636f6e636c7564656400000000000060448201526064015b60405180910390fd5b60048054604051632105dac760e11b81526000928101929092526001600160a01b03169063420bb58e90602401602060405180830381865afa15801561041d573d6000803e3d6000fd5b505050506040513d601f19601f820116820180604052508101906104419190610b24565b6104865760405162461bcd60e51b8152602060048201526016602482015275159bdb1d5b9d19595c881b9bdd08185c1c1c9bdd995960521b60448201526064016103ca565b3360009081526007602052604090205460ff16156104d65760405162461bcd60e51b815260206004820152600d60248201526c105b1c9958591e481d9bdd1959609a1b60448201526064016103ca565b6002546040516370a0823160e01b81523360048201526000916001600160a01b0316906370a0823190602401602060405180830381865afa15801561051f573d6000803e3d6000fd5b505050506040513d601f19601f820116820180604052508101906105439190610b46565b9050600081116105875760405162461bcd60e51b815260206004820152600f60248201526e2737903b37ba34b733903837bbb2b960891b60448201526064016103ca565b3360009081526006602090815260408083208490558483526008909152812080548392906105b6908490610b5f565b90915550503360008181526007602052604090819020805460ff19166001179055518391907fb4cfecf70861b7b150d8337780d34fb4cbc2114b5fb1fe51a5c5fca1849f72749061060a9085815260200190565b60405180910390a35061061c60018055565b50565b60006001600160e01b03198216637965db0b60e01b148061065057506301ffc9a760e01b6001600160e01b03198316145b92915050565b60008281526020819052604090206001015461067181610933565b61067b838361093d565b50505050565b6001600160a01b03811633146106aa5760405163334bd91960e11b815260040160405180910390fd5b6106b482826109cf565b505050565b6000918252602082815260408084206001600160a01b0393909316845291905290205460ff1690565b7fa49807205ce4d355092ef5a8a18f56e8913cf4a201fbe287825b095693c2177561070c81610933565b600a5460ff161561075f5760405162461bcd60e51b815260206004820152601a60248201527f456c656374696f6e20616c726561647920636f6e636c7564656400000000000060448201526064016103ca565b6000806000600460009054906101000a90046001600160a01b03166001600160a01b031663d1da2f7c6040518163ffffffff1660e01b8152600401602060405180830381865afa1580156107b7573d6000803e3d6000fd5b505050506040513d601f19601f820116820180604052508101906107db9190610b46565b905060005b81811015610821576000818152600860205260409020548410156108195760008181526008602052604090205460098290559350600192505b6001016107e0565b50600a805460ff1916600117905581801561083c5750600083115b1561088e5760095460408051918252600060208301819052908201859052907fbd6e6cda619bf8543e995b997970fedcc65aee3e52791dd5c821df665df1192a9060600160405180910390a15061067b565b600a805461ff001916610100179055604080516000808252602082018190528183015290517fbd6e6cda619bf8543e995b997970fedcc65aee3e52791dd5c821df665df1192a916060908290030190a150505050565b6000828152602081905260409020600101546108ff81610933565b61067b83836109cf565b60026001540361092c57604051633ee5aeb560e01b815260040160405180910390fd5b6002600155565b61061c8133610a3a565b600061094983836106b9565b6109c7576000838152602081815260408083206001600160a01b03861684529091529020805460ff1916600117905561097f3390565b6001600160a01b0316826001600160a01b0316847f2f8788117e7eff1d82e926ec794901d17c78024a50270940304540a733656f0d60405160405180910390a4506001610650565b506000610650565b60006109db83836106b9565b156109c7576000838152602081815260408083206001600160a01b0386168085529252808320805460ff1916905551339286917ff6391f5c32d9c69d2a47ea670b442974b53935d1edc7fd64eb21e047a839171b9190a4506001610650565b610a4482826106b9565b610a735760405163e2517d3f60e01b81526001600160a01b0382166004820152602481018390526044016103ca565b5050565b600060208284031215610a8957600080fd5b5035919050565b600060208284031215610aa257600080fd5b81356001600160e01b031981168114610aba57600080fd5b9392505050565b80356001600160a01b0381168114610ad857600080fd5b919050565b600060208284031215610aef57600080fd5b610aba82610ac1565b60008060408385031215610b0b57600080fd5b82359150610b1b60208401610ac1565b90509250929050565b600060208284031215610b3657600080fd5b81518015158114610aba57600080fd5b600060208284031215610b5857600080fd5b5051919050565b8082018082111561065057634e487b7160e01b600052601160045260246000fdfea26469706673582212207a1715ad51f5e99b0c66e3a0c70bb70bf9670e2fb191e5844ed1f951bd14992664736f6c634300081c0033a49807205ce4d355092ef5a8a18f56e8913cf4a201fbe287825b095693c21775a26469706673582212204871bda4db5ffe352d949a7f12225b130e75ffc059ee20da881f59c54456766e64736f6c634300081c0033",
  "linkReferences": {},
  "deployedLinkReferences": {}
}