{
  "_format": "hh-sol-artifact-1",
  "contractName": "FlashDAOAgent",
  "sourceName": "contracts/FlashDAOAgent.sol",
  "abi": [
    {
      "inputs": [
        {
          "internalType": "address",
          "name": "_factory",
          "type": "address"
        },
        {
          "internalType": "address",
          "name": "_rewards",
          "type": "address"
        },
        {
          "internalType": "address",
          "name": "_donationToken",
          "type": "address"
        },
        {
          "internalType": "uint256",
          "name": "_severityThreshold",
          "type": "uint256"
        },
        {
          "internalType": "uint256",
          "name": "_fundingGoalMultiplier",
          "type": "uint256"
        }
      ],
      "stateMutability": "nonpayable",
      "type": "constructor"
    },
    {
      "inputs": [],
      "name": "AccessControlBadConfirmation",
      "type": "error"
    },
    {
      "inputs": [
        {
          "internalType": "address",
          "name": "account",
          "type": "address"
        },
        {
          "internalType": "bytes32",
          "name": "neededRole",
          "type": "bytes32"
        }
      ],
      "name": "AccessControlUnauthorizedAccount",
      "type": "error"
    },
    {
      "anonymous": false,
      "inputs": [
        {
          "indexed": false,
          "internalType": "address",
          "name": "daoAddress",
          "type": "address"
        },
        {
          "indexed": false,
          "internalType": "string",
          "name": "disasterName",
          "type": "string"
        },
        {
          "indexed": false,
          "internalType": "uint256",
          "name": "fundingGoal",
          "type": "uint256"
        }
      ],
      "name": "DAOCreated",
      "type": "event"
    },
    {
      "anonymous": false,
      "inputs": [
        {
          "indexed": false,
          "internalType": "string",
          "name": "name",
          "type": "string"
        },
        {
          "indexed": false,
          "internalType": "string",
          "name": "description",
          "type": "string"
        },
        {
          "indexed": false,
          "internalType": "uint256",
          "name": "severity",
          "type": "uint256"
        },
        {
          "indexed": false,
          "internalType": "uint256",
          "name": "timestamp",
          "type": "uint256"
        }
      ],
      "name": "DisasterDetected",
      "type": "event"
    },
    {
      "anonymous": false,
      "inputs": [
        {
          "indexed": true,
          "internalType": "bytes32",
          "name": "role",
          "type": "bytes32"
        },
        {
          "indexed": true,
          "internalType": "bytes32",
          "name": "previousAdminRole",
          "type": "bytes32"
        },
        {
          "indexed": true,
          "internalType": "bytes32",
          "name": "newAdminRole",
          "type": "bytes32"
        }
      ],
      "name": "RoleAdminChanged",
      "type": "event"
    },
    {
      "anonymous": false,
      "inputs": [
        {
          "indexed": true,
          "internalType": "bytes32",
          "name": "role",
          "type": "bytes32"
        },
        {
          "indexed": true,
          "internalType": "address",
          "name": "account",
          "type": "address"
        },
        {
          "indexed": true,
          "internalType": "address",
          "name": "sender",
          "type": "address"
        }
      ],
      "name": "RoleGranted",
      "type": "event"
    },
    {
      "anonymous": false,
      "inputs": [
        {
          "indexed": true,
          "internalType": "bytes32",
          "name": "role",
          "type": "bytes32"
        },
        {
          "indexed": true,
          "internalType": "address",
          "name": "account",
          "type": "address"
        },
        {
          "indexed": true,
          "internalType": "address",
          "name": "sender",
          "type": "address"
        }
      ],
      "name": "RoleRevoked",
      "type": "event"
    },
    {
      "inputs": [],
      "name": "DEFAULT_ADMIN_ROLE",
      "outputs": [
        {
          "internalType": "bytes32",
          "name": "",
          "type": "bytes32"
        }
      ],
      "stateMutability": "view",
      "type": "function"
    },
    {
      "inputs": [],
      "name": "ORACLE_ROLE",
      "outputs": [
        {
          "internalType": "bytes32",
          "name": "",
          "type": "bytes32"
        }
      ],
      "stateMutability": "view",
      "type": "function"
    },
    {
      "inputs": [],
      "name": "defaultFundingDuration",
      "outputs": [
        {
          "internalType": "uint256",
          "name": "",
          "type": "uint256"
        }
      ],
      "stateMutability": "view",
      "type": "function"
    },
    {
      "inputs": [],
      "name": "defaultVotingDuration",
      "outputs": [
        {
          "internalType": "uint256",
          "name": "",
          "type": "uint256"
        }
      ],
      "stateMutability": "view",
      "type": "function"
    },
    {
      "inputs": [
        {
          "internalType": "string",
          "name": "_disasterName",
          "type": "string"
        },
        {
          "internalType": "string",
          "name": "_disasterDescription",
          "type": "string"
        },
        {
          "internalType": "uint256",
          "name": "_severity",
          "type": "uint256"
        },
        {
          "internalType": "uint256",
          "name": "_customFundingDuration",
          "type": "uint256"
        },
        {
          "internalType": "uint256",
          "name": "_customVotingDuration",
          "type": "uint256"
        }
      ],
      "name": "detectDisaster",
      "outputs": [
        {
          "internalType": "address",
          "name": "",
          "type": "address"
        }
      ],
      "stateMutability": "nonpayable",
      "type": "function"
    },
    {
      "inputs": [],
      "name": "disasterCooldown",
      "outputs": [
        {
          "internalType": "uint256",
          "name": "",
          "type": "uint256"
        }
      ],
      "stateMutability": "view",
      "type": "function"
    },
    {
      "inputs": [],
      "name": "donationToken",
      "outputs": [
        {
          "internalType": "contract IERC20",
          "name": "",
          "type": "address"
        }
      ],
      "stateMutability": "view",
      "type": "function"
    },
    {
      "inputs": [],
      "name": "factory",
      "outputs": [
        {
          "internalType": "contract FlashDAOFactory",
          "name": "",
          "type": "address"
        }
      ],
      "stateMutability": "view",
      "type": "function"
    },
    {
      "inputs": [],
      "name": "fundingGoalMultiplier",
      "outputs": [
        {
          "internalType": "uint256",
          "name": "",
          "type": "uint256"
        }
      ],
      "stateMutability": "view",
      "type": "function"
    },
    {
      "inputs": [
        {
          "internalType": "bytes32",
          "name": "role",
          "type": "bytes32"
        }
      ],
      "name": "getRoleAdmin",
      "outputs": [
        {
          "internalType": "bytes32",
          "name": "",
          "type": "bytes32"
        }
      ],
      "stateMutability": "view",
      "type": "function"
    },
    {
      "inputs": [
        {
          "internalType": "bytes32",
          "name": "role",
          "type": "bytes32"
        },
        {
          "internalType": "address",
          "name": "account",
          "type": "address"
        }
      ],
      "name": "grantRole",
      "outputs": [],
      "stateMutability": "nonpayable",
      "type": "function"
    },
    {
      "inputs": [
        {
          "internalType": "bytes32",
          "name": "role",
          "type": "bytes32"
        },
        {
          "internalType": "address",
          "name": "account",
          "type": "address"
        }
      ],
      "name": "hasRole",
      "outputs": [
        {
          "internalType": "bool",
          "name": "",
          "type": "bool"
        }
      ],
      "stateMutability": "view",
      "type": "function"
    },
    {
      "inputs": [
        {
          "internalType": "bytes32",
          "name": "",
          "type": "bytes32"
        }
      ],
      "name": "recentDisasters",
      "outputs": [
        {
          "internalType": "uint256",
          "name": "",
          "type": "uint256"
        }
      ],
      "stateMutability": "view",
      "type": "function"
    },
    {
      "inputs": [
        {
          "internalType": "bytes32",
          "name": "role",
          "type": "bytes32"
        },
        {
          "internalType": "address",
          "name": "callerConfirmation",
          "type": "address"
        }
      ],
      "name": "renounceRole",
      "outputs": [],
      "stateMutability": "nonpayable",
      "type": "function"
    },
    {
      "inputs": [
        {
          "internalType": "bytes32",
          "name": "role",
          "type": "bytes32"
        },
        {
          "internalType": "address",
          "name": "account",
          "type": "address"
        }
      ],
      "name": "revokeRole",
      "outputs": [],
      "stateMutability": "nonpayable",
      "type": "function"
    },
    {
      "inputs": [],
      "name": "rewards",
      "outputs": [
        {
          "internalType": "contract FlashDAORewards",
          "name": "",
          "type": "address"
        }
      ],
      "stateMutability": "view",
      "type": "function"
    },
    {
      "inputs": [],
      "name": "severityThreshold",
      "outputs": [
        {
          "internalType": "uint256",
          "name": "",
          "type": "uint256"
        }
      ],
      "stateMutability": "view",
      "type": "function"
    },
    {
      "inputs": [
        {
          "internalType": "bytes4",
          "name": "interfaceId",
          "type": "bytes4"
        }
      ],
      "name": "supportsInterface",
      "outputs": [
        {
          "internalType": "bool",
          "name": "",
          "type": "bool"
        }
      ],
      "stateMutability": "view",
      "type": "function"
    },
    {
      "inputs": [
        {
          "internalType": "uint256",
          "name": "_newDuration",
          "type": "uint256"
        }
      ],
      "name": "updateDefaultFundingDuration",
      "outputs": [],
      "stateMutability": "nonpayable",
      "type": "function"
    },
    {
      "inputs": [
        {
          "internalType": "uint256",
          "name": "_newDuration",
          "type": "uint256"
        }
      ],
      "name": "updateDefaultVotingDuration",
      "outputs": [],
      "stateMutability": "nonpayable",
      "type": "function"
    },
    {
      "inputs": [
        {
          "internalType": "uint256",
          "name": "_newCooldown",
          "type": "uint256"
        }
      ],
      "name": "updateDisasterCooldown",
      "outputs": [],
      "stateMutability": "nonpayable",
      "type": "function"
    },
    {
      "inputs": [
        {
          "internalType": "uint256",
          "name": "_newMultiplier",
          "type": "uint256"
        }
      ],
      "name": "updateFundingGoalMultiplier",
      "outputs": [],
      "stateMutability": "nonpayable",
      "type": "function"
    },
    {
      "inputs": [
        {
          "internalType": "uint256",
          "name": "_newThreshold",
          "type": "uint256"
        }
      ],
      "name": "updateSeverityThreshold",
      "outputs": [],
      "stateMutability": "nonpayable",
      "type": "function"
    }
  ],
  "bytecode": "0x608060405262093a806005556203f4806006556201518060095534801561002557600080fd5b50604051611e31380380611e31833981810160405281019061004791906103d1565b6000821180156100585750600a8211155b610097576040517f08c379a000000000000000000000000000000000000000000000000000000000815260040161008e906104a9565b60405180910390fd5b600081116100da576040517f08c379a00000000000000000000000000000000000000000000000000000000081526004016100d190610515565b60405180910390fd5b84600160006101000a81548173ffffffffffffffffffffffffffffffffffffffff021916908373ffffffffffffffffffffffffffffffffffffffff16021790555083600260006101000a81548173ffffffffffffffffffffffffffffffffffffffff021916908373ffffffffffffffffffffffffffffffffffffffff16021790555082600360006101000a81548173ffffffffffffffffffffffffffffffffffffffff021916908373ffffffffffffffffffffffffffffffffffffffff16021790555081600481905550806007819055506101be6000801b336101c960201b60201c565b505050505050610535565b60006101db83836102c660201b60201c565b6102bb57600160008085815260200190815260200160002060000160008473ffffffffffffffffffffffffffffffffffffffff1673ffffffffffffffffffffffffffffffffffffffff16815260200190815260200160002060006101000a81548160ff02191690831515021790555061025861033060201b60201c565b73ffffffffffffffffffffffffffffffffffffffff168273ffffffffffffffffffffffffffffffffffffffff16847f2f8788117e7eff1d82e926ec794901d17c78024a50270940304540a733656f0d60405160405180910390a4600190506102c0565b600090505b92915050565b600080600084815260200190815260200160002060000160008373ffffffffffffffffffffffffffffffffffffffff1673ffffffffffffffffffffffffffffffffffffffff16815260200190815260200160002060009054906101000a900460ff16905092915050565b600033905090565b600080fd5b600073ffffffffffffffffffffffffffffffffffffffff82169050919050565b60006103688261033d565b9050919050565b6103788161035d565b811461038357600080fd5b50565b6000815190506103958161036f565b92915050565b6000819050919050565b6103ae8161039b565b81146103b957600080fd5b50565b6000815190506103cb816103a5565b92915050565b600080600080600060a086880312156103ed576103ec610338565b5b60006103fb88828901610386565b955050602061040c88828901610386565b945050604061041d88828901610386565b935050606061042e888289016103bc565b925050608061043f888289016103bc565b9150509295509295909350565b600082825260208201905092915050565b7f496e76616c6964207365766572697479207468726573686f6c64000000000000600082015250565b6000610493601a8361044c565b915061049e8261045d565b602082019050919050565b600060208201905081810360008301526104c281610486565b9050919050565b7f496e76616c69642066756e64696e6720676f616c206d756c7469706c69657200600082015250565b60006104ff601f8361044c565b915061050a826104c9565b602082019050919050565b6000602082019050818103600083015261052e816104f2565b9050919050565b6118ed806105446000396000f3fe608060405234801561001057600080fd5b506004361061014d5760003560e01c806357b0e18a116100c3578063a09312fd1161007c578063a09312fd146103a0578063a217fddf146103be578063c45a0155146103dc578063d2f86460146103fa578063d547741f14610416578063ed7e2954146104325761014d565b806357b0e18a146102de57806365540405146102fc578063765492c81461031857806391d14854146103365780639441c5a2146103665780639ec5a894146103825761014d565b8063248a9ca311610115578063248a9ca31461021e5780632f2ff15d1461024e57806336568abe1461026a578063395ba79d1461028657806341f64136146102a457806355f5e27f146102c05761014d565b806301ffc9a71461015257806303c6ad9c1461018257806307e2cea5146101b25780630df72159146101d05780631c9c05c3146101ee575b600080fd5b61016c60048036038101906101679190610e63565b61044e565b6040516101799190610eab565b60405180910390f35b61019c60048036038101906101979190611042565b6104c8565b6040516101a99190611136565b60405180910390f35b6101ba610791565b6040516101c7919061116a565b60405180910390f35b6101d86107b5565b6040516101e591906111e4565b60405180910390f35b6102086004803603810190610203919061122b565b6107db565b6040516102159190611267565b60405180910390f35b6102386004803603810190610233919061122b565b6107f3565b604051610245919061116a565b60405180910390f35b610268600480360381019061026391906112ae565b610812565b005b610284600480360381019061027f91906112ae565b610834565b005b61028e6108af565b60405161029b9190611267565b60405180910390f35b6102be60048036038101906102b991906112ee565b6108b5565b005b6102c861091d565b6040516102d59190611267565b60405180910390f35b6102e6610923565b6040516102f39190611267565b60405180910390f35b610316600480360381019061031191906112ee565b610929565b005b610320610941565b60405161032d9190611267565b60405180910390f35b610350600480360381019061034b91906112ae565b610947565b60405161035d9190610eab565b60405180910390f35b610380600480360381019061037b91906112ee565b6109b1565b005b61038a610a0c565b604051610397919061133c565b60405180910390f35b6103a8610a32565b6040516103b59190611267565b60405180910390f35b6103c6610a38565b6040516103d3919061116a565b60405180910390f35b6103e4610a3f565b6040516103f19190611378565b60405180910390f35b610414600480360381019061040f91906112ee565b610a65565b005b610430600480360381019061042b91906112ae565b610ac0565b005b61044c600480360381019061044791906112ee565b610ae2565b005b60007f7965db0b000000000000000000000000000000000000000000000000000000007bffffffffffffffffffffffffffffffffffffffffffffffffffffffff1916827bffffffffffffffffffffffffffffffffffffffffffffffffffffffff191614806104c157506104c082610b3d565b5b9050919050565b60007f68e79a7bf1e0bc45d0a330c573bc367f9cf464fd326078812f301165fbda4ef16104f481610ba7565b6000851180156105055750600a8511155b610544576040517f08c379a000000000000000000000000000000000000000000000000000000000815260040161053b906113f0565b60405180910390fd5b6000876040516020016105579190611481565b604051602081830303815290604052805190602001209050600954600860008381526020019081526020016000205461059091906114c7565b42116105d1576040517f08c379a00000000000000000000000000000000000000000000000000000000081526004016105c89061156d565b60405180910390fd5b6004548610610744576000600754876105ea919061158d565b905060008087116105fd576005546105ff565b865b9050600080871161061257600654610614565b865b90506000600160009054906101000a900473ffffffffffffffffffffffffffffffffffffffff1673ffffffffffffffffffffffffffffffffffffffff166343faeb55600360009054906101000a900473ffffffffffffffffffffffffffffffffffffffff168e8e8888886040518763ffffffff1660e01b815260040161069f96959493929190611608565b6020604051808303816000875af11580156106be573d6000803e3d6000fd5b505050506040513d601f19601f820116820180604052508101906106e2919061168c565b90504260086000878152602001908152602001600020819055507fa6651f9450050f43d7874bb70e14c858be3205718d20d9a70d2b5473343c061c818d8660405161072f939291906116b9565b60405180910390a18096505050505050610787565b7fdacdc8ada0d158bf9b0f32c977f1dda62e58343197dcca4f33dfee559a94626b8888884260405161077994939291906116f7565b60405180910390a160009250505b5095945050505050565b7f68e79a7bf1e0bc45d0a330c573bc367f9cf464fd326078812f301165fbda4ef181565b600360009054906101000a900473ffffffffffffffffffffffffffffffffffffffff1681565b60086020528060005260406000206000915090505481565b6000806000838152602001908152602001600020600101549050919050565b61081b826107f3565b61082481610ba7565b61082e8383610bbb565b50505050565b61083c610cac565b73ffffffffffffffffffffffffffffffffffffffff168173ffffffffffffffffffffffffffffffffffffffff16146108a0576040517f6697b23200000000000000000000000000000000000000000000000000000000815260040160405180910390fd5b6108aa8282610cb4565b505050565b60075481565b6000801b6108c281610ba7565b6000821180156108d35750600a8211155b610912576040517f08c379a000000000000000000000000000000000000000000000000000000000815260040161090990611796565b60405180910390fd5b816004819055505050565b60055481565b60045481565b6000801b61093681610ba7565b816009819055505050565b60095481565b600080600084815260200190815260200160002060000160008373ffffffffffffffffffffffffffffffffffffffff1673ffffffffffffffffffffffffffffffffffffffff16815260200190815260200160002060009054906101000a900460ff16905092915050565b6000801b6109be81610ba7565b60008211610a01576040517f08c379a00000000000000000000000000000000000000000000000000000000081526004016109f890611802565b60405180910390fd5b816006819055505050565b600260009054906101000a900473ffffffffffffffffffffffffffffffffffffffff1681565b60065481565b6000801b81565b600160009054906101000a900473ffffffffffffffffffffffffffffffffffffffff1681565b6000801b610a7281610ba7565b60008211610ab5576040517f08c379a0000000000000000000000000000000000000000000000000000000008152600401610aac9061186e565b60405180910390fd5b816007819055505050565b610ac9826107f3565b610ad281610ba7565b610adc8383610cb4565b50505050565b6000801b610aef81610ba7565b60008211610b32576040517f08c379a0000000000000000000000000000000000000000000000000000000008152600401610b2990611802565b60405180910390fd5b816005819055505050565b60007f01ffc9a7000000000000000000000000000000000000000000000000000000007bffffffffffffffffffffffffffffffffffffffffffffffffffffffff1916827bffffffffffffffffffffffffffffffffffffffffffffffffffffffff1916149050919050565b610bb881610bb3610cac565b610da6565b50565b6000610bc78383610947565b610ca157600160008085815260200190815260200160002060000160008473ffffffffffffffffffffffffffffffffffffffff1673ffffffffffffffffffffffffffffffffffffffff16815260200190815260200160002060006101000a81548160ff021916908315150217905550610c3e610cac565b73ffffffffffffffffffffffffffffffffffffffff168273ffffffffffffffffffffffffffffffffffffffff16847f2f8788117e7eff1d82e926ec794901d17c78024a50270940304540a733656f0d60405160405180910390a460019050610ca6565b600090505b92915050565b600033905090565b6000610cc08383610947565b15610d9b57600080600085815260200190815260200160002060000160008473ffffffffffffffffffffffffffffffffffffffff1673ffffffffffffffffffffffffffffffffffffffff16815260200190815260200160002060006101000a81548160ff021916908315150217905550610d38610cac565b73ffffffffffffffffffffffffffffffffffffffff168273ffffffffffffffffffffffffffffffffffffffff16847ff6391f5c32d9c69d2a47ea670b442974b53935d1edc7fd64eb21e047a839171b60405160405180910390a460019050610da0565b600090505b92915050565b610db08282610947565b610df35780826040517fe2517d3f000000000000000000000000000000000000000000000000000000008152600401610dea92919061188e565b60405180910390fd5b5050565b6000604051905090565b600080fd5b600080fd5b60007fffffffff0000000000000000000000000000000000000000000000000000000082169050919050565b610e4081610e0b565b8114610e4b57600080fd5b50565b600081359050610e5d81610e37565b92915050565b600060208284031215610e7957610e78610e01565b5b6000610e8784828501610e4e565b91505092915050565b60008115159050919050565b610ea581610e90565b82525050565b6000602082019050610ec06000830184610e9c565b92915050565b600080fd5b600080fd5b6000601f19601f8301169050919050565b7f4e487b7100000000000000000000000000000000000000000000000000000000600052604160045260246000fd5b610f1982610ed0565b810181811067ffffffffffffffff82111715610f3857610f37610ee1565b5b80604052505050565b6000610f4b610df7565b9050610f578282610f10565b919050565b600067ffffffffffffffff821115610f7757610f76610ee1565b5b610f8082610ed0565b9050602081019050919050565b82818337600083830152505050565b6000610faf610faa84610f5c565b610f41565b905082815260208101848484011115610fcb57610fca610ecb565b5b610fd6848285610f8d565b509392505050565b600082601f830112610ff357610ff2610ec6565b5b8135611003848260208601610f9c565b91505092915050565b6000819050919050565b61101f8161100c565b811461102a57600080fd5b50565b60008135905061103c81611016565b92915050565b600080600080600060a0868803121561105e5761105d610e01565b5b600086013567ffffffffffffffff81111561107c5761107b610e06565b5b61108888828901610fde565b955050602086013567ffffffffffffffff8111156110a9576110a8610e06565b5b6110b588828901610fde565b94505060406110c68882890161102d565b93505060606110d78882890161102d565b92505060806110e88882890161102d565b9150509295509295909350565b600073ffffffffffffffffffffffffffffffffffffffff82169050919050565b6000611120826110f5565b9050919050565b61113081611115565b82525050565b600060208201905061114b6000830184611127565b92915050565b6000819050919050565b61116481611151565b82525050565b600060208201905061117f600083018461115b565b92915050565b6000819050919050565b60006111aa6111a56111a0846110f5565b611185565b6110f5565b9050919050565b60006111bc8261118f565b9050919050565b60006111ce826111b1565b9050919050565b6111de816111c3565b82525050565b60006020820190506111f960008301846111d5565b92915050565b61120881611151565b811461121357600080fd5b50565b600081359050611225816111ff565b92915050565b60006020828403121561124157611240610e01565b5b600061124f84828501611216565b91505092915050565b6112618161100c565b82525050565b600060208201905061127c6000830184611258565b92915050565b61128b81611115565b811461129657600080fd5b50565b6000813590506112a881611282565b92915050565b600080604083850312156112c5576112c4610e01565b5b60006112d385828601611216565b92505060206112e485828601611299565b9150509250929050565b60006020828403121561130457611303610e01565b5b60006113128482850161102d565b91505092915050565b6000611326826111b1565b9050919050565b6113368161131b565b82525050565b6000602082019050611351600083018461132d565b92915050565b6000611362826111b1565b9050919050565b61137281611357565b82525050565b600060208201905061138d6000830184611369565b92915050565b600082825260208201905092915050565b7f496e76616c6964207365766572697479206c6576656c00000000000000000000600082015250565b60006113da601683611393565b91506113e5826113a4565b602082019050919050565b60006020820190508181036000830152611409816113cd565b9050919050565b600081519050919050565b600081905092915050565b60005b83811015611444578082015181840152602081019050611429565b60008484015250505050565b600061145b82611410565b611465818561141b565b9350611475818560208601611426565b80840191505092915050565b600061148d8284611450565b915081905092915050565b7f4e487b7100000000000000000000000000000000000000000000000000000000600052601160045260246000fd5b60006114d28261100c565b91506114dd8361100c565b92508282019050808211156114f5576114f4611498565b5b92915050565b7f53696d696c61722064697361737465722077617320726563656e746c7920637260008201527f6561746564000000000000000000000000000000000000000000000000000000602082015250565b6000611557602583611393565b9150611562826114fb565b604082019050919050565b600060208201905081810360008301526115868161154a565b9050919050565b60006115988261100c565b91506115a38361100c565b92508282026115b18161100c565b915082820484148315176115c8576115c7611498565b5b5092915050565b60006115da82611410565b6115e48185611393565b93506115f4818560208601611426565b6115fd81610ed0565b840191505092915050565b600060c08201905061161d6000830189611127565b818103602083015261162f81886115cf565b9050818103604083015261164381876115cf565b90506116526060830186611258565b61165f6080830185611258565b61166c60a0830184611258565b979650505050505050565b60008151905061168681611282565b92915050565b6000602082840312156116a2576116a1610e01565b5b60006116b084828501611677565b91505092915050565b60006060820190506116ce6000830186611127565b81810360208301526116e081856115cf565b90506116ef6040830184611258565b949350505050565b6000608082019050818103600083015261171181876115cf565b9050818103602083015261172581866115cf565b90506117346040830185611258565b6117416060830184611258565b95945050505050565b7f496e76616c6964207365766572697479207468726573686f6c64000000000000600082015250565b6000611780601a83611393565b915061178b8261174a565b602082019050919050565b600060208201905081810360008301526117af81611773565b9050919050565b7f496e76616c6964206475726174696f6e00000000000000000000000000000000600082015250565b60006117ec601083611393565b91506117f7826117b6565b602082019050919050565b6000602082019050818103600083015261181b816117df565b9050919050565b7f496e76616c69642066756e64696e6720676f616c206d756c7469706c69657200600082015250565b6000611858601f83611393565b915061186382611822565b602082019050919050565b600060208201905081810360008301526118878161184b565b9050919050565b60006040820190506118a36000830185611127565b6118b0602083018461115b565b939250505056fea26469706673582212202a6b93a963fbf5074bd1aa3b036d5744b7580d06f13361f5dd080e60a36249cf64736f6c634300081c0033",
  "linkReferences": {},
  "deployedLinkReferences": {}
}