{
  "_format": "hh-sol-artifact-1",
  "contractName": "VolunteerRegistry",
  "sourceName": "contracts/VolunteerRegistry.sol",
  "abi": [
    {
      "inputs": [
        {
          "internalType": "address",
          "name": "_selfProtocolAddress",
          "type": "address"
        }
      ],
      "stateMutability": "nonpayable",
      "type": "constructor"
    },
    {
      "inputs": [],
      "name": "AccessControlBadConfirmation",
      "type": "error"
    },
    {
      "inputs": [
        {
          "internalType": "address",
          "name": "account",
          "type": "address"
        },
        {
          "internalType": "bytes32",
          "name": "neededRole",
          "type": "bytes32"
        }
      ],
      "name": "AccessControlUnauthorizedAccount",
      "type": "error"
    },
    {
      "anonymous": false,
      "inputs": [
        {
          "indexed": true,
          "internalType": "bytes32",
          "name": "role",
          "type": "bytes32"
        },
        {
          "indexed": true,
          "internalType": "bytes32",
          "name": "previousAdminRole",
          "type": "bytes32"
        },
        {
          "indexed": true,
          "internalType": "bytes32",
          "name": "newAdminRole",
          "type": "bytes32"
        }
      ],
      "name": "RoleAdminChanged",
      "type": "event"
    },
    {
      "anonymous": false,
      "inputs": [
        {
          "indexed": true,
          "internalType": "bytes32",
          "name": "role",
          "type": "bytes32"
        },
        {
          "indexed": true,
          "internalType": "address",
          "name": "account",
          "type": "address"
        },
        {
          "indexed": true,
          "internalType": "address",
          "name": "sender",
          "type": "address"
        }
      ],
      "name": "RoleGranted",
      "type": "event"
    },
    {
      "anonymous": false,
      "inputs": [
        {
          "indexed": true,
          "internalType": "bytes32",
          "name": "role",
          "type": "bytes32"
        },
        {
          "indexed": true,
          "internalType": "address",
          "name": "account",
          "type": "address"
        },
        {
          "indexed": true,
          "internalType": "address",
          "name": "sender",
          "type": "address"
        }
      ],
      "name": "RoleRevoked",
      "type": "event"
    },
    {
      "anonymous": false,
      "inputs": [
        {
          "indexed": true,
          "internalType": "address",
          "name": "newAddress",
          "type": "address"
        }
      ],
      "name": "SelfProtocolAddressUpdated",
      "type": "event"
    },
    {
      "anonymous": false,
      "inputs": [
        {
          "indexed": true,
          "internalType": "uint256",
          "name": "volunteerId",
          "type": "uint256"
        },
        {
          "indexed": true,
          "internalType": "address",
          "name": "volunteerAddress",
          "type": "address"
        }
      ],
      "name": "VolunteerApproved",
      "type": "event"
    },
    {
      "anonymous": false,
      "inputs": [
        {
          "indexed": true,
          "internalType": "uint256",
          "name": "volunteerId",
          "type": "uint256"
        },
        {
          "indexed": true,
          "internalType": "address",
          "name": "volunteerAddress",
          "type": "address"
        }
      ],
      "name": "VolunteerDeactivated",
      "type": "event"
    },
    {
      "anonymous": false,
      "inputs": [
        {
          "indexed": true,
          "internalType": "uint256",
          "name": "volunteerId",
          "type": "uint256"
        },
        {
          "indexed": true,
          "internalType": "address",
          "name": "volunteerAddress",
          "type": "address"
        },
        {
          "indexed": false,
          "internalType": "string",
          "name": "name",
          "type": "string"
        }
      ],
      "name": "VolunteerRegistered",
      "type": "event"
    },
    {
      "inputs": [],
      "name": "ADMIN_ROLE",
      "outputs": [
        {
          "internalType": "bytes32",
          "name": "",
          "type": "bytes32"
        }
      ],
      "stateMutability": "view",
      "type": "function"
    },
    {
      "inputs": [],
      "name": "DEFAULT_ADMIN_ROLE",
      "outputs": [
        {
          "internalType": "bytes32",
          "name": "",
          "type": "bytes32"
        }
      ],
      "stateMutability": "view",
      "type": "function"
    },
    {
      "inputs": [],
      "name": "EVENT_MANAGER_ROLE",
      "outputs": [
        {
          "internalType": "bytes32",
          "name": "",
          "type": "bytes32"
        }
      ],
      "stateMutability": "view",
      "type": "function"
    },
    {
      "inputs": [
        {
          "internalType": "uint256",
          "name": "volunteerId",
          "type": "uint256"
        }
      ],
      "name": "approveVolunteer",
      "outputs": [],
      "stateMutability": "nonpayable",
      "type": "function"
    },
    {
      "inputs": [
        {
          "internalType": "uint256",
          "name": "volunteerId",
          "type": "uint256"
        }
      ],
      "name": "deactivateVolunteer",
      "outputs": [],
      "stateMutability": "nonpayable",
      "type": "function"
    },
    {
      "inputs": [
        {
          "internalType": "bytes32",
          "name": "role",
          "type": "bytes32"
        }
      ],
      "name": "getRoleAdmin",
      "outputs": [
        {
          "internalType": "bytes32",
          "name": "",
          "type": "bytes32"
        }
      ],
      "stateMutability": "view",
      "type": "function"
    },
    {
      "inputs": [
        {
          "internalType": "address",
          "name": "_volunteerAddress",
          "type": "address"
        }
      ],
      "name": "getVolunteerByAddress",
      "outputs": [
        {
          "components": [
            {
              "internalType": "uint256",
              "name": "id",
              "type": "uint256"
            },
            {
              "internalType": "address",
              "name": "walletAddress",
              "type": "address"
            },
            {
              "internalType": "string",
              "name": "name",
              "type": "string"
            },
            {
              "internalType": "string",
              "name": "description",
              "type": "string"
            },
            {
              "internalType": "uint256",
              "name": "registrationDate",
              "type": "uint256"
            },
            {
              "internalType": "bool",
              "name": "isActive",
              "type": "bool"
            },
            {
              "internalType": "bool",
              "name": "isApproved",
              "type": "bool"
            }
          ],
          "internalType": "struct VolunteerRegistry.Volunteer",
          "name": "",
          "type": "tuple"
        }
      ],
      "stateMutability": "view",
      "type": "function"
    },
    {
      "inputs": [
        {
          "internalType": "uint256",
          "name": "volunteerId",
          "type": "uint256"
        }
      ],
      "name": "getVolunteerById",
      "outputs": [
        {
          "components": [
            {
              "internalType": "uint256",
              "name": "id",
              "type": "uint256"
            },
            {
              "internalType": "address",
              "name": "walletAddress",
              "type": "address"
            },
            {
              "internalType": "string",
              "name": "name",
              "type": "string"
            },
            {
              "internalType": "string",
              "name": "description",
              "type": "string"
            },
            {
              "internalType": "uint256",
              "name": "registrationDate",
              "type": "uint256"
            },
            {
              "internalType": "bool",
              "name": "isActive",
              "type": "bool"
            },
            {
              "internalType": "bool",
              "name": "isApproved",
              "type": "bool"
            }
          ],
          "internalType": "struct VolunteerRegistry.Volunteer",
          "name": "",
          "type": "tuple"
        }
      ],
      "stateMutability": "view",
      "type": "function"
    },
    {
      "inputs": [],
      "name": "getVolunteerCount",
      "outputs": [
        {
          "internalType": "uint256",
          "name": "",
          "type": "uint256"
        }
      ],
      "stateMutability": "view",
      "type": "function"
    },
    {
      "inputs": [
        {
          "internalType": "bytes32",
          "name": "role",
          "type": "bytes32"
        },
        {
          "internalType": "address",
          "name": "account",
          "type": "address"
        }
      ],
      "name": "grantRole",
      "outputs": [],
      "stateMutability": "nonpayable",
      "type": "function"
    },
    {
      "inputs": [
        {
          "internalType": "bytes32",
          "name": "role",
          "type": "bytes32"
        },
        {
          "internalType": "address",
          "name": "account",
          "type": "address"
        }
      ],
      "name": "hasRole",
      "outputs": [
        {
          "internalType": "bool",
          "name": "",
          "type": "bool"
        }
      ],
      "stateMutability": "view",
      "type": "function"
    },
    {
      "inputs": [
        {
          "internalType": "address",
          "name": "",
          "type": "address"
        }
      ],
      "name": "hasVoted",
      "outputs": [
        {
          "internalType": "bool",
          "name": "",
          "type": "bool"
        }
      ],
      "stateMutability": "view",
      "type": "function"
    },
    {
      "inputs": [
        {
          "internalType": "uint256",
          "name": "volunteerId",
          "type": "uint256"
        }
      ],
      "name": "isApproved",
      "outputs": [
        {
          "internalType": "bool",
          "name": "",
          "type": "bool"
        }
      ],
      "stateMutability": "view",
      "type": "function"
    },
    {
      "inputs": [
        {
          "internalType": "address",
          "name": "_address",
          "type": "address"
        }
      ],
      "name": "isVolunteer",
      "outputs": [
        {
          "internalType": "bool",
          "name": "",
          "type": "bool"
        }
      ],
      "stateMutability": "view",
      "type": "function"
    },
    {
      "inputs": [
        {
          "internalType": "address",
          "name": "_voter",
          "type": "address"
        }
      ],
      "name": "markAsVoted",
      "outputs": [],
      "stateMutability": "nonpayable",
      "type": "function"
    },
    {
      "inputs": [
        {
          "internalType": "string",
          "name": "_name",
          "type": "string"
        },
        {
          "internalType": "string",
          "name": "_description",
          "type": "string"
        },
        {
          "internalType": "bytes",
          "name": "_credentials",
          "type": "bytes"
        }
      ],
      "name": "registerAsVolunteer",
      "outputs": [],
      "stateMutability": "nonpayable",
      "type": "function"
    },
    {
      "inputs": [
        {
          "internalType": "address",
          "name": "_volunteerAddress",
          "type": "address"
        },
        {
          "internalType": "string",
          "name": "_name",
          "type": "string"
        },
        {
          "internalType": "string",
          "name": "_description",
          "type": "string"
        },
        {
          "internalType": "bytes",
          "name": "_credentials",
          "type": "bytes"
        }
      ],
      "name": "registerVolunteer",
      "outputs": [],
      "stateMutability": "nonpayable",
      "type": "function"
    },
    {
      "inputs": [
        {
          "internalType": "bytes32",
          "name": "role",
          "type": "bytes32"
        },
        {
          "internalType": "address",
          "name": "callerConfirmation",
          "type": "address"
        }
      ],
      "name": "renounceRole",
      "outputs": [],
      "stateMutability": "nonpayable",
      "type": "function"
    },
    {
      "inputs": [
        {
          "internalType": "bytes32",
          "name": "role",
          "type": "bytes32"
        },
        {
          "internalType": "address",
          "name": "account",
          "type": "address"
        }
      ],
      "name": "revokeRole",
      "outputs": [],
      "stateMutability": "nonpayable",
      "type": "function"
    },
    {
      "inputs": [],
      "name": "selfProtocol",
      "outputs": [
        {
          "internalType": "contract ISelfProtocol",
          "name": "",
          "type": "address"
        }
      ],
      "stateMutability": "view",
      "type": "function"
    },
    {
      "inputs": [
        {
          "internalType": "bytes4",
          "name": "interfaceId",
          "type": "bytes4"
        }
      ],
      "name": "supportsInterface",
      "outputs": [
        {
          "internalType": "bool",
          "name": "",
          "type": "bool"
        }
      ],
      "stateMutability": "view",
      "type": "function"
    },
    {
      "inputs": [
        {
          "internalType": "address",
          "name": "_newSelfProtocolAddress",
          "type": "address"
        }
      ],
      "name": "updateSelfProtocolAddress",
      "outputs": [],
      "stateMutability": "nonpayable",
      "type": "function"
    },
    {
      "inputs": [
        {
          "internalType": "uint256",
          "name": "",
          "type": "uint256"
        }
      ],
      "name": "volunteerAddressById",
      "outputs": [
        {
          "internalType": "address",
          "name": "",
          "type": "address"
        }
      ],
      "stateMutability": "view",
      "type": "function"
    },
    {
      "inputs": [
        {
          "internalType": "address",
          "name": "",
          "type": "address"
        }
      ],
      "name": "volunteerByAddress",
      "outputs": [
        {
          "internalType": "uint256",
          "name": "id",
          "type": "uint256"
        },
        {
          "internalType": "address",
          "name": "walletAddress",
          "type": "address"
        },
        {
          "internalType": "string",
          "name": "name",
          "type": "string"
        },
        {
          "internalType": "string",
          "name": "description",
          "type": "string"
        },
        {
          "internalType": "uint256",
          "name": "registrationDate",
          "type": "uint256"
        },
        {
          "internalType": "bool",
          "name": "isActive",
          "type": "bool"
        },
        {
          "internalType": "bool",
          "name": "isApproved",
          "type": "bool"
        }
      ],
      "stateMutability": "view",
      "type": "function"
    },
    {
      "inputs": [
        {
          "internalType": "uint256",
          "name": "",
          "type": "uint256"
        }
      ],
      "name": "volunteerExists",
      "outputs": [
        {
          "internalType": "bool",
          "name": "",
          "type": "bool"
        }
      ],
      "stateMutability": "view",
      "type": "function"
    }
  ],
  "bytecode": "0x608060405234801561001057600080fd5b50604051611fdf380380611fdf83398101604081905261002f916101b8565b6001600160a01b0381166100895760405162461bcd60e51b815260206004820152601d60248201527f496e76616c69642053656c662050726f746f636f6c2061646472657373000000604482015260640160405180910390fd5b600180546001600160a01b0319166001600160a01b0383161790556100af60003361010c565b506100da7fa49807205ce4d355092ef5a8a18f56e8913cf4a201fbe287825b095693c217753361010c565b506101057fa961ef34a96635180dfffd0ae574060d6c6af619ce89175a103711bf5ce827083361010c565b50506101e8565b6000828152602081815260408083206001600160a01b038516845290915281205460ff166101ae576000838152602081815260408083206001600160a01b03861684529091529020805460ff191660011790556101663390565b6001600160a01b0316826001600160a01b0316847f2f8788117e7eff1d82e926ec794901d17c78024a50270940304540a733656f0d60405160405180910390a45060016101b2565b5060005b92915050565b6000602082840312156101ca57600080fd5b81516001600160a01b03811681146101e157600080fd5b9392505050565b611de8806101f76000396000f3fe608060405234801561001057600080fd5b50600436106101735760003560e01c8063705ed273116100de5780639d7a295b11610097578063d1da2f7c11610071578063d1da2f7c146103a5578063d3b64316146103ad578063d547741f146103d0578063f9aad711146103e357600080fd5b80639d7a295b14610364578063a217fddf14610377578063c6b732311461037f57600080fd5b8063705ed273146102f057806375b238fc146103035780637910867b1461031857806390755c3b1461032b57806391d148541461033e5780639b072d0c1461035157600080fd5b80632f2ff15d116101305780632f2ff15d1461023c57806336568abe1461024f5780633949e7f1146102625780633c03d33a1461027557806359486873146102885780636389e07f146102af57600080fd5b806301ffc9a71461017857806309eef43e146101a05780630c87add6146101c3578063122b7941146101d8578063248a9ca3146101f8578063291640d014610229575b600080fd5b61018b6101863660046117cc565b6103f6565b60405190151581526020015b60405180910390f35b61018b6101ae366004611819565b60066020526000908152604090205460ff1681565b6101d66101d1366004611819565b61042d565b005b6101eb6101e6366004611819565b6104eb565b604051610197919061187a565b61021b6102063660046118ff565b60009081526020819052604090206001015490565b604051908152602001610197565b6101d6610237366004611819565b6106ca565b6101d661024a366004611918565b610719565b6101d661025d366004611918565b610744565b6101d66102703660046118ff565b61077c565b6101d661028336600461198d565b610884565b61021b7fa961ef34a96635180dfffd0ae574060d6c6af619ce89175a103711bf5ce8270881565b6102d86102bd3660046118ff565b6004602052600090815260409020546001600160a01b031681565b6040516001600160a01b039091168152602001610197565b6001546102d8906001600160a01b031681565b61021b600080516020611d9383398151915281565b61018b6103263660046118ff565b610c05565b61018b610339366004611819565b610c67565b61018b61034c366004611918565b610c8b565b6101d661035f3660046118ff565b610cb4565b6101d6610372366004611a33565b610e2d565b61021b600081565b61039261038d366004611819565b6112e7565b6040516101979796959493929190611aea565b60025461021b565b61018b6103bb3660046118ff565b60056020526000908152604090205460ff1681565b6101d66103de366004611918565b611443565b6101eb6103f13660046118ff565b611468565b60006001600160e01b03198216637965db0b60e01b148061042757506301ffc9a760e01b6001600160e01b03198316145b92915050565b600080516020611d938339815191526104458161163b565b6001600160a01b0382166104a05760405162461bcd60e51b815260206004820152601d60248201527f496e76616c69642053656c662050726f746f636f6c206164647265737300000060448201526064015b60405180910390fd5b600180546001600160a01b0319166001600160a01b0384169081179091556040517fd3fb1480aac6d3b0f61d2b8e99f7a0520b617d5a9bc5c0fa4f1ea6ebf81a389990600090a25050565b6104f3611782565b6104fc82610c67565b61053a5760405162461bcd60e51b815260206004820152600f60248201526e2737ba1030903b37b63ab73a32b2b960891b6044820152606401610497565b6001600160a01b03808316600090815260036020908152604091829020825160e08101845281548152600182015490941691840191909152600281018054919284019161058690611b48565b80601f01602080910402602001604051908101604052809291908181526020018280546105b290611b48565b80156105ff5780601f106105d4576101008083540402835291602001916105ff565b820191906000526020600020905b8154815290600101906020018083116105e257829003601f168201915b5050505050815260200160038201805461061890611b48565b80601f016020809104026020016040519081016040528092919081815260200182805461064490611b48565b80156106915780601f1061066657610100808354040283529160200191610691565b820191906000526020600020905b81548152906001019060200180831161067457829003601f168201915b50505091835250506004820154602082015260059091015460ff8082161515604084015261010090910416151560609091015292915050565b7fa961ef34a96635180dfffd0ae574060d6c6af619ce89175a103711bf5ce827086106f48161163b565b506001600160a01b03166000908152600660205260409020805460ff19166001179055565b6000828152602081905260409020600101546107348161163b565b61073e8383611648565b50505050565b6001600160a01b038116331461076d5760405163334bd91960e11b815260040160405180910390fd5b61077782826116da565b505050565b600080516020611d938339815191526107948161163b565b60008281526005602052604090205460ff166107c25760405162461bcd60e51b815260040161049790611b82565b6000828152600460209081526040808320546001600160a01b03168084526003909252909120600581015460ff1661083c5760405162461bcd60e51b815260206004820152601a60248201527f566f6c756e7465657220616c726561647920696e6163746976650000000000006044820152606401610497565b60058101805460ff191690556040516001600160a01b0383169085907f8903e88cf7edb43cc8ce5dd6c01b300b5dff5c7ed9ede46d16dd47f6f8c0bce590600090a350505050565b61088d33610c67565b156108da5760405162461bcd60e51b815260206004820152601f60248201527f416c7265616479207265676973746572656420617320766f6c756e74656572006044820152606401610497565b3360009081526006602052604090205460ff161561093a5760405162461bcd60e51b815260206004820152601b60248201527f566f746572732063616e6e6f7420626520766f6c756e746565727300000000006044820152606401610497565b8461097e5760405162461bcd60e51b81526020600482015260146024820152734e616d652063616e6e6f7420626520656d70747960601b6044820152606401610497565b600154604051635edd020d60e01b81526001600160a01b0390911690635edd020d906109b290339086908690600401611be2565b602060405180830381865afa1580156109cf573d6000803e3d6000fd5b505050506040513d601f19601f820116820180604052508101906109f39190611c10565b610a355760405162461bcd60e51b8152602060048201526013602482015272496e76616c69642063726564656e7469616c7360681b6044820152606401610497565b600254610a43816001611c32565b6002556040805160e081018252828152336020808301919091528251601f8a0182900482028101820184528981526000938301918b908b9081908401838280828437600092019190915250505090825250604080516020601f8a018190048102820181019092528881529181019190899089908190840183828082843760009201829052509385525050426020808501919091526001604080860182905260609095018490523384526003825292849020855181559085015192810180546001600160a01b0319166001600160a01b0390941693909317909255509082015191925082916002820190610b369082611cb7565b5060608201516003820190610b4b9082611cb7565b50608082015160048083019190915560a08301516005928301805460c09095015115156101000261ff00199215159290921661ffff19909516949094171790925560008481526020928352604080822080546001600160a01b0319163390811790915592909352829020805460ff19166001179055905183907f7357f5e14a2e2494dda903dfeb31233b708c32519affb9e407bd7a146d541a8390610bf3908c908c90611d76565b60405180910390a35050505050505050565b60008181526005602052604081205460ff16610c335760405162461bcd60e51b815260040161049790611b82565b506000908152600460209081526040808320546001600160a01b031683526003909152902060050154610100900460ff1690565b6001600160a01b039081166000818152600360205260409020600101549091161490565b6000918252602082815260408084206001600160a01b0393909316845291905290205460ff1690565b7fa961ef34a96635180dfffd0ae574060d6c6af619ce89175a103711bf5ce82708610cde8161163b565b60008281526005602052604090205460ff16610d0c5760405162461bcd60e51b815260040161049790611b82565b6000828152600460209081526040808320546001600160a01b031680845260039092529091206005810154610100900460ff1615610d8c5760405162461bcd60e51b815260206004820152601a60248201527f566f6c756e7465657220616c726561647920617070726f7665640000000000006044820152606401610497565b600581015460ff16610de05760405162461bcd60e51b815260206004820152601760248201527f566f6c756e74656572206973206e6f74206163746976650000000000000000006044820152606401610497565b60058101805461ff0019166101001790556040516001600160a01b0383169085907f4d44615d41afb44074d3528c693522ea195ce0ae446de735dd8a17f65914096090600090a350505050565b600080516020611d93833981519152610e458161163b565b6001600160a01b038816610e9b5760405162461bcd60e51b815260206004820152601960248201527f496e76616c696420766f6c756e746565722061646472657373000000000000006044820152606401610497565b610ea488610c67565b15610ef15760405162461bcd60e51b815260206004820152601f60248201527f416c7265616479207265676973746572656420617320766f6c756e74656572006044820152606401610497565b6001600160a01b03881660009081526006602052604090205460ff1615610f5a5760405162461bcd60e51b815260206004820152601b60248201527f566f746572732063616e6e6f7420626520766f6c756e746565727300000000006044820152606401610497565b85610f9e5760405162461bcd60e51b81526020600482015260146024820152734e616d652063616e6e6f7420626520656d70747960601b6044820152606401610497565b600154604051635edd020d60e01b81526001600160a01b0390911690635edd020d90610fd2908b9087908790600401611be2565b602060405180830381865afa158015610fef573d6000803e3d6000fd5b505050506040513d601f19601f820116820180604052508101906110139190611c10565b6110555760405162461bcd60e51b8152602060048201526013602482015272496e76616c69642063726564656e7469616c7360681b6044820152606401610497565b600254611063816001611c32565b60028190555060006040518060e001604052808381526020018b6001600160a01b031681526020018a8a8080601f016020809104026020016040519081016040528093929190818152602001838380828437600092019190915250505090825250604080516020601f8b0181900481028201810190925289815291810191908a908a9081908401838280828437600081840152601f19601f82011690508083019250505050505050815260200142815260200160011515815260200160011515815250905080600360008c6001600160a01b03166001600160a01b031681526020019081526020016000206000820151816000015560208201518160010160006101000a8154816001600160a01b0302191690836001600160a01b03160217905550604082015181600201908161119a9190611cb7565b50606082015160038201906111af9082611cb7565b506080820151816004015560a08201518160050160006101000a81548160ff02191690831515021790555060c08201518160050160016101000a81548160ff021916908315150217905550905050896004600084815260200190815260200160002060006101000a8154816001600160a01b0302191690836001600160a01b0316021790555060016005600084815260200190815260200160002060006101000a81548160ff021916908315150217905550896001600160a01b0316827f7357f5e14a2e2494dda903dfeb31233b708c32519affb9e407bd7a146d541a838b8b60405161129d929190611d76565b60405180910390a36040516001600160a01b038b169083907f4d44615d41afb44074d3528c693522ea195ce0ae446de735dd8a17f65914096090600090a350505050505050505050565b60036020526000908152604090208054600182015460028301805492936001600160a01b039092169261131990611b48565b80601f016020809104026020016040519081016040528092919081815260200182805461134590611b48565b80156113925780601f1061136757610100808354040283529160200191611392565b820191906000526020600020905b81548152906001019060200180831161137557829003601f168201915b5050505050908060030180546113a790611b48565b80601f01602080910402602001604051908101604052809291908181526020018280546113d390611b48565b80156114205780601f106113f557610100808354040283529160200191611420565b820191906000526020600020905b81548152906001019060200180831161140357829003601f168201915b50505050600483015460059093015491929160ff80821692506101009091041687565b60008281526020819052604090206001015461145e8161163b565b61073e83836116da565b611470611782565b60008281526005602052604090205460ff1661149e5760405162461bcd60e51b815260040161049790611b82565b6000828152600460209081526040808320546001600160a01b039081168085526003845293829020825160e081018452815481526001820154909216938201939093526002830180549193928401916114f690611b48565b80601f016020809104026020016040519081016040528092919081815260200182805461152290611b48565b801561156f5780601f106115445761010080835404028352916020019161156f565b820191906000526020600020905b81548152906001019060200180831161155257829003601f168201915b5050505050815260200160038201805461158890611b48565b80601f01602080910402602001604051908101604052809291908181526020018280546115b490611b48565b80156116015780601f106115d657610100808354040283529160200191611601565b820191906000526020600020905b8154815290600101906020018083116115e457829003601f168201915b50505091835250506004820154602082015260059091015460ff808216151560408401526101009091041615156060909101529392505050565b6116458133611745565b50565b60006116548383610c8b565b6116d2576000838152602081815260408083206001600160a01b03861684529091529020805460ff1916600117905561168a3390565b6001600160a01b0316826001600160a01b0316847f2f8788117e7eff1d82e926ec794901d17c78024a50270940304540a733656f0d60405160405180910390a4506001610427565b506000610427565b60006116e68383610c8b565b156116d2576000838152602081815260408083206001600160a01b0386168085529252808320805460ff1916905551339286917ff6391f5c32d9c69d2a47ea670b442974b53935d1edc7fd64eb21e047a839171b9190a4506001610427565b61174f8282610c8b565b61177e5760405163e2517d3f60e01b81526001600160a01b038216600482015260248101839052604401610497565b5050565b6040518060e001604052806000815260200160006001600160a01b031681526020016060815260200160608152602001600081526020016000151581526020016000151581525090565b6000602082840312156117de57600080fd5b81356001600160e01b0319811681146117f657600080fd5b9392505050565b80356001600160a01b038116811461181457600080fd5b919050565b60006020828403121561182b57600080fd5b6117f6826117fd565b6000815180845260005b8181101561185a5760208185018101518683018201520161183e565b506000602082860101526020601f19601f83011685010191505092915050565b602081528151602082015260018060a01b0360208301511660408201526000604083015160e060608401526118b3610100840182611834565b90506060840151601f198483030160808501526118d08282611834565b915050608084015160a084015260a0840151151560c084015260c0840151151560e08401528091505092915050565b60006020828403121561191157600080fd5b5035919050565b6000806040838503121561192b57600080fd5b8235915061193b602084016117fd565b90509250929050565b60008083601f84011261195657600080fd5b50813567ffffffffffffffff81111561196e57600080fd5b60208301915083602082850101111561198657600080fd5b9250929050565b600080600080600080606087890312156119a657600080fd5b863567ffffffffffffffff8111156119bd57600080fd5b6119c989828a01611944565b909750955050602087013567ffffffffffffffff8111156119e957600080fd5b6119f589828a01611944565b909550935050604087013567ffffffffffffffff811115611a1557600080fd5b611a2189828a01611944565b979a9699509497509295939492505050565b60008060008060008060006080888a031215611a4e57600080fd5b611a57886117fd565b9650602088013567ffffffffffffffff811115611a7357600080fd5b611a7f8a828b01611944565b909750955050604088013567ffffffffffffffff811115611a9f57600080fd5b611aab8a828b01611944565b909550935050606088013567ffffffffffffffff811115611acb57600080fd5b611ad78a828b01611944565b989b979a50959850939692959293505050565b8781526001600160a01b038716602082015260e060408201819052600090611b1490830188611834565b8281036060840152611b268188611834565b6080840196909652505091151560a0830152151560c090910152949350505050565b600181811c90821680611b5c57607f821691505b602082108103611b7c57634e487b7160e01b600052602260045260246000fd5b50919050565b60208082526018908201527f566f6c756e7465657220646f6573206e6f742065786973740000000000000000604082015260600190565b81835281816020850137506000828201602090810191909152601f909101601f19169091010190565b6001600160a01b0384168152604060208201819052600090611c079083018486611bb9565b95945050505050565b600060208284031215611c2257600080fd5b815180151581146117f657600080fd5b8082018082111561042757634e487b7160e01b600052601160045260246000fd5b634e487b7160e01b600052604160045260246000fd5b601f82111561077757806000526020600020601f840160051c81016020851015611c905750805b601f840160051c820191505b81811015611cb05760008155600101611c9c565b5050505050565b815167ffffffffffffffff811115611cd157611cd1611c53565b611ce581611cdf8454611b48565b84611c69565b6020601f821160018114611d195760008315611d015750848201515b600019600385901b1c1916600184901b178455611cb0565b600084815260208120601f198516915b82811015611d495787850151825560209485019460019092019101611d29565b5084821015611d675786840151600019600387901b60f8161c191681555b50505050600190811b01905550565b602081526000611d8a602083018486611bb9565b94935050505056fea49807205ce4d355092ef5a8a18f56e8913cf4a201fbe287825b095693c21775a26469706673582212209b3ffe0f99aca3212979eee425ac0f607d68c7ca3689a403ccbde64c2f44994b64736f6c634300081c0033",
  "linkReferences": {},
  "deployedLinkReferences": {}
}