{
  "_format": "hh-sol-artifact-1",
  "contractName": "VolunteerRegistry",
  "sourceName": "contracts/VolunteerRegistry.sol",
  "abi": [
    {
      "inputs": [
        {
          "internalType": "address",
          "name": "_selfProtocolAddress",
          "type": "address"
        }
      ],
      "stateMutability": "nonpayable",
      "type": "constructor"
    },
    {
      "inputs": [],
      "name": "AccessControlBadConfirmation",
      "type": "error"
    },
    {
      "inputs": [
        {
          "internalType": "address",
          "name": "account",
          "type": "address"
        },
        {
          "internalType": "bytes32",
          "name": "neededRole",
          "type": "bytes32"
        }
      ],
      "name": "AccessControlUnauthorizedAccount",
      "type": "error"
    },
    {
      "anonymous": false,
      "inputs": [
        {
          "indexed": true,
          "internalType": "bytes32",
          "name": "role",
          "type": "bytes32"
        },
        {
          "indexed": true,
          "internalType": "bytes32",
          "name": "previousAdminRole",
          "type": "bytes32"
        },
        {
          "indexed": true,
          "internalType": "bytes32",
          "name": "newAdminRole",
          "type": "bytes32"
        }
      ],
      "name": "RoleAdminChanged",
      "type": "event"
    },
    {
      "anonymous": false,
      "inputs": [
        {
          "indexed": true,
          "internalType": "bytes32",
          "name": "role",
          "type": "bytes32"
        },
        {
          "indexed": true,
          "internalType": "address",
          "name": "account",
          "type": "address"
        },
        {
          "indexed": true,
          "internalType": "address",
          "name": "sender",
          "type": "address"
        }
      ],
      "name": "RoleGranted",
      "type": "event"
    },
    {
      "anonymous": false,
      "inputs": [
        {
          "indexed": true,
          "internalType": "bytes32",
          "name": "role",
          "type": "bytes32"
        },
        {
          "indexed": true,
          "internalType": "address",
          "name": "account",
          "type": "address"
        },
        {
          "indexed": true,
          "internalType": "address",
          "name": "sender",
          "type": "address"
        }
      ],
      "name": "RoleRevoked",
      "type": "event"
    },
    {
      "anonymous": false,
      "inputs": [
        {
          "indexed": true,
          "internalType": "address",
          "name": "volunteer",
          "type": "address"
        },
        {
          "indexed": false,
          "internalType": "uint256",
          "name": "volunteerIndex",
          "type": "uint256"
        }
      ],
      "name": "VolunteerApproved",
      "type": "event"
    },
    {
      "anonymous": false,
      "inputs": [
        {
          "indexed": true,
          "internalType": "address",
          "name": "volunteer",
          "type": "address"
        },
        {
          "indexed": false,
          "internalType": "string",
          "name": "name",
          "type": "string"
        }
      ],
      "name": "VolunteerRegistered",
      "type": "event"
    },
    {
      "inputs": [],
      "name": "ADMIN_ROLE",
      "outputs": [
        {
          "internalType": "bytes32",
          "name": "",
          "type": "bytes32"
        }
      ],
      "stateMutability": "view",
      "type": "function"
    },
    {
      "inputs": [],
      "name": "DEFAULT_ADMIN_ROLE",
      "outputs": [
        {
          "internalType": "bytes32",
          "name": "",
          "type": "bytes32"
        }
      ],
      "stateMutability": "view",
      "type": "function"
    },
    {
      "inputs": [],
      "name": "VERIFIER_ROLE",
      "outputs": [
        {
          "internalType": "bytes32",
          "name": "",
          "type": "bytes32"
        }
      ],
      "stateMutability": "view",
      "type": "function"
    },
    {
      "inputs": [
        {
          "internalType": "uint256",
          "name": "_volunteerIndex",
          "type": "uint256"
        }
      ],
      "name": "approveVolunteer",
      "outputs": [],
      "stateMutability": "nonpayable",
      "type": "function"
    },
    {
      "inputs": [
        {
          "internalType": "bytes32",
          "name": "role",
          "type": "bytes32"
        }
      ],
      "name": "getRoleAdmin",
      "outputs": [
        {
          "internalType": "bytes32",
          "name": "",
          "type": "bytes32"
        }
      ],
      "stateMutability": "view",
      "type": "function"
    },
    {
      "inputs": [],
      "name": "getVolunteerCount",
      "outputs": [
        {
          "internalType": "uint256",
          "name": "",
          "type": "uint256"
        }
      ],
      "stateMutability": "view",
      "type": "function"
    },
    {
      "inputs": [
        {
          "internalType": "bytes32",
          "name": "role",
          "type": "bytes32"
        },
        {
          "internalType": "address",
          "name": "account",
          "type": "address"
        }
      ],
      "name": "grantRole",
      "outputs": [],
      "stateMutability": "nonpayable",
      "type": "function"
    },
    {
      "inputs": [
        {
          "internalType": "bytes32",
          "name": "role",
          "type": "bytes32"
        },
        {
          "internalType": "address",
          "name": "account",
          "type": "address"
        }
      ],
      "name": "hasRole",
      "outputs": [
        {
          "internalType": "bool",
          "name": "",
          "type": "bool"
        }
      ],
      "stateMutability": "view",
      "type": "function"
    },
    {
      "inputs": [
        {
          "internalType": "address",
          "name": "volunteerAddress",
          "type": "address"
        }
      ],
      "name": "isApprovedVolunteer",
      "outputs": [
        {
          "internalType": "bool",
          "name": "",
          "type": "bool"
        }
      ],
      "stateMutability": "view",
      "type": "function"
    },
    {
      "inputs": [
        {
          "internalType": "address",
          "name": "",
          "type": "address"
        }
      ],
      "name": "isVolunteer",
      "outputs": [
        {
          "internalType": "bool",
          "name": "",
          "type": "bool"
        }
      ],
      "stateMutability": "view",
      "type": "function"
    },
    {
      "inputs": [
        {
          "internalType": "string",
          "name": "name",
          "type": "string"
        },
        {
          "internalType": "string",
          "name": "description",
          "type": "string"
        },
        {
          "internalType": "bytes",
          "name": "credentials",
          "type": "bytes"
        }
      ],
      "name": "registerAsVolunteer",
      "outputs": [],
      "stateMutability": "nonpayable",
      "type": "function"
    },
    {
      "inputs": [
        {
          "internalType": "bytes32",
          "name": "role",
          "type": "bytes32"
        },
        {
          "internalType": "address",
          "name": "callerConfirmation",
          "type": "address"
        }
      ],
      "name": "renounceRole",
      "outputs": [],
      "stateMutability": "nonpayable",
      "type": "function"
    },
    {
      "inputs": [
        {
          "internalType": "bytes32",
          "name": "role",
          "type": "bytes32"
        },
        {
          "internalType": "address",
          "name": "account",
          "type": "address"
        }
      ],
      "name": "revokeRole",
      "outputs": [],
      "stateMutability": "nonpayable",
      "type": "function"
    },
    {
      "inputs": [],
      "name": "selfProtocol",
      "outputs": [
        {
          "internalType": "contract ISelfProtocol",
          "name": "",
          "type": "address"
        }
      ],
      "stateMutability": "view",
      "type": "function"
    },
    {
      "inputs": [
        {
          "internalType": "bytes4",
          "name": "interfaceId",
          "type": "bytes4"
        }
      ],
      "name": "supportsInterface",
      "outputs": [
        {
          "internalType": "bool",
          "name": "",
          "type": "bool"
        }
      ],
      "stateMutability": "view",
      "type": "function"
    },
    {
      "inputs": [
        {
          "internalType": "address",
          "name": "",
          "type": "address"
        }
      ],
      "name": "volunteerIndex",
      "outputs": [
        {
          "internalType": "uint256",
          "name": "",
          "type": "uint256"
        }
      ],
      "stateMutability": "view",
      "type": "function"
    },
    {
      "inputs": [
        {
          "internalType": "uint256",
          "name": "",
          "type": "uint256"
        }
      ],
      "name": "volunteers",
      "outputs": [
        {
          "internalType": "address",
          "name": "volunteerAddress",
          "type": "address"
        },
        {
          "internalType": "string",
          "name": "name",
          "type": "string"
        },
        {
          "internalType": "string",
          "name": "description",
          "type": "string"
        },
        {
          "internalType": "bool",
          "name": "approved",
          "type": "bool"
        },
        {
          "internalType": "uint256",
          "name": "registrationTime",
          "type": "uint256"
        }
      ],
      "stateMutability": "view",
      "type": "function"
    }
  ],
  "bytecode": "0x608060405234801561001057600080fd5b506040516111fb3803806111fb83398101604081905261002f916101b8565b6001600160a01b0381166100895760405162461bcd60e51b815260206004820152601d60248201527f496e76616c69642053656c662050726f746f636f6c2061646472657373000000604482015260640160405180910390fd5b600480546001600160a01b0319166001600160a01b0383161790556100af60003361010c565b506100da7fa49807205ce4d355092ef5a8a18f56e8913cf4a201fbe287825b095693c217753361010c565b506101057f0ce23c3e399818cfee81a7ab0880f714e53d7672b08df0fa62f2843416e1ea093361010c565b50506101e8565b6000828152602081815260408083206001600160a01b038516845290915281205460ff166101ae576000838152602081815260408083206001600160a01b03861684529091529020805460ff191660011790556101663390565b6001600160a01b0316826001600160a01b0316847f2f8788117e7eff1d82e926ec794901d17c78024a50270940304540a733656f0d60405160405180910390a45060016101b2565b5060005b92915050565b6000602082840312156101ca57600080fd5b81516001600160a01b03811681146101e157600080fd5b9392505050565b611004806101f76000396000f3fe608060405234801561001057600080fd5b506004361061010b5760003560e01c806375b238fc116100a2578063a217fddf11610071578063a217fddf14610276578063d1da2f7c1461027e578063d547741f14610286578063e7705db614610299578063fbfe6ca2146102c057600080fd5b806375b238fc1461020657806390755c3b1461022d57806391d14854146102505780639b072d0c1461026357600080fd5b80633c03d33a116100de5780633c03d33a146101915780633dbf8cc5146101a4578063420bb58e146101c8578063705ed273146101db57600080fd5b806301ffc9a714610110578063248a9ca3146101385780632f2ff15d1461016957806336568abe1461017e575b600080fd5b61012361011e366004610b78565b6102e0565b60405190151581526020015b60405180910390f35b61015b610146366004610ba9565b60009081526020819052604090206001015490565b60405190815260200161012f565b61017c610177366004610bde565b610317565b005b61017c61018c366004610bde565b610342565b61017c61019f366004610c53565b61037a565b6101b76101b2366004610ba9565b61067c565b60405161012f959493929190610d3f565b6101236101d6366004610d8a565b6107dc565b6004546101ee906001600160a01b031681565b6040516001600160a01b03909116815260200161012f565b61015b7fa49807205ce4d355092ef5a8a18f56e8913cf4a201fbe287825b095693c2177581565b61012361023b366004610d8a565b60026020526000908152604090205460ff1681565b61012361025e366004610bde565b61084f565b61017c610271366004610ba9565b610878565b61015b600081565b60015461015b565b61017c610294366004610bde565b610a0c565b61015b7f0ce23c3e399818cfee81a7ab0880f714e53d7672b08df0fa62f2843416e1ea0981565b61015b6102ce366004610d8a565b60036020526000908152604090205481565b60006001600160e01b03198216637965db0b60e01b148061031157506301ffc9a760e01b6001600160e01b03198316145b92915050565b60008281526020819052604090206001015461033281610a31565b61033c8383610a3e565b50505050565b6001600160a01b038116331461036b5760405163334bd91960e11b815260040160405180910390fd5b6103758282610ad0565b505050565b3360009081526002602052604090205460ff16156103df5760405162461bcd60e51b815260206004820152601f60248201527f416c7265616479207265676973746572656420617320766f6c756e746565720060448201526064015b60405180910390fd5b846104235760405162461bcd60e51b81526020600482015260146024820152734e616d652063616e6e6f7420626520656d70747960601b60448201526064016103d6565b60048054604051635edd020d60e01b81526001600160a01b0390911691635edd020d916104569133918791879101610dce565b602060405180830381865afa158015610473573d6000803e3d6000fd5b505050506040513d601f19601f820116820180604052508101906104979190610dfc565b6104d95760405162461bcd60e51b8152602060048201526013602482015272496e76616c69642063726564656e7469616c7360681b60448201526064016103d6565b60016040518060a00160405280336001600160a01b0316815260200188888080601f016020809104026020016040519081016040528093929190818152602001838380828437600092019190915250505090825250604080516020601f890181900481028201810190925287815291810191908890889081908401838280828437600092018290525093855250505060208083018290524260409093019290925283546001808201865594825290829020835160059092020180546001600160a01b0319166001600160a01b039092169190911781559082015191929091908201906105c59082610ebc565b50604082015160028201906105da9082610ebc565b50606082015160038201805491151560ff199283161790556080909201516004909101553360009081526002602052604090208054909116600190811790915580546106269190610f7b565b33600081815260036020526040908190209290925590517f65e14a3b08845268772acc470a74a6d8b79b9169ac5285d592ffcb6f541278749061066c9089908990610f9c565b60405180910390a2505050505050565b6001818154811061068c57600080fd5b6000918252602090912060059091020180546001820180546001600160a01b039092169350906106bb90610e34565b80601f01602080910402602001604051908101604052809291908181526020018280546106e790610e34565b80156107345780601f1061070957610100808354040283529160200191610734565b820191906000526020600020905b81548152906001019060200180831161071757829003601f168201915b50505050509080600201805461074990610e34565b80601f016020809104026020016040519081016040528092919081815260200182805461077590610e34565b80156107c25780601f10610797576101008083540402835291602001916107c2565b820191906000526020600020905b8154815290600101906020018083116107a557829003601f168201915b505050506003830154600490930154919260ff1691905085565b6001600160a01b03811660009081526002602052604081205460ff1661080457506000919050565b6001600160a01b03821660009081526003602052604090205460018054909190811061083257610832610fb8565b600091825260209091206003600590920201015460ff1692915050565b6000918252602082815260408084206001600160a01b0393909316845291905290205460ff1690565b7f0ce23c3e399818cfee81a7ab0880f714e53d7672b08df0fa62f2843416e1ea096108a281610a31565b60015482106108f35760405162461bcd60e51b815260206004820152601760248201527f496e76616c696420766f6c756e7465657220696e64657800000000000000000060448201526064016103d6565b6001828154811061090657610906610fb8565b600091825260209091206003600590920201015460ff161561096a5760405162461bcd60e51b815260206004820152601a60248201527f566f6c756e7465657220616c726561647920617070726f76656400000000000060448201526064016103d6565b600180838154811061097e5761097e610fb8565b906000526020600020906005020160030160006101000a81548160ff021916908315150217905550600182815481106109b9576109b9610fb8565b6000918252602091829020600590910201546040518481526001600160a01b03909116917f1b1215c7eff6e1e28a57d96a899e1c7b50ef09a7cef29b9f0c5eb25570df3a65910160405180910390a25050565b600082815260208190526040902060010154610a2781610a31565b61033c8383610ad0565b610a3b8133610b3b565b50565b6000610a4a838361084f565b610ac8576000838152602081815260408083206001600160a01b03861684529091529020805460ff19166001179055610a803390565b6001600160a01b0316826001600160a01b0316847f2f8788117e7eff1d82e926ec794901d17c78024a50270940304540a733656f0d60405160405180910390a4506001610311565b506000610311565b6000610adc838361084f565b15610ac8576000838152602081815260408083206001600160a01b0386168085529252808320805460ff1916905551339286917ff6391f5c32d9c69d2a47ea670b442974b53935d1edc7fd64eb21e047a839171b9190a4506001610311565b610b45828261084f565b610b745760405163e2517d3f60e01b81526001600160a01b0382166004820152602481018390526044016103d6565b5050565b600060208284031215610b8a57600080fd5b81356001600160e01b031981168114610ba257600080fd5b9392505050565b600060208284031215610bbb57600080fd5b5035919050565b80356001600160a01b0381168114610bd957600080fd5b919050565b60008060408385031215610bf157600080fd5b82359150610c0160208401610bc2565b90509250929050565b60008083601f840112610c1c57600080fd5b50813567ffffffffffffffff811115610c3457600080fd5b602083019150836020828501011115610c4c57600080fd5b9250929050565b60008060008060008060608789031215610c6c57600080fd5b863567ffffffffffffffff811115610c8357600080fd5b610c8f89828a01610c0a565b909750955050602087013567ffffffffffffffff811115610caf57600080fd5b610cbb89828a01610c0a565b909550935050604087013567ffffffffffffffff811115610cdb57600080fd5b610ce789828a01610c0a565b979a9699509497509295939492505050565b6000815180845260005b81811015610d1f57602081850181015186830182015201610d03565b506000602082860101526020601f19601f83011685010191505092915050565b6001600160a01b038616815260a060208201819052600090610d6390830187610cf9565b8281036040840152610d758187610cf9565b94151560608401525050608001529392505050565b600060208284031215610d9c57600080fd5b610ba282610bc2565b81835281816020850137506000828201602090810191909152601f909101601f19169091010190565b6001600160a01b0384168152604060208201819052600090610df39083018486610da5565b95945050505050565b600060208284031215610e0e57600080fd5b81518015158114610ba257600080fd5b634e487b7160e01b600052604160045260246000fd5b600181811c90821680610e4857607f821691505b602082108103610e6857634e487b7160e01b600052602260045260246000fd5b50919050565b601f82111561037557806000526020600020601f840160051c81016020851015610e955750805b601f840160051c820191505b81811015610eb55760008155600101610ea1565b5050505050565b815167ffffffffffffffff811115610ed657610ed6610e1e565b610eea81610ee48454610e34565b84610e6e565b6020601f821160018114610f1e5760008315610f065750848201515b600019600385901b1c1916600184901b178455610eb5565b600084815260208120601f198516915b82811015610f4e5787850151825560209485019460019092019101610f2e565b5084821015610f6c5786840151600019600387901b60f8161c191681555b50505050600190811b01905550565b8181038181111561031157634e487b7160e01b600052601160045260246000fd5b602081526000610fb0602083018486610da5565b949350505050565b634e487b7160e01b600052603260045260246000fdfea2646970667358221220669b316ba9ca2c0a6509c792d4dca734c5f662184e69b47f0e52e7cdf4afbc1464736f6c634300081c0033",
  "linkReferences": {},
  "deployedLinkReferences": {}
}