{
  "_format": "hh-sol-artifact-1",
  "contractName": "FlashDAOTreasury",
  "sourceName": "contracts/FlashDAOTreasury.sol",
  "abi": [
    {
      "inputs": [
        {
          "internalType": "address",
          "name": "_usdcToken",
          "type": "address"
        },
        {
          "internalType": "address",
          "name": "_governanceToken",
          "type": "address"
        },
        {
          "internalType": "address",
          "name": "_volunteerRegistry",
          "type": "address"
        }
      ],
      "stateMutability": "nonpayable",
      "type": "constructor"
    },
    {
      "inputs": [],
      "name": "AccessControlBadConfirmation",
      "type": "error"
    },
    {
      "inputs": [
        {
          "internalType": "address",
          "name": "account",
          "type": "address"
        },
        {
          "internalType": "bytes32",
          "name": "neededRole",
          "type": "bytes32"
        }
      ],
      "name": "AccessControlUnauthorizedAccount",
      "type": "error"
    },
    {
      "inputs": [],
      "name": "ReentrancyGuardReentrantCall",
      "type": "error"
    },
    {
      "anonymous": false,
      "inputs": [
        {
          "indexed": true,
          "internalType": "address",
          "name": "donor",
          "type": "address"
        },
        {
          "indexed": true,
          "internalType": "uint256",
          "name": "donationId",
          "type": "uint256"
        },
        {
          "indexed": false,
          "internalType": "uint256",
          "name": "tokensMinted",
          "type": "uint256"
        }
      ],
      "name": "DonationConfirmed",
      "type": "event"
    },
    {
      "anonymous": false,
      "inputs": [
        {
          "indexed": true,
          "internalType": "address",
          "name": "donor",
          "type": "address"
        },
        {
          "indexed": true,
          "internalType": "uint256",
          "name": "donationId",
          "type": "uint256"
        },
        {
          "indexed": false,
          "internalType": "uint256",
          "name": "amount",
          "type": "uint256"
        }
      ],
      "name": "DonationReceived",
      "type": "event"
    },
    {
      "anonymous": false,
      "inputs": [
        {
          "indexed": true,
          "internalType": "address",
          "name": "donor",
          "type": "address"
        },
        {
          "indexed": true,
          "internalType": "uint256",
          "name": "donationId",
          "type": "uint256"
        },
        {
          "indexed": false,
          "internalType": "uint256",
          "name": "amount",
          "type": "uint256"
        }
      ],
      "name": "DonationRefunded",
      "type": "event"
    },
    {
      "anonymous": false,
      "inputs": [
        {
          "indexed": true,
          "internalType": "address",
          "name": "recipient",
          "type": "address"
        },
        {
          "indexed": false,
          "internalType": "uint256",
          "name": "amount",
          "type": "uint256"
        }
      ],
      "name": "FundsTransferred",
      "type": "event"
    },
    {
      "anonymous": false,
      "inputs": [
        {
          "indexed": true,
          "internalType": "bytes32",
          "name": "role",
          "type": "bytes32"
        },
        {
          "indexed": true,
          "internalType": "bytes32",
          "name": "previousAdminRole",
          "type": "bytes32"
        },
        {
          "indexed": true,
          "internalType": "bytes32",
          "name": "newAdminRole",
          "type": "bytes32"
        }
      ],
      "name": "RoleAdminChanged",
      "type": "event"
    },
    {
      "anonymous": false,
      "inputs": [
        {
          "indexed": true,
          "internalType": "bytes32",
          "name": "role",
          "type": "bytes32"
        },
        {
          "indexed": true,
          "internalType": "address",
          "name": "account",
          "type": "address"
        },
        {
          "indexed": true,
          "internalType": "address",
          "name": "sender",
          "type": "address"
        }
      ],
      "name": "RoleGranted",
      "type": "event"
    },
    {
      "anonymous": false,
      "inputs": [
        {
          "indexed": true,
          "internalType": "bytes32",
          "name": "role",
          "type": "bytes32"
        },
        {
          "indexed": true,
          "internalType": "address",
          "name": "account",
          "type": "address"
        },
        {
          "indexed": true,
          "internalType": "address",
          "name": "sender",
          "type": "address"
        }
      ],
      "name": "RoleRevoked",
      "type": "event"
    },
    {
      "inputs": [],
      "name": "ADMIN_ROLE",
      "outputs": [
        {
          "internalType": "bytes32",
          "name": "",
          "type": "bytes32"
        }
      ],
      "stateMutability": "view",
      "type": "function"
    },
    {
      "inputs": [],
      "name": "DEFAULT_ADMIN_ROLE",
      "outputs": [
        {
          "internalType": "bytes32",
          "name": "",
          "type": "bytes32"
        }
      ],
      "stateMutability": "view",
      "type": "function"
    },
    {
      "inputs": [],
      "name": "GOVERNANCE_ROLE",
      "outputs": [
        {
          "internalType": "bytes32",
          "name": "",
          "type": "bytes32"
        }
      ],
      "stateMutability": "view",
      "type": "function"
    },
    {
      "inputs": [],
      "name": "REFUND_WINDOW",
      "outputs": [
        {
          "internalType": "uint256",
          "name": "",
          "type": "uint256"
        }
      ],
      "stateMutability": "view",
      "type": "function"
    },
    {
      "inputs": [
        {
          "internalType": "address",
          "name": "donor",
          "type": "address"
        },
        {
          "internalType": "uint256",
          "name": "donationId",
          "type": "uint256"
        }
      ],
      "name": "confirmDonation",
      "outputs": [],
      "stateMutability": "nonpayable",
      "type": "function"
    },
    {
      "inputs": [
        {
          "internalType": "uint256",
          "name": "amount",
          "type": "uint256"
        }
      ],
      "name": "donate",
      "outputs": [],
      "stateMutability": "nonpayable",
      "type": "function"
    },
    {
      "inputs": [
        {
          "internalType": "address",
          "name": "",
          "type": "address"
        }
      ],
      "name": "donationCount",
      "outputs": [
        {
          "internalType": "uint256",
          "name": "",
          "type": "uint256"
        }
      ],
      "stateMutability": "view",
      "type": "function"
    },
    {
      "inputs": [
        {
          "internalType": "address",
          "name": "",
          "type": "address"
        },
        {
          "internalType": "uint256",
          "name": "",
          "type": "uint256"
        }
      ],
      "name": "donations",
      "outputs": [
        {
          "internalType": "uint256",
          "name": "amount",
          "type": "uint256"
        },
        {
          "internalType": "uint256",
          "name": "timestamp",
          "type": "uint256"
        },
        {
          "internalType": "bool",
          "name": "confirmed",
          "type": "bool"
        },
        {
          "internalType": "bool",
          "name": "refunded",
          "type": "bool"
        }
      ],
      "stateMutability": "view",
      "type": "function"
    },
    {
      "inputs": [
        {
          "internalType": "address",
          "name": "recipient",
          "type": "address"
        },
        {
          "internalType": "uint256",
          "name": "amount",
          "type": "uint256"
        }
      ],
      "name": "executeTransfer",
      "outputs": [],
      "stateMutability": "nonpayable",
      "type": "function"
    },
    {
      "inputs": [],
      "name": "getBalance",
      "outputs": [
        {
          "internalType": "uint256",
          "name": "",
          "type": "uint256"
        }
      ],
      "stateMutability": "view",
      "type": "function"
    },
    {
      "inputs": [
        {
          "internalType": "address",
          "name": "donor",
          "type": "address"
        },
        {
          "internalType": "uint256",
          "name": "donationId",
          "type": "uint256"
        }
      ],
      "name": "getDonation",
      "outputs": [
        {
          "internalType": "uint256",
          "name": "amount",
          "type": "uint256"
        },
        {
          "internalType": "uint256",
          "name": "timestamp",
          "type": "uint256"
        },
        {
          "internalType": "bool",
          "name": "confirmed",
          "type": "bool"
        },
        {
          "internalType": "bool",
          "name": "refunded",
          "type": "bool"
        }
      ],
      "stateMutability": "view",
      "type": "function"
    },
    {
      "inputs": [
        {
          "internalType": "bytes32",
          "name": "role",
          "type": "bytes32"
        }
      ],
      "name": "getRoleAdmin",
      "outputs": [
        {
          "internalType": "bytes32",
          "name": "",
          "type": "bytes32"
        }
      ],
      "stateMutability": "view",
      "type": "function"
    },
    {
      "inputs": [],
      "name": "governanceToken",
      "outputs": [
        {
          "internalType": "contract FlashDAOToken",
          "name": "",
          "type": "address"
        }
      ],
      "stateMutability": "view",
      "type": "function"
    },
    {
      "inputs": [
        {
          "internalType": "bytes32",
          "name": "role",
          "type": "bytes32"
        },
        {
          "internalType": "address",
          "name": "account",
          "type": "address"
        }
      ],
      "name": "grantRole",
      "outputs": [],
      "stateMutability": "nonpayable",
      "type": "function"
    },
    {
      "inputs": [
        {
          "internalType": "bytes32",
          "name": "role",
          "type": "bytes32"
        },
        {
          "internalType": "address",
          "name": "account",
          "type": "address"
        }
      ],
      "name": "hasRole",
      "outputs": [
        {
          "internalType": "bool",
          "name": "",
          "type": "bool"
        }
      ],
      "stateMutability": "view",
      "type": "function"
    },
    {
      "inputs": [
        {
          "internalType": "uint256",
          "name": "donationId",
          "type": "uint256"
        }
      ],
      "name": "refundDonation",
      "outputs": [],
      "stateMutability": "nonpayable",
      "type": "function"
    },
    {
      "inputs": [
        {
          "internalType": "bytes32",
          "name": "role",
          "type": "bytes32"
        },
        {
          "internalType": "address",
          "name": "callerConfirmation",
          "type": "address"
        }
      ],
      "name": "renounceRole",
      "outputs": [],
      "stateMutability": "nonpayable",
      "type": "function"
    },
    {
      "inputs": [
        {
          "internalType": "bytes32",
          "name": "role",
          "type": "bytes32"
        },
        {
          "internalType": "address",
          "name": "account",
          "type": "address"
        }
      ],
      "name": "revokeRole",
      "outputs": [],
      "stateMutability": "nonpayable",
      "type": "function"
    },
    {
      "inputs": [
        {
          "internalType": "bytes4",
          "name": "interfaceId",
          "type": "bytes4"
        }
      ],
      "name": "supportsInterface",
      "outputs": [
        {
          "internalType": "bool",
          "name": "",
          "type": "bool"
        }
      ],
      "stateMutability": "view",
      "type": "function"
    },
    {
      "inputs": [],
      "name": "usdcToken",
      "outputs": [
        {
          "internalType": "contract IERC20",
          "name": "",
          "type": "address"
        }
      ],
      "stateMutability": "view",
      "type": "function"
    },
    {
      "inputs": [],
      "name": "volunteerRegistry",
      "outputs": [
        {
          "internalType": "contract VolunteerRegistry",
          "name": "",
          "type": "address"
        }
      ],
      "stateMutability": "view",
      "type": "function"
    }
  ],
  "bytecode": "0x608060405234801561001057600080fd5b5060405161138038038061138083398101604081905261002f91610289565b600180556001600160a01b03831661008e5760405162461bcd60e51b815260206004820152601460248201527f496e76616c69642055534443206164647265737300000000000000000000000060448201526064015b60405180910390fd5b6001600160a01b0382166100e45760405162461bcd60e51b815260206004820181905260248201527f496e76616c696420676f7665726e616e636520746f6b656e20616464726573736044820152606401610085565b6001600160a01b0381166101455760405162461bcd60e51b815260206004820152602260248201527f496e76616c696420766f6c756e74656572207265676973747279206164647265604482015261737360f01b6064820152608401610085565b600280546001600160a01b038086166001600160a01b03199283161790925560038054858416908316179055600480549284169290911691909117905561018d6000336101c1565b506101b87fa49807205ce4d355092ef5a8a18f56e8913cf4a201fbe287825b095693c21775336101c1565b505050506102cc565b6000828152602081815260408083206001600160a01b038516845290915281205460ff16610263576000838152602081815260408083206001600160a01b03861684529091529020805460ff1916600117905561021b3390565b6001600160a01b0316826001600160a01b0316847f2f8788117e7eff1d82e926ec794901d17c78024a50270940304540a733656f0d60405160405180910390a4506001610267565b5060005b92915050565b80516001600160a01b038116811461028457600080fd5b919050565b60008060006060848603121561029e57600080fd5b6102a78461026d565b92506102b56020850161026d565b91506102c36040850161026d565b90509250925092565b6110a5806102db6000396000f3fe608060405234801561001057600080fd5b50600436106101375760003560e01c806375b238fc116100b8578063d547741f1161007c578063d547741f14610340578063f14faf6f14610353578063f259fe1e14610366578063f36c8f5c14610379578063f96dae0a146103a0578063fd6b73ad146103b357600080fd5b806375b238fc146102a557806391d14854146102cc57806395086ed1146102df578063a0122a5714610325578063a217fddf1461033857600080fd5b80632f2ff15d116100ff5780632f2ff15d146101d257806336568abe146101e757806338e48f70146101fa5780634322123a14610272578063709cacc21461029257600080fd5b806301ffc9a71461013c5780631153b5f31461016457806311eac8551461017c57806312065fe0146101a7578063248a9ca3146101af575b600080fd5b61014f61014a366004610f1b565b6103c6565b60405190151581526020015b60405180910390f35b61016e62093a8081565b60405190815260200161015b565b60025461018f906001600160a01b031681565b6040516001600160a01b03909116815260200161015b565b61016e6103fd565b61016e6101bd366004610f4c565b60009081526020819052604090206001015490565b6101e56101e0366004610f81565b61046f565b005b6101e56101f5366004610f81565b61049a565b61024a610208366004610fad565b6001600160a01b039190911660009081526005602090815260408083209383529290522080546001820154600290920154909260ff8083169261010090041690565b604080519485526020850193909352901515918301919091521515606082015260800161015b565b61016e610280366004610fd7565b60066020526000908152604090205481565b6101e56102a0366004610f4c565b6104d2565b61016e7fa49807205ce4d355092ef5a8a18f56e8913cf4a201fbe287825b095693c2177581565b61014f6102da366004610f81565b61070b565b61024a6102ed366004610fad565b600560209081526000928352604080842090915290825290208054600182015460029092015490919060ff8082169161010090041684565b60045461018f906001600160a01b031681565b61016e600081565b6101e561034e366004610f81565b610734565b6101e5610361366004610f4c565b610759565b6101e5610374366004610fad565b610940565b61016e7f71840dc4906352362b0cdaf79870196c8e42acafade72d5d5a6d59291253ceb181565b60035461018f906001600160a01b031681565b6101e56103c1366004610fad565b610b2e565b60006001600160e01b03198216637965db0b60e01b14806103f757506301ffc9a760e01b6001600160e01b03198316145b92915050565b6002546040516370a0823160e01b81523060048201526000916001600160a01b0316906370a0823190602401602060405180830381865afa158015610446573d6000803e3d6000fd5b505050506040513d601f19601f8201168201806040525081019061046a9190610ff2565b905090565b60008281526020819052604090206001015461048a81610dad565b6104948383610db7565b50505050565b6001600160a01b03811633146104c35760405163334bd91960e11b815260040160405180910390fd5b6104cd8282610e49565b505050565b6104da610eb4565b3360009081526005602090815260408083208484529091529020600281015460ff161561054e5760405162461bcd60e51b815260206004820152601a60248201527f446f6e6174696f6e20616c726561647920636f6e6669726d656400000000000060448201526064015b60405180910390fd5b6002810154610100900460ff161561059b5760405162461bcd60e51b815260206004820152601060248201526f105b1c9958591e481c99599d5b99195960821b6044820152606401610545565b62093a8081600101546105ae9190611021565b42116105fc5760405162461bcd60e51b815260206004820152601860248201527f526566756e642077696e646f77206e6f742070617373656400000000000000006044820152606401610545565b80546002808301805461ff0019166101001790555460405163a9059cbb60e01b8152336004820152602481018390526001600160a01b039091169063a9059cbb906044016020604051808303816000875af115801561065f573d6000803e3d6000fd5b505050506040513d601f19601f820116820180604052508101906106839190611034565b6106c65760405162461bcd60e51b81526020600482015260146024820152731554d110c81d1c985b9cd9995c8819985a5b195960621b6044820152606401610545565b604051818152839033907f2e07785c40da7ce01f323511f755973c658df48e626cd993bdf8e4627b9dc0e49060200160405180910390a3505061070860018055565b50565b6000918252602082815260408084206001600160a01b0393909316845291905290205460ff1690565b60008281526020819052604090206001015461074f81610dad565b6104948383610e49565b610761610eb4565b600081116107b15760405162461bcd60e51b815260206004820152601d60248201527f416d6f756e74206d7573742062652067726561746572207468616e20300000006044820152606401610545565b6002546040516323b872dd60e01b8152336004820152306024820152604481018390526001600160a01b03909116906323b872dd906064016020604051808303816000875af1158015610808573d6000803e3d6000fd5b505050506040513d601f19601f8201168201806040525081019061082c9190611034565b61086f5760405162461bcd60e51b81526020600482015260146024820152731554d110c81d1c985b9cd9995c8819985a5b195960621b6044820152606401610545565b3360009081526006602052604081208054908261088b83611056565b9091555060408051608081018252848152426020808301918252600083850181815260608501828152338084526005855287842089855285529287902095518655935160018601555160029094018054935161ffff1990941694151561ff001916949094176101009315159390930292909217909255915185815292935083927f4b0304ab2f313234b1cea012339c8f8c3bf2c8bb357d81a579cfdb35d2e3d030910160405180910390a35061070860018055565b7fa49807205ce4d355092ef5a8a18f56e8913cf4a201fbe287825b095693c2177561096a81610dad565b610972610eb4565b6001600160a01b03831660009081526005602090815260408083208584529091529020600281015460ff16156109ea5760405162461bcd60e51b815260206004820152601a60248201527f446f6e6174696f6e20616c726561647920636f6e6669726d65640000000000006044820152606401610545565b6002810154610100900460ff1615610a445760405162461bcd60e51b815260206004820152601960248201527f446f6e6174696f6e20616c726561647920726566756e646564000000000000006044820152606401610545565b60028101805460ff191660011790556003548154604051630d41961760e31b81526000926001600160a01b031691636a0cb0b891610a9a9189916004016001600160a01b03929092168252602082015260400190565b6020604051808303816000875af1158015610ab9573d6000803e3d6000fd5b505050506040513d601f19601f82011682018060405250810190610add9190610ff2565b905083856001600160a01b03167f0a3cb10fe06998150859531858b5344bdf61c92356593cda4610a3ea1f93ae4b83604051610b1b91815260200190565b60405180910390a350506104cd60018055565b7f71840dc4906352362b0cdaf79870196c8e42acafade72d5d5a6d59291253ceb1610b5881610dad565b610b60610eb4565b6001600160a01b038316610baa5760405162461bcd60e51b8152602060048201526011602482015270125b9d985b1a59081c9958da5c1a595b9d607a1b6044820152606401610545565b60008211610bfa5760405162461bcd60e51b815260206004820152601d60248201527f416d6f756e74206d7573742062652067726561746572207468616e20300000006044820152606401610545565b6002546040516370a0823160e01b81523060048201526001600160a01b03909116906370a0823190602401602060405180830381865afa158015610c42573d6000803e3d6000fd5b505050506040513d601f19601f82011682018060405250810190610c669190610ff2565b821115610cac5760405162461bcd60e51b8152602060048201526014602482015273496e73756666696369656e742062616c616e636560601b6044820152606401610545565b60025460405163a9059cbb60e01b81526001600160a01b038581166004830152602482018590529091169063a9059cbb906044016020604051808303816000875af1158015610cff573d6000803e3d6000fd5b505050506040513d601f19601f82011682018060405250810190610d239190611034565b610d615760405162461bcd60e51b815260206004820152600f60248201526e151c985b9cd9995c8819985a5b1959608a1b6044820152606401610545565b826001600160a01b03167f8c9a4f13b67cb64d7c6aa1ae0c9bf07694af521a28b93e7060020810ab4bc59f83604051610d9c91815260200190565b60405180910390a26104cd60018055565b6107088133610ede565b6000610dc3838361070b565b610e41576000838152602081815260408083206001600160a01b03861684529091529020805460ff19166001179055610df93390565b6001600160a01b0316826001600160a01b0316847f2f8788117e7eff1d82e926ec794901d17c78024a50270940304540a733656f0d60405160405180910390a45060016103f7565b5060006103f7565b6000610e55838361070b565b15610e41576000838152602081815260408083206001600160a01b0386168085529252808320805460ff1916905551339286917ff6391f5c32d9c69d2a47ea670b442974b53935d1edc7fd64eb21e047a839171b9190a45060016103f7565b600260015403610ed757604051633ee5aeb560e01b815260040160405180910390fd5b6002600155565b610ee8828261070b565b610f175760405163e2517d3f60e01b81526001600160a01b038216600482015260248101839052604401610545565b5050565b600060208284031215610f2d57600080fd5b81356001600160e01b031981168114610f4557600080fd5b9392505050565b600060208284031215610f5e57600080fd5b5035919050565b80356001600160a01b0381168114610f7c57600080fd5b919050565b60008060408385031215610f9457600080fd5b82359150610fa460208401610f65565b90509250929050565b60008060408385031215610fc057600080fd5b610fc983610f65565b946020939093013593505050565b600060208284031215610fe957600080fd5b610f4582610f65565b60006020828403121561100457600080fd5b5051919050565b634e487b7160e01b600052601160045260246000fd5b808201808211156103f7576103f761100b565b60006020828403121561104657600080fd5b81518015158114610f4557600080fd5b6000600182016110685761106861100b565b506001019056fea2646970667358221220ce1e7f7ddce3e94f7e81f1422f5f4b9a0277fea2d7f07fd74b6bc3919a2f82b464736f6c634300081c0033",
  "linkReferences": {},
  "deployedLinkReferences": {}
}