{
  "_format": "hh-sol-artifact-1",
  "contractName": "FlashDAOTreasury",
  "sourceName": "contracts/FlashDAOTreasury.sol",
  "abi": [
    {
      "inputs": [
        {
          "internalType": "address",
          "name": "_usdcAddress",
          "type": "address"
        },
        {
          "internalType": "address",
          "name": "_governanceTokenAddress",
          "type": "address"
        },
        {
          "internalType": "address",
          "name": "_volunteerRegistryAddress",
          "type": "address"
        }
      ],
      "stateMutability": "nonpayable",
      "type": "constructor"
    },
    {
      "inputs": [],
      "name": "AccessControlBadConfirmation",
      "type": "error"
    },
    {
      "inputs": [
        {
          "internalType": "address",
          "name": "account",
          "type": "address"
        },
        {
          "internalType": "bytes32",
          "name": "neededRole",
          "type": "bytes32"
        }
      ],
      "name": "AccessControlUnauthorizedAccount",
      "type": "error"
    },
    {
      "inputs": [],
      "name": "ReentrancyGuardReentrantCall",
      "type": "error"
    },
    {
      "anonymous": false,
      "inputs": [
        {
          "indexed": true,
          "internalType": "address",
          "name": "donor",
          "type": "address"
        },
        {
          "indexed": false,
          "internalType": "uint256",
          "name": "amount",
          "type": "uint256"
        },
        {
          "indexed": false,
          "internalType": "uint256",
          "name": "tokensMinted",
          "type": "uint256"
        }
      ],
      "name": "DonationReceived",
      "type": "event"
    },
    {
      "anonymous": false,
      "inputs": [
        {
          "indexed": false,
          "internalType": "address",
          "name": "recipient",
          "type": "address"
        },
        {
          "indexed": false,
          "internalType": "uint256",
          "name": "amount",
          "type": "uint256"
        }
      ],
      "name": "FundsDistributed",
      "type": "event"
    },
    {
      "anonymous": false,
      "inputs": [
        {
          "indexed": true,
          "internalType": "address",
          "name": "donor",
          "type": "address"
        },
        {
          "indexed": false,
          "internalType": "uint256",
          "name": "amount",
          "type": "uint256"
        }
      ],
      "name": "RefundClaimed",
      "type": "event"
    },
    {
      "anonymous": false,
      "inputs": [
        {
          "indexed": true,
          "internalType": "bytes32",
          "name": "role",
          "type": "bytes32"
        },
        {
          "indexed": true,
          "internalType": "bytes32",
          "name": "previousAdminRole",
          "type": "bytes32"
        },
        {
          "indexed": true,
          "internalType": "bytes32",
          "name": "newAdminRole",
          "type": "bytes32"
        }
      ],
      "name": "RoleAdminChanged",
      "type": "event"
    },
    {
      "anonymous": false,
      "inputs": [
        {
          "indexed": true,
          "internalType": "bytes32",
          "name": "role",
          "type": "bytes32"
        },
        {
          "indexed": true,
          "internalType": "address",
          "name": "account",
          "type": "address"
        },
        {
          "indexed": true,
          "internalType": "address",
          "name": "sender",
          "type": "address"
        }
      ],
      "name": "RoleGranted",
      "type": "event"
    },
    {
      "anonymous": false,
      "inputs": [
        {
          "indexed": true,
          "internalType": "bytes32",
          "name": "role",
          "type": "bytes32"
        },
        {
          "indexed": true,
          "internalType": "address",
          "name": "account",
          "type": "address"
        },
        {
          "indexed": true,
          "internalType": "address",
          "name": "sender",
          "type": "address"
        }
      ],
      "name": "RoleRevoked",
      "type": "event"
    },
    {
      "inputs": [],
      "name": "ADMIN_ROLE",
      "outputs": [
        {
          "internalType": "bytes32",
          "name": "",
          "type": "bytes32"
        }
      ],
      "stateMutability": "view",
      "type": "function"
    },
    {
      "inputs": [],
      "name": "BASE_AMOUNT",
      "outputs": [
        {
          "internalType": "uint256",
          "name": "",
          "type": "uint256"
        }
      ],
      "stateMutability": "view",
      "type": "function"
    },
    {
      "inputs": [],
      "name": "DEFAULT_ADMIN_ROLE",
      "outputs": [
        {
          "internalType": "bytes32",
          "name": "",
          "type": "bytes32"
        }
      ],
      "stateMutability": "view",
      "type": "function"
    },
    {
      "inputs": [],
      "name": "GOVERNANCE_ROLE",
      "outputs": [
        {
          "internalType": "bytes32",
          "name": "",
          "type": "bytes32"
        }
      ],
      "stateMutability": "view",
      "type": "function"
    },
    {
      "inputs": [],
      "name": "SCALE_FACTOR",
      "outputs": [
        {
          "internalType": "uint256",
          "name": "",
          "type": "uint256"
        }
      ],
      "stateMutability": "view",
      "type": "function"
    },
    {
      "inputs": [
        {
          "internalType": "uint256",
          "name": "donationAmount",
          "type": "uint256"
        }
      ],
      "name": "calculateTokenAmount",
      "outputs": [
        {
          "internalType": "uint256",
          "name": "",
          "type": "uint256"
        }
      ],
      "stateMutability": "pure",
      "type": "function"
    },
    {
      "inputs": [],
      "name": "claimRefund",
      "outputs": [],
      "stateMutability": "nonpayable",
      "type": "function"
    },
    {
      "inputs": [
        {
          "internalType": "address",
          "name": "recipient",
          "type": "address"
        }
      ],
      "name": "distributeFunds",
      "outputs": [],
      "stateMutability": "nonpayable",
      "type": "function"
    },
    {
      "inputs": [
        {
          "internalType": "uint256",
          "name": "amount",
          "type": "uint256"
        }
      ],
      "name": "donate",
      "outputs": [],
      "stateMutability": "nonpayable",
      "type": "function"
    },
    {
      "inputs": [
        {
          "internalType": "address",
          "name": "",
          "type": "address"
        }
      ],
      "name": "donations",
      "outputs": [
        {
          "internalType": "uint256",
          "name": "",
          "type": "uint256"
        }
      ],
      "stateMutability": "view",
      "type": "function"
    },
    {
      "inputs": [],
      "name": "fundsDistributed",
      "outputs": [
        {
          "internalType": "bool",
          "name": "",
          "type": "bool"
        }
      ],
      "stateMutability": "view",
      "type": "function"
    },
    {
      "inputs": [
        {
          "internalType": "uint256",
          "name": "index",
          "type": "uint256"
        }
      ],
      "name": "getDonorByIndex",
      "outputs": [
        {
          "internalType": "address",
          "name": "",
          "type": "address"
        }
      ],
      "stateMutability": "view",
      "type": "function"
    },
    {
      "inputs": [],
      "name": "getDonorCount",
      "outputs": [
        {
          "internalType": "uint256",
          "name": "",
          "type": "uint256"
        }
      ],
      "stateMutability": "view",
      "type": "function"
    },
    {
      "inputs": [
        {
          "internalType": "bytes32",
          "name": "role",
          "type": "bytes32"
        }
      ],
      "name": "getRoleAdmin",
      "outputs": [
        {
          "internalType": "bytes32",
          "name": "",
          "type": "bytes32"
        }
      ],
      "stateMutability": "view",
      "type": "function"
    },
    {
      "inputs": [],
      "name": "governanceToken",
      "outputs": [
        {
          "internalType": "contract FlashDAOToken",
          "name": "",
          "type": "address"
        }
      ],
      "stateMutability": "view",
      "type": "function"
    },
    {
      "inputs": [
        {
          "internalType": "bytes32",
          "name": "role",
          "type": "bytes32"
        },
        {
          "internalType": "address",
          "name": "account",
          "type": "address"
        }
      ],
      "name": "grantRole",
      "outputs": [],
      "stateMutability": "nonpayable",
      "type": "function"
    },
    {
      "inputs": [
        {
          "internalType": "bytes32",
          "name": "role",
          "type": "bytes32"
        },
        {
          "internalType": "address",
          "name": "account",
          "type": "address"
        }
      ],
      "name": "hasRole",
      "outputs": [
        {
          "internalType": "bool",
          "name": "",
          "type": "bool"
        }
      ],
      "stateMutability": "view",
      "type": "function"
    },
    {
      "inputs": [
        {
          "internalType": "bytes32",
          "name": "role",
          "type": "bytes32"
        },
        {
          "internalType": "address",
          "name": "callerConfirmation",
          "type": "address"
        }
      ],
      "name": "renounceRole",
      "outputs": [],
      "stateMutability": "nonpayable",
      "type": "function"
    },
    {
      "inputs": [
        {
          "internalType": "bytes32",
          "name": "role",
          "type": "bytes32"
        },
        {
          "internalType": "address",
          "name": "account",
          "type": "address"
        }
      ],
      "name": "revokeRole",
      "outputs": [],
      "stateMutability": "nonpayable",
      "type": "function"
    },
    {
      "inputs": [
        {
          "internalType": "address",
          "name": "governanceAddress",
          "type": "address"
        }
      ],
      "name": "setGovernance",
      "outputs": [],
      "stateMutability": "nonpayable",
      "type": "function"
    },
    {
      "inputs": [
        {
          "internalType": "bytes4",
          "name": "interfaceId",
          "type": "bytes4"
        }
      ],
      "name": "supportsInterface",
      "outputs": [
        {
          "internalType": "bool",
          "name": "",
          "type": "bool"
        }
      ],
      "stateMutability": "view",
      "type": "function"
    },
    {
      "inputs": [],
      "name": "totalDonations",
      "outputs": [
        {
          "internalType": "uint256",
          "name": "",
          "type": "uint256"
        }
      ],
      "stateMutability": "view",
      "type": "function"
    },
    {
      "inputs": [],
      "name": "usdcToken",
      "outputs": [
        {
          "internalType": "contract IERC20",
          "name": "",
          "type": "address"
        }
      ],
      "stateMutability": "view",
      "type": "function"
    },
    {
      "inputs": [],
      "name": "volunteerRegistry",
      "outputs": [
        {
          "internalType": "contract VolunteerRegistry",
          "name": "",
          "type": "address"
        }
      ],
      "stateMutability": "view",
      "type": "function"
    }
  ],
  "bytecode": "0x608060405234801561001057600080fd5b5060405161138738038061138783398101604081905261002f9161027e565b600180556001600160a01b03831661008e5760405162461bcd60e51b815260206004820152601460248201527f496e76616c69642055534443206164647265737300000000000000000000000060448201526064015b60405180910390fd5b6001600160a01b0382166100e45760405162461bcd60e51b815260206004820152601560248201527f496e76616c696420746f6b656e206164647265737300000000000000000000006044820152606401610085565b6001600160a01b03811661013a5760405162461bcd60e51b815260206004820152601860248201527f496e76616c6964207265676973747279206164647265737300000000000000006044820152606401610085565b600280546001600160a01b038086166001600160a01b0319928316179092556003805485841690831617905560048054928416929091169190911790556101826000336101b6565b506101ad7fa49807205ce4d355092ef5a8a18f56e8913cf4a201fbe287825b095693c21775336101b6565b505050506102c1565b6000828152602081815260408083206001600160a01b038516845290915281205460ff16610258576000838152602081815260408083206001600160a01b03861684529091529020805460ff191660011790556102103390565b6001600160a01b0316826001600160a01b0316847f2f8788117e7eff1d82e926ec794901d17c78024a50270940304540a733656f0d60405160405180910390a450600161025c565b5060005b92915050565b80516001600160a01b038116811461027957600080fd5b919050565b60008060006060848603121561029357600080fd5b61029c84610262565b92506102aa60208501610262565b91506102b860408501610262565b90509250925092565b6110b7806102d06000396000f3fe608060405234801561001057600080fd5b50600436106101585760003560e01c8063a0122a57116100c3578063ce4b5bbe1161007c578063ce4b5bbe146102fe578063d547741f14610309578063de2ed8931461031c578063f14faf6f14610325578063f36c8f5c14610338578063f96dae0a1461035f57600080fd5b8063a0122a5714610295578063a217fddf146102a8578063a24bcf46146102b0578063ab033ea9146102c3578063b5545a3c146102d6578063cc6cb19a146102de57600080fd5b806343a2a0d51161011557806343a2a0d514610219578063570752571461022c57806369bc2f1e1461023f5780636f95b3f31461024757806375b238fc1461025b57806391d148541461028257600080fd5b806301ffc9a71461015d57806311eac85514610185578063248a9ca3146101b057806325de1092146101e15780632f2ff15d146101f157806336568abe14610206575b600080fd5b61017061016b366004610ecb565b610372565b60405190151581526020015b60405180910390f35b600254610198906001600160a01b031681565b6040516001600160a01b03909116815260200161017c565b6101d36101be366004610efc565b60009081526020819052604090206001015490565b60405190815260200161017c565b6101d3683635c9adc5dea0000081565b6102046101ff366004610f31565b6103a9565b005b610204610214366004610f31565b6103d4565b610204610227366004610f5d565b61040c565b61019861023a366004610efc565b610784565b6007546101d3565b60045461017090600160a01b900460ff1681565b6101d37fa49807205ce4d355092ef5a8a18f56e8913cf4a201fbe287825b095693c2177581565b610170610290366004610f31565b6107fc565b600454610198906001600160a01b031681565b6101d3600081565b6101d36102be366004610efc565b610825565b6102046102d1366004610f5d565b610841565b6102046108eb565b6101d36102ec366004610f5d565b60066020526000908152604090205481565b6101d36305f5e10081565b610204610317366004610f31565b610aba565b6101d360055481565b610204610333366004610efc565b610adf565b6101d37f71840dc4906352362b0cdaf79870196c8e42acafade72d5d5a6d59291253ceb181565b600354610198906001600160a01b031681565b60006001600160e01b03198216637965db0b60e01b14806103a357506301ffc9a760e01b6001600160e01b03198316145b92915050565b6000828152602081905260409020600101546103c481610d61565b6103ce8383610d6b565b50505050565b6001600160a01b03811633146103fd5760405163334bd91960e11b815260040160405180910390fd5b6104078282610dfd565b505050565b7f71840dc4906352362b0cdaf79870196c8e42acafade72d5d5a6d59291253ceb161043681610d61565b61043e610e68565b600454600160a01b900460ff16156104715760405162461bcd60e51b815260040161046890610f78565b60405180910390fd5b6000600554116104bc5760405162461bcd60e51b81526020600482015260166024820152754e6f2066756e647320746f206469737472696275746560501b6044820152606401610468565b6001600160a01b0382166105125760405162461bcd60e51b815260206004820152601960248201527f496e76616c696420726563697069656e742061646472657373000000000000006044820152606401610468565b60048054604051632105dac760e11b81526001600160a01b038581169382019390935291169063420bb58e90602401602060405180830381865afa15801561055e573d6000803e3d6000fd5b505050506040513d601f19601f820116820180604052508101906105829190610faf565b6105da5760405162461bcd60e51b8152602060048201526024808201527f526563697069656e74206d75737420626520617070726f76656420766f6c756e6044820152633a32b2b960e11b6064820152608401610468565b6002546040516370a0823160e01b81523060048201526000916001600160a01b0316906370a0823190602401602060405180830381865afa158015610623573d6000803e3d6000fd5b505050506040513d601f19601f820116820180604052508101906106479190610fd1565b90506000811161068d5760405162461bcd60e51b8152602060048201526011602482015270547265617375727920697320656d70747960781b6044820152606401610468565b6004805460ff60a01b1916600160a01b17815560025460405163a9059cbb60e01b81526001600160a01b03868116938201939093526024810184905291169063a9059cbb906044016020604051808303816000875af11580156106f4573d6000803e3d6000fd5b505050506040513d601f19601f820116820180604052508101906107189190610faf565b6107345760405162461bcd60e51b815260040161046890610fea565b604080516001600160a01b0385168152602081018390527f26536799ace2c3dbe12e638ec3ade6b4173dcf1289be0a58d51a5003015649bd910160405180910390a15061078060018055565b5050565b60075460009082106107ce5760405162461bcd60e51b8152602060048201526013602482015272496e646578206f7574206f6620626f756e647360681b6044820152606401610468565b600782815481106107e1576107e1611018565b6000918252602090912001546001600160a01b031692915050565b6000918252602082815260408084206001600160a01b0393909316845291905290205460ff1690565b600061083282600a611044565b6103a39064e8d4a51000611044565b7fa49807205ce4d355092ef5a8a18f56e8913cf4a201fbe287825b095693c2177561086b81610d61565b6001600160a01b0382166108c15760405162461bcd60e51b815260206004820152601a60248201527f496e76616c696420676f7665726e616e636520616464726573730000000000006044820152606401610468565b6104077f71840dc4906352362b0cdaf79870196c8e42acafade72d5d5a6d59291253ceb183610d6b565b6108f3610e68565b600454600160a01b900460ff161561091d5760405162461bcd60e51b815260040161046890610f78565b3360009081526008602052604090205460ff1661096a5760405162461bcd60e51b815260206004820152600b60248201526a2737ba1030903237b737b960a91b6044820152606401610468565b33600090815260066020526040902054806109bf5760405162461bcd60e51b8152602060048201526015602482015274139bc8191bdb985d1a5bdb881d1bc81c99599d5b99605a1b6044820152606401610468565b336000908152600660205260408120819055600580548392906109e390849061105b565b909155505060025460405163a9059cbb60e01b8152336004820152602481018390526001600160a01b039091169063a9059cbb906044016020604051808303816000875af1158015610a39573d6000803e3d6000fd5b505050506040513d601f19601f82011682018060405250810190610a5d9190610faf565b610a795760405162461bcd60e51b815260040161046890610fea565b60405181815233907f358fe4192934d3bf28ae181feda1f4bd08ca67f5e2fad55582cce5eb67304ae99060200160405180910390a250610ab860018055565b565b600082815260208190526040902060010154610ad581610d61565b6103ce8383610dfd565b610ae7610e68565b60008111610b375760405162461bcd60e51b815260206004820152601d60248201527f416d6f756e74206d7573742062652067726561746572207468616e20300000006044820152606401610468565b600454600160a01b900460ff1615610b615760405162461bcd60e51b815260040161046890610f78565b6002546040516323b872dd60e01b8152336004820152306024820152604481018390526001600160a01b03909116906323b872dd906064016020604051808303816000875af1158015610bb8573d6000803e3d6000fd5b505050506040513d601f19601f82011682018060405250810190610bdc9190610faf565b610bf85760405162461bcd60e51b815260040161046890610fea565b6000610c0382610825565b3360009081526008602052604090205490915060ff16610c78576007805460018181019092557fa66cc928b5edb82af9bd49922954155ab7b0942694bea4ce44661d9a8736c6880180546001600160a01b031916339081179091556000908152600860205260409020805460ff191690911790555b3360009081526006602052604081208054849290610c9790849061106e565b925050819055508160056000828254610cb0919061106e565b90915550506003546040516340c10f1960e01b8152336004820152602481018390526001600160a01b03909116906340c10f1990604401600060405180830381600087803b158015610d0157600080fd5b505af1158015610d15573d6000803e3d6000fd5b505060408051858152602081018590523393507f4b0304ab2f313234b1cea012339c8f8c3bf2c8bb357d81a579cfdb35d2e3d03092500160405180910390a250610d5e60018055565b50565b610d5e8133610e92565b6000610d7783836107fc565b610df5576000838152602081815260408083206001600160a01b03861684529091529020805460ff19166001179055610dad3390565b6001600160a01b0316826001600160a01b0316847f2f8788117e7eff1d82e926ec794901d17c78024a50270940304540a733656f0d60405160405180910390a45060016103a3565b5060006103a3565b6000610e0983836107fc565b15610df5576000838152602081815260408083206001600160a01b0386168085529252808320805460ff1916905551339286917ff6391f5c32d9c69d2a47ea670b442974b53935d1edc7fd64eb21e047a839171b9190a45060016103a3565b600260015403610e8b57604051633ee5aeb560e01b815260040160405180910390fd5b6002600155565b610e9c82826107fc565b6107805760405163e2517d3f60e01b81526001600160a01b038216600482015260248101839052604401610468565b600060208284031215610edd57600080fd5b81356001600160e01b031981168114610ef557600080fd5b9392505050565b600060208284031215610f0e57600080fd5b5035919050565b80356001600160a01b0381168114610f2c57600080fd5b919050565b60008060408385031215610f4457600080fd5b82359150610f5460208401610f15565b90509250929050565b600060208284031215610f6f57600080fd5b610ef582610f15565b60208082526019908201527f46756e647320616c726561647920646973747269627574656400000000000000604082015260600190565b600060208284031215610fc157600080fd5b81518015158114610ef557600080fd5b600060208284031215610fe357600080fd5b5051919050565b6020808252601490820152731554d110c81d1c985b9cd9995c8819985a5b195960621b604082015260600190565b634e487b7160e01b600052603260045260246000fd5b634e487b7160e01b600052601160045260246000fd5b80820281158282048414176103a3576103a361102e565b818103818111156103a3576103a361102e565b808201808211156103a3576103a361102e56fea264697066735822122079828d36ec4f66373df28afc616e91d0db17df975f1d3a1abcccebc44f7908ca64736f6c634300081c0033",
  "linkReferences": {},
  "deployedLinkReferences": {}
}