{
  "_format": "hh-sol-artifact-1",
  "contractName": "MockUSDC",
  "sourceName": "contracts/mocks/MockUSDC.sol",
  "abi": [
    {
      "inputs": [],
      "stateMutability": "nonpayable",
      "type": "constructor"
    },
    {
      "inputs": [
        {
          "internalType": "address",
          "name": "spender",
          "type": "address"
        },
        {
          "internalType": "uint256",
          "name": "allowance",
          "type": "uint256"
        },
        {
          "internalType": "uint256",
          "name": "needed",
          "type": "uint256"
        }
      ],
      "name": "ERC20InsufficientAllowance",
      "type": "error"
    },
    {
      "inputs": [
        {
          "internalType": "address",
          "name": "sender",
          "type": "address"
        },
        {
          "internalType": "uint256",
          "name": "balance",
          "type": "uint256"
        },
        {
          "internalType": "uint256",
          "name": "needed",
          "type": "uint256"
        }
      ],
      "name": "ERC20InsufficientBalance",
      "type": "error"
    },
    {
      "inputs": [
        {
          "internalType": "address",
          "name": "approver",
          "type": "address"
        }
      ],
      "name": "ERC20InvalidApprover",
      "type": "error"
    },
    {
      "inputs": [
        {
          "internalType": "address",
          "name": "receiver",
          "type": "address"
        }
      ],
      "name": "ERC20InvalidReceiver",
      "type": "error"
    },
    {
      "inputs": [
        {
          "internalType": "address",
          "name": "sender",
          "type": "address"
        }
      ],
      "name": "ERC20InvalidSender",
      "type": "error"
    },
    {
      "inputs": [
        {
          "internalType": "address",
          "name": "spender",
          "type": "address"
        }
      ],
      "name": "ERC20InvalidSpender",
      "type": "error"
    },
    {
      "inputs": [
        {
          "internalType": "address",
          "name": "owner",
          "type": "address"
        }
      ],
      "name": "OwnableInvalidOwner",
      "type": "error"
    },
    {
      "inputs": [
        {
          "internalType": "address",
          "name": "account",
          "type": "address"
        }
      ],
      "name": "OwnableUnauthorizedAccount",
      "type": "error"
    },
    {
      "anonymous": false,
      "inputs": [
        {
          "indexed": true,
          "internalType": "address",
          "name": "owner",
          "type": "address"
        },
        {
          "indexed": true,
          "internalType": "address",
          "name": "spender",
          "type": "address"
        },
        {
          "indexed": false,
          "internalType": "uint256",
          "name": "value",
          "type": "uint256"
        }
      ],
      "name": "Approval",
      "type": "event"
    },
    {
      "anonymous": false,
      "inputs": [
        {
          "indexed": true,
          "internalType": "address",
          "name": "previousOwner",
          "type": "address"
        },
        {
          "indexed": true,
          "internalType": "address",
          "name": "newOwner",
          "type": "address"
        }
      ],
      "name": "OwnershipTransferred",
      "type": "event"
    },
    {
      "anonymous": false,
      "inputs": [
        {
          "indexed": true,
          "internalType": "address",
          "name": "from",
          "type": "address"
        },
        {
          "indexed": true,
          "internalType": "address",
          "name": "to",
          "type": "address"
        },
        {
          "indexed": false,
          "internalType": "uint256",
          "name": "value",
          "type": "uint256"
        }
      ],
      "name": "Transfer",
      "type": "event"
    },
    {
      "inputs": [
        {
          "internalType": "address",
          "name": "owner",
          "type": "address"
        },
        {
          "internalType": "address",
          "name": "spender",
          "type": "address"
        }
      ],
      "name": "allowance",
      "outputs": [
        {
          "internalType": "uint256",
          "name": "",
          "type": "uint256"
        }
      ],
      "stateMutability": "view",
      "type": "function"
    },
    {
      "inputs": [
        {
          "internalType": "address",
          "name": "spender",
          "type": "address"
        },
        {
          "internalType": "uint256",
          "name": "value",
          "type": "uint256"
        }
      ],
      "name": "approve",
      "outputs": [
        {
          "internalType": "bool",
          "name": "",
          "type": "bool"
        }
      ],
      "stateMutability": "nonpayable",
      "type": "function"
    },
    {
      "inputs": [
        {
          "internalType": "address",
          "name": "account",
          "type": "address"
        }
      ],
      "name": "balanceOf",
      "outputs": [
        {
          "internalType": "uint256",
          "name": "",
          "type": "uint256"
        }
      ],
      "stateMutability": "view",
      "type": "function"
    },
    {
      "inputs": [
        {
          "internalType": "uint256",
          "name": "amount",
          "type": "uint256"
        }
      ],
      "name": "burn",
      "outputs": [],
      "stateMutability": "nonpayable",
      "type": "function"
    },
    {
      "inputs": [],
      "name": "decimals",
      "outputs": [
        {
          "internalType": "uint8",
          "name": "",
          "type": "uint8"
        }
      ],
      "stateMutability": "pure",
      "type": "function"
    },
    {
      "inputs": [
        {
          "internalType": "address",
          "name": "to",
          "type": "address"
        },
        {
          "internalType": "uint256",
          "name": "amount",
          "type": "uint256"
        }
      ],
      "name": "mint",
      "outputs": [],
      "stateMutability": "nonpayable",
      "type": "function"
    },
    {
      "inputs": [],
      "name": "name",
      "outputs": [
        {
          "internalType": "string",
          "name": "",
          "type": "string"
        }
      ],
      "stateMutability": "view",
      "type": "function"
    },
    {
      "inputs": [],
      "name": "owner",
      "outputs": [
        {
          "internalType": "address",
          "name": "",
          "type": "address"
        }
      ],
      "stateMutability": "view",
      "type": "function"
    },
    {
      "inputs": [],
      "name": "renounceOwnership",
      "outputs": [],
      "stateMutability": "nonpayable",
      "type": "function"
    },
    {
      "inputs": [],
      "name": "symbol",
      "outputs": [
        {
          "internalType": "string",
          "name": "",
          "type": "string"
        }
      ],
      "stateMutability": "view",
      "type": "function"
    },
    {
      "inputs": [],
      "name": "totalSupply",
      "outputs": [
        {
          "internalType": "uint256",
          "name": "",
          "type": "uint256"
        }
      ],
      "stateMutability": "view",
      "type": "function"
    },
    {
      "inputs": [
        {
          "internalType": "address",
          "name": "to",
          "type": "address"
        },
        {
          "internalType": "uint256",
          "name": "value",
          "type": "uint256"
        }
      ],
      "name": "transfer",
      "outputs": [
        {
          "internalType": "bool",
          "name": "",
          "type": "bool"
        }
      ],
      "stateMutability": "nonpayable",
      "type": "function"
    },
    {
      "inputs": [
        {
          "internalType": "address",
          "name": "from",
          "type": "address"
        },
        {
          "internalType": "address",
          "name": "to",
          "type": "address"
        },
        {
          "internalType": "uint256",
          "name": "value",
          "type": "uint256"
        }
      ],
      "name": "transferFrom",
      "outputs": [
        {
          "internalType": "bool",
          "name": "",
          "type": "bool"
        }
      ],
      "stateMutability": "nonpayable",
      "type": "function"
    },
    {
      "inputs": [
        {
          "internalType": "address",
          "name": "newOwner",
          "type": "address"
        }
      ],
      "name": "transferOwnership",
      "outputs": [],
      "stateMutability": "nonpayable",
      "type": "function"
    }
  ],
  "bytecode": "0x608060405234801561001057600080fd5b5033604051806040016040528060088152602001672aa9a21021b7b4b760c11b815250604051806040016040528060048152602001635553444360e01b815250816003908161005f9190610324565b50600461006c8282610324565b5050506001600160a01b03811661009e57604051631e4fbdf760e01b8152600060048201526024015b60405180910390fd5b6100a7816100cf565b506100ca336100b86006600a6104e1565b6100c590620f42406104f7565b610121565b610521565b600580546001600160a01b038381166001600160a01b0319831681179093556040519116919082907f8be0079c531659141344cd1fd0a4f28419497f9722a3daafe3b4186f6b6457e090600090a35050565b6001600160a01b03821661014b5760405163ec442f0560e01b815260006004820152602401610095565b6101576000838361015b565b5050565b6001600160a01b03831661018657806002600082825461017b919061050e565b909155506101f89050565b6001600160a01b038316600090815260208190526040902054818110156101d95760405163391434e360e21b81526001600160a01b03851660048201526024810182905260448101839052606401610095565b6001600160a01b03841660009081526020819052604090209082900390555b6001600160a01b03821661021457600280548290039055610233565b6001600160a01b03821660009081526020819052604090208054820190555b816001600160a01b0316836001600160a01b03167fddf252ad1be2c89b69c2b068fc378daa952ba7f163c4a11628f55a4df523b3ef8360405161027891815260200190565b60405180910390a3505050565b634e487b7160e01b600052604160045260246000fd5b600181811c908216806102af57607f821691505b6020821081036102cf57634e487b7160e01b600052602260045260246000fd5b50919050565b601f82111561031f57806000526020600020601f840160051c810160208510156102fc5750805b601f840160051c820191505b8181101561031c5760008155600101610308565b50505b505050565b81516001600160401b0381111561033d5761033d610285565b6103518161034b845461029b565b846102d5565b6020601f821160018114610385576000831561036d5750848201515b600019600385901b1c1916600184901b17845561031c565b600084815260208120601f198516915b828110156103b55787850151825560209485019460019092019101610395565b50848210156103d35786840151600019600387901b60f8161c191681555b50505050600190811b01905550565b634e487b7160e01b600052601160045260246000fd5b6001815b600184111561043357808504811115610417576104176103e2565b600184161561042557908102905b60019390931c9280026103fc565b935093915050565b60008261044a575060016104db565b81610457575060006104db565b816001811461046d576002811461047757610493565b60019150506104db565b60ff841115610488576104886103e2565b50506001821b6104db565b5060208310610133831016604e8410600b84101617156104b6575081810a6104db565b6104c360001984846103f8565b80600019048211156104d7576104d76103e2565b0290505b92915050565b60006104f060ff84168361043b565b9392505050565b80820281158282048414176104db576104db6103e2565b808201808211156104db576104db6103e2565b61094d806105306000396000f3fe608060405234801561001057600080fd5b50600436106100ea5760003560e01c806370a082311161008c57806395d89b411161006657806395d89b41146101d8578063a9059cbb146101e0578063dd62ed3e146101f3578063f2fde38b1461022c57600080fd5b806370a082311461018c578063715018a6146101b55780638da5cb5b146101bd57600080fd5b806323b872dd116100c857806323b872dd14610142578063313ce5671461015557806340c10f191461016457806342966c681461017957600080fd5b806306fdde03146100ef578063095ea7b31461010d57806318160ddd14610130575b600080fd5b6100f761023f565b604051610104919061077d565b60405180910390f35b61012061011b3660046107e7565b6102d1565b6040519015158152602001610104565b6002545b604051908152602001610104565b610120610150366004610811565b6102eb565b60405160068152602001610104565b6101776101723660046107e7565b61030f565b005b61017761018736600461084e565b610325565b61013461019a366004610867565b6001600160a01b031660009081526020819052604090205490565b610177610332565b6005546040516001600160a01b039091168152602001610104565b6100f7610346565b6101206101ee3660046107e7565b610355565b610134610201366004610889565b6001600160a01b03918216600090815260016020908152604080832093909416825291909152205490565b61017761023a366004610867565b610363565b60606003805461024e906108bc565b80601f016020809104026020016040519081016040528092919081815260200182805461027a906108bc565b80156102c75780601f1061029c576101008083540402835291602001916102c7565b820191906000526020600020905b8154815290600101906020018083116102aa57829003601f168201915b5050505050905090565b6000336102df8185856103a3565b60019150505b92915050565b6000336102f98582856103b5565b610304858585610434565b506001949350505050565b610317610493565b61032182826104c0565b5050565b61032f33826104f6565b50565b61033a610493565b610344600061052c565b565b60606004805461024e906108bc565b6000336102df818585610434565b61036b610493565b6001600160a01b03811661039a57604051631e4fbdf760e01b8152600060048201526024015b60405180910390fd5b61032f8161052c565b6103b0838383600161057e565b505050565b6001600160a01b0383811660009081526001602090815260408083209386168352929052205460001981101561042e578181101561041f57604051637dc7a0d960e11b81526001600160a01b03841660048201526024810182905260448101839052606401610391565b61042e8484848403600061057e565b50505050565b6001600160a01b03831661045e57604051634b637e8f60e11b815260006004820152602401610391565b6001600160a01b0382166104885760405163ec442f0560e01b815260006004820152602401610391565b6103b0838383610653565b6005546001600160a01b031633146103445760405163118cdaa760e01b8152336004820152602401610391565b6001600160a01b0382166104ea5760405163ec442f0560e01b815260006004820152602401610391565b61032160008383610653565b6001600160a01b03821661052057604051634b637e8f60e11b815260006004820152602401610391565b61032182600083610653565b600580546001600160a01b038381166001600160a01b0319831681179093556040519116919082907f8be0079c531659141344cd1fd0a4f28419497f9722a3daafe3b4186f6b6457e090600090a35050565b6001600160a01b0384166105a85760405163e602df0560e01b815260006004820152602401610391565b6001600160a01b0383166105d257604051634a1406b160e11b815260006004820152602401610391565b6001600160a01b038085166000908152600160209081526040808320938716835292905220829055801561042e57826001600160a01b0316846001600160a01b03167f8c5be1e5ebec7d5bd14f71427d1e84f3dd0314c0f7b2291e5b200ac8c7c3b9258460405161064591815260200190565b60405180910390a350505050565b6001600160a01b03831661067e57806002600082825461067391906108f6565b909155506106f09050565b6001600160a01b038316600090815260208190526040902054818110156106d15760405163391434e360e21b81526001600160a01b03851660048201526024810182905260448101839052606401610391565b6001600160a01b03841660009081526020819052604090209082900390555b6001600160a01b03821661070c5760028054829003905561072b565b6001600160a01b03821660009081526020819052604090208054820190555b816001600160a01b0316836001600160a01b03167fddf252ad1be2c89b69c2b068fc378daa952ba7f163c4a11628f55a4df523b3ef8360405161077091815260200190565b60405180910390a3505050565b602081526000825180602084015260005b818110156107ab576020818601810151604086840101520161078e565b506000604082850101526040601f19601f83011684010191505092915050565b80356001600160a01b03811681146107e257600080fd5b919050565b600080604083850312156107fa57600080fd5b610803836107cb565b946020939093013593505050565b60008060006060848603121561082657600080fd5b61082f846107cb565b925061083d602085016107cb565b929592945050506040919091013590565b60006020828403121561086057600080fd5b5035919050565b60006020828403121561087957600080fd5b610882826107cb565b9392505050565b6000806040838503121561089c57600080fd5b6108a5836107cb565b91506108b3602084016107cb565b90509250929050565b600181811c908216806108d057607f821691505b6020821081036108f057634e487b7160e01b600052602260045260246000fd5b50919050565b808201808211156102e557634e487b7160e01b600052601160045260246000fdfea2646970667358221220e3f5fc2fa69c3ec836a27245b56bb1693557e65fe7869aeb0f3653e0985f286f64736f6c634300081c0033",
  "linkReferences": {},
  "deployedLinkReferences": {}
}