{
  "_format": "hh-sol-artifact-1",
  "contractName": "MockSelfProtocol",
  "sourceName": "contracts/mocks/MockSelfProtocol.sol",
  "abi": [
    {
      "inputs": [],
      "stateMutability": "nonpayable",
      "type": "constructor"
    },
    {
      "inputs": [
        {
          "internalType": "address",
          "name": "owner",
          "type": "address"
        }
      ],
      "name": "OwnableInvalidOwner",
      "type": "error"
    },
    {
      "inputs": [
        {
          "internalType": "address",
          "name": "account",
          "type": "address"
        }
      ],
      "name": "OwnableUnauthorizedAccount",
      "type": "error"
    },
    {
      "anonymous": false,
      "inputs": [
        {
          "indexed": true,
          "internalType": "address",
          "name": "previousOwner",
          "type": "address"
        },
        {
          "indexed": true,
          "internalType": "address",
          "name": "newOwner",
          "type": "address"
        }
      ],
      "name": "OwnershipTransferred",
      "type": "event"
    },
    {
      "inputs": [
        {
          "internalType": "address",
          "name": "user",
          "type": "address"
        }
      ],
      "name": "balanceOf",
      "outputs": [
        {
          "internalType": "uint256",
          "name": "",
          "type": "uint256"
        }
      ],
      "stateMutability": "view",
      "type": "function"
    },
    {
      "inputs": [
        {
          "internalType": "address[]",
          "name": "users",
          "type": "address[]"
        },
        {
          "internalType": "bool",
          "name": "isVerified",
          "type": "bool"
        }
      ],
      "name": "batchSetUserVerified",
      "outputs": [],
      "stateMutability": "nonpayable",
      "type": "function"
    },
    {
      "inputs": [
        {
          "internalType": "address",
          "name": "user",
          "type": "address"
        }
      ],
      "name": "getVerificationTimestamp",
      "outputs": [
        {
          "internalType": "uint256",
          "name": "",
          "type": "uint256"
        }
      ],
      "stateMutability": "view",
      "type": "function"
    },
    {
      "inputs": [
        {
          "internalType": "address",
          "name": "user",
          "type": "address"
        }
      ],
      "name": "hasVerifiedIdentity",
      "outputs": [
        {
          "internalType": "bool",
          "name": "",
          "type": "bool"
        }
      ],
      "stateMutability": "view",
      "type": "function"
    },
    {
      "inputs": [
        {
          "internalType": "address",
          "name": "user",
          "type": "address"
        },
        {
          "internalType": "uint256",
          "name": "amount",
          "type": "uint256"
        }
      ],
      "name": "mint",
      "outputs": [],
      "stateMutability": "nonpayable",
      "type": "function"
    },
    {
      "inputs": [],
      "name": "owner",
      "outputs": [
        {
          "internalType": "address",
          "name": "",
          "type": "address"
        }
      ],
      "stateMutability": "view",
      "type": "function"
    },
    {
      "inputs": [],
      "name": "renounceOwnership",
      "outputs": [],
      "stateMutability": "nonpayable",
      "type": "function"
    },
    {
      "inputs": [
        {
          "internalType": "address",
          "name": "user",
          "type": "address"
        },
        {
          "internalType": "bool",
          "name": "isVerified",
          "type": "bool"
        }
      ],
      "name": "setUserVerified",
      "outputs": [],
      "stateMutability": "nonpayable",
      "type": "function"
    },
    {
      "inputs": [
        {
          "internalType": "address",
          "name": "",
          "type": "address"
        }
      ],
      "name": "tokenBalances",
      "outputs": [
        {
          "internalType": "uint256",
          "name": "",
          "type": "uint256"
        }
      ],
      "stateMutability": "view",
      "type": "function"
    },
    {
      "inputs": [
        {
          "internalType": "address",
          "name": "newOwner",
          "type": "address"
        }
      ],
      "name": "transferOwnership",
      "outputs": [],
      "stateMutability": "nonpayable",
      "type": "function"
    },
    {
      "inputs": [
        {
          "internalType": "address",
          "name": "",
          "type": "address"
        }
      ],
      "name": "verificationTimestamps",
      "outputs": [
        {
          "internalType": "uint256",
          "name": "",
          "type": "uint256"
        }
      ],
      "stateMutability": "view",
      "type": "function"
    },
    {
      "inputs": [
        {
          "internalType": "address",
          "name": "",
          "type": "address"
        }
      ],
      "name": "verifiedUsers",
      "outputs": [
        {
          "internalType": "bool",
          "name": "",
          "type": "bool"
        }
      ],
      "stateMutability": "view",
      "type": "function"
    },
    {
      "inputs": [
        {
          "internalType": "address",
          "name": "user",
          "type": "address"
        },
        {
          "internalType": "bytes",
          "name": "credentials",
          "type": "bytes"
        }
      ],
      "name": "verifyCredentials",
      "outputs": [
        {
          "internalType": "bool",
          "name": "",
          "type": "bool"
        }
      ],
      "stateMutability": "view",
      "type": "function"
    }
  ],
  "bytecode": "0x6080604052348015600f57600080fd5b503380603557604051631e4fbdf760e01b81526000600482015260240160405180910390fd5b603c816041565b506091565b600080546001600160a01b038381166001600160a01b0319831681178455604051919092169283917f8be0079c531659141344cd1fd0a4f28419497f9722a3daafe3b4186f6b6457e09190a35050565b610720806100a06000396000f3fe608060405234801561001057600080fd5b50600436106100cf5760003560e01c8063715018a61161008c57806398581e6e1161006657806398581e6e1461021b578063e2ee42bc1461022e578063e35fe36614610241578063f2fde38b1461026457600080fd5b8063715018a6146101cf5780637f47b810146101d75780638da5cb5b1461020057600080fd5b8063223015bc146100d45780632c31e00a1461010757806340c10f1914610143578063523fba7f146101585780635edd020d1461017857806370a08231146101a6575b600080fd5b6100f46100e2366004610513565b60026020526000908152604090205481565b6040519081526020015b60405180910390f35b610133610115366004610513565b6001600160a01b031660009081526001602052604090205460ff1690565b60405190151581526020016100fe565b610156610151366004610535565b610277565b005b6100f4610166366004610513565b60036020526000908152604090205481565b61013361018636600461055f565b50506001600160a01b031660009081526001602052604090205460ff1690565b6100f46101b4366004610513565b6001600160a01b031660009081526003602052604090205490565b6101566102a8565b6100f46101e5366004610513565b6001600160a01b031660009081526002602052604090205490565b6000546040516001600160a01b0390911681526020016100fe565b6101566102293660046105f4565b6102bc565b61015661023c366004610627565b610329565b61013361024f366004610513565b60016020526000908152604090205460ff1681565b610156610272366004610513565b610437565b6001600160a01b0382166000908152600360205260408120805483929061029f9084906106ad565b90915550505050565b6102b061047a565b6102ba60006104a7565b565b6102c461047a565b6001600160a01b0382166000908152600160205260409020805460ff1916821580159190911790915561030e57506001600160a01b03166000908152600260205260409020429055565b506001600160a01b0316600090815260026020526040812055565b61033161047a565b60005b82811015610431578160016000868685818110610353576103536106d4565b90506020020160208101906103689190610513565b6001600160a01b031681526020810191909152604001600020805460ff191691151591909117905581156103e15742600260008686858181106103ad576103ad6106d4565b90506020020160208101906103c29190610513565b6001600160a01b03168152602081019190915260400160002055610429565b6000600260008686858181106103f9576103f96106d4565b905060200201602081019061040e9190610513565b6001600160a01b031681526020810191909152604001600020555b600101610334565b50505050565b61043f61047a565b6001600160a01b03811661046e57604051631e4fbdf760e01b8152600060048201526024015b60405180910390fd5b610477816104a7565b50565b6000546001600160a01b031633146102ba5760405163118cdaa760e01b8152336004820152602401610465565b600080546001600160a01b038381166001600160a01b0319831681178455604051919092169283917f8be0079c531659141344cd1fd0a4f28419497f9722a3daafe3b4186f6b6457e09190a35050565b80356001600160a01b038116811461050e57600080fd5b919050565b60006020828403121561052557600080fd5b61052e826104f7565b9392505050565b6000806040838503121561054857600080fd5b610551836104f7565b946020939093013593505050565b60008060006040848603121561057457600080fd5b61057d846104f7565b9250602084013567ffffffffffffffff81111561059957600080fd5b8401601f810186136105aa57600080fd5b803567ffffffffffffffff8111156105c157600080fd5b8660208284010111156105d357600080fd5b939660209190910195509293505050565b8035801515811461050e57600080fd5b6000806040838503121561060757600080fd5b610610836104f7565b915061061e602084016105e4565b90509250929050565b60008060006040848603121561063c57600080fd5b833567ffffffffffffffff81111561065357600080fd5b8401601f8101861361066457600080fd5b803567ffffffffffffffff81111561067b57600080fd5b8660208260051b840101111561069057600080fd5b6020918201945092506106a49085016105e4565b90509250925092565b808201808211156106ce57634e487b7160e01b600052601160045260246000fd5b92915050565b634e487b7160e01b600052603260045260246000fdfea26469706673582212201cc03ed667e843a4ada87b86099a53694a47d8653b0be7eaa8ba1ba57d8dd3f264736f6c634300081c0033",
  "linkReferences": {},
  "deployedLinkReferences": {}
}