{
  "_format": "hh-sol-artifact-1",
  "contractName": "MockSelfProtocol",
  "sourceName": "contracts/mocks/MockSelfProtocol.sol",
  "abi": [
    {
      "inputs": [
        {
          "internalType": "address",
          "name": "user",
          "type": "address"
        }
      ],
      "name": "balanceOf",
      "outputs": [
        {
          "internalType": "uint256",
          "name": "",
          "type": "uint256"
        }
      ],
      "stateMutability": "view",
      "type": "function"
    },
    {
      "inputs": [
        {
          "internalType": "address",
          "name": "user",
          "type": "address"
        }
      ],
      "name": "getVerificationTimestamp",
      "outputs": [
        {
          "internalType": "uint256",
          "name": "",
          "type": "uint256"
        }
      ],
      "stateMutability": "view",
      "type": "function"
    },
    {
      "inputs": [
        {
          "internalType": "address",
          "name": "user",
          "type": "address"
        }
      ],
      "name": "hasVerifiedIdentity",
      "outputs": [
        {
          "internalType": "bool",
          "name": "",
          "type": "bool"
        }
      ],
      "stateMutability": "view",
      "type": "function"
    },
    {
      "inputs": [
        {
          "internalType": "address",
          "name": "user",
          "type": "address"
        },
        {
          "internalType": "uint256",
          "name": "amount",
          "type": "uint256"
        }
      ],
      "name": "mint",
      "outputs": [],
      "stateMutability": "nonpayable",
      "type": "function"
    },
    {
      "inputs": [
        {
          "internalType": "address",
          "name": "user",
          "type": "address"
        }
      ],
      "name": "setVerified",
      "outputs": [],
      "stateMutability": "nonpayable",
      "type": "function"
    },
    {
      "inputs": [
        {
          "internalType": "address",
          "name": "",
          "type": "address"
        }
      ],
      "name": "tokenBalances",
      "outputs": [
        {
          "internalType": "uint256",
          "name": "",
          "type": "uint256"
        }
      ],
      "stateMutability": "view",
      "type": "function"
    },
    {
      "inputs": [
        {
          "internalType": "address",
          "name": "",
          "type": "address"
        }
      ],
      "name": "verificationTimestamps",
      "outputs": [
        {
          "internalType": "uint256",
          "name": "",
          "type": "uint256"
        }
      ],
      "stateMutability": "view",
      "type": "function"
    },
    {
      "inputs": [
        {
          "internalType": "address",
          "name": "",
          "type": "address"
        }
      ],
      "name": "verifiedUsers",
      "outputs": [
        {
          "internalType": "bool",
          "name": "",
          "type": "bool"
        }
      ],
      "stateMutability": "view",
      "type": "function"
    },
    {
      "inputs": [
        {
          "internalType": "address",
          "name": "volunteer",
          "type": "address"
        },
        {
          "internalType": "bytes",
          "name": "credentials",
          "type": "bytes"
        }
      ],
      "name": "verifyCredentials",
      "outputs": [
        {
          "internalType": "bool",
          "name": "",
          "type": "bool"
        }
      ],
      "stateMutability": "view",
      "type": "function"
    }
  ],
  "bytecode": "0x6080604052348015600f57600080fd5b506103818061001f6000396000f3fe608060405234801561001057600080fd5b50600436106100935760003560e01c80635edd020d116100665780635edd020d1461013c57806370a08231146101535780637f47b8101461017c578063c8c75647146101a5578063e35fe366146101e357600080fd5b8063223015bc146100985780632c31e00a146100cb57806340c10f1914610107578063523fba7f1461011c575b600080fd5b6100b86100a6366004610253565b60016020526000908152604090205481565b6040519081526020015b60405180910390f35b6100f76100d9366004610253565b6001600160a01b031660009081526020819052604090205460ff1690565b60405190151581526020016100c2565b61011a610115366004610275565b610206565b005b6100b861012a366004610253565b60026020526000908152604090205481565b6100f761014a36600461029f565b60019392505050565b6100b8610161366004610253565b6001600160a01b031660009081526002602052604090205490565b6100b861018a366004610253565b6001600160a01b031660009081526001602052604090205490565b61011a6101b3366004610253565b6001600160a01b0316600090815260208181526040808320805460ff191660019081179091559091529020429055565b6100f76101f1366004610253565b60006020819052908152604090205460ff1681565b6001600160a01b0382166000908152600260205260408120805483929061022e908490610324565b90915550505050565b80356001600160a01b038116811461024e57600080fd5b919050565b60006020828403121561026557600080fd5b61026e82610237565b9392505050565b6000806040838503121561028857600080fd5b61029183610237565b946020939093013593505050565b6000806000604084860312156102b457600080fd5b6102bd84610237565b9250602084013567ffffffffffffffff8111156102d957600080fd5b8401601f810186136102ea57600080fd5b803567ffffffffffffffff81111561030157600080fd5b86602082840101111561031357600080fd5b939660209190910195509293505050565b8082018082111561034557634e487b7160e01b600052601160045260246000fd5b9291505056fea26469706673582212203984f3bf153d7aa6f447637a5c66d8860480b2a59643e8c6f2b86d3c62651b1864736f6c634300081c0033",
  "linkReferences": {},
  "deployedLinkReferences": {}
}