{
  "_format": "hh-sol-artifact-1",
  "contractName": "ClickToken",
  "sourceName": "contracts/ClickToken.sol",
  "abi": [
    {
      "inputs": [],
      "stateMutability": "nonpayable",
      "type": "constructor"
    },
    {
      "inputs": [
        {
          "internalType": "address",
          "name": "spender",
          "type": "address"
        },
        {
          "internalType": "uint256",
          "name": "allowance",
          "type": "uint256"
        },
        {
          "internalType": "uint256",
          "name": "needed",
          "type": "uint256"
        }
      ],
      "name": "ERC20InsufficientAllowance",
      "type": "error"
    },
    {
      "inputs": [
        {
          "internalType": "address",
          "name": "sender",
          "type": "address"
        },
        {
          "internalType": "uint256",
          "name": "balance",
          "type": "uint256"
        },
        {
          "internalType": "uint256",
          "name": "needed",
          "type": "uint256"
        }
      ],
      "name": "ERC20InsufficientBalance",
      "type": "error"
    },
    {
      "inputs": [
        {
          "internalType": "address",
          "name": "approver",
          "type": "address"
        }
      ],
      "name": "ERC20InvalidApprover",
      "type": "error"
    },
    {
      "inputs": [
        {
          "internalType": "address",
          "name": "receiver",
          "type": "address"
        }
      ],
      "name": "ERC20InvalidReceiver",
      "type": "error"
    },
    {
      "inputs": [
        {
          "internalType": "address",
          "name": "sender",
          "type": "address"
        }
      ],
      "name": "ERC20InvalidSender",
      "type": "error"
    },
    {
      "inputs": [
        {
          "internalType": "address",
          "name": "spender",
          "type": "address"
        }
      ],
      "name": "ERC20InvalidSpender",
      "type": "error"
    },
    {
      "inputs": [],
      "name": "EnforcedPause",
      "type": "error"
    },
    {
      "inputs": [
        {
          "internalType": "bytes32",
          "name": "key",
          "type": "bytes32"
        }
      ],
      "name": "EnumerableMapNonexistentKey",
      "type": "error"
    },
    {
      "inputs": [],
      "name": "ExpectedPause",
      "type": "error"
    },
    {
      "inputs": [
        {
          "internalType": "address",
          "name": "owner",
          "type": "address"
        }
      ],
      "name": "OwnableInvalidOwner",
      "type": "error"
    },
    {
      "inputs": [
        {
          "internalType": "address",
          "name": "account",
          "type": "address"
        }
      ],
      "name": "OwnableUnauthorizedAccount",
      "type": "error"
    },
    {
      "anonymous": false,
      "inputs": [
        {
          "indexed": true,
          "internalType": "address",
          "name": "owner",
          "type": "address"
        },
        {
          "indexed": true,
          "internalType": "address",
          "name": "spender",
          "type": "address"
        },
        {
          "indexed": false,
          "internalType": "uint256",
          "name": "value",
          "type": "uint256"
        }
      ],
      "name": "Approval",
      "type": "event"
    },
    {
      "anonymous": false,
      "inputs": [
        {
          "indexed": true,
          "internalType": "address",
          "name": "previousOwner",
          "type": "address"
        },
        {
          "indexed": true,
          "internalType": "address",
          "name": "newOwner",
          "type": "address"
        }
      ],
      "name": "OwnershipTransferred",
      "type": "event"
    },
    {
      "anonymous": false,
      "inputs": [
        {
          "indexed": false,
          "internalType": "address",
          "name": "account",
          "type": "address"
        }
      ],
      "name": "Paused",
      "type": "event"
    },
    {
      "anonymous": false,
      "inputs": [
        {
          "indexed": true,
          "internalType": "address",
          "name": "from",
          "type": "address"
        },
        {
          "indexed": true,
          "internalType": "address",
          "name": "to",
          "type": "address"
        },
        {
          "indexed": false,
          "internalType": "uint256",
          "name": "value",
          "type": "uint256"
        }
      ],
      "name": "Transfer",
      "type": "event"
    },
    {
      "anonymous": false,
      "inputs": [
        {
          "indexed": false,
          "internalType": "address",
          "name": "account",
          "type": "address"
        }
      ],
      "name": "Unpaused",
      "type": "event"
    },
    {
      "inputs": [
        {
          "internalType": "address",
          "name": "owner",
          "type": "address"
        },
        {
          "internalType": "address",
          "name": "spender",
          "type": "address"
        }
      ],
      "name": "allowance",
      "outputs": [
        {
          "internalType": "uint256",
          "name": "",
          "type": "uint256"
        }
      ],
      "stateMutability": "view",
      "type": "function"
    },
    {
      "inputs": [
        {
          "internalType": "address",
          "name": "spender",
          "type": "address"
        },
        {
          "internalType": "uint256",
          "name": "value",
          "type": "uint256"
        }
      ],
      "name": "approve",
      "outputs": [
        {
          "internalType": "bool",
          "name": "",
          "type": "bool"
        }
      ],
      "stateMutability": "nonpayable",
      "type": "function"
    },
    {
      "inputs": [
        {
          "internalType": "address",
          "name": "account",
          "type": "address"
        }
      ],
      "name": "balanceOf",
      "outputs": [
        {
          "internalType": "uint256",
          "name": "",
          "type": "uint256"
        }
      ],
      "stateMutability": "view",
      "type": "function"
    },
    {
      "inputs": [],
      "name": "decimals",
      "outputs": [
        {
          "internalType": "uint8",
          "name": "",
          "type": "uint8"
        }
      ],
      "stateMutability": "view",
      "type": "function"
    },
    {
      "inputs": [],
      "name": "getAllScores",
      "outputs": [
        {
          "components": [
            {
              "internalType": "address",
              "name": "user",
              "type": "address"
            },
            {
              "internalType": "uint256",
              "name": "value",
              "type": "uint256"
            }
          ],
          "internalType": "struct ClickToken.Score[]",
          "name": "",
          "type": "tuple[]"
        }
      ],
      "stateMutability": "view",
      "type": "function"
    },
    {
      "inputs": [
        {
          "internalType": "address",
          "name": "_address",
          "type": "address"
        }
      ],
      "name": "getScore",
      "outputs": [
        {
          "internalType": "uint256",
          "name": "",
          "type": "uint256"
        }
      ],
      "stateMutability": "view",
      "type": "function"
    },
    {
      "inputs": [
        {
          "internalType": "address",
          "name": "_to",
          "type": "address"
        }
      ],
      "name": "mintTo",
      "outputs": [],
      "stateMutability": "nonpayable",
      "type": "function"
    },
    {
      "inputs": [],
      "name": "name",
      "outputs": [
        {
          "internalType": "string",
          "name": "",
          "type": "string"
        }
      ],
      "stateMutability": "view",
      "type": "function"
    },
    {
      "inputs": [],
      "name": "owner",
      "outputs": [
        {
          "internalType": "address",
          "name": "",
          "type": "address"
        }
      ],
      "stateMutability": "view",
      "type": "function"
    },
    {
      "inputs": [],
      "name": "pause",
      "outputs": [],
      "stateMutability": "nonpayable",
      "type": "function"
    },
    {
      "inputs": [],
      "name": "paused",
      "outputs": [
        {
          "internalType": "bool",
          "name": "",
          "type": "bool"
        }
      ],
      "stateMutability": "view",
      "type": "function"
    },
    {
      "inputs": [],
      "name": "renounceOwnership",
      "outputs": [],
      "stateMutability": "nonpayable",
      "type": "function"
    },
    {
      "inputs": [],
      "name": "symbol",
      "outputs": [
        {
          "internalType": "string",
          "name": "",
          "type": "string"
        }
      ],
      "stateMutability": "view",
      "type": "function"
    },
    {
      "inputs": [],
      "name": "totalSupply",
      "outputs": [
        {
          "internalType": "uint256",
          "name": "",
          "type": "uint256"
        }
      ],
      "stateMutability": "view",
      "type": "function"
    },
    {
      "inputs": [
        {
          "internalType": "address",
          "name": "to",
          "type": "address"
        },
        {
          "internalType": "uint256",
          "name": "value",
          "type": "uint256"
        }
      ],
      "name": "transfer",
      "outputs": [
        {
          "internalType": "bool",
          "name": "",
          "type": "bool"
        }
      ],
      "stateMutability": "nonpayable",
      "type": "function"
    },
    {
      "inputs": [
        {
          "internalType": "address",
          "name": "from",
          "type": "address"
        },
        {
          "internalType": "address",
          "name": "to",
          "type": "address"
        },
        {
          "internalType": "uint256",
          "name": "value",
          "type": "uint256"
        }
      ],
      "name": "transferFrom",
      "outputs": [
        {
          "internalType": "bool",
          "name": "",
          "type": "bool"
        }
      ],
      "stateMutability": "nonpayable",
      "type": "function"
    },
    {
      "inputs": [
        {
          "internalType": "address",
          "name": "newOwner",
          "type": "address"
        }
      ],
      "name": "transferOwnership",
      "outputs": [],
      "stateMutability": "nonpayable",
      "type": "function"
    },
    {
      "inputs": [],
      "name": "unpause",
      "outputs": [],
      "stateMutability": "nonpayable",
      "type": "function"
    }
  ],
  "bytecode": "0x608060405234801561001057600080fd5b50336040518060400160405280600a81526020017f436c69636b546f6b656e000000000000000000000000000000000000000000008152506040518060400160405280600381526020017f43544b0000000000000000000000000000000000000000000000000000000000815250816003908161008d9190610458565b50806004908161009d9190610458565b5050506000600560006101000a81548160ff021916908315150217905550600073ffffffffffffffffffffffffffffffffffffffff168173ffffffffffffffffffffffffffffffffffffffff160361012d5760006040517f1e4fbdf7000000000000000000000000000000000000000000000000000000008152600401610124919061056b565b60405180910390fd5b61013c8161014260201b60201c565b50610586565b6000600560019054906101000a900473ffffffffffffffffffffffffffffffffffffffff16905081600560016101000a81548173ffffffffffffffffffffffffffffffffffffffff021916908373ffffffffffffffffffffffffffffffffffffffff1602179055508173ffffffffffffffffffffffffffffffffffffffff168173ffffffffffffffffffffffffffffffffffffffff167f8be0079c531659141344cd1fd0a4f28419497f9722a3daafe3b4186f6b6457e060405160405180910390a35050565b600081519050919050565b7f4e487b7100000000000000000000000000000000000000000000000000000000600052604160045260246000fd5b7f4e487b7100000000000000000000000000000000000000000000000000000000600052602260045260246000fd5b6000600282049050600182168061028957607f821691505b60208210810361029c5761029b610242565b5b50919050565b60008190508160005260206000209050919050565b60006020601f8301049050919050565b600082821b905092915050565b6000600883026103047fffffffffffffffffffffffffffffffffffffffffffffffffffffffffffffffff826102c7565b61030e86836102c7565b95508019841693508086168417925050509392505050565b6000819050919050565b6000819050919050565b600061035561035061034b84610326565b610330565b610326565b9050919050565b6000819050919050565b61036f8361033a565b61038361037b8261035c565b8484546102d4565b825550505050565b600090565b61039861038b565b6103a3818484610366565b505050565b5b818110156103c7576103bc600082610390565b6001810190506103a9565b5050565b601f82111561040c576103dd816102a2565b6103e6846102b7565b810160208510156103f5578190505b610409610401856102b7565b8301826103a8565b50505b505050565b600082821c905092915050565b600061042f60001984600802610411565b1980831691505092915050565b6000610448838361041e565b9150826002028217905092915050565b61046182610208565b67ffffffffffffffff81111561047a57610479610213565b5b6104848254610271565b61048f8282856103cb565b600060209050601f8311600181146104c257600084156104b0578287015190505b6104ba858261043c565b865550610522565b601f1984166104d0866102a2565b60005b828110156104f8578489015182556001820191506020850194506020810190506104d3565b868310156105155784890151610511601f89168261041e565b8355505b6001600288020188555050505b505050505050565b600073ffffffffffffffffffffffffffffffffffffffff82169050919050565b60006105558261052a565b9050919050565b6105658161054a565b82525050565b6000602082019050610580600083018461055c565b92915050565b611b54806105956000396000f3fe608060405234801561001057600080fd5b50600436106101165760003560e01c8063755edd17116100a257806395d89b411161007157806395d89b4114610299578063a9059cbb146102b7578063d47875d0146102e7578063dd62ed3e14610317578063f2fde38b1461034757610116565b8063755edd17146102375780638456cb591461025357806387d061961461025d5780638da5cb5b1461027b57610116565b8063313ce567116100e9578063313ce567146101b75780633f4ba83a146101d55780635c975abb146101df57806370a08231146101fd578063715018a61461022d57610116565b806306fdde031461011b578063095ea7b31461013957806318160ddd1461016957806323b872dd14610187575b600080fd5b610123610363565b60405161013091906115c4565b60405180910390f35b610153600480360381019061014e919061167f565b6103f5565b60405161016091906116da565b60405180910390f35b610171610418565b60405161017e9190611704565b60405180910390f35b6101a1600480360381019061019c919061171f565b610422565b6040516101ae91906116da565b60405180910390f35b6101bf610451565b6040516101cc919061178e565b60405180910390f35b6101dd61045a565b005b6101e761046c565b6040516101f491906116da565b60405180910390f35b610217600480360381019061021291906117a9565b610483565b6040516102249190611704565b60405180910390f35b6102356104cb565b005b610251600480360381019061024c91906117a9565b6104df565b005b61025b6104fc565b005b61026561050e565b60405161027291906118d2565b60405180910390f35b6102836105fd565b6040516102909190611903565b60405180910390f35b6102a1610627565b6040516102ae91906115c4565b60405180910390f35b6102d160048036038101906102cc919061167f565b6106b9565b6040516102de91906116da565b60405180910390f35b61030160048036038101906102fc91906117a9565b6106dc565b60405161030e9190611704565b60405180910390f35b610331600480360381019061032c919061191e565b61071b565b60405161033e9190611704565b60405180910390f35b610361600480360381019061035c91906117a9565b6107a2565b005b6060600380546103729061198d565b80601f016020809104026020016040519081016040528092919081815260200182805461039e9061198d565b80156103eb5780601f106103c0576101008083540402835291602001916103eb565b820191906000526020600020905b8154815290600101906020018083116103ce57829003601f168201915b5050505050905090565b600080610400610828565b905061040d818585610830565b600191505092915050565b6000600254905090565b60008061042d610828565b905061043a858285610842565b6104458585856108d7565b60019150509392505050565b60006012905090565b6104626109cb565b61046a610a52565b565b6000600560009054906101000a900460ff16905090565b60008060008373ffffffffffffffffffffffffffffffffffffffff1673ffffffffffffffffffffffffffffffffffffffff168152602001908152602001600020549050919050565b6104d36109cb565b6104dd6000610ab5565b565b6104e7610b7b565b6104f981670de0b6b3a7640000610bbc565b50565b6105046109cb565b61050c610c3e565b565b6060600061051c6006610ca1565b905060008167ffffffffffffffff81111561053a576105396119be565b5b60405190808252806020026020018201604052801561057357816020015b610560611504565b8152602001906001900390816105585790505b50905060005b828110156105f457600080610598836006610cb690919063ffffffff16565b9150915060405180604001604052808373ffffffffffffffffffffffffffffffffffffffff168152602001828152508484815181106105da576105d96119ed565b5b602002602001018190525050508080600101915050610579565b50809250505090565b6000600560019054906101000a900473ffffffffffffffffffffffffffffffffffffffff16905090565b6060600480546106369061198d565b80601f01602080910402602001604051908101604052809291908181526020018280546106629061198d565b80156106af5780601f10610684576101008083540402835291602001916106af565b820191906000526020600020905b81548152906001019060200180831161069257829003601f168201915b5050505050905090565b6000806106c4610828565b90506106d18185856108d7565b600191505092915050565b60006106f2826006610ce290919063ffffffff16565b6106ff5760009050610716565b610713826006610d1290919063ffffffff16565b90505b919050565b6000600160008473ffffffffffffffffffffffffffffffffffffffff1673ffffffffffffffffffffffffffffffffffffffff16815260200190815260200160002060008373ffffffffffffffffffffffffffffffffffffffff1673ffffffffffffffffffffffffffffffffffffffff16815260200190815260200160002054905092915050565b6107aa6109cb565b600073ffffffffffffffffffffffffffffffffffffffff168173ffffffffffffffffffffffffffffffffffffffff160361081c5760006040517f1e4fbdf70000000000000000000000000000000000000000000000000000000081526004016108139190611903565b60405180910390fd5b61082581610ab5565b50565b600033905090565b61083d8383836001610d45565b505050565b600061084e848461071b565b90507fffffffffffffffffffffffffffffffffffffffffffffffffffffffffffffffff8110156108d157818110156108c1578281836040517ffb8f41b20000000000000000000000000000000000000000000000000000000081526004016108b893929190611a1c565b60405180910390fd5b6108d084848484036000610d45565b5b50505050565b600073ffffffffffffffffffffffffffffffffffffffff168373ffffffffffffffffffffffffffffffffffffffff16036109495760006040517f96c6fd1e0000000000000000000000000000000000000000000000000000000081526004016109409190611903565b60405180910390fd5b600073ffffffffffffffffffffffffffffffffffffffff168273ffffffffffffffffffffffffffffffffffffffff16036109bb5760006040517fec442f050000000000000000000000000000000000000000000000000000000081526004016109b29190611903565b60405180910390fd5b6109c6838383610f1c565b505050565b6109d3610828565b73ffffffffffffffffffffffffffffffffffffffff166109f16105fd565b73ffffffffffffffffffffffffffffffffffffffff1614610a5057610a14610828565b6040517f118cdaa7000000000000000000000000000000000000000000000000000000008152600401610a479190611903565b60405180910390fd5b565b610a5a610ff9565b6000600560006101000a81548160ff0219169083151502179055507f5db9ee0a495bf2e6ff9c91a7834c1ba4fdd244a5e8aa4e537bd38aeae4b073aa610a9e610828565b604051610aab9190611903565b60405180910390a1565b6000600560019054906101000a900473ffffffffffffffffffffffffffffffffffffffff16905081600560016101000a81548173ffffffffffffffffffffffffffffffffffffffff021916908373ffffffffffffffffffffffffffffffffffffffff1602179055508173ffffffffffffffffffffffffffffffffffffffff168173ffffffffffffffffffffffffffffffffffffffff167f8be0079c531659141344cd1fd0a4f28419497f9722a3daafe3b4186f6b6457e060405160405180910390a35050565b610b8361046c565b15610bba576040517fd93c066500000000000000000000000000000000000000000000000000000000815260040160405180910390fd5b565b600073ffffffffffffffffffffffffffffffffffffffff168273ffffffffffffffffffffffffffffffffffffffff1603610c2e5760006040517fec442f05000000000000000000000000000000000000000000000000000000008152600401610c259190611903565b60405180910390fd5b610c3a60008383610f1c565b5050565b610c46610b7b565b6001600560006101000a81548160ff0219169083151502179055507f62e78cea01bee320cd4e420270b5ea74000d11b0c9f74754ebdbfc544b05a258610c8a610828565b604051610c979190611903565b60405180910390a1565b6000610caf82600001611039565b9050919050565b600080600080610cc9866000018661104e565b915091508160001c8160001c9350935050509250929050565b6000610d0a836000018373ffffffffffffffffffffffffffffffffffffffff1660001b61108e565b905092915050565b6000610d3a836000018373ffffffffffffffffffffffffffffffffffffffff1660001b6110ae565b60001c905092915050565b600073ffffffffffffffffffffffffffffffffffffffff168473ffffffffffffffffffffffffffffffffffffffff1603610db75760006040517fe602df05000000000000000000000000000000000000000000000000000000008152600401610dae9190611903565b60405180910390fd5b600073ffffffffffffffffffffffffffffffffffffffff168373ffffffffffffffffffffffffffffffffffffffff1603610e295760006040517f94280d62000000000000000000000000000000000000000000000000000000008152600401610e209190611903565b60405180910390fd5b81600160008673ffffffffffffffffffffffffffffffffffffffff1673ffffffffffffffffffffffffffffffffffffffff16815260200190815260200160002060008573ffffffffffffffffffffffffffffffffffffffff1673ffffffffffffffffffffffffffffffffffffffff168152602001908152602001600020819055508015610f16578273ffffffffffffffffffffffffffffffffffffffff168473ffffffffffffffffffffffffffffffffffffffff167f8c5be1e5ebec7d5bd14f71427d1e84f3dd0314c0f7b2291e5b200ac8c7c3b92584604051610f0d9190611704565b60405180910390a35b50505050565b610f24610b7b565b600073ffffffffffffffffffffffffffffffffffffffff168373ffffffffffffffffffffffffffffffffffffffff1614610f94576000610f6e846006610d1290919063ffffffff16565b9050610f91848383610f809190611a82565b600661112e9092919063ffffffff16565b50505b6000610faa836006610ce290919063ffffffff16565b15610fc657610fc3836006610d1290919063ffffffff16565b90505b610fe7838383610fd69190611ab6565b600661112e9092919063ffffffff16565b50610ff3848484611163565b50505050565b61100161046c565b611037576040517f8dfc202b00000000000000000000000000000000000000000000000000000000815260040160405180910390fd5b565b60006110478260000161117b565b9050919050565b6000806000611069848660000161119090919063ffffffff16565b9050808560020160008381526020019081526020016000205492509250509250929050565b60006110a682846000016111a790919063ffffffff16565b905092915050565b6000808360020160008481526020019081526020016000205490506000801b811480156110e257506110e0848461108e565b155b1561112457826040517f02b5668600000000000000000000000000000000000000000000000000000000815260040161111b9190611b03565b60405180910390fd5b8091505092915050565b600061115a846000018473ffffffffffffffffffffffffffffffffffffffff1660001b8460001b6111be565b90509392505050565b61116b610b7b565b6111768383836111f9565b505050565b60006111898260000161141e565b9050919050565b600061119f836000018361142f565b905092915050565b60006111b6836000018361145a565b905092915050565b600081846002016000858152602001908152602001600020819055506111f0838560000161147d90919063ffffffff16565b90509392505050565b600073ffffffffffffffffffffffffffffffffffffffff168373ffffffffffffffffffffffffffffffffffffffff160361124b57806002600082825461123f9190611ab6565b9250508190555061131e565b60008060008573ffffffffffffffffffffffffffffffffffffffff1673ffffffffffffffffffffffffffffffffffffffff168152602001908152602001600020549050818110156112d7578381836040517fe450d38c0000000000000000000000000000000000000000000000000000000081526004016112ce93929190611a1c565b60405180910390fd5b8181036000808673ffffffffffffffffffffffffffffffffffffffff1673ffffffffffffffffffffffffffffffffffffffff16815260200190815260200160002081905550505b600073ffffffffffffffffffffffffffffffffffffffff168273ffffffffffffffffffffffffffffffffffffffff160361136757806002600082825403925050819055506113b4565b806000808473ffffffffffffffffffffffffffffffffffffffff1673ffffffffffffffffffffffffffffffffffffffff168152602001908152602001600020600082825401925050819055505b8173ffffffffffffffffffffffffffffffffffffffff168373ffffffffffffffffffffffffffffffffffffffff167fddf252ad1be2c89b69c2b068fc378daa952ba7f163c4a11628f55a4df523b3ef836040516114119190611704565b60405180910390a3505050565b600081600001805490509050919050565b6000826000018281548110611447576114466119ed565b5b9060005260206000200154905092915050565b600080836001016000848152602001908152602001600020541415905092915050565b600061148c8360000183611494565b905092915050565b60006114a0838361145a565b6114f95782600001829080600181540180825580915050600190039060005260206000200160009091909190915055826000018054905083600101600084815260200190815260200160002081905550600190506114fe565b600090505b92915050565b6040518060400160405280600073ffffffffffffffffffffffffffffffffffffffff168152602001600081525090565b600081519050919050565b600082825260208201905092915050565b60005b8381101561156e578082015181840152602081019050611553565b60008484015250505050565b6000601f19601f8301169050919050565b600061159682611534565b6115a0818561153f565b93506115b0818560208601611550565b6115b98161157a565b840191505092915050565b600060208201905081810360008301526115de818461158b565b905092915050565b600080fd5b600073ffffffffffffffffffffffffffffffffffffffff82169050919050565b6000611616826115eb565b9050919050565b6116268161160b565b811461163157600080fd5b50565b6000813590506116438161161d565b92915050565b6000819050919050565b61165c81611649565b811461166757600080fd5b50565b60008135905061167981611653565b92915050565b60008060408385031215611696576116956115e6565b5b60006116a485828601611634565b92505060206116b58582860161166a565b9150509250929050565b60008115159050919050565b6116d4816116bf565b82525050565b60006020820190506116ef60008301846116cb565b92915050565b6116fe81611649565b82525050565b600060208201905061171960008301846116f5565b92915050565b600080600060608486031215611738576117376115e6565b5b600061174686828701611634565b935050602061175786828701611634565b92505060406117688682870161166a565b9150509250925092565b600060ff82169050919050565b61178881611772565b82525050565b60006020820190506117a3600083018461177f565b92915050565b6000602082840312156117bf576117be6115e6565b5b60006117cd84828501611634565b91505092915050565b600081519050919050565b600082825260208201905092915050565b6000819050602082019050919050565b61180b8161160b565b82525050565b61181a81611649565b82525050565b6040820160008201516118366000850182611802565b5060208201516118496020850182611811565b50505050565b600061185b8383611820565b60408301905092915050565b6000602082019050919050565b600061187f826117d6565b61188981856117e1565b9350611894836117f2565b8060005b838110156118c55781516118ac888261184f565b97506118b783611867565b925050600181019050611898565b5085935050505092915050565b600060208201905081810360008301526118ec8184611874565b905092915050565b6118fd8161160b565b82525050565b600060208201905061191860008301846118f4565b92915050565b60008060408385031215611935576119346115e6565b5b600061194385828601611634565b925050602061195485828601611634565b9150509250929050565b7f4e487b7100000000000000000000000000000000000000000000000000000000600052602260045260246000fd5b600060028204905060018216806119a557607f821691505b6020821081036119b8576119b761195e565b5b50919050565b7f4e487b7100000000000000000000000000000000000000000000000000000000600052604160045260246000fd5b7f4e487b7100000000000000000000000000000000000000000000000000000000600052603260045260246000fd5b6000606082019050611a3160008301866118f4565b611a3e60208301856116f5565b611a4b60408301846116f5565b949350505050565b7f4e487b7100000000000000000000000000000000000000000000000000000000600052601160045260246000fd5b6000611a8d82611649565b9150611a9883611649565b9250828203905081811115611ab057611aaf611a53565b5b92915050565b6000611ac182611649565b9150611acc83611649565b9250828201905080821115611ae457611ae3611a53565b5b92915050565b6000819050919050565b611afd81611aea565b82525050565b6000602082019050611b186000830184611af4565b9291505056fea2646970667358221220643d2507f9b626b4f6b6e3cb494cb62b13c6d60cc4a534e086b2fccc1e9026de64736f6c634300081c0033",
  "linkReferences": {},
  "deployedLinkReferences": {}
}