{
  "_format": "hh-sol-artifact-1",
  "contractName": "EventDAOFactory",
  "sourceName": "contracts/EventDAOFactory.sol",
  "abi": [
    {
      "inputs": [
        {
          "internalType": "address",
          "name": "_usdcToken",
          "type": "address"
        },
        {
          "internalType": "address",
          "name": "_selfProtocolAddress",
          "type": "address"
        }
      ],
      "stateMutability": "nonpayable",
      "type": "constructor"
    },
    {
      "inputs": [],
      "name": "AccessControlBadConfirmation",
      "type": "error"
    },
    {
      "inputs": [
        {
          "internalType": "address",
          "name": "account",
          "type": "address"
        },
        {
          "internalType": "bytes32",
          "name": "neededRole",
          "type": "bytes32"
        }
      ],
      "name": "AccessControlUnauthorizedAccount",
      "type": "error"
    },
    {
      "anonymous": false,
      "inputs": [
        {
          "indexed": true,
          "internalType": "bytes32",
          "name": "eventId",
          "type": "bytes32"
        },
        {
          "indexed": false,
          "internalType": "string",
          "name": "eventName",
          "type": "string"
        },
        {
          "indexed": false,
          "internalType": "address",
          "name": "daoAddress",
          "type": "address"
        },
        {
          "indexed": false,
          "internalType": "uint256",
          "name": "expiresAt",
          "type": "uint256"
        }
      ],
      "name": "EventDAOCreated",
      "type": "event"
    },
    {
      "anonymous": false,
      "inputs": [
        {
          "indexed": true,
          "internalType": "bytes32",
          "name": "role",
          "type": "bytes32"
        },
        {
          "indexed": true,
          "internalType": "bytes32",
          "name": "previousAdminRole",
          "type": "bytes32"
        },
        {
          "indexed": true,
          "internalType": "bytes32",
          "name": "newAdminRole",
          "type": "bytes32"
        }
      ],
      "name": "RoleAdminChanged",
      "type": "event"
    },
    {
      "anonymous": false,
      "inputs": [
        {
          "indexed": true,
          "internalType": "bytes32",
          "name": "role",
          "type": "bytes32"
        },
        {
          "indexed": true,
          "internalType": "address",
          "name": "account",
          "type": "address"
        },
        {
          "indexed": true,
          "internalType": "address",
          "name": "sender",
          "type": "address"
        }
      ],
      "name": "RoleGranted",
      "type": "event"
    },
    {
      "anonymous": false,
      "inputs": [
        {
          "indexed": true,
          "internalType": "bytes32",
          "name": "role",
          "type": "bytes32"
        },
        {
          "indexed": true,
          "internalType": "address",
          "name": "account",
          "type": "address"
        },
        {
          "indexed": true,
          "internalType": "address",
          "name": "sender",
          "type": "address"
        }
      ],
      "name": "RoleRevoked",
      "type": "event"
    },
    {
      "inputs": [],
      "name": "CREATOR_ROLE",
      "outputs": [
        {
          "internalType": "bytes32",
          "name": "",
          "type": "bytes32"
        }
      ],
      "stateMutability": "view",
      "type": "function"
    },
    {
      "inputs": [],
      "name": "DEFAULT_ADMIN_ROLE",
      "outputs": [
        {
          "internalType": "bytes32",
          "name": "",
          "type": "bytes32"
        }
      ],
      "stateMutability": "view",
      "type": "function"
    },
    {
      "inputs": [],
      "name": "DEFAULT_DAO_LIFETIME",
      "outputs": [
        {
          "internalType": "uint256",
          "name": "",
          "type": "uint256"
        }
      ],
      "stateMutability": "view",
      "type": "function"
    },
    {
      "inputs": [
        {
          "internalType": "uint256",
          "name": "",
          "type": "uint256"
        }
      ],
      "name": "allEventIds",
      "outputs": [
        {
          "internalType": "bytes32",
          "name": "",
          "type": "bytes32"
        }
      ],
      "stateMutability": "view",
      "type": "function"
    },
    {
      "inputs": [
        {
          "internalType": "string",
          "name": "eventName",
          "type": "string"
        },
        {
          "internalType": "string",
          "name": "eventDescription",
          "type": "string"
        },
        {
          "internalType": "uint256",
          "name": "lifetime",
          "type": "uint256"
        }
      ],
      "name": "createEventDAO",
      "outputs": [
        {
          "internalType": "bytes32",
          "name": "",
          "type": "bytes32"
        }
      ],
      "stateMutability": "nonpayable",
      "type": "function"
    },
    {
      "inputs": [
        {
          "internalType": "bytes32",
          "name": "",
          "type": "bytes32"
        }
      ],
      "name": "eventDAOs",
      "outputs": [
        {
          "internalType": "address",
          "name": "daoAddress",
          "type": "address"
        },
        {
          "internalType": "string",
          "name": "eventName",
          "type": "string"
        },
        {
          "internalType": "string",
          "name": "eventDescription",
          "type": "string"
        },
        {
          "internalType": "uint256",
          "name": "createdAt",
          "type": "uint256"
        },
        {
          "internalType": "uint256",
          "name": "expiresAt",
          "type": "uint256"
        },
        {
          "internalType": "bool",
          "name": "exists",
          "type": "bool"
        }
      ],
      "stateMutability": "view",
      "type": "function"
    },
    {
      "inputs": [],
      "name": "getActiveEventDAOs",
      "outputs": [
        {
          "internalType": "bytes32[]",
          "name": "",
          "type": "bytes32[]"
        }
      ],
      "stateMutability": "view",
      "type": "function"
    },
    {
      "inputs": [],
      "name": "getEventDAOCount",
      "outputs": [
        {
          "internalType": "uint256",
          "name": "",
          "type": "uint256"
        }
      ],
      "stateMutability": "view",
      "type": "function"
    },
    {
      "inputs": [],
      "name": "getExpiredEventDAOs",
      "outputs": [
        {
          "internalType": "bytes32[]",
          "name": "",
          "type": "bytes32[]"
        }
      ],
      "stateMutability": "view",
      "type": "function"
    },
    {
      "inputs": [
        {
          "internalType": "bytes32",
          "name": "role",
          "type": "bytes32"
        }
      ],
      "name": "getRoleAdmin",
      "outputs": [
        {
          "internalType": "bytes32",
          "name": "",
          "type": "bytes32"
        }
      ],
      "stateMutability": "view",
      "type": "function"
    },
    {
      "inputs": [
        {
          "internalType": "bytes32",
          "name": "role",
          "type": "bytes32"
        },
        {
          "internalType": "address",
          "name": "account",
          "type": "address"
        }
      ],
      "name": "grantRole",
      "outputs": [],
      "stateMutability": "nonpayable",
      "type": "function"
    },
    {
      "inputs": [
        {
          "internalType": "bytes32",
          "name": "role",
          "type": "bytes32"
        },
        {
          "internalType": "address",
          "name": "account",
          "type": "address"
        }
      ],
      "name": "hasRole",
      "outputs": [
        {
          "internalType": "bool",
          "name": "",
          "type": "bool"
        }
      ],
      "stateMutability": "view",
      "type": "function"
    },
    {
      "inputs": [
        {
          "internalType": "bytes32",
          "name": "role",
          "type": "bytes32"
        },
        {
          "internalType": "address",
          "name": "callerConfirmation",
          "type": "address"
        }
      ],
      "name": "renounceRole",
      "outputs": [],
      "stateMutability": "nonpayable",
      "type": "function"
    },
    {
      "inputs": [
        {
          "internalType": "bytes32",
          "name": "role",
          "type": "bytes32"
        },
        {
          "internalType": "address",
          "name": "account",
          "type": "address"
        }
      ],
      "name": "revokeRole",
      "outputs": [],
      "stateMutability": "nonpayable",
      "type": "function"
    },
    {
      "inputs": [],
      "name": "selfProtocolAddress",
      "outputs": [
        {
          "internalType": "address",
          "name": "",
          "type": "address"
        }
      ],
      "stateMutability": "view",
      "type": "function"
    },
    {
      "inputs": [
        {
          "internalType": "bytes4",
          "name": "interfaceId",
          "type": "bytes4"
        }
      ],
      "name": "supportsInterface",
      "outputs": [
        {
          "internalType": "bool",
          "name": "",
          "type": "bool"
        }
      ],
      "stateMutability": "view",
      "type": "function"
    },
    {
      "inputs": [],
      "name": "usdcToken",
      "outputs": [
        {
          "internalType": "address",
          "name": "",
          "type": "address"
        }
      ],
      "stateMutability": "view",
      "type": "function"
    }
  ],
  "bytecode": "0x608060405234801561001057600080fd5b50604051613f7a380380613f7a83398101604081905261002f916101bf565b6001600160a01b0382166100895760405162461bcd60e51b815260206004820152601460248201527f496e76616c696420555344432061646472657373000000000000000000000000604482015260640160405180910390fd5b600380546001600160a01b038085166001600160a01b03199283161790925560048054928416929091169190911790556100c46000336100f7565b506100ef7f828634d95e775031b9ff576b159a8509d3053581a8c9c4d7d86899e0afcd882f336100f7565b5050506101f2565b6000828152602081815260408083206001600160a01b038516845290915281205460ff16610199576000838152602081815260408083206001600160a01b03861684529091529020805460ff191660011790556101513390565b6001600160a01b0316826001600160a01b0316847f2f8788117e7eff1d82e926ec794901d17c78024a50270940304540a733656f0d60405160405180910390a450600161019d565b5060005b92915050565b80516001600160a01b03811681146101ba57600080fd5b919050565b600080604083850312156101d257600080fd5b6101db836101a3565b91506101e9602084016101a3565b90509250929050565b613d79806102016000396000f3fe608060405234801561001057600080fd5b506004361061010b5760003560e01c80635ef4e732116100a2578063a330977f11610071578063a330977f14610234578063d0ed06a11461023c578063d547741f1461024f578063d6899e2d14610262578063e5eb5d591461028757600080fd5b80635ef4e732146101df5780638aeda25a146101f257806391d1485414610219578063a217fddf1461022c57600080fd5b8063248a9ca3116100de578063248a9ca31461018a5780632f2ff15d146101ad57806336568abe146101c257806343150174146101d557600080fd5b806301ffc9a71461011057806311eac8551461013857806316e8b028146101635780631abf871d14610178575b600080fd5b61012361011e366004610bea565b61029a565b60405190151581526020015b60405180910390f35b60035461014b906001600160a01b031681565b6040516001600160a01b03909116815260200161012f565b61016b6102d1565b60405161012f9190610c1b565b6002545b60405190815260200161012f565b61017c610198366004610c5e565b60009081526020819052604090206001015490565b6101c06101bb366004610c77565b610406565b005b6101c06101d0366004610c77565b610431565b61017c62093a8081565b60045461014b906001600160a01b031681565b61017c7f828634d95e775031b9ff576b159a8509d3053581a8c9c4d7d86899e0afcd882f81565b610123610227366004610c77565b610469565b61017c600081565b61016b610492565b61017c61024a366004610c5e565b6105bc565b6101c061025d366004610c77565b6105dd565b610275610270366004610c5e565b610602565b60405161012f96959493929190610cf9565b61017c610295366004610d99565b610757565b60006001600160e01b03198216637965db0b60e01b14806102cb57506301ffc9a760e01b6001600160e01b03198316145b92915050565b60606000805b600254811015610332574260016000600284815481106102f9576102f9610e12565b9060005260206000200154815260200190815260200160002060040154111561032a578161032681610e3e565b9250505b6001016102d7565b5060008167ffffffffffffffff81111561034e5761034e610e57565b604051908082528060200260200182016040528015610377578160200160208202803683370190505b5090506000805b6002548110156103fd5760006002828154811061039d5761039d610e12565b9060005260206000200154905042600160008381526020019081526020016000206004015411156103f457808484815181106103db576103db610e12565b6020908102919091010152826103f081610e3e565b9350505b5060010161037e565b50909392505050565b60008281526020819052604090206001015461042181610a96565b61042b8383610aa3565b50505050565b6001600160a01b038116331461045a5760405163334bd91960e11b815260040160405180910390fd5b6104648282610b35565b505050565b6000918252602082815260408084206001600160a01b0393909316845291905290205460ff1690565b60606000805b6002548110156104f2574260016000600284815481106104ba576104ba610e12565b9060005260206000200154815260200190815260200160002060040154116104ea57816104e681610e3e565b9250505b600101610498565b5060008167ffffffffffffffff81111561050e5761050e610e57565b604051908082528060200260200182016040528015610537578160200160208202803683370190505b5090506000805b6002548110156103fd5760006002828154811061055d5761055d610e12565b90600052602060002001549050426001600083815260200190815260200160002060040154116105b3578084848151811061059a5761059a610e12565b6020908102919091010152826105af81610e3e565b9350505b5060010161053e565b600281815481106105cc57600080fd5b600091825260209091200154905081565b6000828152602081905260409020600101546105f881610a96565b61042b8383610b35565b6001602081905260009182526040909120805491810180546001600160a01b039093169261062f90610e6d565b80601f016020809104026020016040519081016040528092919081815260200182805461065b90610e6d565b80156106a85780601f1061067d576101008083540402835291602001916106a8565b820191906000526020600020905b81548152906001019060200180831161068b57829003601f168201915b5050505050908060020180546106bd90610e6d565b80601f01602080910402602001604051908101604052809291908181526020018280546106e990610e6d565b80156107365780601f1061070b57610100808354040283529160200191610736565b820191906000526020600020905b81548152906001019060200180831161071957829003601f168201915b50505050600383015460048401546005909401549293909290915060ff1686565b60007f828634d95e775031b9ff576b159a8509d3053581a8c9c4d7d86899e0afcd882f61078381610a96565b856107d55760405162461bcd60e51b815260206004820152601a60248201527f4576656e74206e616d652063616e6e6f7420626520656d70747900000000000060448201526064015b60405180910390fd5b6000878742336040516020016107ee9493929190610ea7565b60408051601f1981840301815291815281516020928301206000818152600190935291206005015490915060ff16156108695760405162461bcd60e51b815260206004820152601760248201527f4576656e7420494420616c72656164792065786973747300000000000000000060448201526064016107cc565b600080851161087b5762093a8061087d565b845b9050600061088b8242610ed3565b6003546004546040519293506000928d928d928d928d926001600160a01b03908116921690889033906108bd90610bdd565b6108ce989796959493929190610f0f565b604051809103906000f0801580156108ea573d6000803e3d6000fd5b5090506040518060c00160405280826001600160a01b031681526020018c8c8080601f016020809104026020016040519081016040528093929190818152602001838380828437600092019190915250505090825250604080516020601f8d018190048102820181019092528b815291810191908c908c90819084018382808284376000920182905250938552505042602080850191909152604080850188905260016060909501859052898452848252909220845181546001600160a01b0319166001600160a01b039091161781559184015191928301916109ce915082610fba565b50604082015160028201906109e39082610fba565b50606082015160038201556080820151600482015560a0909101516005909101805460ff1916911515919091179055600280546001810182556000919091527f405787fa12a823e0f2b7631cc41b3ba8828b3321ca811111fa75cd3aa3bb5ace0184905560405184907f3428bf3cbcef7278552a889b03622ee36c42ee5af3748f8ffd350f4f5b77d8e790610a7f908e908e9086908890611079565b60405180910390a250919998505050505050505050565b610aa08133610ba0565b50565b6000610aaf8383610469565b610b2d576000838152602081815260408083206001600160a01b03861684529091529020805460ff19166001179055610ae53390565b6001600160a01b0316826001600160a01b0316847f2f8788117e7eff1d82e926ec794901d17c78024a50270940304540a733656f0d60405160405180910390a45060016102cb565b5060006102cb565b6000610b418383610469565b15610b2d576000838152602081815260408083206001600160a01b0386168085529252808320805460ff1916905551339286917ff6391f5c32d9c69d2a47ea670b442974b53935d1edc7fd64eb21e047a839171b9190a45060016102cb565b610baa8282610469565b610bd95760405163e2517d3f60e01b81526001600160a01b0382166004820152602481018390526044016107cc565b5050565b612c9a806110aa83390190565b600060208284031215610bfc57600080fd5b81356001600160e01b031981168114610c1457600080fd5b9392505050565b602080825282518282018190526000918401906040840190835b81811015610c53578351835260209384019390920191600101610c35565b509095945050505050565b600060208284031215610c7057600080fd5b5035919050565b60008060408385031215610c8a57600080fd5b8235915060208301356001600160a01b0381168114610ca857600080fd5b809150509250929050565b6000815180845260005b81811015610cd957602081850181015186830182015201610cbd565b506000602082860101526020601f19601f83011685010191505092915050565b6001600160a01b038716815260c060208201819052600090610d1d90830188610cb3565b8281036040840152610d2f8188610cb3565b606084019690965250506080810192909252151560a0909101529392505050565b60008083601f840112610d6257600080fd5b50813567ffffffffffffffff811115610d7a57600080fd5b602083019150836020828501011115610d9257600080fd5b9250929050565b600080600080600060608688031215610db157600080fd5b853567ffffffffffffffff811115610dc857600080fd5b610dd488828901610d50565b909650945050602086013567ffffffffffffffff811115610df457600080fd5b610e0088828901610d50565b96999598509660400135949350505050565b634e487b7160e01b600052603260045260246000fd5b634e487b7160e01b600052601160045260246000fd5b600060018201610e5057610e50610e28565b5060010190565b634e487b7160e01b600052604160045260246000fd5b600181811c90821680610e8157607f821691505b602082108103610ea157634e487b7160e01b600052602260045260246000fd5b50919050565b8385823790920190815260609190911b6bffffffffffffffffffffffff19166020820152603401919050565b808201808211156102cb576102cb610e28565b81835281816020850137506000828201602090810191909152601f909101601f19169091010190565b60c081526000610f2360c083018a8c610ee6565b8281036020840152610f3681898b610ee6565b6001600160a01b03978816604085015295871660608401525050608081019290925290921660a090920191909152949350505050565b601f82111561046457806000526020600020601f840160051c81016020851015610f935750805b601f840160051c820191505b81811015610fb35760008155600101610f9f565b5050505050565b815167ffffffffffffffff811115610fd457610fd4610e57565b610fe881610fe28454610e6d565b84610f6c565b6020601f82116001811461101c57600083156110045750848201515b600019600385901b1c1916600184901b178455610fb3565b600084815260208120601f198516915b8281101561104c578785015182556020948501946001909201910161102c565b508482101561106a5786840151600019600387901b60f8161c191681555b50505050600190811b01905550565b60608152600061108d606083018688610ee6565b6001600160a01b0394909416602083015250604001529291505056fe608060405234801561001057600080fd5b50604051612c9a380380612c9a83398101604081905261002f91610360565b600180556001600160a01b03841661008e5760405162461bcd60e51b815260206004820152601460248201527f496e76616c69642055534443206164647265737300000000000000000000000060448201526064015b60405180910390fd5b4282116100dd5760405162461bcd60e51b815260206004820181905260248201527f45787069726174696f6e206d75737420626520696e20746865206675747572656044820152606401610085565b60026100e9878261048c565b5060036100f6868261048c565b50600482905560058054610100600160a81b0319166101006001600160a01b038781169190910291909117909155600680546001600160a01b03191691851691909117905560405161014c90879060200161054a565b60405160208183030381529060405260149081610169919061048c565b506040805180820190915260048152634644414f60e01b6020820152601590610192908261048c565b5061019e6000826101d5565b506101c97fa49807205ce4d355092ef5a8a18f56e8913cf4a201fbe287825b095693c21775826101d5565b5050505050505061058b565b6000828152602081815260408083206001600160a01b038516845290915281205460ff16610277576000838152602081815260408083206001600160a01b03861684529091529020805460ff1916600117905561022f3390565b6001600160a01b0316826001600160a01b0316847f2f8788117e7eff1d82e926ec794901d17c78024a50270940304540a733656f0d60405160405180910390a450600161027b565b5060005b92915050565b634e487b7160e01b600052604160045260246000fd5b60005b838110156102b257818101518382015260200161029a565b50506000910152565b600082601f8301126102cc57600080fd5b81516001600160401b038111156102e5576102e5610281565b604051601f8201601f19908116603f011681016001600160401b038111828210171561031357610313610281565b60405281815283820160200185101561032b57600080fd5b61033c826020830160208701610297565b949350505050565b80516001600160a01b038116811461035b57600080fd5b919050565b60008060008060008060c0878903121561037957600080fd5b86516001600160401b0381111561038f57600080fd5b61039b89828a016102bb565b602089015190975090506001600160401b038111156103b957600080fd5b6103c589828a016102bb565b9550506103d460408801610344565b93506103e260608801610344565b9250608087015191506103f760a08801610344565b90509295509295509295565b600181811c9082168061041757607f821691505b60208210810361043757634e487b7160e01b600052602260045260246000fd5b50919050565b601f82111561048757806000526020600020601f840160051c810160208510156104645750805b601f840160051c820191505b818110156104845760008155600101610470565b50505b505050565b81516001600160401b038111156104a5576104a5610281565b6104b9816104b38454610403565b8461043d565b6020601f8211600181146104ed57600083156104d55750848201515b600019600385901b1c1916600184901b178455610484565b600084815260208120601f198516915b8281101561051d57878501518255602094850194600190920191016104fd565b508482101561053b5786840151600019600387901b60f8161c191681555b50505050600190811b01905550565b680233630b9b42220a7960bd1b81526000825161056e816009850160208701610297565b65102a37b5b2b760d11b6009939091019283015250600f01919050565b6127008061059a6000396000f3fe608060405234801561001057600080fd5b50600436106102955760003560e01c80637b61c32011610167578063c033a490116100ce578063ce4b5bbe11610087578063ce4b5bbe146105f0578063d1da2f7c146105fb578063d547741f14610603578063f14faf6f14610616578063f3d3be1714610629578063fbfe6ca21461063257600080fd5b8063c033a49014610570578063c07473f614610593578063c1e16359146105b3578063c7a754bf146105c0578063cc6cb19a146105c8578063cde419a4146105e857600080fd5b806396f300d41161012057806396f300d4146105135780639b072d0c14610528578063a217fddf1461053b578063a24bcf4614610543578063b5545a3c14610556578063bc7316f21461055e57600080fd5b80637b61c320146104bc5780638043c9c0146104c45780638622a689146104cc57806390755c3b146104d557806391d14854146104f85780639434571b1461050b57600080fd5b80633a6a4d2e1161020b5780636c02a931116101c45780636c02a931146104385780636f95b3f31461044d578063705ed2731461045a57806370a082311461046d57806375b238fc1461048d578063777c658f146104b457600080fd5b80633a6a4d2e146103c95780633c03d33a146103d15780633dbf8cc5146103e45780634878676a14610407578063680958771461042757806369bc2f1e1461043057600080fd5b80631b0de7c01161025d5780631b0de7c014610341578063248a9ca31461036557806325de1092146103885780632f13b60c146103985780632f2ff15d146103a357806336568abe146103b657600080fd5b80630121b93f1461029a57806301ffc9a7146102af57806309eef43e146102d757806311eac855146102fa57806318160ddd1461032a575b600080fd5b6102ad6102a83660046120b4565b610652565b005b6102c26102bd3660046120cd565b6108f5565b60405190151581526020015b60405180910390f35b6102c26102e536600461211a565b600e6020526000908152604090205460ff1681565b6005546103129061010090046001600160a01b031681565b6040516001600160a01b0390911681526020016102ce565b61033360175481565b6040519081526020016102ce565b61035461034f3660046120b4565b61092c565b6040516102ce95949392919061217b565b6103336103733660046120b4565b60009081526020819052604090206001015490565b610333683635c9adc5dea0000081565b6004544210156102c2565b6102ad6103b13660046121c6565b610ae1565b6102ad6103c43660046121c6565b610b0c565b6102ad610b44565b6102ad6103df36600461223b565b610e17565b6103f76103f23660046120b4565b611195565b6040516102ce94939291906122e1565b6103336104153660046120b4565b600f6020526000908152604090205481565b61033360105481565b600b54610333565b6104406112ee565b6040516102ce919061232b565b6005546102c29060ff1681565b600654610312906001600160a01b031681565b61033361047b36600461211a565b60166020526000908152604090205481565b6103337fa49807205ce4d355092ef5a8a18f56e8913cf4a201fbe287825b095693c2177581565b601354610333565b61044061137c565b610440611389565b61033360045481565b6102c26104e336600461211a565b60086020526000908152604090205460ff1681565b6102c26105063660046121c6565b611396565b6104406113bf565b61051b6113cc565b6040516102ce919061233e565b6102ad6105363660046120b4565b61142e565b610333600081565b6103336105513660046120b4565b611593565b6102ad6116db565b6011546102c290610100900460ff1681565b6102c261057e36600461211a565b60126020526000908152604090205460ff1681565b6103336105a136600461211a565b600d6020526000908152604090205481565b6011546102c29060ff1681565b6102c2611a36565b6103336105d636600461211a565b600a6020526000908152604090205481565b6102ad611a57565b6103336305f5e10081565b600754610333565b6102ad6106113660046121c6565b611c4a565b6102ad6106243660046120b4565b611c6f565b61033360135481565b61033361064036600461211a565b60096020526000908152604090205481565b61065a611f46565b60045442106106845760405162461bcd60e51b815260040161067b9061238a565b60405180910390fd5b60115460ff16156106d75760405162461bcd60e51b815260206004820152601a60248201527f456c656374696f6e20616c726561647920636f6e636c75646564000000000000604482015260640161067b565b60075481106106f85760405162461bcd60e51b815260040161067b906123b3565b6007818154811061070b5761070b6123ea565b600091825260209091206003600490920201015460ff166107675760405162461bcd60e51b8152602060048201526016602482015275159bdb1d5b9d19595c881b9bdd08185c1c1c9bdd995960521b604482015260640161067b565b336000908152600d60205260409020546107b55760405162461bcd60e51b815260206004820152600f60248201526e2737903b37ba34b733903837bbb2b960891b604482015260640161067b565b336000908152600e602052604090205460ff16156108055760405162461bcd60e51b815260206004820152600d60248201526c105b1c9958591e481d9bdd1959609a1b604482015260640161067b565b3360009081526008602052604090205460ff161561085e5760405162461bcd60e51b8152602060048201526016602482015275566f6c756e74656572732063616e6e6f7420766f746560501b604482015260640161067b565b336000908152600d6020908152604080832054848452600f909252822080549192839261088c908490612416565b9091555050336000818152600e602052604090819020805460ff19166001179055518391907fb4cfecf70861b7b150d8337780d34fb4cbc2114b5fb1fe51a5c5fca1849f7274906108e09085815260200190565b60405180910390a3506108f260018055565b50565b60006001600160e01b03198216637965db0b60e01b148061092657506301ffc9a760e01b6001600160e01b03198316145b92915050565b600060608060008060078054905086106109585760405162461bcd60e51b815260040161067b906123b3565b60006007878154811061096d5761096d6123ea565b600091825260208083206004909202909101805460038201548b8552600f9093526040909320546001820180549295506001600160a01b039094169392600286019260ff909116919084906109c190612429565b80601f01602080910402602001604051908101604052809291908181526020018280546109ed90612429565b8015610a3a5780601f10610a0f57610100808354040283529160200191610a3a565b820191906000526020600020905b815481529060010190602001808311610a1d57829003601f168201915b50505050509350828054610a4d90612429565b80601f0160208091040260200160405190810160405280929190818152602001828054610a7990612429565b8015610ac65780601f10610a9b57610100808354040283529160200191610ac6565b820191906000526020600020905b815481529060010190602001808311610aa957829003601f168201915b50505050509250955095509550955095505091939590929450565b600082815260208190526040902060010154610afc81611f70565b610b068383611f7a565b50505050565b6001600160a01b0381163314610b355760405163334bd91960e11b815260040160405180910390fd5b610b3f828261200c565b505050565b610b4c611f46565b60115460ff16610b975760405162461bcd60e51b8152602060048201526016602482015275115b1958dd1a5bdb881b9bdd0818dbdb98db1d59195960521b604482015260640161067b565b60055460ff1615610be65760405162461bcd60e51b8152602060048201526019602482015278119d5b991cc8185b1c9958591e48191a5cdd1c9a589d5d1959603a1b604482015260640161067b565b601154610100900460ff1615610c325760405162461bcd60e51b8152602060048201526011602482015270139bc81dda5b9b995c88195b1958dd1959607a1b604482015260640161067b565b600454421015610c545760405162461bcd60e51b815260040161067b90612463565b6000600760105481548110610c6b57610c6b6123ea565b60009182526020909120600490910201546001600160a01b031690508015801590610ca657506010546000908152600f602052604090205415155b15610e0b576005546040516370a0823160e01b815230600482015260009161010090046001600160a01b0316906370a0823190602401602060405180830381865afa158015610cf9573d6000803e3d6000fd5b505050506040513d601f19601f82011682018060405250810190610d1d9190612490565b60055460405163a9059cbb60e01b81526001600160a01b038581166004830152602482018490529293506101009091049091169063a9059cbb906044016020604051808303816000875af1158015610d79573d6000803e3d6000fd5b505050506040513d601f19601f82011682018060405250810190610d9d91906124a9565b610db95760405162461bcd60e51b815260040161067b906124cb565b6005805460ff19166001179055604080516001600160a01b0384168152602081018390527f26536799ace2c3dbe12e638ec3ade6b4173dcf1289be0a58d51a5003015649bd91015b60405180910390a1505b50610e1560018055565b565b610e1f611f46565b6004544210610e405760405162461bcd60e51b815260040161067b9061238a565b3360009081526008602052604090205460ff1615610ea05760405162461bcd60e51b815260206004820152601f60248201527f416c7265616479207265676973746572656420617320766f6c756e7465657200604482015260640161067b565b336000908152600e602052604090205460ff1615610f005760405162461bcd60e51b815260206004820152601b60248201527f566f746572732063616e6e6f7420626520766f6c756e74656572730000000000604482015260640161067b565b84610f445760405162461bcd60e51b81526020600482015260146024820152734e616d652063616e6e6f7420626520656d70747960601b604482015260640161067b565b600654604051635edd020d60e01b81526001600160a01b0390911690635edd020d90610f7890339086908690600401612522565b602060405180830381865afa158015610f95573d6000803e3d6000fd5b505050506040513d601f19601f82011682018060405250810190610fb991906124a9565b610ffb5760405162461bcd60e51b8152602060048201526013602482015272496e76616c69642063726564656e7469616c7360681b604482015260640161067b565b60076040518060800160405280336001600160a01b0316815260200188888080601f016020809104026020016040519081016040528093929190818152602001838380828437600092019190915250505090825250604080516020601f8901819004810282018101909252878152918101919088908890819084018382808284376000920182905250938552505050602091820181905283546001808201865594825290829020835160049092020180546001600160a01b0319166001600160a01b039092169190911781559082015191929091908201906110dd90826125ab565b50604082015160028201906110f290826125ab565b50606091909101516003909101805491151560ff1992831617905533600090815260086020526040902080549091166001908117909155600754611136919061266a565b33600081815260096020526040908190209290925590517f65e14a3b08845268772acc470a74a6d8b79b9169ac5285d592ffcb6f541278749061117c908990899061267d565b60405180910390a261118d60018055565b505050505050565b600781815481106111a557600080fd5b6000918252602090912060049091020180546001820180546001600160a01b039092169350906111d490612429565b80601f016020809104026020016040519081016040528092919081815260200182805461120090612429565b801561124d5780601f106112225761010080835404028352916020019161124d565b820191906000526020600020905b81548152906001019060200180831161123057829003601f168201915b50505050509080600201805461126290612429565b80601f016020809104026020016040519081016040528092919081815260200182805461128e90612429565b80156112db5780601f106112b0576101008083540402835291602001916112db565b820191906000526020600020905b8154815290600101906020018083116112be57829003601f168201915b5050506003909301549192505060ff1684565b601480546112fb90612429565b80601f016020809104026020016040519081016040528092919081815260200182805461132790612429565b80156113745780601f1061134957610100808354040283529160200191611374565b820191906000526020600020905b81548152906001019060200180831161135757829003601f168201915b505050505081565b601580546112fb90612429565b600280546112fb90612429565b6000918252602082815260408084206001600160a01b0393909316845291905290205460ff1690565b600380546112fb90612429565b6060600b80548060200260200160405190810160405280929190818152602001828054801561142457602002820191906000526020600020905b81546001600160a01b03168152600190910190602001808311611406575b5050505050905090565b7fa49807205ce4d355092ef5a8a18f56e8913cf4a201fbe287825b095693c2177561145881611f70565b60075482106114795760405162461bcd60e51b815260040161067b906123b3565b6007828154811061148c5761148c6123ea565b600091825260209091206003600490920201015460ff16156114f05760405162461bcd60e51b815260206004820152601a60248201527f566f6c756e7465657220616c726561647920617070726f766564000000000000604482015260640161067b565b600160078381548110611505576115056123ea565b906000526020600020906004020160030160006101000a81548160ff02191690831515021790555060078281548110611540576115406123ea565b6000918252602091829020600490910201546040518481526001600160a01b03909116917f1b1215c7eff6e1e28a57d96a899e1c7b50ef09a7cef29b9f0c5eb25570df3a65910160405180910390a25050565b6000806115a58364e8d4a51000612691565b9050828110156115c05750683635c9adc5dea0000092915050565b60006305f5e1006115d9670de0b6b3a764000084612691565b6115e391906126a8565b90506115f86064670de0b6b3a76400006126a8565b81101561162d57670de0b6b3a764000061161b82683635c9adc5dea00000612691565b61162591906126a8565b949350505050565b600081670de0b6b3a7640000811161169757670de0b6b3a7640000838002046002810480831115611690578083039350670de0b6b3a76400008211611690576729a2241af62c000085830204670de0b6b3a764000081101561168e57938401935b505b50506116ab565b50683635c9adc5dea0000095945050505050565b50670de0b6b3a76400006116c882683635c9adc5dea00000612691565b6116d291906126a8565b95945050505050565b6116e3611f46565b60115460ff1661172e5760405162461bcd60e51b8152602060048201526016602482015275115b1958dd1a5bdb881b9bdd0818dbdb98db1d59195960521b604482015260640161067b565b60055460ff161561177d5760405162461bcd60e51b8152602060048201526019602482015278119d5b991cc8185b1c9958591e48191a5cdd1c9a589d5d1959603a1b604482015260640161067b565b601154610100900460ff166117c85760405162461bcd60e51b81526020600482015260116024820152702a3432b9329034b99030903bb4b73732b960791b604482015260640161067b565b6004544210156117ea5760405162461bcd60e51b815260040161067b90612463565b336000908152600a602052604090205461183f5760405162461bcd60e51b8152602060048201526016602482015275139bc8191bdb985d1a5bdb9cc81d1bc81c99599d5b9960521b604482015260640161067b565b3360009081526012602052604090205460ff16156118925760405162461bcd60e51b815260206004820152601060248201526f105b1c9958591e481c99599d5b99195960821b604482015260640161067b565b336000908152600a60205260408082205460055491516370a0823160e01b815230600482015290929161010090046001600160a01b0316906370a0823190602401602060405180830381865afa1580156118f0573d6000803e3d6000fd5b505050506040513d601f19601f820116820180604052508101906119149190612490565b9050600060135482846119279190612691565b61193191906126a8565b3360008181526012602052604090819020805460ff19166001179055600554905163a9059cbb60e01b815292935061010090046001600160a01b03169163a9059cbb916119969185906004016001600160a01b03929092168252602082015260400190565b6020604051808303816000875af11580156119b5573d6000803e3d6000fd5b505050506040513d601f19601f820116820180604052508101906119d991906124a9565b6119f55760405162461bcd60e51b815260040161067b906124cb565b60405181815233907f358fe4192934d3bf28ae181feda1f4bd08ca67f5e2fad55582cce5eb67304ae99060200160405180910390a2505050610e1560018055565b60115460009060ff168015611a525750601154610100900460ff165b905090565b611a5f611f46565b600454421015611a815760405162461bcd60e51b815260040161067b90612463565b60115460ff1615611ad45760405162461bcd60e51b815260206004820152601a60248201527f456c656374696f6e20616c726561647920636f6e636c75646564000000000000604482015260640161067b565b60008060005b600754811015611b4f5760078181548110611af757611af76123ea565b600091825260209091206003600490920201015460ff168015611b2757506000818152600f602052604090205483105b15611b47576000818152600f602052604090205460108290559250600191505b600101611ada565b506011805460ff19166001179055808015611b6a5750600082115b15611bef576000600760105481548110611b8657611b866123ea565b600091825260209182902060049091020154601054604080519182526001600160a01b039092169281018390529081018590529091507fbd6e6cda619bf8543e995b997970fedcc65aee3e52791dd5c821df665df1192a9060600160405180910390a150611c3f565b6011805461ff00191661010017905560408051600080825260208201819052918101919091527fbd6e6cda619bf8543e995b997970fedcc65aee3e52791dd5c821df665df1192a90606001610e01565b5050610e1560018055565b600082815260208190526040902060010154611c6581611f70565b610b06838361200c565b611c77611f46565b6004544210611c985760405162461bcd60e51b815260040161067b9061238a565b3360009081526008602052604090205460ff1615611cf85760405162461bcd60e51b815260206004820152601860248201527f566f6c756e74656572732063616e6e6f7420646f6e6174650000000000000000604482015260640161067b565b60008111611d485760405162461bcd60e51b815260206004820152601d60248201527f416d6f756e74206d7573742062652067726561746572207468616e2030000000604482015260640161067b565b6005546040516323b872dd60e01b8152336004820152306024820152604481018390526101009091046001600160a01b0316906323b872dd906064016020604051808303816000875af1158015611da3573d6000803e3d6000fd5b505050506040513d601f19601f82011682018060405250810190611dc791906124a9565b611de35760405162461bcd60e51b815260040161067b906124cb565b6000611dee82611593565b336000908152600c602052604090205490915060ff16611e6357600b805460018181019092557f0175b7a638427703f0dbe7bb9bbf987a2551717b34e79f33b5b1008d1fa01db90180546001600160a01b031916339081179091556000908152600c60205260409020805460ff191690911790555b336000908152600a602052604081208054849290611e82908490612416565b925050819055508160136000828254611e9b9190612416565b90915550503360009081526016602052604081208054839290611ebf908490612416565b925050819055508060176000828254611ed89190612416565b9091555050336000908152600d602052604081208054839290611efc908490612416565b9091555050604080518381526020810183905233917f4b0304ab2f313234b1cea012339c8f8c3bf2c8bb357d81a579cfdb35d2e3d030910160405180910390a2506108f260018055565b600260015403611f6957604051633ee5aeb560e01b815260040160405180910390fd5b6002600155565b6108f28133612077565b6000611f868383611396565b612004576000838152602081815260408083206001600160a01b03861684529091529020805460ff19166001179055611fbc3390565b6001600160a01b0316826001600160a01b0316847f2f8788117e7eff1d82e926ec794901d17c78024a50270940304540a733656f0d60405160405180910390a4506001610926565b506000610926565b60006120188383611396565b15612004576000838152602081815260408083206001600160a01b0386168085529252808320805460ff1916905551339286917ff6391f5c32d9c69d2a47ea670b442974b53935d1edc7fd64eb21e047a839171b9190a4506001610926565b6120818282611396565b6120b05760405163e2517d3f60e01b81526001600160a01b03821660048201526024810183905260440161067b565b5050565b6000602082840312156120c657600080fd5b5035919050565b6000602082840312156120df57600080fd5b81356001600160e01b0319811681146120f757600080fd5b9392505050565b80356001600160a01b038116811461211557600080fd5b919050565b60006020828403121561212c57600080fd5b6120f7826120fe565b6000815180845260005b8181101561215b5760208185018101518683018201520161213f565b506000602082860101526020601f19601f83011685010191505092915050565b6001600160a01b038616815260a06020820181905260009061219f90830187612135565b82810360408401526121b18187612135565b94151560608401525050608001529392505050565b600080604083850312156121d957600080fd5b823591506121e9602084016120fe565b90509250929050565b60008083601f84011261220457600080fd5b50813567ffffffffffffffff81111561221c57600080fd5b60208301915083602082850101111561223457600080fd5b9250929050565b6000806000806000806060878903121561225457600080fd5b863567ffffffffffffffff81111561226b57600080fd5b61227789828a016121f2565b909750955050602087013567ffffffffffffffff81111561229757600080fd5b6122a389828a016121f2565b909550935050604087013567ffffffffffffffff8111156122c357600080fd5b6122cf89828a016121f2565b979a9699509497509295939492505050565b6001600160a01b038516815260806020820181905260009061230590830186612135565b82810360408401526123178186612135565b915050821515606083015295945050505050565b6020815260006120f76020830184612135565b602080825282518282018190526000918401906040840190835b8181101561237f5783516001600160a01b0316835260209384019390920191600101612358565b509095945050505050565b6020808252600f908201526e111053c81a185cc8195e1c1a5c9959608a1b604082015260600190565b60208082526017908201527f496e76616c696420766f6c756e7465657220696e646578000000000000000000604082015260600190565b634e487b7160e01b600052603260045260246000fd5b634e487b7160e01b600052601160045260246000fd5b8082018082111561092657610926612400565b600181811c9082168061243d57607f821691505b60208210810361245d57634e487b7160e01b600052602260045260246000fd5b50919050565b602080825260139082015272111053c81b9bdd081e595d08195e1c1a5c9959606a1b604082015260600190565b6000602082840312156124a257600080fd5b5051919050565b6000602082840312156124bb57600080fd5b815180151581146120f757600080fd5b6020808252601490820152731554d110c81d1c985b9cd9995c8819985a5b195960621b604082015260600190565b81835281816020850137506000828201602090810191909152601f909101601f19169091010190565b6001600160a01b03841681526040602082018190526000906116d290830184866124f9565b634e487b7160e01b600052604160045260246000fd5b601f821115610b3f57806000526020600020601f840160051c810160208510156125845750805b601f840160051c820191505b818110156125a45760008155600101612590565b5050505050565b815167ffffffffffffffff8111156125c5576125c5612547565b6125d9816125d38454612429565b8461255d565b6020601f82116001811461260d57600083156125f55750848201515b600019600385901b1c1916600184901b1784556125a4565b600084815260208120601f198516915b8281101561263d578785015182556020948501946001909201910161261d565b508482101561265b5786840151600019600387901b60f8161c191681555b50505050600190811b01905550565b8181038181111561092657610926612400565b6020815260006116256020830184866124f9565b808202811582820484141761092657610926612400565b6000826126c557634e487b7160e01b600052601260045260246000fd5b50049056fea26469706673582212201b366059e4cc5b42a39d3463b3f6cb0577536a55185a7690f2bb43e1f1caf9f064736f6c634300081c0033a264697066735822122014ebd5ac2e72282a380b02083da1f35a14e4e459f0fea54ba86b63982faf8c0864736f6c634300081c0033",
  "linkReferences": {},
  "deployedLinkReferences": {}
}